:100000000C94C5330C94F6330C94F6330C94F633FD
:100010000C94F6330C94F6330C94F6330C94F633BC
:100020000C94F6330C94F6330C94F6330C94F633AC
:100030000C94F6330C9453CB0C94F6330C94F633A7
:100040000C94F6330C94C9BE0C94F6330C94F6332E
:100050000C94F6330C94F6330D94D6470C9409CBDC
:100060000C94F6330C941CE60C9412E60C94F633C4
:100070000C94F6330C94F6330C94F6330C94F6335C
:100080000C940EE10C94F6330C94F6330C94F63386
:100090000C94F6330C94F6330C94F6330C94F6333C
:1000A0000C94F6330C94F6330C94E1E00C94F63394
:1000B0000C94F6330C94F6330C94F6330C94B4E0B1
:1000C0000C94F6330C94F6330C94F6330C94F6330C
:1000D0000C94F6330C94F6330C94F6330C94F633FC
:1000E0000C94F633284DAD4BE34B644DE34BE34B9F
:1000F000E34BE34BE34BE34BE34BE34BE34BE34B90
:10010000E34BE34BE34BE34BE34BE34BE34BE34B7F
:10011000E34BE34BE34BE34BE34BE34BE34BE34B6F
:100120005E4DE34BE34BE34BE34BE34BE34BE34BE2
:10013000E34B374DE34BE34BE34BE34BE34BE34BF9
:10014000E34BE34BE34BE34B7B4DE04BDF6AE56A6C
:10015000606B276C776D826D926D4FE655E666E6B3
:1001600071E679E68EE67DE68EE681E685E68EE648
:100170008BE64602A001360238025A020E02FE0148
:1001800066015E01BE01BA016E01DA0160020E0273
:10019000EC019201F001FA010002A601CE018601F4
:1001A0005E02680252028C01F201100282016602B4
:1001B00050025E02160204027E01580142029E01B4
:1001C0002002AA0154013E028A01E001E601BC01BD
:1001D0000602084AD73B3BCE016E84BCBFFDC12F4F
:1001E0003D6C74319ABD56833DDA3D00C77F11BE28
:1001F000D9E4BB4C3E916BAAAABE000000803F052B
:10020000A84CCDB2D44EB93836A9020C50B991865B
:1002100088083CA6AAAA2ABE000000803F076342C5
:1002200036B79BD8A71A39685618AEBAAB558C1D8D
:100230003CB7CC5763BD6DEDFD753EF6177231BF0F
:10024000000000803F08000000BE922449123EAB2F
:10025000AAAA2ABECDCCCC4C3E00000080BEABAAE0
:10026000AAAA3E00000000BF000000803F0000007E
:100270000000084178D3BB4387D1133D190E3CC31E
:10028000BD4282AD2B3E68EC8276BED98FE1A93E9D
:100290004C80EFFFBE01C4FF7F3F00000000000064
:1002A0000D94DA3D0D94D85F0D940A2E0D94AE5640
:1002B0000D94262E0D941B5D0D94A0280D940C1EFC
:1002C0000D94F9290D9483280D94992B0D94061EF5
:1002D0000D943A560D947D2C0D94452C0D941A1EB8
:1002E0000D94F5550D9455170D94AF590D9428554F
:1002F0000D94A16D0D942C2E0D9458450D9443240E
:100300000D94F5290D940C240D94B61C0D94D42352
:100310000D94A4240D94192E0D94EE230D948D2C80
:100320000D94DE290D942C1E0D94961B0D94E82936
:100330000D943D170D94CD590D947C550D94042EBC
:100340000D94FE1D0D94E7550D94F1290D94C023D5
:100350000D9491560D94072E0D94852C0D94ED2936
:100360000D949A240D946D2C0D942D2B0D9418261C
:100370000D94652C0D94141E0D94132E0D94101EC7
:100380000D945D2C0D9481610D949D580D94662AF9
:100390000D94B51C0D94B8550D941B260D94CA23CD
:1003A0000D94C3590D9474560D9490550D94D929FC
:1003B0000D949F240D941E1E0D94F9590D941558FB
:1003C0000D94102E0D94A25E0D947A5C0D94242E43
:1003D0000D944D2C0D940E2B0D94281E0D94255A22
:1003E0000D94301E0D94F8230D9488580D94A52873
:1003F0000D9454550D94B6230D94F0590D94021E8E
:100400000D94BB230D9486170D9439240D94162E4C
:100410000D940F270D94C8590D9457560D94351E01
:100420000D9402240D94752C0D943E190D942F24D7
:100430000D946D7A0D94B5560D94AF280D94A55971
:100440000D94292E0D94E8260D94A0590D94B428EE
:100450000D94D2590D9468550D941D560D94B459B0
:100460000D94A4550D94AA590D94945E0D94ED1D10
:100470000D94F11D0D94EA190D9412560D940D2E44
:100480000D946D780D94012E0D94CC550D94FB1D9B
:100490000D945E250D943E550D94E3290D9451184D
:1004A0000D9425240D94E6230D94DA550D94552CC6
:1004B0000D94BE590D94F71D0D94E42B0D944D240D
:1004C0000D94221E0D94FD5C0D94B9590D941B24BE
:1004D0000D94DE230D94AA284E414E494E4954599D
:1004E000494E46CDCCCC3D0AD7233C17B7D13877FF
:1004F000CC2B329595E6241FB14F0A000020410015
:1005000000C84200401C4620BCBE4CCA1B0E5AAE5E
:10051000C59D7400407A10F35A00A0724E1809006D
:1005200010A5D4E80000E87648170000E40B540258
:100530000000CA9A3B000000E1F505000080969893
:1005400000000040420F000000A0860100000010E3
:100550002700000000E80300000000640000000025
:10056000000A00000000000100000000002C76D806
:1005700088DC674F0823DFC1DFAE59E1B1B796E5EC
:10058000E3E453C63AE651997696E8E6C28426EB50
:10059000898C9B62ED407C6FFCEFBC9C9F40F2BA63
:1005A000A56FA5F490055A2AF75C936B6CF9676DFB
:1005B000C11BFCE0E40D47FEF520E6B500D0ED9050
:1005C0002E0300943577050080841E080000204E1D
:1005D0000A000000C80C333333330F986E128311B6
:1005E00041EF8D2114893BE65516CFFEE6DB18D18D
:1005F000844B381BF77C1D901DA4BBE4242032845F
:10060000725E228100C9F124ECA1E53D27434F4DE4
:100610004D554E49434154494F4E0044525952554D
:100620004E004552524F525300494E464F004543EB
:10063000484F0047322F4733206261642070617257
:10064000616D65746572730A00536C6565702E2E5A
:100650002E00486F6D652058592066697273740AC0
:1006600000486F6D652058592066697273740020C8
:100670005A3A200020593A200042656420583A2016
:10068000004D65736820706F696E742063616E6ED3
:100690006F74206265207265736F6C7665640A0002
:1006A000436C69636B20746F20726573756D652E82
:1006B0002E2E004E6F206D6F76652E00456E6420E5
:1006C00066696C65206C6973740A00426567696EBF
:1006D0002066696C65206C6973740A00286E6F204F
:1006E00066696C65290043757272656E742066696F
:1006F0006C653A20005344207072696E74696E67AD
:10070000206279746520004E6F742053442070720B
:10071000696E74696E670A002E0A0044656C657420
:10072000696F6E206661696C65642C2046696C6532
:100730003A200046696C652064656C657465643AAE
:10074000002569730025696D202569730025696896
:100750002025696D20256973002569642025696855
:100760002025696D20256973002569792025696434
:10077000202569682025696D2025697300507269FC
:100780006E742074696D653A20004520436F6F6C6C
:10079000696E672E2E2E00452048656174696E676C
:1007A0002E2E2E006F6666002E06290622061B06D8
:1007B0000D0644454255473A004D31313320530030
:1007C00042656420636F6F6C696E672E2E2E004247
:1007D00065642068656174696E672E2E2E006F6BEC
:1007E0000043522D3130205335204F46462E0043D2
:1007F00048414D4245525F54454D50455241545534
:100800005245004D4F54494F4E5F4D4F44455300A4
:10081000544845524D414C5F50524F544543544902
:100820004F4E004155544F5245504F52545F534420
:100830005F5354415455530050524F4D50545F53E1
:100840005550504F525400454D455247454E43591F
:100850005F50415253455200434153455F4C494715
:1008600048545F4252494748544E45535300544FF1
:1008700047474C455F4C494748545300534F4654F3
:10088000574152455F504F574552004255494C44DD
:100890005F50455243454E54004C4556454C494ED9
:1008A000475F44415441005A5F50524F4245004116
:1008B00055544F4C4556454C005052494E545F4A92
:1008C0004F420050524F4752455353004155544FE9
:1008D0005245504F52545F54454D5000564F4C5561
:1008E0004D455452494300454550524F4D004249F1
:1008F0004E4152595F46494C455F5452414E534612
:1009000045520053455249414C5F584F4E5F584F36
:100910004646004649524D574152455F4E414D456E
:100920003A4D61726C696E206275676669782D3226
:100930002E302E7820284769746875622920534F1D
:10094000555243455F434F44455F55524C3A687496
:100950007470733A2F2F6769746875622E636F6DB8
:100960002F4D61726C696E4669726D776172652F89
:100970004D61726C696E2050524F544F434F4C5F23
:1009800056455253494F4E3A312E30204D4143483F
:10099000494E455F545950453A43522D313020530A
:1009A000352045585452554445525F434F554E5497
:1009B0003A3120555549443A63656465326132667F
:1009C0002D343161322D343734382D396231322DA6
:1009D0006335356336326633363766660A002F2F45
:1009E00020004D31343520533C696E6465783E20DB
:1009F0006F7574206F662072616E67652028302DD8
:100A000031290A00205400205200416363656C655F
:100A1000726174696F6E3A205000205A00205900AC
:100A2000580020204D61783A2000205A00205900BB
:100A3000580020204D696E3A2000536F667420657F
:100A40006E6473746F70733A200020466C6F773A4F
:100A5000200050726F7465637465642050696E0A7B
:100A600000206F7574206F662072616E67650A00E2
:100A7000536572766F20003A200020536572766FBE
:100A8000200050726F6265205A204F66667365744D
:100A90003A2000496E76616C6964206578747275DD
:100AA0006465720A0020643A0020693A0020703AB6
:100AB0000064697300656E0043290A0061626C6519
:100AC0006420286D696E2074656D702000436F6C22
:100AD00064206578747275646573206172652000A6
:100AE0004F4646004F4E0046696C616D656E74203E
:100AF00072756E6F757420004D65736820706F6934
:100B00006E742063616E6E6F74206265207265730F
:100B10006F6C7665640A004D34323120696E636F04
:100B2000727265637420706172616D6574657220A4
:100B300075736167650A004F66667365747320613B
:100B400070706C696564004572723A20546F6F2052
:100B50006661722100546F6F206661722066726F49
:100B60006D207265666572656E636520706F696E73
:100B7000740A00454550524F4D204F4B0A003F5AD2
:100B8000206F7574206F662072616E676520282D56
:100B9000323020746F203230290A0050726F626543
:100BA000205A204F66667365743A20002364656698
:100BB000696E652044454641554C545F004B6420A6
:100BC000004B6920004B702000504944204175744F
:100BD0006F74756E652066696E697368656421203F
:100BE00050757420746865206C617374204B702C90
:100BF000204B6920616E64204B6420636F6E7374B8
:100C0000616E74732066726F6D2062656C6F772001
:100C1000696E746F20436F6E66696775726174697F
:100C20006F6E2E680A00504944204175746F7475C8
:100C30006E65206661696C6564212074696D656FFD
:100C400075740A00453120544845524D414C20529C
:100C5000554E4157415900546865726D616C205280
:100C6000756E617761790045312048656174696E00
:100C700067206661696C65640048656174696E67C8
:100C8000206661696C656400504944204175746F49
:100C900074756E65206661696C6564212054656DAC
:100CA000706572617475726520746F6F2068696712
:100CB000680A00204B643A2000204B693A2000204B
:100CC0004B703A20000A20436C61737369632050B3
:100CD0004944200A002054753A2000204B753A20E0
:100CE00000206D61783A2000206D696E3A20002066
:100CF000643A200020626961733A20005049442020
:100D00004175746F74756E652073746172740A0036
:100D1000504944204175746F74756E652066616931
:100D20006C6564212054656D7065726174757265BF
:100D300020746F6F20686967680A00504944204139
:100D400075746F74756E65206661696C65642120C9
:100D5000426164206578747275646572206E756D89
:100D60006265720A004572723A20757466382066B0
:100D70006F6E74206E6F7420696E697469616C693E
:100D80007A65642E004572723A2075746638206662
:100D90006F6E74206E6F7420696E697469616C691E
:100DA0007A65642E004572723A2075746638206642
:100DB0006F6E74206E6F7420696E697469616C69FE
:100DC0007A65642E0000060C00FE07022603BC01B3
:100DD0007FFE08FE08FE05080806000040F0C888EF
:100DE00088987810050808060000C0F88888888868
:100DF00088F80505050600012030F83020050808B0
:100E00000600002070F820202020E00509090600D7
:100E1000FF2070A8A8B88888702005060606000183
:100E2000E08CEA8C8A0A0509090600FFF8A8888880
:100E3000888888A8F8050A0A0600FE2050505050FD
:100E400088A8A8887003030306000340A040FFFFA2
:100E5000FFFFFFFFFFFFFFFFFFFFFFFFFFFFFFFFA2
:100E6000FFFFFFFF0000000605FF01070706020065
:100E700080808080800080030303060105A0A0A07D
:100E800005060606000050F85050F85005090906FE
:100E900000FF2070A8A07028A87020050707060092
:100EA00000C8C8102040989805070706000040A019
:100EB000A040A89068010303060205808080030912
:100EC000090601FF2040408080804040200309093E
:100ED0000601FF8040402020204040800507070693
:100EE000000020A8702070A820050505060001203C
:100EF00020F820200203030601FFC0408005010105
:100F0000060003F8020202060100C0C0050707063A
:100F10000000081010204040800507070600007000
:100F20008898A8C8887003070706010040C04040A1
:100F30004040E0050707060000708808102040F8D0
:100F4000050707060000F808103008887005070735
:100F500006000010305090F810100507070600003A
:100F6000F880F00808887005070706000030408008
:100F7000F0888870050707060000F8081010202088
:100F800020050707060000708888708888700507AC
:100F900007060000708888780810600205050601C1
:100FA00000C0C000C0C00206060601FFC0C000C0ED
:100FB0004080030505060101204080402005030311
:100FC000060002F800F803050506010180402040F4
:100FD0008005070706000070881020200020050704
:100FE000070600007088B8A8B880700507070600DB
:100FF00000708888F8888888050707060000F04890
:1010000048704848F0050707060000708880808017
:101010008870050707060000F04848484848F00572
:101020000707060000F88080F08080F805070706B3
:101030000000F88080F080808005070706000070BF
:10104000888080988870050707060000888888F8DF
:10105000888888030707060100E04040404040E0E0
:1010600005070706000038101010109060050707EC
:101070000600008890A0C0A0908805070706000021
:10108000808080808080F805070706000088D8A847
:10109000888888880507070600008888C8A8988877
:1010A000880507070600007088888888887005070B
:1010B00007060000F08888F080808005070706009A
:1010C0000070888888A89068050707060000F088E7
:1010D00088F0A090880507070600007088807008D7
:1010E0008870050707060000F82020202020200532
:1010F0000707060000888888888888700507070623
:10110000000088888888505020050707060000885E
:10111000888888A8A85005070706000088885020FE
:101120005088880507070600008888502020202066
:10113000050707060000F80810204080F803090999
:101140000601FFE080808080808080E00507070640
:101150000000804040201010080309090601FFE04C
:1011600020202020202020E0050303060005205039
:10117000880501010600FEF803030306010580400F
:101180002005050506000070087888780507070621
:1011900000008080F0888888F00505050600007052
:1011A000808088700507070600000808788888880E
:1011B000780505050600007088F0807005070706B1
:1011C0000000304840E04040400507070600FE7040
:1011D0008888887808700507070600008080F088F6
:1011E0008888880307070601004000C0404040E0AF
:1011F0000409090601FE100030101010109060055F
:10120000070706000080808890E0908803070706A3
:101210000100C04040404040E0050505060000D008
:10122000A8A8A8A8050505060000B0C888888805F4
:10123000050506000070888888700507070600FE0F
:10124000F0888888F080800507070600FE78888887
:1012500088780808050505060000B0C8808080056C
:10126000050506000078807008F0050707060000F5
:101270002020F82020201805050506000088888811
:101280009868050505060000888888502005050532
:101290000600008888A8A8500505050600008850AB
:1012A0002050880507070600FE8888885020408067
:1012B000050505060000F8102040F803090906019D
:1012C000FF2040404080404040200109090602FFC5
:1012D0008080808080808080800309090601FF80F3
:1012E000404040204040408005030306000248A8DB
:1012F00090FF4C6F6164206D6D004C6F6164206DD8
:101300006D00556E6C6F6164206D6D00556E6C6F75
:101310006164206D6D0046696C2E204469612E0069
:1013200046696C2E204469612E004F6666004F6E40
:10133000004520696E206D6D5E3300416476616EFC
:101340006365642053657474696E677300200820B8
:101350004661637400200820466163740020082001
:101360004D6178002008204D6178002008204D69EB
:101370006E002008204D696E004F6666004F6E00BB
:101380004175746F74656D7000416476616E63655C
:10139000642053657474696E677300565472617685
:1013A000206D696E005654726176206D696E00562C
:1013B0006D696E00566D696E00566D61782045004E
:1013C000566D6178204500566D6178205A00566D43
:1013D0006178205A00566D6178205900566D617809
:1013E000205900566D6178205800566D617820585C
:1013F00000416476616E6365642053657474696E40
:10140000677300416D6178204500416D617820452A
:1014100000416D6178205A00416D6178205A004189
:101420006D6178205900416D6178205900416D61EE
:1014300078205800416D6178205800412D74726108
:1014400076656C00412D74726176656C00412D7279
:1014500065747261637400412D72657472616374A6
:1014600000416363656C00416363656C00416476B1
:10147000616E6365642053657474696E677300659B
:1014800063686F3A004572726F723A00204A00201A
:10149000204D34323120490020204732392049394B
:1014A000390A006163746976650A00696E0000207C
:1014B00053797374656D2076312E303120002020F1
:1014C000207C0A004E414E0020202E2020200020AB
:1014D0007C004C43443A0A004353563A0A002066C3
:1014E0006F7220003A0A0A000A42656420546F7045
:1014F0006F677261706879205265706F727400470F
:10150000323800446F6E652E0A003F496E76616C7A
:1015100069642073746F7261676520736C6F742ED9
:101520000A3F557365203020746F20003F454550B9
:10153000524F4D2073746F72616765206E6F742017
:10154000617661696C61626C652E0A00446F6E653C
:101550002E0A003F496E76616C69642073746F7265
:1015600061676520736C6F742E0A3F557365203078
:1015700020746F20003F454550524F4D2073746FCB
:1015800072616765206E6F7420617661696C61625B
:101590006C652E0A004732392050322066696E6928
:1015A000736865642E0A005859206F7574736964F6
:1015B00065207072696E7461626C65207261646925
:1015C00075732E0A003F4572726F7220696E204259
:1015D0007573696E6573732043617264206D656114
:1015E000737572656D656E742E0A004D616E75615E
:1015F0006C6C792070726F62696E6720756E7265AF
:1016000061636861626C65206D657368206C6F63EF
:101610006174696F6E732E0A00292E0A0A005072D7
:101620006F62696E672061726F756E642028004D6D
:1016300065736820696E76616C6964617465642E97
:101640002050726F62696E67206D6573682E0A00A4
:101650004D657368207A65726F65642E0A00446573
:101660006661756C742073746F7261676520736C4A
:101670006F7420302073656C65637465642E0A0096
:101680004C6F6164696E6720746573745F70617418
:101690007465726E2076616C7565732E0A0A004956
:1016A0006E76616C696420746573745F70617474C4
:1016B00065726E2076616C75652E20282D31207440
:1016C0006F2032290A0A004C6F636174696F6E7370
:1016D00020696E76616C6964617465642E0A0A0023
:1016E000456E74697265204D65736820696E766118
:1016F0006C6964617465642E0A0A000900000A01BD
:101700000008000A01000A090000000A0008000A97
:101710001705170017FB165D0A00436F756C6420F0
:101720006E6F7420636F6D706C657465204C5346EA
:101730002100436F727265637465645F5A3D0054A3
:10174000696C74696E6720706F696E742025692FEB
:101750002569000A0A002F0054696C74696E6720BD
:101760006D65736820706F696E7420003F457272FA
:101770006F722070726F62696E6720706F696E742D
:101780002E2041626F7274696E67206F706572619E
:1017900074696F6E2E0A00436F72726563746564BC
:1017A0005F5A3D0054696C74696E6720706F696E92
:1017B0007420332F330054696C74696E67206D6533
:1017C00073682028332F33290A00436F72726563D0
:1017D0007465645F5A3D0054696C74696E6720706B
:1017E0006F696E7420322F330054696C74696E67B0
:1017F000206D6573682028322F33290A00436F72E9
:101800007265637465645F5A3D0054696C74696EF7
:101810006720706F696E7420312F330054696C74C7
:10182000696E67206D6573682028312F33290A009F
:10183000646F6E650A00496E7375666669636965F3
:101840006E7420646174610A004578747261706F0F
:101850006C6174696E67206D6573682E2E2E00535F
:10186000544F502063616C6C6564206265636175E0
:101870007365206F6620424C546F756368206572F3
:10188000726F72202D207265737461727420776993
:101890007468204D3939390A0053544F5020636120
:1018A0006C6C65642062656361757365206F66208A
:1018B000424C546F756368206572726F72202D20E0
:1018C000726573746172742077697468204D393958
:1018D000390A00486F74656E6420746F6F20636FFF
:1018E0006C640A004D3630303A20546F6F20636FBD
:1018F0006C6400486F74656E6420746F6F20636F52
:101900006C640A00507265737320627574746F6E34
:1019100020286F72204D3130382920746F20726575
:1019200073756D650A00496E736572742066696C23
:10193000616D656E7420616E6420707265737320D2
:10194000627574746F6E20286F72204D31303829A3
:101950000A003F004E65787420636F726E657200F6
:10196000446F6E65004E65787400436D643A205391
:10197000746F7700436D643A204465706C6F790032
:10198000436D643A2053656C662D5465737400434F
:101990006D643A2053572D4D6F646500436D643A72
:1019A00020526573657400436F6E66696775726176
:1019B00074696F6E0053746F726520736574746917
:1019C0006E67730042656400426564004E6F7A7A08
:1019D0006C65004E6F7A7A6C650046616E2073709C
:1019E0006565640046616E20737065656400436FD1
:1019F0006E66696775726174696F6E004C6F6164C1
:101A00002073657474696E677300526573746F72C6
:101A100065206661696C736166650053746F7265F9
:101A20002073657474696E677300507265686561D0
:101A3000742041425320636F6E6600507265686582
:101A4000617420504C4120636F6E66004F666600E3
:101A50004F6E0052756E6F75742053656E736F72A2
:101A600000424C546F7563680050726F6265205A73
:101A7000204F666673657400416476616E636564C9
:101A80002053657474696E6773004D61696E004D13
:101A900037303220542564004D363030204230201B
:101AA000542564004D373032203B2564004D3730DB
:101AB0003120542564004368616E67652066696C57
:101AC000616D656E74005072656865617420437560
:101AD00073746F6D00507265686561742041425384
:101AE000005072656865617420437573746F6D0092
:101AF0005072656865617420504C41004261636BAF
:101B000000436F6E74696E7565004F6666004F6EB8
:101B10000052756E6F75742053656E736F7200504E
:101B200075726765206D6F726500524553554D455E
:101B3000204F5054494F4E533A005052494E542072
:101B400050415553454400554E4C4F414420464961
:101B50004C414D454E54004C4F41442046494C4168
:101B60004D454E540020204E6F7A7A6C653A200025
:101B70002000507265737320627574746F6E202834
:101B80006F72204D3130382920746F206865617480
:101B9000206E6F7A7A6C650A00496E7365727420E4
:101BA00066696C616D656E7420616E64207072652B
:101BB000737320627574746F6E20286F72204D31BC
:101BC0003038290A004732362048656174696E67EB
:101BD000204E6F7A7A6C652E004732362048656158
:101BE00074696E67204265642E0057616974696E7E
:101BF0006720666F72206865617475702E0A0044F4
:101C00006F6E65205072696D696E670055736572FD
:101C10002D436F6E74726F6C6C6564205072696DC9
:101C200065004669786564204C656E67746820506D
:101C300072696D652E004D6573682056616C69642C
:101C40006174696F6E2053746F707065642E004C00
:101C5000656176696E6720473236003F5370656371
:101C6000696669656420582C5920636F6F726469D6
:101C70006E617465206F7574206F6620626F756E7B
:101C800064732E0A003F28522965706561742076BE
:101C9000616C7565206E6F7420706C61757369621C
:101CA0006C653B206D757374206265206174206CD7
:101CB0006561737420312E0A003F53706563696655
:101CC000696564206E6F7A7A6C652074656D7065E5
:101CD000726174757265206E6F7420706C617573BB
:101CE00069626C652E0A003F5370656369666965B9
:101CF000642066696C616D656E742073697A652015
:101D00006E6F7420706C61757369626C652E0A0069
:101D10003F537065636966696564207072696D65BB
:101D2000206C656E677468206E6F7420706C6175CE
:101D30007369626C652E0A003F537065636966695A
:101D40006564206E6F7A7A6C652073697A65206E9F
:101D50006F7420706C61757369626C652E0A003F48
:101D600052657472616374696F6E204D756C74692D
:101D7000706C696572206D75737420626520737074
:101D8000656369666965642E0A003F53706563691F
:101D9000666965642052657472616374696F6E2050
:101DA0004D756C7469706C696572206E6F7420700B
:101DB0006C61757369626C652E0A003F53706563D0
:101DC0006966696564206C61796572206865696718
:101DD0006874206E6F7420706C61757369626C65D5
:101DE0002E0A0043292E0A003F5370656369666915
:101DF0006564206265642074656D706572617475D8
:101E00007265206E6F7420706C61757369626C65A9
:101E1000202834302D004732362073746172746983
:101E20006E672E2E2E0A0047323920503420582556
:101E300073205925732052256900202D2D2D2D2D1D
:101E4000000000803F8EE35C428EE3DA42AAAA23C0
:101E5000438EE35943390E8843AA2AA3431C47BE45
:101E6000438E63D9430080F44339CE0744725C1536
:101E700044AAEA2244E37830441C073E4455954B7B
:101E8000440000803F555561425555DF4200002710
:101E90004355555E4355D58A430080A643AA2AC2BE
:101EA0004355D5DD430080F94355950A44AA6A1885
:101EB000440040264455153444AAEA414400C04F2A
:101EC00044473238004F7574707574204D657368DF
:101ED000204D6170004F6666205072696E746572A5
:101EE000204261636B75700047323920532D3100F9
:101EF0004F757470757420666F7220435356004797
:101F00003239205431004F757470757420666F72C9
:101F100020486F73740047323920543000556E6981
:101F20006669656420426564204C6576656C696EFF
:101F300067004D657368204C6576656C696E670057
:101F400045646974204D6573680056616C6964610D
:101F50007465204D657368004D616E75616C6C79B8
:101F6000204275696C64204D6573680047323920E2
:101F7000493939390A473239205032204220543009
:101F8000004275696C64204D65736800556E696622
:101F900069656420426564204C6576656C696E678E
:101FA0000037205361766520426564204D65736873
:101FB00000362046696E652054756E6520416C6C54
:101FC00000473239205034205239393920540035F5
:101FD0002056616C6964617465204D6573680034D6
:101FE0002046696E652054756E6520416C6C004713
:101FF0003239205034205239393920540033205698
:10200000616C6964617465204D65736800322053AA
:102010006D6172742046696C6C2D696E00473239AF
:102020002050332054300031204275696C642043C5
:102030006F6C64204D657368004732380A47323947
:1020400020503100556E69666965642042656420E0
:102050004C6576656C696E6700466164652048650D
:1020600069676874004661646520486569676874DB
:10207000004F75747075742055424C20496E666F20
:102080000047323920570055424C20546F6F6C7313
:10209000004F7574707574204D657368204D6170C4
:1020A000004D6573682053746F72616765004D65FC
:1020B0007368204564697400537465702D42792DEE
:1020C000537465702055424C0041637469766174A5
:1020D000652055424C004732392041004465616318
:1020E0007469766174652055424C0047323920444A
:1020F000004D6F74696F6E0023206F662073616DF1
:10210000706C65733A20000A4D657368206F6E6CC1
:1021100079207061727469616C6C7920706F707570
:102120006C617465642E0A0A0050726F62696E6792
:1021300020706F696E742025692F2569002E0A0AA8
:10214000002F000A50726F62696E67206D657368B8
:1021500020706F696E74200020616E642074616B62
:10216000652061206D6561737572656D656E742E95
:102170000A006D6D20746869636B2E0A0052656DEC
:102180006F76652026206D656173757265206265C6
:10219000640052656D6F7665207368696D00506CE0
:1021A000616365207368696D2026206D65617375B4
:1021B000726500506C616365207368696D20756E8F
:1021C000646572206E6F7A7A6C65000A4D6573687B
:1021D000206F6E6C79207061727469616C6C79200B
:1021E000706F70756C617465642E0A004D65617363
:1021F00075726500506C616365207368696D202697
:10220000206D656173757265004D6F76696E67202C
:10221000746F206E657874004D657368204564693D
:1022200074696E672053746F7070656400446F6EDC
:10223000652045646974696E67204D6573680A009E
:10224000446F6E652045646974696E67204D6573DF
:10225000680046696E652054756E696E67204D652D
:1022600073680028582C5929206F75747369646548
:10227000207072696E7461626C6520726164697548
:10228000732E0A004F6666736574206F7574206F35
:102290006620626F756E64732E20283020746F2064
:1022A00031306D6D290A0A00496E76616C696420CF
:1022B0006D617020747970652E0A0A003F284629E6
:1022C0006164652068656967687420666F72204282
:1022D0006564204C6576656C20436F72726563742B
:1022E000696F6E206E6F7420706C61757369626CBB
:1022F000652E0A0A003F43616E277420616374698A
:102300007661746520616E642064656163746976CA
:10231000617465206174207468652073616D652047
:1023200074696D652E0A0A00426F74682058202671
:102330002059206C6F636174696F6E73206D7573C3
:1023400074206265207370656369666965642E0A2E
:102350000A003F496E76616C696420677269642087
:1023600073697A6520284A292073706563696669F4
:1023700065642028322D39292E0A0A003F28502969
:10238000686173652076616C756520696E76616C35
:1023900069642028302D36292E0A0A003F28562944
:1023A0006572626F7365206C6576656C2069732059
:1023B000696D706C61757369626C652028302D34AD
:1023C000292E0A0A003F28522965706574697469CC
:1023D0006F6E20636F756E7420696E76616C6964D0
:1023E0002028312B292E0A0A00446F696E67204786
:1023F0003239000000FA430000F5430000FF4300BB
:10240000000000000000000000000050726F6269D0
:102410006E67206661696C65640A0050726F62695C
:102420006E67206661696C65640024F4D43050C323
:102430008E20C2A24017828B7011127A910D816C8E
:10244000D90AA861E108C7586607615143061E4BC7
:102450005D05C145A7041A411104093D980371396E
:1024600031034036DB0265339102D4305402802EB2
:102470001D02632CEE01752AC501B028A0011027AA
:1024800081018F2564012B244B01E0223401AC2112
:102490001F018D200D01801FFC00841EED00971D83
:1024A000DF00B81CD200E61BC600201BBC00641A6B
:1024B000B200B219A8000A19A0006A189900D11731
:1024C000910040178B00B516840031167E00B315BD
:1024D00079003A157300C7146F0058146A00EE13A0
:1024E00066008813630025135E00C7125B006C1240
:1024F000570015125400C111510070114F002111E5
:102500004B00D61049008D104700461044000210C1
:102510004200C00F4000800F3E00420F3C00060FFB
:102520003B00CB0E3800930E37005C0E3500270EB3
:102530003400F30D3200C10D3100900D3000600DFC
:102540002E00320D2D00050D2C00D90C2B00AE0CE9
:102550002900850C29005C0C2700350C27000E0C87
:102560002600E80B2400C40B2400A00B23007D0BE5
:1025700023005A0B2100390B2100180B2000F80A08
:102580001F00D90A1E00BB0A1E009D0A1D00800AFA
:102590001D00630A1C00470A1B002C0A1B00110ABD
:1025A0001A00F7091A00DD091900C4091900AB095E
:1025B0001900920917007B091800630917004C09DC
:1025C000160036091600200916000A091500F5083C
:1025D0001500E0081400CC081400B8081400A40882
:1025E0001400900813007D0812006B0813005808AF
:1025F00012004608120034081100230811001208C6
:10260000110001081100F0071000E0071000D007CA
:102610001000C0071000B0070F00A10710009107BD
:102620000E0083070F0074070F0065070E005707A1
:102630000E0049070E003B070D002E070E00200775
:102640000D0013070D0006070D00F9060C00ED063E
:102650000D00E0060C00D4060C00C8060C00BC06F9
:102660000C00B0060C00A4060B0099060C008D06A9
:102670000B0082060B0077060B006C060B00610650
:102680000A0057060B004C060A0042060A003806EC
:102690000A002E060A0024060A001A060A0010067E
:1026A000090007060A00FD050900F4050900EB050D
:1026B0000900E2050900D9050900D0050900C70590
:1026C0000900BE050900B5050800AD050800A5050F
:1026D00009009C050800940508008C050800840585
:1026E00008007C050800740508006C0507006505F6
:1026F00008005D050700560508004E050700470560
:1027000007004005080038050700310507002A05C5
:102710000700230507001C050600160507000F0526
:1027200007000805060002050700FB040600F50483
:102730000700EE040600E8040600E2040700DB04DC
:102740000600D5040600CF040600C9040600C30431
:102750000600BD040600B7040600B1040500AC0481
:102760000600A6040600A00405009B0406009504CC
:102770000500900406008A04050085040500800415
:1027800006007A04050075040500700405006B045A
:10279000050066040500610405005C04050057049B
:1027A0000500520405004D040500480405004304DB
:1027B00005003E0404003A04050035040500300419
:1027C00004002C04050027040400230405001E0453
:1027D00004001A04040016040500110404000D048A
:1027E0000400090405000404040000040400FC03C0
:1027F0000400F8030400F4030400F0030400EC03F5
:102800000400E8030400E4030400E0030400DC0324
:102810000400D8030400D4030400D0030400CC0354
:102820000400C8030300C503030024F404D9201BDB
:10283000C40C5C0E9804C4095F0265077101F405BD
:10284000F900FB04B30048048700C1036900580382
:10285000550003034500BE023A00840231005302D2
:102860002A002902250004022000E4011C00C801FE
:102870001900AF01170098011400840113007101C1
:1028800010006101100051010E0043010D003601DE
:102890000B002B010B0020010B00150109000C019E
:1028A000090003010800FB000800F3000800EB002A
:1028B0000700E4000600DE000600D8000600D20093
:1028C0000600CC000500C7000500C2000500BD00E1
:1028D0000400B9000400B5000400B1000400AD001C
:1028E0000400A9000400A5000300A20003009F004B
:1028F00004009B0003009800030095000200930071
:102900000300900003008D0002008B00030088008C
:1029100002008600020084000300810002007F00A4
:1029200002007D0002007B000200790002007700B7
:1029300001007600020074000200720001007100C4
:1029400002006F0002006D0001006C0002006A00CE
:1029500001006900020067000100660001006500D7
:1029600001006400020062000100610001006000DB
:1029700001005F0002005D0001005C0001005B00DF
:1029800001005A00010059000100580001005700E1
:1029900001005600010055000100540001005300E1
:1029A00000005300010052000100510001005000DE
:1029B00001004F0001004E0000004E0001004D00DC
:1029C00001004C0001004B0000004B0001004A00D8
:1029D00001004900010048000000480001004700D4
:1029E00001004600000046000100450000004500CF
:1029F00001004400010043000000430001004200C8
:102A000000004200010041000000410001004000C0
:102A100001003F0000003F0001003E0000003E00BA
:102A200001003D0000003D0001003C0000003C00B2
:102A300000003C0001003B0000003B0001003A00A8
:102A400000003A00010039000000390001003800A0
:102A50000000380000003800010037000000370097
:102A6000010036000000360000003600010035008D
:102A70000000350000003500010034000000340083
:102A80000000340001003300000033000000330078
:102A9000010032000000320000003200010031006D
:102AA0000000310000003100010030000000300063
:102AB0000000300001002F0000002F0000002F0058
:102AC00000002F0001002E0000002E0000002E004C
:102AD00001002D0000002D0000002D0000002D0041
:102AE00001002C0000002C0000002C0000002C0035
:102AF00001002B0000002B0000002B0000002B0029
:102B000001002A0000002A0000002A0000002A001C
:102B10000100290000002900000029000000290010
:102B20000000290001002800000028000000280003
:102B300000002800000028000100270000002700F6
:102B400000002700000027000000270001002600E9
:102B500000002600000026000000260000002600DD
:102B600001002500000025000000250000002500D0
:102B700000002500000025000100240000002400C2
:102B800000002400000024000000240001002300B5
:102B900000002300000023000000230000002300A9
:102BA000000023000000230001002200000022009A
:102BB000000022000000220000002200000022008D
:102BC0000100210000002100000021000000210080
:102BD0000000210000002100000021000100200071
:102BE0000000200000002000000020000000200065
:102BF00000002000000020000000200001001F0055
:102C000000001F0000001F0000001F0000001F0048
:102C100000001F0000001F0001001E0000001E0039
:102C200000001E0000001E000000043700001E29E6
:102C30000000511B00005810000010090000CC04D7
:102C400000007802000041010000020000000000C6
:102C50000000600000000000FC00000FF000000019
:102C60000007E00000000001861FC018700000008F
:102C70000000603C0C000001830C6010300000007C
:102C80000000603C0C000001830C3030300000007C
:102C9000000060000C000000030C18300000000071
:102CA000000060003F0F3C00030C0C6001DF0FE0F0
:102CB000FE00601C1C061800060C0C6000F31831A6
:102CC0008300600C0C0318001E0C0C6000E030390F
:102CD0008300600C0C033000030C0C6000C0303823
:102CE0000F00600C0C033000018C0C6000C03FF83A
:102CF000FB00600C0C033000018C0C6030C0300114
:102D00008300600C0C01F001818C0C6030C030013C
:102D10008300600C0C00E001818C183030C0183149
:102D20008300600C0C40E001838C301860C00C61A3
:102D300087C0E01C0CC06000C30C600FC3F007C06C
:102D4000FFC7FC7F0781C0007E1FC000000000009D
:102D5000000000000007000000000000000000006C
:102D6000000000000007000000000001FFFFFFFF5F
:102D7000FFFFFFFFFFFFFFFFFF0FFFFFFFFFFFFF53
:102D8000FFFFFFFFFFFFFF1E00000000000000002C
:102D9000000007FFFF3800000000000000000000F6
:102DA00003FFFF700000000000000000000001FFB2
:102DB000FF600000000000000000000000FFFF6056
:102DC00000000000000000000000007FFFC00000C5
:102DD0000000000000007800003FFFC00FC0FC00B2
:102DE000000000007818001FFFC03FE1FF00000056
:102DF0000000783C000FFFC07FF3FF800000000060
:102E0000783C0007FFC0FFFFFFC000000000783CD7
:102E10000003FFC1F87F87E0000000007800000198
:102E2000FFC1F03F03E00000000078000000FFC198
:102E3000E01E01E01F0003E0783C03F07FC1E01ECC
:102E400001E07FC00FF8783C07FC3FC1E01E01E1C4
:102E5000FFE01FFC783C0FFE1FC1E01E01E3FFF006
:102E60003FFE783C1FFE0FC1E01E01E3F3F83F3E3A
:102E7000783C3F3F07C1E01E01E7E0FC7C1F783C47
:102E80003E1F07C1E01E01E7C07C7C0F783C3C0F71
:102E900003C1E01E01E7807C780F783C3C0F03C142
:102EA000E01E01E7803C7800783C3C0F03C1E01E47
:102EB00001E7803C7800783C3C0F03C1E01E01E74D
:102EC000803C7800783C3C0F03C1E01E01E7C03C29
:102ED0007800783C3C0F03C1E01E01E3E03C780041
:102EE0007C3C3C0F03C1E01E01E3FF3FF8007FBCC8
:102EF0003C0F03C1E01E01E1FF3FF8003FBFFC0FA4
:102F000003C1E01E01E0FF3FF8001FBFFC0F03C13B
:102F1000E01E01E07F3FF8000FBFFC0F03600000E0
:102F2000000000000000000000000760000000003A
:102F3000000000000000000006700000000000001B
:102F40000000000000000E3800000000000000003B
:102F5000000000001C1E0000000000000000000037
:102F60000000780FFFFFFFFFFFFFFFFFFFFFFFFFE6
:102F7000F001FFFFFFFFFFFFFFFFFFFFFFFF8020CC
:102F800020506C616E6E657242756666657242793C
:102F90007465733A20002046726565204D656D6F3B
:102FA00072793A2000436F6D70696C65643A204A0B
:102FB000616E20323720323032300A00207C2041CE
:102FC0007574686F723A2028457667656E792D535F
:102FD00050422C2043522D3130205335290A0032E3
:102FE0003031392D30372D303500204C617374204D
:102FF000557064617465643A20006275676669782B
:103000002D322E302E780A004D61726C696E0020D0
:10301000536F6674776172652052657365740A0038
:10302000205761746368646F672052657365740A22
:10303000002042726F776E206F7574205265736541
:10304000740A002045787465726E616C2052657355
:1030500065740A00506F77657255700A0073746169
:1030600072740A006175746F25632E67004C6F617E
:1030700064696E672073657474696E677320667225
:103080006F6D2053440A006572726F722077726907
:1030900074696E6720746F2066696C650A00446FFE
:1030A0006E6520736176696E672066696C652E0AAD
:1030B000004D323900456E6473746F707320256360
:1030C00020256320256320256300205A3A002059DB
:1030D0003A0020583A00656E6473746F707320680C
:1030E00069743A20004732370020573A00496E761B
:1030F000616C69642065787472756465720A007C1D
:103100003C3E5E2B3D3F2F5B5D3B2C2A225C004307
:103110006F6F6C646F776E005072656865617420C4
:10312000414253005072656865617420504C410003
:1031300046616E20737065656420320046616E20C2
:10314000737065656420320046616E20737065653A
:103150006420310046616E20737065656420310023
:1031600042656400426564004E6F7A7A6C65004E79
:103170006F7A7A6C65004D61696E0050726F62659E
:10318000205A204F666673657400466C6F77004660
:103190006C6F770046616E20737065656420320045
:1031A00046616E20737065656420320046616E2052
:1031B000737065656420310046616E2073706565CB
:1031C0006420310042656400426564004E6F7A7A83
:1031D0006C65004E6F7A7A6C6500537065656400AB
:1031E0005370656564004D61696E004D65736820BC
:1031F000456469746F7200473239205031004D3197
:10320000303920532569004D31393020532569006C
:10321000473238004275696C6420437573746F6D72
:10322000204D657368004265642054656D700042EE
:1032300065642054656D7000486F74656E64205439
:10324000656D7000486F74656E642054656D700024
:103250004275696C64204D657368002E25690047CE
:1032600032392050362043202D00496E666F20737E
:10327000637265656E0048656967687420416D6FAB
:10328000756E740048656967687420416D6F756E6E
:10329000740045646974204D65736800496E666FFB
:1032A0002073637265656E0041646A757374204DA6
:1032B000657368204865696768740046696E6520B3
:1032C00054756E6520436C6F7365737400473239B3
:1032D00020503420540046696E652054756E652078
:1032E000416C6C0047323920503420523939392032
:1032F000540055424C20546F6F6C730024F404D971
:10330000201BC40C5C0E9804C4095F0265077101A0
:10331000F405F900FB04B30048048700C103690009
:103320005803550003034500BE023A0084023100F1
:1033300053022A002902250004022000E4011C0097
:10334000C8011900AF01170098011400840113008F
:10335000710110006101100051010E0043010D00C8
:1033600036010B002B010B0020010B001501090099
:103370000C01090003010800FB000800F30008002D
:10338000EB000700E4000600DE000600D80006009F
:10339000D2000600CC000500C7000500C2000500F1
:1033A000BD000400B9000400B5000400B100040031
:1033B000AD000400A9000400A5000300A200030062
:1033C0009F0004009B00030098000300950002008A
:1033D00093000300900003008D0002008B000300A7
:1033E00088000200860002008400030081000200C1
:1033F0007F0002007D0002007B00020079000200D5
:1034000077000100760002007400020072000100E3
:10341000710002006F0002006D0001006C000200EC
:103420006A000100690002006700010066000100F7
:1034300065000100640002006200010061000100FB
:10344000600001005F0002005D0001005C000100FF
:103450005B0001005A000100590001005800010002
:103460005700010056000100550001005400010002
:103470005300000053000100520001005100010000
:10348000500001004F0001004E0000004E000100FE
:103490004D0001004C0001004B0000004B000100FA
:1034A0004A000100490001004800000048000100F6
:1034B00047000100460000004600010045000000F2
:1034C00045000100440001004300000043000100EA
:1034D00042000000420001004100000041000100E4
:1034E000400001003F0000003F0001003E000000DE
:1034F0003E0001003D0000003D0001003C000000D6
:103500003C0000003C0001003B0000003B000100CB
:103510003A0000003A0001003900000039000100C3
:1035200038000000380000003800010037000000BB
:1035300037000100360000003600000036000100B0
:1035400035000000350000003500010034000000A7
:10355000340000003400010033000000330000009C
:103560003300010032000000320000003200010090
:103570003100000031000000310001003000000087
:1035800030000000300001002F0000002F0000007C
:103590002F0000002F0001002E0000002E00000070
:1035A0002E0001002D0000002D0000002D00000065
:1035B0002D0001002C0000002C0000002C00000059
:1035C0002C0001002B0000002B0000002B0000004D
:1035D0002B0001002A0000002A0000002A00000041
:1035E0002A00010029000000290000002900000035
:1035F0002900000029000100280000002800000028
:10360000280000002800000028000100270000001A
:10361000270000002700000027000000270001000D
:103620002600000026000000260000002600000002
:1036300026000100250000002500000025000000F4
:1036400025000000250000002500010024000000E6
:1036500024000000240000002400000024000100D9
:1036600023000000230000002300000023000000CE
:1036700023000000230000002300010022000000BE
:1036800022000000220000002200000022000000B2
:1036900022000100210000002100000021000000A4
:1036A0002100000021000000210000002100010095
:1036B000200000002000000020000000200000008A
:1036C0002000000020000000200000002000010079
:1036D0001F0000001F0000001F0000001F0000006E
:1036E0001F0000001F0000001F0001001E0000005E
:1036F0001E0000001E0000001E00000024F4D43054
:1037000050C38E20C2A24017828B7011127A910D85
:10371000816CD90AA861E108C75866076151430660
:103720001E4B5D05C145A7041A411104093D9803CC
:10373000713931034036DB0265339102D4305402D3
:10374000802E1D02632CEE01752AC501B028A00150
:10375000102781018F2564012B244B01E0223401C5
:10376000AC211F018D200D01801FFC00841EED0087
:10377000971DDF00B81CD200E61BC600201BBC0052
:10378000641AB200B219A8000A19A0006A189900B8
:10379000D117910040178B00B516840031167E00BA
:1037A000B31579003A157300C7146F0058146A00F6
:1037B000EE1366008813630025135E00C7125B00DA
:1037C0006C12570015125400C111510070114F00B6
:1037D00021114B00D61049008D10470046104400BF
:1037E00002104200C00F4000800F3E00420F3C001C
:1037F000060F3B00CB0E3800930E37005C0E3500F1
:10380000270E3400F30D3200C10D3100900D300051
:10381000600D2E00320D2D00050D2C00D90C2B0053
:10382000AE0C2900850C29005C0C2700350C270004
:103830000E0C2600E80B2400C40B2400A00B230070
:103840007D0B23005A0B2100390B2100180B20009F
:10385000F80A1F00D90A1E00BB0A1E009D0A1D009F
:10386000800A1D00630A1C00470A1B002C0A1B006B
:10387000110A1A00F7091A00DD091900C409190014
:10388000AB091900920917007B091800630917009A
:103890004C09160036091600200916000A09150001
:1038A000F5081500E0081400CC081400B80814004E
:1038B000A4081400900813007D0812006B08130080
:1038C000580812004608120034081100230811009D
:1038D0001208110001081100F0071000E0071000A5
:1038E000D0071000C0071000B0070F00A10710009C
:1038F00091070E0083070F0074070F0065070E0085
:1039000057070E0049070E003B070D002E070E005B
:1039100020070D0013070D0006070D00F9060C0027
:10392000ED060D00E0060C00D4060C00C8060C00E5
:10393000BC060C00B0060C00A4060B0099060C0097
:103940008D060B0082060B0077060B006C060B0041
:1039500061060A0057060B004C060A0042060A00E0
:1039600038060A002E060A0024060A001A060A0073
:103970001006090007060A00FD050900F405090004
:10398000EB050900E2050900D9050900D005090089
:10399000C7050900BE050900B5050800AD0508000A
:1039A000A50509009C050800940508008C05080081
:1039B000840508007C050800740508006C050700F4
:1039C000650508005D050700560508004E0507005F
:1039D00047050700400508003805070031050700C6
:1039E0002A050700230507001C0506001605070029
:1039F0000F0507000805060002050700FB04060086
:103A0000F5040700EE040600E8040600E2040700DF
:103A1000DB040600D5040600CF040600C904060036
:103A2000C3040600BD040600B7040600B104050087
:103A3000AC040600A6040600A00405009B040600D2
:103A400095040500900406008A040500850405001D
:103A5000800406007A040500750405007004050062
:103A60006B04050066040500610405005C040500A4
:103A700057040500520405004D04050048040500E4
:103A8000430405003E0404003A0405003504050023
:103A9000300404002C04050027040400230405005E
:103AA0001E0404001A040400160405001104040096
:103AB0000D040400090405000404040000040400CB
:103AC000FC030400F8030400F4030400F003040002
:103AD000EC030400E8030400E4030400E003040032
:103AE000DC030400D8030400D4030400D003040062
:103AF000CC030400C8030300C5030300726F7461A4
:103B000074696F6E206D61747269783A0A0024F4EA
:103B100004D9201BC40C5C0E9804C4095F0265071D
:103B20007101F405F900FB04B30048048700C103E8
:103B300069005803550003034500BE023A008402A1
:103B4000310053022A002902250004022000E4016A
:103B50001C00C8011900AF0117009801140084016E
:103B60001300710110006101100051010E004301AA
:103B70000D0036010B002B010B0020010B0015017D
:103B800009000C01090003010800FB000800F30014
:103B90000800EB000700E4000600DE000600D80085
:103BA0000600D2000600CC000500C7000500C200D8
:103BB0000500BD000400B9000400B5000400B10018
:103BC0000400AD000400A9000400A5000300A20049
:103BD00003009F0004009B00030098000300950071
:103BE000020093000300900003008D0002008B0090
:103BF00003008800020086000200840003008100A8
:103C000002007F0002007D0002007B0002007900BC
:103C100002007700010076000200740002007200CA
:103C20000100710002006F0002006D0001006C00D5
:103C300002006A00010069000200670001006600DE
:103C400001006500010064000200620001006100E3
:103C50000100600001005F0002005D0001005C00E7
:103C600001005B0001005A000100590001005800EA
:103C700001005700010056000100550001005400EA
:103C800001005300000053000100520001005100E8
:103C90000100500001004F0001004E0000004E00E6
:103CA00001004D0001004C0001004B0000004B00E2
:103CB00001004A00010049000100480000004800DE
:103CC00001004700010046000000460001004500D9
:103CD00000004500010044000100430000004300D3
:103CE00001004200000042000100410000004100CC
:103CF0000100400001003F0000003F0001003E00C5
:103D000000003E0001003D0000003D0001003C00BD
:103D100000003C0000003C0001003B0000003B00B4
:103D200001003A0000003A000100390000003900AB
:103D300001003800000038000000380001003700A2
:103D40000000370001003600000036000000360099
:103D5000010035000000350000003500010034008E
:103D60000000340000003400010033000000330084
:103D70000000330001003200000032000000320079
:103D8000010031000000310000003100010030006E
:103D9000000030000000300001002F0000002F0064
:103DA00000002F0000002F0001002E0000002E0058
:103DB00000002E0001002D0000002D0000002D004D
:103DC00000002D0001002C0000002C0000002C0041
:103DD00000002C0001002B0000002B0000002B0035
:103DE00000002B0001002A0000002A0000002A0029
:103DF00000002A000100290000002900000029001D
:103E0000000029000000290001002800000028000F
:103E10000000280000002800000028000100270002
:103E200000002700000027000000270000002700F6
:103E300001002600000026000000260000002600E9
:103E400000002600010025000000250000002500DC
:103E500000002500000025000000250001002400CE
:103E600000002400000024000000240000002400C2
:103E700001002300000023000000230000002300B5
:103E800000002300000023000000230001002200A6
:103E9000000022000000220000002200000022009A
:103EA000000022000100210000002100000021008C
:103EB000000021000000210000002100000021007E
:103EC0000100200000002000000020000000200071
:103ED0000000200000002000000020000000200062
:103EE00001001F0000001F0000001F0000001F0055
:103EF00000001F0000001F0000001F0001001E0046
:103F000000001E0000001E0000001E00000024F43F
:103F1000D43050C38E20C2A24017828B7011127A07
:103F2000910D816CD90AA861E108C75866076151F3
:103F300043061E4B5D05C145A7041A411104093D06
:103F40009803713931034036DB0265339102D43076
:103F50005402802E1D02632CEE01752AC501B02883
:103F6000A001102781018F2564012B244B01E02241
:103F70003401AC211F018D200D01801FFC00841E27
:103F8000ED00971DDF00B81CD200E61BC600201B09
:103F9000BC00641AB200B219A8000A19A0006A187D
:103FA0009900D117910040178B00B5168400311687
:103FB0007E00B31579003A157300C7146F005814CA
:103FC0006A00EE1366008813630025135E00C712B3
:103FD0005B006C12570015125400C1115100701192
:103FE0004F0021114B00D61049008D10470046109C
:103FF000440002104200C00F4000800F3E00420FFC
:104000003C00060F3B00CB0E3800930E37005C0ED1
:104010003500270E3400F30D3200C10D3100900D34
:104020003000600D2E00320D2D00050D2C00D90C36
:104030002B00AE0C2900850C29005C0C2700350CE8
:1040400027000E0C2600E80B2400C40B2400A00B54
:1040500023007D0B23005A0B2100390B2100180B84
:104060002000F80A1F00D90A1E00BB0A1E009D0A84
:104070001D00800A1D00630A1C00470A1B002C0A51
:104080001B00110A1A00F7091A00DD091900C409FA
:104090001900AB091900920917007B091800630980
:1040A00017004C09160036091600200916000A09E7
:1040B0001500F5081500E0081400CC081400B80835
:1040C0001400A4081400900813007D0812006B0867
:1040D0001300580812004608120034081100230883
:1040E00011001208110001081100F0071000E0078C
:1040F0001000D0071000C0071000B0070F00A10784
:10410000100091070E0083070F0074070F0065076A
:104110000E0057070E0049070E003B070D002E0743
:104120000E0020070D0013070D0006070D00F9060D
:104130000C00ED060D00E0060C00D4060C00C806CD
:104140000C00BC060C00B0060C00A4060B0099067F
:104150000C008D060B0082060B0077060B006C0628
:104160000B0061060A0057060B004C060A004206C7
:104170000A0038060A002E060A0024060A001A065B
:104180000A001006090007060A00FD050900F405EB
:104190000900EB050900E2050900D9050900D00571
:1041A0000900C7050900BE050900B5050800AD05F1
:1041B0000800A50509009C050800940508008C0569
:1041C0000800840508007C050800740508006C05DB
:1041D0000700650508005D050700560508004E0547
:1041E00007004705070040050800380507003105AE
:1041F00007002A050700230507001C050600160511
:1042000007000F0507000805060002050700FB046C
:104210000600F5040700EE040600E8040600E204C8
:104220000700DB040600D5040600CF040600C9041D
:104230000600C3040600BD040600B7040600B1046E
:104240000500AC040600A6040600A00405009B04BB
:10425000060095040500900406008A040500850404
:104260000500800406007A0405007504050070044A
:1042700005006B04050066040500610405005C048C
:10428000050057040500520405004D0405004804CC
:104290000500430405003E0404003A04050035040B
:1042A0000500300404002C04050027040400230446
:1042B00005001E0404001A0404001604050011047D
:1042C00004000D04040009040500040404000004B3
:1042D0000400FC030400F8030400F4030400F003EA
:1042E0000400EC030400E8030400E4030400E0031A
:1042F0000400DC030400D8030400D4030400D0034A
:104300000400CC030400C8030300C503030024F425
:1043100004D9201BC40C5C0E9804C4095F02650715
:104320007101F405F900FB04B30048048700C103E0
:1043300069005803550003034500BE023A00840299
:10434000310053022A002902250004022000E40162
:104350001C00C8011900AF01170098011400840166
:104360001300710110006101100051010E004301A2
:104370000D0036010B002B010B0020010B00150175
:1043800009000C01090003010800FB000800F3000C
:104390000800EB000700E4000600DE000600D8007D
:1043A0000600D2000600CC000500C7000500C200D0
:1043B0000500BD000400B9000400B5000400B10010
:1043C0000400AD000400A9000400A5000300A20041
:1043D00003009F0004009B00030098000300950069
:1043E000020093000300900003008D0002008B0088
:1043F00003008800020086000200840003008100A0
:1044000002007F0002007D0002007B0002007900B4
:1044100002007700010076000200740002007200C2
:104420000100710002006F0002006D0001006C00CD
:1044300002006A00010069000200670001006600D6
:1044400001006500010064000200620001006100DB
:104450000100600001005F0002005D0001005C00DF
:1044600001005B0001005A000100590001005800E2
:1044700001005700010056000100550001005400E2
:1044800001005300000053000100520001005100E0
:104490000100500001004F0001004E0000004E00DE
:1044A00001004D0001004C0001004B0000004B00DA
:1044B00001004A00010049000100480000004800D6
:1044C00001004700010046000000460001004500D1
:1044D00000004500010044000100430000004300CB
:1044E00001004200000042000100410000004100C4
:1044F0000100400001003F0000003F0001003E00BD
:1045000000003E0001003D0000003D0001003C00B5
:1045100000003C0000003C0001003B0000003B00AC
:1045200001003A0000003A000100390000003900A3
:10453000010038000000380000003800010037009A
:104540000000370001003600000036000000360091
:104550000100350000003500000035000100340086
:10456000000034000000340001003300000033007C
:104570000000330001003200000032000000320071
:104580000100310000003100000031000100300066
:10459000000030000000300001002F0000002F005C
:1045A00000002F0000002F0001002E0000002E0050
:1045B00000002E0001002D0000002D0000002D0045
:1045C00000002D0001002C0000002C0000002C0039
:1045D00000002C0001002B0000002B0000002B002D
:1045E00000002B0001002A0000002A0000002A0021
:1045F00000002A0001002900000029000000290015
:104600000000290000002900010028000000280007
:1046100000002800000028000000280001002700FA
:1046200000002700000027000000270000002700EE
:1046300001002600000026000000260000002600E1
:1046400000002600010025000000250000002500D4
:1046500000002500000025000000250001002400C6
:1046600000002400000024000000240000002400BA
:1046700001002300000023000000230000002300AD
:10468000000023000000230000002300010022009E
:104690000000220000002200000022000000220092
:1046A0000000220001002100000021000000210084
:1046B0000000210000002100000021000000210076
:1046C0000100200000002000000020000000200069
:1046D000000020000000200000002000000020005A
:1046E00001001F0000001F0000001F0000001F004D
:1046F00000001F0000001F0000001F0001001E003E
:1047000000001E0000001E0000001E00000024F437
:10471000D43050C38E20C2A24017828B7011127AFF
:10472000910D816CD90AA861E108C75866076151EB
:1047300043061E4B5D05C145A7041A411104093DFE
:104740009803713931034036DB0265339102D4306E
:104750005402802E1D02632CEE01752AC501B0287B
:10476000A001102781018F2564012B244B01E02239
:104770003401AC211F018D200D01801FFC00841E1F
:10478000ED00971DDF00B81CD200E61BC600201B01
:10479000BC00641AB200B219A8000A19A0006A1875
:1047A0009900D117910040178B00B516840031167F
:1047B0007E00B31579003A157300C7146F005814C2
:1047C0006A00EE1366008813630025135E00C712AB
:1047D0005B006C12570015125400C111510070118A
:1047E0004F0021114B00D61049008D104700461094
:1047F000440002104200C00F4000800F3E00420FF4
:104800003C00060F3B00CB0E3800930E37005C0EC9
:104810003500270E3400F30D3200C10D3100900D2C
:104820003000600D2E00320D2D00050D2C00D90C2E
:104830002B00AE0C2900850C29005C0C2700350CE0
:1048400027000E0C2600E80B2400C40B2400A00B4C
:1048500023007D0B23005A0B2100390B2100180B7C
:104860002000F80A1F00D90A1E00BB0A1E009D0A7C
:104870001D00800A1D00630A1C00470A1B002C0A49
:104880001B00110A1A00F7091A00DD091900C409F2
:104890001900AB091900920917007B091800630978
:1048A00017004C09160036091600200916000A09DF
:1048B0001500F5081500E0081400CC081400B8082D
:1048C0001400A4081400900813007D0812006B085F
:1048D000130058081200460812003408110023087B
:1048E00011001208110001081100F0071000E00784
:1048F0001000D0071000C0071000B0070F00A1077C
:10490000100091070E0083070F0074070F00650762
:104910000E0057070E0049070E003B070D002E073B
:104920000E0020070D0013070D0006070D00F90605
:104930000C00ED060D00E0060C00D4060C00C806C5
:104940000C00BC060C00B0060C00A4060B00990677
:104950000C008D060B0082060B0077060B006C0620
:104960000B0061060A0057060B004C060A004206BF
:104970000A0038060A002E060A0024060A001A0653
:104980000A001006090007060A00FD050900F405E3
:104990000900EB050900E2050900D9050900D00569
:1049A0000900C7050900BE050900B5050800AD05E9
:1049B0000800A50509009C050800940508008C0561
:1049C0000800840508007C050800740508006C05D3
:1049D0000700650508005D050700560508004E053F
:1049E00007004705070040050800380507003105A6
:1049F00007002A050700230507001C050600160509
:104A000007000F0507000805060002050700FB0464
:104A10000600F5040700EE040600E8040600E204C0
:104A20000700DB040600D5040600CF040600C90415
:104A30000600C3040600BD040600B7040600B10466
:104A40000500AC040600A6040600A00405009B04B3
:104A5000060095040500900406008A0405008504FC
:104A60000500800406007A04050075040500700442
:104A700005006B04050066040500610405005C0484
:104A8000050057040500520405004D0405004804C4
:104A90000500430405003E0404003A040500350403
:104AA0000500300404002C0405002704040023043E
:104AB00005001E0404001A04040016040500110475
:104AC00004000D04040009040500040404000004AB
:104AD0000400FC030400F8030400F4030400F003E2
:104AE0000400EC030400E8030400E4030400E00312
:104AF0000400DC030400D8030400D4030400D00342
:104B00000400CC030400C8030300C50303007001C4
:104B10002C0190012701B0012201C0011D01F0010B
:104B200018011002130130020E0160020901900207
:104B30000401C002FF000003FA004003F5008003F7
:104B4000F000D003EB002004E6007004E100E00474
:104B5000DC004005D700C005D2004006CD00D006DD
:104B6000C8008007C3003008BE00F008B900C009C3
:104B7000B400B00AAF00B00BAA00D00CA500000E24
:104B8000A000500F9B00C01096005012910000141E
:104B90008C00C0158700B0178200B0197D00D01BB3
:104BA0007800001E730040206E0090226900F024FF
:104BB000640040275F0090295A00E02B5500102E1A
:104BC000500020304B0010324600E0334100903559
:104BD0003C001037370070383200A0392D00B03A51
:104BE0002800A03B2300603C1E00103D1900903DB2
:104BF0001400103E0F00703E0A00C03E0500003F4A
:104C00000000403FFBFF803FF6FFC03FF1FF100078
:104C1000C90210012C014001220170011801B001EC
:104C20000E01F00104015002FA00B002F00030035E
:104C3000E600D003DC009004D2007005C800A00696
:104C4000BE000008B400B009AA00D00BA000600E9E
:104C5000960060118C000015820020197800C01D9C
:104C60006E00A0226400B0275A00902C5000003142
:104C70004600E0343C0010383200903A2800603C96
:104C80001E00A03D1400803E0A00203F00004D6F32
:104C900074696F6E00473238004175746F20686F19
:104CA0006D6500473239004732380A473239004CC7
:104CB0006576656C2062656400426564204C6576AB
:104CC000656C696E67004F6E004F666600426564F2
:104CD000204C6576656C696E6700466164652048A6
:104CE000656967687400466164652048656967683E
:104CF0007400466164652048656967687400507295
:104D00006F6265205A204F6666736574004C657645
:104D1000656C20636F726E657273004C6F61642006
:104D200073657474696E67730053746F7265207372
:104D3000657474696E6773004175746F20686F6D78
:104D40006500473238005370656564004E6F7A7AAB
:104D50006C65004265640046616E20737065656431
:104D600020310046616E2073706565642032004614
:104D70006C6F77005A2D4F66667365743A20004851
:104D80006F74656E642054656D70004265642054D4
:104D9000656D700048656967687420416D6F756E58
:104DA00074005369646520506F696E7473004669BE
:104DB0006C6C2D696E20416D6F756E74004D656D64
:104DC0006F727920536C6F7400466164652048658A
:104DD00069676874004572726F72207772697469CE
:104DE0006E6720746F20454550524F4D210A0036A2
:104DF0003726033C3D380E2E303E121A1C1808444C
:104E00000AFF430809070001627573793A2070614F
:104E10007573656420666F7220696E7075740A0020
:104E2000627573793A2070617573656420666F727C
:104E300020757365720A00627573793A2070726F1B
:104E400063657373696E670A004D363030004B49F5
:104E50004C4C20636175736564206279204B494C2A
:104E60004C20627574746F6E2F70696E0A004B4926
:104E70004C4C2063617573656420627920746F6F98
:104E8000206D75636820696E61637469766520744E
:104E9000696D65202D2063757272656E7420636F75
:104EA0006D6D616E643A2000506C656173652072AF
:104EB00065736574005052494E5445522048414C28
:104EC000544544004B494C4C45442E2000507269D7
:104ED0006E7465722068616C7465642E206B696CF9
:104EE0006C28292063616C6C6564210A0053544F5F
:104EF000505045442E20005072696E7465722073C4
:104F0000746F707065642064756520746F206572BD
:104F1000726F72732E2046697820746865206572FE
:104F2000726F7220616E6420757365204D39393956
:104F300020746F20726573746172742E202854651A
:104F40006D70657261747572652069732072657326
:104F500065742E20536574206974206166746572CF
:104F60002072657374617274696E67290A00436107
:104F70006E6E6F74206F70656E20737562646972F7
:104F8000200053442063617264206F6B0A006F70CD
:104F9000656E526F6F74206661696C65640A007695
:104FA0006F6C756D652E696E6974206661696C65DC
:104FB000640A00534420696E6974206661696C0A52
:104FC000004D3234004D323320257300577269741E
:104FD000696E6720746F2066696C653A20002E0A3E
:104FE000006F70656E206661696C65642C2046698F
:104FF0006C653A20002E0A006F70656E206661694C
:105000006C65642C2046696C653A200046696C65C5
:105010002073656C65637465640A002053697A6562
:105020003A200046696C65206F70656E65643A20B1
:1050300000667265736800646F696E670020666958
:105040006C653A20004E6F772000454E4420535542
:1050500042524F5554494E450A002220706F73004A
:105060002220706172656E743A2200535542524F8D
:105070005554494E452043414C4C2074617267653C
:10508000743A2200747279696E6720746F206361CC
:105090006C6C207375622D67636F64652066696C44
:1050A0006573207769746820746F6F206D616E7905
:1050B000206C6576656C732E204D4158206C6576AA
:1050C000656C2069733A310A00220A00556E6B6ED6
:1050D0006F776E20636F6D6D616E643A20220020E1
:1050E000746F6F206C6F6E6720657874727573696A
:1050F0006F6E2070726576656E7465640A00206359
:105100006F6C6420657874727573696F6E2070724D
:105110006576656E7465640A004469666665723A10
:10512000200046726F6D5374703A0053746570704E
:1051300065723A00556E4C6576656C3A004C657642
:10514000656C65643A005261773A20202020000A9D
:105150004C6F676963616C3A004361703A00220AE0
:1051600000656E7175657565696E67202200204265
:10517000002050006F6B00526573656E643A20002A
:1051800053544F505045442E20005072696E746540
:10519000722073746F707065642064756520746F1D
:1051A000206572726F72732E20466978207468656C
:1051B000206572726F7220616E6420757365204D78
:1051C00039393920746F20726573746172742E20BE
:1051D0002854656D706572617475726520697320FD
:1051E00072657365742E205365742069742061663E
:1051F0007465722072657374617274696E67290ACE
:10520000004E6F20436865636B73756D207769741A
:1052100068206C696E65206E756D6265722C204C1D
:10522000617374204C696E653A20004E6F204368AC
:1052300065636B73756D2077697468206C696E6542
:10524000206E756D6265722C204C617374204C6900
:105250006E653A2000636865636B73756D206D69D8
:10526000736D617463682C204C617374204C696E9B
:10527000653A20004C696E65204E756D626572203E
:105280006973206E6F74204C617374204C696E6575
:10529000204E756D6265722B312C204C6173742029
:1052A0004C696E653A20004D313130004D3331008C
:1052B00053442072656164206572726F720A004403
:1052C0006F6E65207072696E74696E672066696CB6
:1052D000650A003F4D65736820746F6F20626967CF
:1052E00020666F7220454550524F4D2E0A003F55A3
:1052F0006E61626C6520746F2073617665206D65E8
:10530000736820646174612E0A003F556E61626C9F
:105310006520746F206C6F6164206D657368206414
:105320006174612E0A002C0100002C010000640051
:105330000000881300000000964300009643000020
:10534000A0400000C8410000A0420000A0420000B0
:10535000C8430000BA42556E6966696564204265BB
:1053600064204C6576656C696E67003A0A002020FF
:105370004D363033200020204D343132205300464A
:10538000696C616D656E742072756E6F75742073D3
:10539000656E736F723A0A002055004C0046696CC6
:1053A000616D656E74206C6F61642F756E6C6F61DA
:1053B00064206C656E677468733A0A0020204D386B
:1053C0003531205A005A2D50726F6265204F666643
:1053D0007365740020440020490020204D33303193
:1053E0002050005049442073657474696E67733AA5
:1053F0000A0020460020420020480020204D313481
:10540000352053004D6174657269616C2068656177
:1054100074757020706172616D65746572733A0A9B
:1054200000206D65736865732E0A0A004545505269
:105430004F4D2063616E20686F6C6420000A4163E9
:1054400074697665204D65736820536C6F743A20DB
:1054500000205A0020204D3432302053003A0A00F8
:1054600020204D34313220530046696C616D656EE9
:10547000742052756E6F75742053656E736F723A37
:105480000A00205A0020590020204D323036205882
:1054900000486F6D65206F66667365743A0A002078
:1054A0004500205A00205900205800205400205365
:1054B0000020204D32303520420020453C6D61787F
:1054C0005F655F6A65726B3E0020583C6D61785F76
:1054D000785F6A65726B3E20593C6D61785F795FD9
:1054E0006A65726B3E205A3C6D61785F7A5F6A65CF
:1054F000726B3E00416476616E6365643A20423CA3
:105500006D696E5F7365676D656E745F74696D65F7
:105510005F75733E20533C6D696E5F6665656472AE
:105520006174653E20543C6D696E5F74726176658E
:105530006C5F66656564726174653E00205400208E
:10554000520020204D323034205000416363656C9E
:1055500065726174696F6E2028756E6974732F733C
:1055600032293A20503C7072696E745F61636365E2
:105570006C3E20523C726574726163745F61636358
:10558000656C3E20543C74726176656C5F61636348
:10559000656C3E0A00204500205A0020590020205A
:1055A0004D3230312058004D6178696D756D204164
:1055B0006363656C65726174696F6E2028756E69CE
:1055C00074732F7332293A0A00204500205A0020B4
:1055D000590020204D3230332058004D6178696DDC
:1055E000756D206665656472617465732028756EDB
:1055F0006974732F73293A0A0053746570732070AD
:10560000657220756E69743A0A0020204D32303080
:105610002044300A0020204D323030204400204405
:10562000697361626C65640A0046696C616D656EE0
:10563000742073657474696E67733A0020204D316D
:1056400034392043203B20556E69747320696E20E5
:1056500043656C736975730A0020286D6D290020FD
:1056600020473231202020203B20556E6974732062
:10567000696E206D6D004732380047323620432076
:1056800042256920482569205000496E666F2073C5
:10569000637265656E0056616C6964617465204370
:1056A0007573746F6D204D6573680056616C696425
:1056B000617465204D657368202841425329004775
:1056C00032380A47323620432042383020483235BB
:1056D0003020500056616C6964617465204D6573BB
:1056E000682028504C4129004732380A473236207A
:1056F0004320423630204832303520500055424C4D
:1057000020546F6F6C7300473239204A2569004C72
:105710006576656C204D657368005369646520503B
:105720006F696E7473005369646520506F696E749D
:10573000730055424C20546F6F6C7300496E666F56
:105740002073637265656E0047726964204D6573EE
:1057500068204C6576656C696E6700332D506F6903
:105760006E74204C6576656C696E6700473239202F
:105770004A300055424C20546F6F6C7300473239E9
:10578000205033205220432E256900496E666F2039
:1057900073637265656E004D616E75616C2046695C
:1057A0006C6C2D696E0047323920503220422054F3
:1057B0003000536D6172742046696C6C2D696E0007
:1057C0004732392050332054300046696C6C2D69C3
:1057D0006E20416D6F756E740046696C6C2D696E3C
:1057E00020416D6F756E74004275696C64204D6563
:1057F0007368004D65736820696E76616C696461D9
:105800007465642E0A00496E666F20736372656565
:105810006E00496E76616C696461746520436C6FDB
:105820007365737400473239204900496E76616CA4
:10583000696461746520416C6C00436F6E74696EBD
:10584000756520426564204D6573680047323920D4
:10585000503120430046696C6C2D696E204D657394
:1058600068004275696C6420436F6C64204D6573F9
:1058700068004732380A4732392050310042756992
:105880006C6420437573746F6D204D6573680042BE
:1058900075696C64204D6573682028414253290066
:1058A0004732380A4D313930205338300A4D3130C3
:1058B0003920533235300A4732392050310A4D31C0
:1058C00030342053300A4D3134302053300042758B
:1058D000696C64204D6573682028504C412900474D
:1058E00032380A4D313930205336300A4D31303993
:1058F00020533230350A4732392050310A4D313089
:10590000342053300A4D3134302053300055424C4E
:1059100020546F6F6C73004D313137204D657368C3
:10592000202569207361766564004732392053254C
:1059300069004D313137204D657368202569206C31
:105940006F6164656400473239204C2569005361FA
:10595000766520426564204D657368004C6F616414
:1059600020426564204D657368004D656D6F7279E6
:1059700020536C6F74004D656D6F727920536C6F9E
:1059800074004E6F2073746F7261676500556E69A5
:105990006669656420426564204C6576656C696E55
:1059A000670000002100240027002A002D0030009D
:1059B000330001010000040107010A010000220078
:1059C000250028002B002E003100340002010000C9
:1059D000050108010B01000020002300260029001A
:1059E0002C002F0032000001000003010601090114
:1059F00005050505070508080808020202020A0A4B
:105A00000808040404040101010101010101030368
:105A1000030303030303040707070C0C0C0C0C0C13
:105A20000C0C0202020206060606060606060B0B10
:105A30000B0B0B0B0B0B0102102020080810204051
:105A40001020408002010201080402010102040842
:105A500010204080804020100804020180040201D0
:105A60008040201008040201080402010102040819
:105A700010204080010204081020408000000A0B22
:105A800002090C0D0E0807030401000000000000CD
:105A90000000000000000000000000000000000006
:105AA00000000000000000001211100000000000C3
:105AB00000000000000000000000000000000000E6
:105AC00000004D6F766520302E3032356D6D004D03
:105AD0006F766520302E316D6D004D6F766520310B
