:100000000C94A7160C94D1160C94D1160C94D116FE
:100010000C94D1160C94D1160C94D1160C94D116C4
:100020000C94D1160C94959F0C94D1160C94D11667
:100030000C94D1160C9405400C94D1160C94D11646
:100040000C94D1160C94EADD0C94436A0C94D116EE
:100050000C940CBE0C9402BE0C94D1160C94D116C8
:100060000C94D1160C94D1160C94D1160C94D11674
:100070000C94D1160C94D1160C94D1160C94D11664
:100080000C94EDB80C94D1160C94D116B269B769E2
:10009000BC69C669F469F469D069D869E069EA693C
:1000A000F584F884EB84EF840F850F85FC8400854C
:1000B00006850A855AAD19AC50AC96AD50AC50AC23
:1000C00050AC50AC50AC50AC50AC50AC50AC50AC50
:1000D00050AC50AC50AC50AC50AC50AC50AC50AC40
:1000E00050AC50AC50AC50AC50AC50AC50AC50AC30
:1000F00090AD50AC50AC50AC50AC50AC50AC50ACDF
:1001000050AC69AD50AC50AC50AC50AC50AC50ACF5
:1001100050AC50AC50AC50ACADAD4DAC084AD73B38
:100120003BCE016E84BCBFFDC12F3D6C74319ABDC6
:1001300056833DDA3D00C77F11BED9E4BB4C3E91EA
:100140006BAAAABE000000803F05A84CCDB2D44ED9
:10015000B93836A9020C50B9918688083CA6AAAADB
:100160002ABE000000803F004E414E494E4954597E
:10017000494E46CDCCCC3D0AD7233C17B7D1387772
:10018000CC2B329595E6241FB14F0A000020410088
:1001900000C84200401C4620BCBE4CCA1B0E5AAED2
:1001A000C59D74434F4D4D554E49434154494F4EA3
:1001B0000044525952554E004552524F5253004935
:1001C0004E464F004543484F00496E76616C696466
:1001D0002065787472756465720A003F5A206F75E5
:1001E00074206F662072616E676520282D32302082
:1001F000746F203230290A0050726F6265205A20D5
:100200004F66667365743A2000454550524F4D2045
:100210004F4B0A004F666673657473206170706C93
:10022000696564004572723A20546F6F206661728E
:100230002100546F6F206661722066726F6D2072AC
:1002400065666572656E636520706F696E740A001D
:100250000000000000000000000000004D65736811
:1002600020706F696E742063616E6E6F74206265BA
:10027000207265736F6C7665640A004D34323120EC
:10028000696E636F727265637420706172616D650F
:100290007465722075736167650A0064697300652F
:1002A0006E0043290A0061626C656420286D696EE6
:1002B0002074656D702000436F6C642065787472E3
:1002C00075646573206172652000496E76616C69A2
:1002D000642065787472756465720A0020643A005F
:1002E00020693A0020703A0050726F6265205A20EF
:1002F0004F66667365743A2000206F7574206F66D0
:100300002072616E67650A00536572766F20003A4D
:10031000200020536572766F200020466C6F773A7C
:1003200020004F4646004F4E00205A0020590058EA
:100330000020204D61783A2000205A0020590058B2
:100340000020204D696E3A2000536F667420656E60
:100350006473746F70733A20005741524E494E4790
:1003600021204C6F77205A204A65726B206D61798D
:10037000206C65616420746F20756E77616E7465A2
:1003800064207061757365732E0A0020540020523A
:1003900000416363656C65726174696F6E3A2050E9
:1003A000004D31343520533C696E6465783E206FD2
:1003B0007574206F662072616E67652028302D315C
:1003C000290A002F2F20004348414D4245525F54D7
:1003D000454D5045524154555245004D4F54494F9B
:1003E0004E5F4D4F44455300544845524D414C5F7C
:1003F00050524F54454354494F4E004155544F526B
:1004000045504F52545F53445F5354415455530029
:1004100050524F4D50545F535550504F5254004519
:100420004D455247454E43595F5041525345520046
:10043000434153455F4C494748545F4252494748FE
:10044000544E45535300544F47474C455F4C494722
:1004500048545300534F4654574152455F504F57ED
:100460004552004255494C445F50455243454E5415
:10047000004C4556454C494E475F44415441005A53
:100480005F50524F4245004155544F4C4556454CE4
:10049000005052494E545F4A4F420050524F47520B
:1004A000455353004155544F5245504F52545F5499
:1004B000454D5000564F4C554D455452494300450B
:1004C0004550524F4D0042494E4152595F46494CAA
:1004D000455F5452414E534645520053455249419F
:1004E0004C5F584F4E5F584F4646004649524D5755
:1004F0004152455F4E414D453A4D61726C696E20E7
:100500006275676669782D322E302E78202847690B
:10051000746875622920534F555243455F434F44D9
:10052000455F55524C3A68747470733A2F2F67695F
:10053000746875622E636F6D2F4D61726C696E46C3
:1005400069726D776172652F4D61726C696E2050B2
:10055000524F544F434F4C5F56455253494F4E3ABA
:10056000312E30204D414348494E455F5459504546
:100570003A456E6465722D352045585452554445B0
:10058000525F434F554E543A3120555549443A63D2
:10059000656465326132662D343161322D34373411
:1005A000382D396231322D63353563363266333654
:1005B0003766660A00456E6465722D35204F4646E3
:1005C0002E006F6B0020573A0042656420636F6F06
:1005D0006C696E672E2E2E0042656420686561741A
:1005E000696E672E2E2E004D3131332053006F6619
:1005F0006600C401BF01B801B101A30144454255E1
:10060000473A0050726F7465637465642050696E78
:100610000A002569730025696D2025697300256925
:10062000682025696D202569730025696420256986
:10063000682025696D202569730025697920256961
:1006400064202569682025696D2025697300507232
:10065000696E742074696D653A20002E0A00446545
:100660006C6574696F6E206661696C65642C2046E8
:10067000696C653A200046696C652064656C657438
:1006800065643A00286E6F2066696C6529004375C1
:100690007272656E742066696C653A20005344205E
:1006A0007072696E74696E67206279746520004E9D
:1006B0006F74205344207072696E74696E670A000B
:1006C000456E642066696C65206C6973740A00422B
:1006D0006567696E2066696C65206C6973740A00D1
:1006E0004E6F206D6F76652E00436C69636B2074CE
:1006F0006F20726573756D652E2E2E004D657368C3
:1007000020706F696E742063616E6E6F7420626515
:10071000207265736F6C7665640A00205A3A200077
:1007200020593A200042656420583A2000000020F9
:1007300042000020420000C0400000614300006110
:100740004300009643FFFFFF486F6D652058592016
:1007500066697273740A00486F6D65205859206687
:100760006972737400536C6565702E2E2E00507282
:100770006F6265205A204F66667365740046696C27
:100780002E204469612E0046696C2E204469612E3A
:10079000004F6666004F6E004520696E206D6D5EED
:1007A0003300416476616E636564205365747469D7
:1007B0006E6773004D333033205531204525692055
:1007C00053256900504944204175746F74756E65F6
:1007D00000504944204175746F74756E650050492E
:1007E000442D44005049442D44005049442D4900B3
:1007F0005049442D49005049442D50005049442D42
:100800005000200820466163740020082046616380
:1008100074002008204D6178002008204D61780088
:100820002008204D696E002008204D696E004F663B
:1008300066004F6E004175746F74656D70004164A1
:1008400076616E6365642053657474696E677300C6
:100850000000614300006143000096430000000077
:100860000000000000000000290A00206279746581
:10087000733B20637263200053657474696E677301
:100880002053746F726564202800454550524F4DC7
:10089000206461746173697A65206572726F722E6B
:1008A0000A00290A002062797465733B2063726331
:1008B00020002073746F7265642073657474696EB0
:1008C00067732072657472696576656420280020FC
:1008D0002863616C63756C6174656429210A00206A
:1008E000213D2000454550524F4D20435243206D3D
:1008F00069736D61746368202D202873746F72654D
:10090000642920002053697A653A2000496E6465A5
:10091000783A2000204D61726C696E3D5636372959
:100920000A00454550524F4D2076657273696F6ECF
:10093000206D69736D617463682028454550524F7E
:100940004D3D0024F4D43050C38E20C2A240178203
:100950008B7011127A910D816CD90AA861E108C7D8
:10096000586607615143061E4B5D05C145A7041A31
:10097000411104093D9803713931034036DB0265AA
:10098000339102D4305402802E1D02632CEE017587
:100990002AC501B028A001102781018F2564012BF1
:1009A000244B01E0223401AC211F018D200D018078
:1009B0001FFC00841EED00971DDF00B81CD200E66E
:1009C0001BC600201BBC00641AB200B219A8000AA2
:1009D00019A0006A189900D117910040178B00B533
:1009E00016840031167E00B31579003A157300C7DE
:1009F000146F0058146A00EE136600881363002514
:100A0000135E00C7125B006C12570015125400C130
:100A100011510070114F0021114B00D61049008D6B
:100A20001047004610440002104200C00F400080F2
:100A30000F3E00420F3C00060F3B00CB0E380093E8
:100A40000E37005C0E3500270E3400F30D3200C166
:100A50000D3100900D3000600D2E00320D2D00057F
:100A60000D2C00D90C2B00AE0C2900850C29005C44
:100A70000C2700350C27000E0C2600E80B2400C4C0
:100A80000B2400A00B23007D0B23005A0B210039FF
:100A90000B2100180B2000F80A1F00D90A1E00BB0A
:100AA0000A1E009D0A1D00800A1D00630A1C0047E3
:100AB0000A1B002C0A1B00110A1A00F7091A00DD94
:100AC000091900C4091900AB091900920917007B24
:100AD000091800630917004C091600360916002092
:100AE0000916000A091500F5081500E0081400CCE5
:100AF000081400B8081400A4081400900813007D1E
:100B00000812006B0813005808120046081200343F
:100B1000081100230811001208110001081100F04B
:100B2000071000E0071000D0071000C0071000B049
:100B3000070F00A107100091070E0083070F007434
:100B4000070F0065070E0057070E0049070E003B10
:100B5000070D002E070E0020070D0013070D0006DD
:100B6000070D00F9060C00ED060D00E0060C00D4A0
:100B7000060C00C8060C00BC060C00B0060C00A455
:100B8000060B0099060C008D060B0082060B007701
:100B9000060B006C060B0061060A0057060B004CA2
:100BA000060A0042060A0038060A002E060A002439
:100BB000060A001A060A001006090007060A00FDC8
:100BC000050900F4050900EB050900E2050900D953
:100BD000050900D0050900C7050900BE050900B5D3
:100BE000050800AD050800A50509009C050800944E
:100BF0000508008C050800840508007C05080074C1
:100C00000508006C050700650508005D050700562E
:100C10000508004E05070047050700400508003895
:100C2000050700310507002A050700230507001CFA
:100C3000050600160507000F050700080506000257
:100C4000050700FB040600F5040700EE040600E8B3
:100C5000040600E2040700DB040600D5040600CF0A
:100C6000040600C9040600C3040600BD040600B75C
:100C7000040600B1040500AC040600A6040600A0AA
:100C80000405009B04060095040500900406008AF4
:100C900004050085040500800406007A040500753B
:100CA000040500700405006B04050066040500617E
:100CB0000405005C04050057040500520405004DBE
:100CC00004050048040500430405003E0404003AFE
:100CD00004050035040500300404002C0405002739
:100CE000040400230405001E0404001A0404001672
:100CF000040500110404000D0404000904050004A7
:100D000004040000040400FC030400F8030400F4DD
:100D1000030400F0030400EC030400E8030400E40F
:100D2000030400E0030400DC030400D8030400D43F
:100D3000030400D0030400CC030400C8030300C56F
:100D400003030024F404D9201BC40C5C0E9804C4D3
:100D5000095F0265077101F405F900FB04B300485F
:100D6000048700C10369005803550003034500BE12
:100D7000023A008402310053022A002902250004AD
:100D8000022000E4011C00C8011900AF01170098FF
:100D90000114008401130071011000610110005161
:100DA000010E0043010D0036010B002B010B00204A
:100DB000010B00150109000C01090003010800FBEB
:100DC000000800F3000800EB000700E4000600DE66
:100DD000000600D8000600D2000600CC000500C7BF
:100DE000000500C2000500BD000400B9000400B504
:100DF000000400B1000400AD000400A9000400A537
:100E0000000300A20003009F0004009B0003009861
:100E10000003009500020093000300900003008D82
:100E20000002008B0003008800020086000200849C
:100E3000000300810002007F0002007D0002007BB1
:100E400000020079000200770001007600020074C1
:100E500000020072000100710002006F0002006DCC
:100E60000001006C0002006A0001006900020067D6
:100E700000010066000100650001006400020062DC
:100E800000010061000100600001005F0002005DE0
:100E90000001005C0001005B0001005A00010059E4
:100EA00000010058000100570001005600010055E4
:100EB00000010054000100530000005300010052E3
:100EC00000010051000100500001004F0001004EE0
:100ED0000000004E0001004D0001004C0001004BDD
:100EE0000000004B0001004A0001004900010048D9
:100EF00000000048000100470001004600000046D5
:100F000000010045000000450001004400010043CD
:100F100000000043000100420000004200010041C7
:100F200000000041000100400001003F0000003FC0
:100F30000001003E0000003E0001003D0000003DB9
:100F40000001003C0000003C0000003C0001003BB0
:100F50000000003B0001003A0000003A00010039A7
:100F6000000000390001003800000038000000389F
:100F70000001003700000037000100360000003695
:100F8000000000360001003500000035000000358B
:100F90000001003400000034000000340001003380
:100FA0000000003300000033000100320000003276
:100FB000000000320001003100000031000000316B
:100FC0000001003000000030000000300001002F60
:100FD0000000002F0000002F0000002F0001002E55
:100FE0000000002E0000002E0001002D0000002D4A
:100FF0000000002D0000002D0001002C0000002C3E
:101000000000002C0000002C0001002B0000002B31
:101010000000002B0000002B0001002A0000002A25
:101020000000002A0000002A000100290000002919
:10103000000000290000002900000029000100280C
:101040000000002800000028000000280000002800
:1010500000010027000000270000002700000027F3
:1010600000000027000100260000002600000026E6
:1010700000000026000000260001002500000025D9
:1010800000000025000000250000002500000025CC
:1010900000010024000000240000002400000024BF
:1010A00000000024000100230000002300000023B2
:1010B00000000023000000230000002300000023A4
:1010C0000001002200000022000000220000002297
:1010D0000000002200000022000100210000002189
:1010E000000000210000002100000021000000217C
:1010F000000000210001002000000020000000206E
:10110000000000200000002000000020000000205F
:10111000000000200001001F0000001F0000001F51
:101120000000001F0000001F0000001F0000001F43
:101130000001001E0000001E0000001E0000001E36
:10114000000000043700001E290000511B00005859
:1011500010000010090000CC0400007802000041DB
:101160000100004F46460A004661646520486569F3
:101170006768742000426564204C6576656C696E12
:101180006720004661696C656420746F20656E613C
:10119000626C6520426564204C6576656C696E679B
:1011A0000A00496E76616C6964206D6573682E0A69
:1011B00000202844525952554E29004732392041C7
:1011C00075746F20426564204C6576656C696E6746
:1011D000003F20284C2C522C462C4229206F75743D
:1011E000206F6620626F756E64732E0A003F28566A
:1011F000296572626F7365206C6576656C20697312
:1012000020696D706C61757369626C652028302D82
:1012100034292E0A00426164205A2076616C75657B
:101220000A004E6F2062696C696E65617220677298
:1012300069640A00204500205A00205900204D39D9
:101240003220580020496E76616C6964206578749C
:10125000727564657220004361703A0047322F470F
:10126000332062616420706172616D6574657273B0
:101270000A004361726420696E736572746564006C
:10128000456E6465722D352052656164792E00507B
:1012900072696E74696E672E2E2E005072696E74BC
:1012A00020706175736564005072696E74206162AC
:1012B0006F72746564004531204572723A204D4169
:1012C0005854454D50004572723A204D415854458E
:1012D0004D5020424544004D415854454D502074D6
:1012E0007269676765726564004531204572723ABC
:1012F000204D494E54454D50004572723A204D499B
:101300004E54454D5020424544004D494E54454DA4
:101310005020747269676765726564004D383420C7
:10132000582059205A204500202F002042403A00E2
:1013300020403A007C3C3E5E2B3D3F2F5B5D3B2CCA
:101340002A225C002020506C616E6E6572427566C8
:1013500066657242797465733A200020467265654D
:10136000204D656D6F72793A200062756766697805
:101370002D322E302E780A004D61726C696E00207D
:10138000536F6674776172652052657365740A00E5
:10139000205761746368646F672052657365740ACF
:1013A000002042726F776E206F75742052657365EE
:1013B000740A002045787465726E616C2052657302
:1013C00065740A00506F77657255700A0073746116
:1013D00072740A006175746F25632E67004C6F612B
:1013E00064696E672073657474696E6773206672D2
:1013F0006F6D2053440A006572726F7220777269B4
:1014000074696E6720746F2066696C650A00446FAA
:101410006E6520736176696E672066696C652E0A59
:10142000004D323900456E6473746F70732025630C
:1014300020256320256320256300205A3A00205987
:101440003A0020583A00656E6473746F70732068B8
:1014500069743A2000473238585900205A3A00201F
:10146000593A0020436F756E7420583A0020453A6F
:1014700000205A3A0020593A00583A0020746F6F01
:10148000206C6F6E6720657874727573696F6E205B
:1014900070726576656E7465640A0020636F6C64B3
:1014A00020657874727573696F6E207072657665E9
:1014B0006E7465640A005761726E696E673A2048FF
:1014C0006F6D696E672042756D702044697669732F
:1014D0006F72203C20310A000202040000A040008C
:1014E00000A04000000040220A00556E6B6E6F772E
:1014F0006E20636F6D6D616E643A20220020746F00
:101500006F206C6F6E6720657874727573696F6E8B
:101510002070726576656E7465640A0020636F6C76
:101520006420657874727573696F6E207072657669
:10153000656E7465640A0000002100240027002AFB
:101540000000002200250028002B000000200023BE
:101550000026002900020202020202020204040420
:10156000040404040403030303030303030101014C
:101570000101010101010204081020408001020460
:101580000810204080010204081020408080402084
:101590001008040201000000010200090A00000016
:1015A0000004030807000000000000000000000025
:1015B00000000000004D6F766520302E3032356D12
:1015C0006D004D6F766520302E316D6D004D6F765C
:1015D0006520316D6D004D6F76652031306D6D0089
:1015E0004D6F7665206178697300486F74656E642D
:1015F00020746F6F20636F6C64004578747275643B
:101600006572004D6F7665205A004D6F76652059E2
:10161000004D6F766520580023646566696E65200D
:1016200044454641554C545F004B6420004B6920B3
:10163000004B702000504944204175746F74756EE2
:10164000652066696E697368656421205075742031
:10165000746865206C617374204B702C204B69207A
:10166000616E64204B6420636F6E7374616E74737B
:101670002066726F6D2062656C6F7720696E746F83
:1016800020436F6E66696775726174696F6E2E684C
:101690000A00504944204175746F74756E65206668
:1016A00061696C6564212074696D656F75740A00E9
:1016B000453120544845524D414C2052554E4157DA
:1016C000415900546865726D616C2052756E617786
:1016D00061790045312048656174696E67206661F3
:1016E000696C65640048656174696E67206661694C
:1016F0006C656400504944204175746F74756E6563
:10170000206661696C6564212054656D7065726145
:101710007475726520746F6F20686967680A0020AD
:101720004B643A2000204B693A2000204B703A204D
:10173000000A20436C617373696320504944200A96
:10174000002054753A2000204B753A2000206D612E
:10175000783A2000206D696E3A200020643A20001B
:1017600020626961733A2000504944204175746FCA
:1017700074756E652073746172740A005049442058
:101780004175746F74756E65206661696C6564215E
:101790002054656D706572617475726520746F6F29
:1017A00020686967680A00504944204175746F7465
:1017B000756E65206661696C6564212042616420F4
:1017C0006578747275646572206E756D6265720AF3
:1017D000004572723A207574663820666F6E742008
:1017E0006E6F7420696E697469616C697A65642EC4
:1017F000004572723A207574663820666F6E7420E8
:101800006E6F7420696E697469616C697A65642EA3
:10181000004572723A207574663820666F6E7420C7
:101820006E6F7420696E697469616C697A65642E83
:101830000000060C00FE07022603BC017FFE08FE26
:1018400008FE05080806000040F0C888889878104F
:10185000050808060000C0F88888888888F805050B
:10186000050600012030F830200508080600002099
:1018700070F820202020E00509090600FF2070A84C
:10188000A8B888887020050606060001E08CEA8C5E
:101890008A0A0509090600FFF8A88888888888A8A8
:1018A000F8050A0A0600FE205050505088A8A88863
:1018B0007003030306000340A040FFFFFFFFFFFF8C
:1018C000FFFFFFFFFFFFFFFFFFFFFFFFFFFFFFFF28
:1018D0000000000605FF01070706020080808080E7
:1018E000800080030303060105A0A0A005060606EC
:1018F000000050F85050F8500509090600FF20700C
:10190000A8A07028A87020050707060000C8C81006
:101910002040989805070706000040A0A040A89026
:10192000680103030602058080800309090601FFA0
:101930002040408080804040200309090601FF804C
:10194000404020202040408005070706000020A8D6
:10195000702070A8200505050600012020F8202031
:101960000203030601FFC04080050101060003F8E1
:10197000020202060100C0C00507070600000810A9
:101980001020404080050707060000708898A8C80E
:10199000887003070706010040C040404040E00552
:1019A0000707060000708808102040F805070706A2
:1019B0000000F808103008887005070706000010BE
:1019C000305090F81010050707060000F880F00866
:1019D000088870050707060000304080F08888708E
:1019E000050707060000F80810102020200507074B
:1019F0000600007088887088887005070706000058
:101A000070888878081060020505060100C0C000D3
:101A1000C0C00206060601FFC0C000C0408003052A
:101A2000050601012040804020050303060002F85E
:101A300000F80305050601018040204080050707E6
:101A4000060000708810202000200507070600000F
:101A50007088B8A8B88070050707060000708888ED
:101A6000F8888888050707060000F048487048484D
:101A7000F0050707060000708880808088700507E1
:101A800007060000F04848484848F00507070600E8
:101A900000F88080F08080F8050707060000F880D5
:101AA00080F080808005070706000070888080989D
:101AB0008870050707060000888888F888888803EA
:101AC0000707060100E04040404040E005070706E8
:101AD00000003810101010906005070706000088FD
:101AE00090A0C0A090880507070600008080808035
:101AF0008080F805070706000088D8A888888888AD
:101B00000507070600008888C8A898888805070781
:101B1000060000708888888888700507070600001E
:101B2000F08888F0808080050707060000708888AC
:101B300088A89068050707060000F08888F0A09044
:101B40008805070706000070888070088870050700
:101B500007060000F82020202020200507070600A7
:101B600000888888888888700507070600008888AC
:101B7000888850502005070706000088888888A8B4
:101B8000A85005070706000088885020508888055F
:101B90000707060000888850202020200507070638
:101BA0000000F80810204080F80309090601FFE052
:101BB00080808080808080E00507070600008040EC
:101BC00040201010080309090601FFE02020202012
:101BD000202020E0050303060005205088050101B0
:101BE0000600FEF8030303060105804020050505F5
:101BF00006000070087888780507070600008080D6
:101C0000F0888888F00505050600007080808870DF
:101C10000507070600000808788888887805050504
:101C20000600007088F08070050707060000304845
:101C300040E04040400507070600FE70888888782D
:101C400008700507070600008080F08888888803F0
:101C500007070601004000C0404040E004090906B3
:101C600001FE1000301010101090600507070600EC
:101C70000080808890E09088030707060100C0403C
:101C800040404040E0050505060000D0A8A8A8A8EF
:101C9000050505060000B0C888888805050506000A
:101CA0000070888888700507070600FEF08888881D
:101CB000F080800507070600FE7888888878080885
:101CC000050505060000B0C88080800505050600F2
:101CD0000078807008F00507070600002020F82033
:101CE00020201805050506000088888898680505E5
:101CF0000506000088888850200505050600008834
:101D000088A8A850050505060000885020508805C1
:101D100007070600FE8888885020408005050506D4
:101D20000000F8102040F80309090601FF20404098
:101D30004080404040200109090602FF80808080E9
:101D400080808080800309090601FF804040402098
:101D50004040408005030306000248A890FF5072EF
:101D6000656865617420504C4120456E6400507276
:101D7000656865617420504C412042656400507272
:101D8000656865617420504C410054656D706572E2
:101D900061747572650050726568656174204142B6
:101DA0005320456E6400507265686561742041423D
:101DB0005320426564005072656865617420414239
:101DC000530054656D706572617475726500436F80
:101DD0006F6C646F776E0050726568656174204146
:101DE0004253005072656865617420504C41004652
:101DF000616E2073706565640046616E2073706566
:101E000065640042656400426564004E6F7A7A6CD6
:101E100065004E6F7A7A6C65004D61696E00507294
:101E20006F6265205A204F666673657400466C6F5A
:101E30007700466C6F770046616E2073706565644D
:101E40000046616E207370656564004265640042FF
:101E50006564004E6F7A7A6C65004E6F7A7A6C65B5
:101E6000005370656564005370656564004D616979
:101E70006E0025753A2530327500253032753A25C9
:101E80003032750025756420253032753A253032A0
:101E90007500202020202020200020202020001F4E
:101EA000E0201020102010102010202010201030D2
:101EB000300840048003001FE03FF03FF03FF01F78
:101EC000E01FE03FF03FF03FF00FC0078003003F0E
:101ED000FFF038007030FC3020FC102078102030EB
:101EE000102C00D02E31D02F7BD02F7BD02E31D094
:101EF0002C00D020301020781020FC1030FC30381E
:101F000000703FFFF03FFFF03800703186302387CC
:101F1000102787902F87D02F03D0203010207810E3
:101F20002078102030102F03D02F87D027879023C0
:101F300087103186303800703FFFF01FFFF81FFF19
:101F4000F8041040020820020820041040082080F5
:101F50001041001041000820800410400000001FC4
:101F6000FFF81FFFF853442063617264206F6B0A0F
:101F7000006F70656E526F6F74206661696C656486
:101F80000A00766F6C756D652E696E6974206661E6
:101F9000696C65640A00534420696E697420666147
:101FA000696C0A004D3234004D32332025730057DE
:101FB000726974696E6720746F2066696C653A2077
:101FC000002E0A006F70656E206661696C65642C76
:101FD0002046696C653A20002E0A006F70656E20FD
:101FE0006661696C65642C2046696C653A20004620
:101FF000696C652073656C65637465640A002053C1
:10200000697A653A200046696C65206F70656E6577
:10201000643A2000667265736800646F696E6700D9
:102020002066696C653A20004E6F772000454E446B
:1020300020535542524F5554494E450A00222070B4
:102040006F73002220706172656E743A22005355DE
:1020500042524F5554494E452043414C4C207461E7
:10206000726765743A2200747279696E6720746FC2
:102070002063616C6C207375622D67636F646520EB
:1020800066696C6573207769746820746F6F206D62
:10209000616E79206C6576656C732E204D415820F9
:1020A0006C6576656C2069733A310A00024D61787F
:1020B0002054656D703A20313235004D696E2054E0
:1020C000656D703A203500544265643A4550434F7F
:1020D00053203130304B004D61782054656D703A9B
:1020E00020333030004D696E2054656D703A2035D4
:1020F0000054303A204550434F53203130304B008C
:102100005053553A2047656E657269630050726F8F
:10211000746F636F6C3A20312E3000426175643AFF
:1021200020313135323030004D656C7A69202843DA
:102130007265616C697479290042696C696E6561C8
:1021400072204C6576656C696E67004578747275AF
:10215000646572733A203100687474703A2F2F6D81
:1021600061726C696E66772E6F726700456E64658A
:10217000722D3500323031392D30372D3035006237
:1021800075676669782D322E302E78004D61726C3D
:10219000696E00546865726D6973746F7273004282
:1021A0006F61726420496E666F005072696E74656B
:1021B0007220496E666F004D61696E003F00537476
:1021C0006F70207072696E74004261636B005374AB
:1021D0006F70004D3235005072696E7420706175F9
:1021E000736564005061757365207072696E740068
:1021F0004D323400496E69742E205344206361725D
:1022000064004D3231005072696E742066726F6DD9
:102210002053440052656C6561736520534420630C
:10222000617264004D32320041626F7574205072E9
:10223000696E74657200436F6E666967757261746A
:10224000696F6E0054656D706572617475726500BA
:102250004D6F74696F6E00526573756D6520707295
:10226000696E7400436172642072656C65617365A8
:10227000640054756E650053746F70207072696EDF
:1022800074005061757365207072696E7400496ED8
:10229000666F2073637265656E00220A00656E7159
:1022A00075657565696E672022006F6B00526573F6
:1022B000656E643A200053544F505045442E200020
:1022C0005072696E7465722073746F7070656420EB
:1022D00064756520746F206572726F72732E20466C
:1022E000697820746865206572726F7220616E640F
:1022F00020757365204D39393920746F20726573EC
:10230000746172742E202854656D706572617475E5
:1023100072652069732072657365742E205365742D
:1023200020697420616674657220726573746172CD
:1023300074696E67290A004E6F20436865636B738A
:10234000756D2077697468206C696E65206E756D97
:102350006265722C204C617374204C696E653A2062
:10236000004E6F20436865636B73756D20776974E9
:1023700068206C696E65206E756D6265722C204CEC
:10238000617374204C696E653A2000636865636B05
:1023900073756D206D69736D617463682C204C6179
:1023A0007374204C696E653A20004C696E65204E4E
:1023B000756D626572206973206E6F74204C617355
:1023C00074204C696E65204E756D6265722B312CE0
:1023D000204C617374204C696E653A20004D313198
:1023E00030004D33310053442072656164206572C2
:1023F000726F720A00446F6E65207072696E746944
:102400006E672066696C650A0020573A00452043D4
:102410006F6F6C696E672E2E2E00452048656174C3
:10242000696E672E2E2E004572726F722077726968
:1024300074696E6720746F20454550524F4D210AD4
:10244000000F150E1216170E1303021A1401000EB8
:102450000C190DFF180C040001627573793A207095
:10246000617573656420666F7220696E7075740A99
:1024700000627573793A2070617573656420666FC8
:102480007220757365720A00627573793A207072F2
:102490006F63657373696E670A004B494C4C206328
:1024A000617573656420627920746F6F206D756348
:1024B0006820696E6163746976652074696D652052
:1024C0002D2063757272656E7420636F6D6D616E21
:1024D000643A2000506C65617365207265736574A1
:1024E000005052494E5445522048414C54454400F6
:1024F0004B494C4C45442E20005072696E746572F5
:102500002068616C7465642E206B696C6C282920CE
:1025100063616C6C6564210A0053544F505045440C
:102520002E20005072696E7465722073746F707023
:1025300065642064756520746F206572726F7273B4
:102540002E2046697820746865206572726F72204B
:10255000616E6420757365204D39393920746F20A0
:10256000726573746172742E202854656D70657283
:1025700061747572652069732072657365742E20AD
:102580005365742069742061667465722072657386
:1025900074617274696E67290A006563686F3A0036
:1025A0004572726F723A0042696C696E65617220A1
:1025B0004C6576656C696E6720477269643A0A00FB
:1025C00053544F502063616C6C6564206265636195
:1025D000757365206F6620424C546F756368206583
:1025E00072726F72202D207265737461727420771D
:1025F000697468204D3939390A0053544F502063AB
:10260000616C6C65642062656361757365206F66DB
:1026100020424C546F756368206572726F72202D72
:1026200020726573746172742077697468204D3903
:1026300039390A002E0A006F70656E206661696C78
:1026400065642C2046696C653A20004D6F766520E4
:1026500058004D6F76652059004D6F7665205A0001
:102660004578747275646572004578747275646536
:1026700072004D6F7665205A004D6F7665205900C7
:102680004D6F76652058004D6F74696F6E00446918
:102690007361626C65207374657070657273004D50
:1026A0003834004175746F20686F6D6500473238AB
:1026B000004D6F76652061786973004D61696E0029
:1026C0003F005374617274207072696E742000430D
:1026D000616E63656C005072696E740043616E6E6A
:1026E0006F7420656E746572207375626469723AE6
:1026F0002000022E2E000152656672657368004D3F
:1027000061696E0043616E6E6F74206F70656E203C
:10271000737562646972200048617264636F6465F6
:10272000642044656661756C742053657474696EC9
:102730006773204C6F616465640A00F4010000F463
:1027400001000064000000881300000000FA43004C
:1027500000FA430000A0400000C8410000A0420071
:1027600000A0420000C8430000BA423A0A002020FC
:102770004D383531205A005A2D50726F6265204F06
:1027800066667365740020440020490020204D33A4
:1027900030312050005049442073657474696E676D
:1027A000733A0A0020460020420020480020204DB5
:1027B0003134352053004D6174657269616C206855
:1027C000656174757020706172616D657465727396
:1027D0003A0A00204A002020473239205720490079
:1027E000205A0020204D3432302053004175746F40
:1027F00020426564204C6576656C696E673A0A0014
:10280000205A0020590020204D32303620580048F0
:102810006F6D65206F66667365743A0A0020450027
:10282000205A002059002058002054002053002036
:10283000204D32303520420020453C6D61785F6587
:102840005F6A65726B3E0020583C6D61785F785F0F
:102850006A65726B3E20593C6D61785F795F6A658D
:10286000726B3E205A3C6D61785F7A5F6A65726B6D
:102870003E00416476616E6365643A20423C6D6956
:102880006E5F7365676D656E745F74696D655F75A6
:10289000733E20533C6D696E5F666565647261745A
:1028A000653E20543C6D696E5F74726176656C5F45
:1028B00066656564726174653E00205400205200B4
:1028C00020204D323034205000416363656C6572C6
:1028D0006174696F6E2028756E6974732F73322965
:1028E0003A20503C7072696E745F616363656C3E40
:1028F00020523C726574726163745F616363656CDE
:102900003E20543C74726176656C5F616363656CF4
:102910003E0A00204500205A0020590020204D3258
:1029200030312058004D6178696D756D20416363C9
:10293000656C65726174696F6E2028756E69747359
:102940002F7332293A0A00204500205A00205900EE
:1029500020204D3230332058004D6178696D756DFF
:10296000206665656472617465732028756E69748C
:10297000732F73293A0A005374657073207065725F
:1029800020756E69743A0A0020204D3230302044A0
:10299000300A0020204D323030204400204469733A
:1029A00061626C65640A0046696C616D656E7420D5
:1029B00073657474696E67733A0020204D31343941
:1029C0002043203B20556E69747320696E20436557
:1029D0006C736975730A0020286D6D2900202047EB
:1029E0003231202020203B20556E69747320696E9F
:1029F000206D6D00486F6D696E67206661696C655A
:102A000064006F70656E0054524947474552454413
:102A1000003A20007A5F6D696E00795F6D696E0023
:102A2000785F6D696E005265706F7274696E6720B1
:102A3000656E6473746F70207374617475730A00CB
:102A400046696C616D656E740054656D7065726188
:102A50007475726500436F6E66696775726174693B
:102A60006F6E00436D643A2053746F7700436D645A
:102A70003A204465706C6F7900436D643A20536569
:102A80006C662D5465737400436D643A2053572D62
:102A90004D6F646500436D643A2052657365740040
:102AA000436F6E66696775726174696F6E00526517
:102AB00073746F7265206661696C73616665004C42
:102AC0006F61642073657474696E67730053746F0B
:102AD00072652073657474696E677300424C546F3D
:102AE0007563680050726F6265205A204F66667386
:102AF000657400416476616E636564205365747427
:102B0000696E6773004D61696E00626564002C2018
:102B100073797374656D2073746F707065642120B0
:102B20004865617465725F49443A200042656420DB
:102B300068656174696E67206661696C65640048E8
:102B4000656174696E67206661696C656400424501
:102B50004420544845524D414C2052554E41574116
:102B60005900546865726D616C2052756E617761B1
:102B7000790045312048656174696E672066616936
:102B80006C65640048656174696E67206661696C94
:102B9000656400453120544845524D414C20525502
:102BA0004E4157415900546865726D616C205275F1
:102BB0006E6177617900202D20496E76616C6964C1
:102BC000206578747275646572206E756D626572C9
:102BD00020210A0070012C0190012701B00122017F
:102BE000C0011D01F00118011002130130020E0195
:102BF0006002090190020401C002FF000003FA0014
:102C00004003F5008003F000D003EB002004E60051
:102C10007004E100E004DC004005D700C005D200EC
:102C20004006CD00D006C8008007C3003008BE00B3
:102C3000F008B900C009B400B00AAF00B00BAA0098
:102C4000D00CA500000EA000500F9B00C0109600F5
:102C50005012910000148C00C0158700B01782003C
:102C6000B0197D00D01B7800001E730040206E005C
:102C700090226900F024640040275F0090295A00E8
:102C8000E02B5500102E500020304B001032460033
:102C9000E033410090353C00103737007038320087
:102CA000A0392D00B03A2800A03B2300603C1E0054
:102CB000103D1900903D1400103E0F00703E0A00B8
:102CC000C03E0500003F0000403FFBFF803FF6FF95
:102CD000C03FF1FF453120544845524D414C2052F0
:102CE000554E415741590042454420544845524DA4
:102CF000414C2052554E4157415900546865726D00
:102D0000616C2052756E617761790050726F6269F3
:102D10006E67206661696C65640A0050726F626953
:102D20006E67206661696C656400486F6D6520257B
:102D30007325732573206669727374002066697247
:102D400073740A00486F6D65200020EEE1ED1124D8
:102D50001FBECFEFD0E4DEBFCDBF12E0A0E0B1E0F8
:102D6000E6EAF7EF01E00BBF02C007900D92A43630
:102D7000B107D9F723E1A4E6B2E001C01D92AE3954
:102D8000B207E1F716E1C6EAD6E104C02197FE01D9
:102D90000E9432FBC53AD107C9F70E94DCE60C94C9
:102DA000C6FB0C9400002F923F924F925F926F925D
:102DB0007F928F929F92AF92BF92CF92DF92EF92CB
:102DC000FF920F931F93CF93DF93CDB7DEB7EE97AC
:102DD0000FB6F894DEBF0FBECDBF20910C032CAB15
:102DE00091E090930C0380910B038D3409F495C30B
:102DF000843511F40C94BB27873411F00C94D6273A
:102E00002091090330910A032B31310509F48DC05B
:102E10009CF42430310534F422303105CCF537FFF1
:102E20002BC077C32430310509F441C02531310569
:102E300011F40C94D8276DC32A32310509F49BC2D2
:102E40005CF42D31310509F411C10CF4FFC02E31B1
:102E5000310509F40FC15DC32B35310509F4C3C138
:102E60002C35310509F4C3C12A35310509F051C3A8
:102E7000109208030C94D82780912301882311F421
:102E80000C94D8270E94AC4A0E94666F0C94D827F5
:102E900080912301882311F40C94D82781E02230FB
:102EA000310509F080E00E942F4B0C94D82780E573
:102EB0000E94E3BE882329F00E94A2506B017C018E
:102EC00003C0C12CD12C760183E50E94E3BE882388
:102ED00061F00E9463BE20E030E04AE754E40E94C3
:102EE000E7F30E945FF96B017C010E949349809196
:102EF0006205811105C060E085E697E00E94EE5D05
:102F00000E94376AC60ED71EE81EF91E0E94376A55
:102F1000DC01CB018C199D09AE09BF09B7FD02C0C8
:102F20000C94D8270E944ABAF1CF0E9414E4811170
:102F30000C94D82780E090E0A0E2B1E489839A83E2
:102F4000AB83BC8380E090E0A7E5B3E48D839E83F0
:102F5000AF83B88780E090E0A0EAB1E489879A87E0
:102F6000AB87BC8760E070E080E50E94545040E091
:102F700050E068EC72E44CA35DA36EA37FA340E035
:102F800050E060EA70E448A359A36AA37BA38130B0
:102F900019F0823039F029C0BE01605E7F4FCE014A
:102FA000099644C029853A854B855C856091AE05BC
:102FB0007091AF058091B0059091B1050E94ECF73A
:102FC0006B017C0120E030E046E953E40E9481F38C
:102FD00087FD06C0C12CD12C76E9E72E73E4F72ECD
:102FE000CC8EDD8EEE8EFF8E1CC0E090AE05F09094
:102FF000AF050091B0051091B105A984BA84CB84C6
:10300000DC849501A601B701C8010E9481F387FF06
:1030100002C075018601C701D8018C8F9D8FAE8FCC
:10302000BF8FBE01605E7F4FCE014C960E944F73F2
:10303000AE014C5D5F4FBE016B5F7F4FCE010196CD
:103040000E942D730E943B750C94D8278091951394
:103050008770873011F00C94DE2760E08FE40E94C7
:10306000B25281110C94D8270C94DE270E94DA52B8
:103070000C94D82720E030E040E252E46091A605AD
:103080007091A7058091A8059091A9050E94ECF781
:10309000AB01BC0188E50E94398E6C8F7D8F8E8FCD
:1030A0009F8F20E030E040E251E46091AA057091EA
:1030B000AB058091AC059091AD050E94ECF7AB019A
:1030C000BC0189E50E94398E9B01AC0169837A833A
:1030D0008B839C836C8D7D8D8E8D9F8D0E94BFB563
:1030E000882311F40C94D82780E00E940DC10E941F
:1030F0004D7261E085E40E94B25221E0482FBE018A
:103100006F5F7F4FCE014C960E948FE46B017C0174
:103110009B01AC010E94DEFA81115FC08C8C9D8CFA
:10312000AE8CBF8C20E030E0A901C501B4010E9443
:1031300081F387FF05C027E137EB41E558EB04C079
:1031400027E137EB41E558E3C501B4010E94ECF7F4
:10315000AB01BC0185E297E00E94F8C489809A80A7
:10316000AB80BC8020E030E0A901C501B4010E9421
:1031700081F387FF05C027E137EB41E558EB04C039
:1031800027E137EB41E558E3C501B4010E94ECF7B4
:10319000AB01BC0180E297E00E94F8C420E030E07F
:1031A000A901C701B6010E9481F387FF05C027E18D
:1031B00037EB41E558EB04C027E137EB41E558E335
:1031C000C701B6010E94ECF7AB01BC018BE197E0AF
:1031D0000E94F8C48AE00E9443BA0E9434720E949E
:1031E0003B750C94D827909308030C94D82731E7AB
:1031F000232E31E0332E4AEEE42E42E0F42EA6EAEE
:10320000B5E0B9A7A8A75FE7C52E53E1D52E00E02A
:1032100010E0F10181911F010E94E3BE882309F4AF
:103220004AC00E9463BE2B013C01133049F0D60115
:103230002D913D914D915C910E94EBF72B013C014A
:10324000E8A5F9A52081318142815381C301B201F2
:103250000E94EBF74B015C012DEB37E346E855EBA1
:103260000E944CFA87FD0AC02DEB37E346E855E390
:10327000C501B4010E9481F31816ECF4133051F427
:103280004092B2055092B3056092B4057092B505B4
:1032900001E011C0A5019401D7016D917D918D913F
:1032A0009C910E94ECF7F701608371838283938382
:1032B000812F0E94466F1F5FF4E0EF0EF11C28A5DE
:1032C00039A52C5F3F4F39A728A734E0C30ED11C86
:1032D000143009F09ECF002309F449C02091E70A79
:1032E0003091E80A4091E90A5091EA0A6091B205EA
:1032F0007091B3058091B4059091B5050E94E7F3F4
:103300000E9459FA6093661070936710809368105A
:10331000909369109091441080914510981719F07E
:103320000E94354924C00E94934980916F00982FD4
:10333000927081FF05C080916F008D7F80936F0038
:1033400040916610509167106091681070916910FB
:103350004093E6025093E7026093E8027093E9021B
:10336000992329F080916F00826080936F000E9402
:103370003B750C94D82780912301882311F40C9479
:10338000D82789E40E94E3BE082F882321F00E94F9
:10339000C752E82E01C0E12C8AE40E94E3BE182F38
:1033A000882321F00E94C752F82E01C0F12C00237F
:1033B00019F042E04E1528F0112349F052E05F1554
:1033C00030F48CEF96E00E9440C40C94D82780E142
:1033D000E6EAF5E0A8EFB2E001900D928A95E1F7F8
:1033E0000023F1F02091D2023091D3024E2D4203FE
:1033F000B001439F700D11248091D6029091D702A5
:10340000680F791F072E000C880B990B0E9488F318
:103410006093F8027093F9028093FA029093FB0292
:103420001123F1F02091D4023091D5025F2D520387
:10343000B001539F700D11248091D8029091D90250
:10344000680F791F072E000C880B990B0E9488F3D8
:103450006093FC027093FD028093FE029093FF0242
:1034600060E080E50E94B252882381F10023B1F030
:1034700020E030E040E252E46091F8027091F902FD
:103480008091FA029091FB020E94EBF76093F802A0
:103490007093F9028093FA029093FB021123B1F02A
:1034A00020E030E040E251E46091FC027091FD02C6
:1034B0008091FE029091FF020E94EBF76093FC0264
:1034C0007093FD028093FE029093FF0240E050E073
:1034D000BA0186E40E94398E6B017C0120E030E065
:1034E000A9010E944CFA181684F420E030E040E76D
:1034F00052E4C701B6010E94E6F860936D01709333
:103500006E0180936F01909370010E94666F0C941E
:10351000D8270E94D3840C94D827809109039091D6
:103520000A038537910509F44CC70CF024C18C348B
:10353000910509F4EDC40CF055C08931910509F4E9
:10354000F0C21CF58431910509F496C27CF48131F6
:10355000910509F486C22CF4029708F40BC20C946E
:10356000B827429709F43EC60C94B82786319105D6
:1035700009F4ACC20CF4A6C28731910509F4AFC2BC
:10358000489709F4C2C20C94B8278E31910509F40A
:103590004CC3ACF48B31910509F4EAC20CF4DAC2E5
:1035A0008C31910509F437C34D9711F00C94B8276D
:1035B0008091E3118E7F8093E3110C94D8278032A1
:1035C000910509F491C30CF4D5C38A32910509F42D
:1035D0007CC48B34910511F00C94B8270E941157CC
:1035E0000C94D8278A36910509F4BBC5B4F5843507
:1035F000910509F4F7C5E4F48135910509F4DBC5BB
:103600004CF48D34910511F00C94B8270E94355775
:103610000C94D8278235910509F4E1C583359105CD
:1036200011F00C94B82781E08093B3020C94D82752
:103630008C35910509F422C634F48535910509F4D9
:1036400004C60C94B8278836910509F476C48936E7
:10365000910509F44CC50C94B8278F36910509F4EF
:10366000A7C484F48C36910509F4E7C40CF498C51A
:103670008D36910509F485C48E36910509F485C40B
:103680000C94B8278137910509F4E3C40CF4DAC42B
:103690008237910509F490C68337910511F00C9497
:1036A000B8278BEE94E00E9440C460E08BED94E07C
:1036B0000E94784A60E086EC94E00E94784A61E0DB
:1036C0008FEB94E00E94784A61E084EB94E00E94E2
:1036D000784A61E084EA94E00E94784A60E08BE9ED
:1036E00094E00E94784A61E081E994E00E94784A7F
:1036F00061E087E894E00E94784A61E08FE794E017
:103700000E94784A61E081E794E00E94784A60E094
:1037100083E694E00E94784A60E084E594E00E94A9
:10372000784A60E086E494E00E94784A60E080E3B2
:1037300094E00E94784A60E08FE194E00E94784A29
:1037400060E080E194E00E94784A60E08BEF93E0D3
:103750000E94784A61E088EE93E00E94784A60E037
:103760008BED93E00E94784A60E087EC93E00E9442
:10377000784A0C94D8278232A1E09A0711F40C946D
:103780004A250CF071C0893C910509F408C78CF5F5
:103790008C38910509F47FC4BCF48737910509F48E
:1037A0004BC60CF416C68837910509F448C689370C
:1037B000910511F00C94B8271092F6021092F702BE
:1037C0000E9476D60C94D8278B39910509F4A3C4AE
:1037D00034F48139910509F43AC60C94B8278E3B2C
:1037E000910509F472C4883C910509F48BC60C94C8
:1037F000B827833D910509F452C7F4F48C3C910538
:1038000009F412C734F48B3C910509F4EEC60C940C
:10381000B8278D3C910509F415C78E3C910511F030
:103820000C94B82741E7C42E41E0D42E5DE8E52E84
:1038300052E0F52E10E021C78D3D910511F40C9456
:10384000122434F48C3D910509F4DFC70C94B82799
:10385000823E910511F40C9468248831914011F452
:103860000C94B3240C94B827853AF1E09F0711F427
:103870000C943D26DCF5803931E0930711F40C946B
:103880002E26ECF48D3251E0950711F40C946A2544
:103890003CF48C32914011F40C9455250C94B827CB
:1038A0008E32E1E09E0711F40C94EA258F329140AC
:1038B00011F00C94B8270E94508E0C94D8278239AE
:1038C00021E0920711F40C94372614F40C9431265D
:1038D0008A3941E0940709F4B9C3843A914011F060
:1038E0000C94B8270E940B510C94D827873FA1E075
:1038F0009A0711F40C944D27ECF4843FE1E09E0705
:1039000011F40C9447273CF48C3A914011F40C9438
:10391000A2260C94B827853F31E0930711F40C944C
:103920004A27863F914011F00C94B8270E9490D608
:103930000C94D827833553E0950711F40C946D2728
:103940006CF4883FB1E09B0711F40C9454278C3041
:10395000924011F40C9465270C94B827803AF3E058
:103960009F0709F4F7C1873E934011F40C94AA27EE
:103970000C94B827A090D002B090D10280E50E94AC
:10398000E3BE882359F00E94A2506B017C0111E034
:10399000672B682B692B31F410E004C010E0C12CB8
:1039A000D12C760183E50E94E3BE882311F40C94A8
:1039B00082290E9463BE20E030E04AE754E40E947E
:1039C000E7F30E945FF96B017C0111110BC0672BBB
:1039D000682B692B39F4A114B10421F0D5018C9125
:1039E000811102C010E001C011E00E94934911232F
:1039F00029F061E0C5010E943C5E05C060E089EEEF
:103A000096E00E94EE5D83E080930C0381E080935A
:103A1000CF02C114D104E104F104B1F00E94376A6D
:103A2000C60ED71EE81EF91E0E94376ADC01CB01C4
:103A30008C199D09AE09BF09B7FF0DC08091CF0257
:103A400081110C94872907C08091CF02882319F037
:103A50000E944ABAF9CF0E94645E1092CF020C9481
:103A6000D82760E080EE96E00E94EE5D5E985E985A
:103A700015985E980C94D8278FEC96E00E9440C46D
:103A80001092CE028EEF9FE00E945E638BE1EEEF1C
:103A9000FFE0DE01119601900D928A95E1F740E07A
:103AA00050E0BE016F5F7F4F80E090E00E94EBD35B
:103AB000CE0101960E94636380EC96E00E9440C4B0
:103AC0000C94D8270E9464A40C94D8270E945BA26F
:103AD0008091E311877F8093E3110C94D827E091C4
:103AE000D002F091D1028081882329F0803209F43C
:103AF00010823196F8CF40E061E08091D002909141
:103B0000D1020E946AA20C94D8270E947AB288231C
:103B100021F00E94C0A30E9411570E94645E0C9481
:103B2000D8278091E31182FF03C08B7F8093E3113C
:103B30008091CD02813089F782E08093CD020E948E
:103B4000376A6093C9027093CA028093CB02909344
:103B5000CC02E3CF8091E31183FD02C00C94D827FF
:103B600083E50E94E3BE81110C948B290C94D82725
:103B700083E40E949ABE882319F18EE896E00E94A1
:103B800040C48091A80F882391F0BE016F5F7F4FE2
:103B900085EA9FE00E9425628E010F5F1F4FF801AA
:103BA00081918F01882339F00E9443BAF8CF84E8CD
:103BB00096E00E9440C48AE00E9443BA0C94D82741
:103BC0008091E31182FF21C08DE996E00E9440C4FC
:103BD0006091DF117091E0118091E1119091E211FB
:103BE0004AE00E94DDBC8FE20E9443BA6091DB1183
:103BF0007091DC118091DD119091DE114AE00E94FC
:103C0000DDBC0E94DBBD0C94D8278FEA96E00E94B1
:103C100040C40C94D82740E060E08091D00290919D
:103C2000D1020E946AA20C94D8278091E31183FDEF
:103C300002C00C94D8270E94BC848091E31183FDBC
:103C400002C00C94D8276091D0027091D102CE01AD
:103C50004C960E9434C98C01009711F40C94D8271B
:103C60006C8D7D8D19821C8222E0AC01CE01019603
:103C70000E940D66811102C0F12C14C0CE01019684
:103C80000E94A2C88823C1F361E0CE0101960E9480
:103C90000962009789F325EEDC012C931C820E94B7
:103CA000AACFF82ECE0101960E946363B801FF20CF
:103CB00089F086E796E00E9416C58AE00E9443BA22
:103CC0001092DF111092E0111092E1111092E211A6
:103CD0000C94D8278EE596E00E9416C58BE596E0F9
:103CE0000E9440C40C94D8278091E31182FD0E9469
:103CF00093498091E31183FD02C00C94D82760E0C2
:103D000080E50E94B252182F482F61E08091D002C6
:103D10009091D1020E946AA283E50E94E3BE8823AB
:103D200081F00E9453BEAB01BC014093DF11509360
:103D3000E0116093E1117093E21185EA9FE00E9427
:103D4000D0D10E94C0A311110C94D8270E94115702
:103D50000C94D8272091D0023091D1029091E31198
:103D600092609093E31140E060E0C9010E946AA272
:103D70000C94D8270E94793F7B018C0120E831E523
:103D800041E050E00E9488F7C9016DE671E00E94B1
:103D90000AFB4B015C01C801B70120E13EE040E0B5
:103DA00050E00E9488F7CA01B90128E130E040E004
:103DB00050E00E9488F7762E672EC62ED72E2CE371
:103DC000222E312C412C512CC801B701A2019101A6
:103DD0000E9488F7F62EE72ECA01B901A2019101CF
:103DE0000E9488F7CB018E010F5F1F4F8114910451
:103DF00099F0EF92FF927F936F936F927F92BF92B1
:103E0000AF929F928F928AE396E09F938F931F9336
:103E10000F930E9419F313C0A114B104B1F0EF92F3
:103E2000FF927F936F936F927F92BF92AF928AE2DD
:103E300096E09F938F931F930F930E9419F30FB6F1
:103E4000F894DEBF0FBECDBF30C0CD2879F0EF9221
:103E5000FF927F936F936F927F928EE196E09F9394
:103E60008F931F930F930E9419F3E9CF892B69F069
:103E7000EF92FF927F936F9386E196E09F938F93EB
:103E80001F930F930E9419F3DACFEF92FF9282E112
:103E900096E09F938F931F930F930E9419F30F90B7
:103EA0000F900F900F900F900F9060E0C8010E944C
:103EB0003C5E0E942DC5B8018EE496E00E9416C5B6
:103EC0008AE00E9443BA0C94D82783E50E94E3BE9F
:103ED000882311F40C94D8270E94B250F82E6FEF6B
:103EE0007FEF80E50E94CB528C0197FF02C00C94BB
:103EF000D827E82E60E089E40E94B25281110C9428
:103F00009C29802F0E94FBED8111FFC40C949C29F9
:103F10008091CD02813011F00C94D82782E08093FB
:103F2000CD020E94376A6093C9027093CA028093DF
:103F3000CB029093CC020C94D8278091C60A83FFC1
:103F400002C00C94D8270E94C65087FF02C00C9470
:103F5000D82783E50E94E3BE882379F00E9463BEE0
:103F60000E9458F98B01CB010E9468670635110544
:103F700024F40E9435570E94645E0E949A480C9473
:103F8000D8270E9482B00C94D8278EE40E94E3BE0A
:103F9000882311F40C94D8270E9453BE6093C50265
:103FA0007093C6028093C7029093C8020C94D827DE
:103FB00083E50E949ABE882331F060E083E50E9489
:103FC000EF508093C60A0E942DC58CEF95E00E94A9
:103FD00040C48091C60A882369F192EFE92E95E0EA
:103FE000F92E00E010E020E08091C60A90E0A0E009
:103FF000B0E0002E04C0B695A795979587950A94D2
:10400000D2F780FF0EC0DD24D394D20E222319F004
:104010008CE20E9443BAF701859194910E9440C4BA
:104020002D2D0F5F1F4F92E0E90EF11C0530110599
:10403000D9F6C1CD8EEE95E0BCCD1092CF02109294
:104040002201B6C780E090E00E9407C60E94AAB78E
:10405000AFC783E50E94E3BE882371F00E94B2508F
:10406000282F30E02D3331051CF480932101A0C7A7
:104070008CE3809321019CC70E942DC540912101B2
:1040800050E060E070E087EE95E00E94DAC48AE0DC
:104090000E9443BA8DC78091C60A83FD89C783E514
:1040A0000E94E3BE882309F483C70E9463BE0E9476
:1040B00058F96337710514F063E770E07093C30239
:1040C0006093C2020E949BDD73C78091C60A83FD84
:1040D0006FC783E50E94E3BE8DAB81110C94AF29BD
:1040E00082E50E94E3BE81110C94AF2961C70E9452
:1040F000C650182F87FD0AC082EC95E00E9440C48C
:10410000812F0E9479678AE00E9443BA2CA92093EC
:104110000C030C94B12C83E50E94E3BE882309F4C0
:1041200047C70E94B250182F90E0CD970CF01CE3C7
:104130001093B9020E94376A6B017C01212F30E095
:10414000A8EEB3E00E94DCF7C60ED71EE81EF91EEB
:10415000C092B502D092B602E092B702F092B802D5
:1041600027C760E080E50E94EF50811121C781E4FC
:104170000E949ABE882321F06091EB0570E002C096
:104180006FEF70E083E50E9454508F3F910519F066
:1041900010F08FEF90E08093EB058093B40208C796
:1041A00060E080E50E94EF50811102C71092EB059C
:1041B0001092B402FDC60E9422DE0E9435570E9472
:1041C000FA6B0E94DBB768EE73E080E090E00E943B
:1041D00081C360E085EB95E00E94EE5DE9C6109238
:1041E000B302E6C683E50E94E3BE882399F00E94ED
:1041F00063BE20E030E04AE754E40E94E7F30E9407
:104200005FF960931D0170931E0180931F019093CD
:104210002001CEC688E50E949ABE81110C94372BEE
:1042200089E50E949ABE81110C94372B8AE50E9481
:104230009ABE81110C94372B85E40E949ABE81119D
:104240000C94372B0E94FA6BB3C683E50E949ABE8A
:10425000882309F4ADC60E9463BE20E030E04AE73F
:1042600054E40E94E7F30E945FF96093AC027093FC
:10427000AD028093AE029093AF029AC60E94C650E0
:1042800087FD96C69091A80294FD04C09091AA0261
:1042900097FF0AC0B1E7CB2EB1E0DB2E17ECE12E81
:1042A0001AE0F12E10E009C09091AB02937091F7E3
:1042B000682F81E00E9467507BC6D6018D916D0109
:1042C0000E94E3BE882309F46DC0133009F063C077
:1042D0000E9463BE4B015C0120E030E040EA51E403
:1042E0000E9481F387FF4EC0A50194016091E70A07
:1042F0007091E80A8091E90A9091EA0A0E94E6F832
:104300002B013C019B01AC016091CF057091D00560
:104310008091D1059091D2050E94E7F36093CF057B
:104320007093D0058093D1059093D205A30192019B
:104330006091F70A7091F80A8091F90A9091FA0A4F
:104340000E94E7F36093F70A7093F80A8093F90AE2
:104350009093FA0A6091DF057091E0058091E10584
:104360009091E2050E9486F3A30192010E94E7F377
:104370000E945FF96093DF057093E0058093E1058B
:104380009093E2058092E70A9092E80AA092E90AE7
:10439000B092EA0A07C00E9463BEF701648B758B76
:1043A000868B978B1F5FF4E0EF0EF11C143009F041
:1043B00084CF0E941149FCC50E9493490E943B751D
:1043C000F7C560E08091D0029091D1020E943C5EDE
:1043D000EFC50091D0021091D10283E0F12C40E0B2
:1043E0008150E9F0D8019C91292F2B7F2134C1F70E
:1043F00011962C912133A1F7913421F0953421F4B9
:1044000041E002C0FF24F39498012E5F3F4F8901E1
:104410002F5F3F4FF80190819032C9F3E1CF4111F6
:104420000E942DC5FF2021F083EC93E00E9440C440
:10443000C8010E94E1BDBCC50E9427D6B9C581E074
:104440008093F6028093F7020E9476D6B1C560E0B1
:1044500070E083E50E94CB528C01112702301105D8
:104460003CF00E9429C581EA93E00E9440C4A0C5A7
:1044700088E40E94E3BE8823A9F00E94C7528A3ACA
:1044800091053CF08E31F1E09F072CF08DE191E039
:1044900002C08AEA90E0F801EE0FFF1FEC55FD4FD5
:1044A0009183808386E40E94E3BE882381F00E948A
:1044B000C75297FD07C08F3F910529F024F08FEF79
:1044C00090E001C080E0F801EE55FD4F808382E46A
:1044D0000E94E3BE882309F46BC50E94C752853051
:1044E000910534F0843791052CF083E790E002C009
:1044F00085E090E0000F111FF801E256FD4F918317
:10450000808356C50E94C650182F87FD51C584E48C
:104510000E949ABE882309F43FC00E9463BE6B01CB
:104520007C0101E020E030E0A9010E9481F38111CB
:1045300001C000E000939D0220E030E0A901C70126
:10454000B6010E9481F3882339F10E9463BE24E002
:104550001202F0011124E756FD4F608371838283BC
:10456000938320E030E0A9016091990270919A0252
:1045700080919B0290919C020E9481F381110CC05A
:1045800080E090E0A0EEBFE38093990290939A02BE
:10459000A0939B02B0939C020E94BA6A09C50E9434
:1045A000C65087FD05C571E7E72E71E0F72E07ECD1
:1045B0001AE0E7EDCE2EEAE0DE2ED7018D917D01E7
:1045C0000E949ABE882349F00E9463BE0E945FF950
:1045D000F80160837183828393830C5F1F4FC01641
:1045E000D10659F70E94CA48E3C40E94C65087FD0D
:1045F000DFC461E7E62E61E0F62E07EC1AE0D70192
:104600008D917D010E949ABE882339F00E9463BE7D
:10461000F80164A375A386A397A30C5F1F4FFAE06C
:10462000073D1F0761F7C4C48091A90287FF02C03C
:104630000C945C2B8091AA028E7011F00C945C2B70
:104640000C94A22B8091A802827111F00C94CA2BB9
:104650008091AA028C7811F00C94CA2B8091AB0245
:10466000837011F00C94CA2BA3C41F5FF4E0EF0E0B
:10467000F11C133011F40C94B719D6018D916D0112
:104680000E949ABE882389F30E9463BEF70160836B
:10469000718382839383812F0E94466FE6CF0E94AD
:1046A0002DC589E493E00E9440C483E50E949ABE30
:1046B000882321F00E94FB5080931C0180911C01F3
:1046C000882319F086E293E002C082E293E00E9420
:1046D00040C481E493E00E9440C420917F13309154
:1046E0008013409181135091821360910401709165
:1046F000050180910601909107010E94ECF7AB0142
:10470000BC018FE393E00E94F8C4209183133091A1
:104710008413409185135091861360910C01709120
:104720000D0180910E0190910F010E94ECF7AB01F9
:10473000BC018CE393E00E94F8C420918713309170
:1047400088134091891350918A13609114017091DC
:10475000150180911601909117010E94ECF7AB01B1
:10476000BC0189E393E00E94F8C481E393E00E94D6
:1047700040C420917F133091801340918113509158
:104780008213609108017091090180910A01909152
:104790000B010E94ECF7AB01BC018FE293E00E9499
:1047A000F8C4209183133091841340918513509164
:1047B0008613609110017091110180911201909106
:1047C00013010E94ECF7AB01BC018CE293E00E9464
:1047D000F8C4209187133091881340918913509128
:1047E0008A13609118017091190180911A019091BA
:1047F0001B010E94ECF7AB01BC0189E293E00E942F
:10480000F8C48AE00E9443BAD3C383E50E94E3BEA2
:10481000882309F4CDC30E94C7529093030180936B
:104820000201C6C30E94C650F82E87FDC1C383E5AE
:104830000E94E3BE0F2D0F2C000C110B882369F191
:104840000E94C752F801EE0FFF1FE050FF4F918307
:104850008083000F111F000F111F9801275B3E4F2F
:104860007901BC01990F880B990B0E9488F32AE00B
:1048700037ED43E25CE30E94E7F3F801E757FD4FB1
:1048800020813181428153810E94E7F3D7016D93EA
:104890007D938D939C9313978BC30E942DC585E4C4
:1048A0000E9443BA80E38F0D0E9443BA000F111F8C
:1048B000F801E050FF4F608171818AE193E00E942E
:1048C00009C585E20E9443BA8AE00E9443BA70C3D8
:1048D00080E50E949ABE882309F46AC360E070E014
:1048E00080E50E94CB52F82E6FEF7FEF83E50E94A8
:1048F000CB528C010196039708F05AC3F7FC58C3BA
:104900008F2D0E94FBED882339F00E9429C583E09A
:1049100096E00E9440C44CC30E94934960E08F2DF2
:104920000E94B78A0F3FBFEF1B0731F0013011051E
:1049300071F000E010E00DC08F2D0E945F8A31E021
:1049400020E0892B09F030E0032F122F02C001E094
:1049500010E08F2D0E945F8A8017910709F428C309
:104960000E944ABAF6CF80E50E949ABE882309F4D5
:104970001FC30E94C7528C01892B09F07FC083E5B9
:104980000E949ABE882389F00E94C7528F3FEFEFA2
:104990009E0729F48EE390E10E94E0B709C3BC01B1
:1049A0008EE390E10E94FEB703C30E942DC560E034
:1049B00070E082E193E00E9409C58091401028E5F3
:1049C00032E06901C81AD10887FDD394CC0CDD1CF4
:1049D000CC0CDD1C0D2C000CEE08FF0880913F1064
:1049E00028E830E04901881A910887FD9394880CE3
:1049F000991C880C991C092C000CAA08BB088091F2
:104A00003E108F3FC1F090E0FC01EE0FFF1F8E0FB4
:104A10009F1FFC01E75EFF4E2181328173E0220F70
:104A2000331F7A95E1F7E4E036952795EA95E1F7AB
:104A30002E5F3F4F02C020E030E02F5F3F4FC901A3
:104A4000330FAA0BBB0B9C01AD01281939094A0988
:104A50005B09A4EBB0E00E94C9F7A70196012819F1
:104A600039094A095B090E94AAF7B9018FE093E06E
:104A70000E9409C58AE00E9443BA9AC20E9429C5D1
:104A8000B80188E093E00E9409C589EF92E00E9496
:104A900040C48EC28AE50E94E3BE8111F2C683E55E
:104AA0000E94E3BE8111EDC683C264E071E083E53C
:104AB0000E9454508C0168EE73E080E50E945450CF
:104AC0008938F3E19F0710F088E893E1B8010E946C
:104AD000C15D6EC260E085E40E94EF50811173C039
:104AE00080E50E949ABE882351F00E9463BE6093C5
:104AF00008067093090680930A0690930B0689E4D2
:104B00000E949ABE882381F00E9463BE2CEA35EC95
:104B100047E25EE30E94E7F360930C0670930D0694
:104B200080930E0690930F0684E40E949ABE882319
:104B300081F00E9463BE2CEA35EC47E25EE30E94FE
:104B4000E6F8609310067093110680931206909316
:104B500013060E942DC540910806509109066091E8
:104B60000A0670910B0684EE92E00E94F8C42CEACB
:104B700035EC47E25EE360910C0670910D06809182
:104B80000E0690910F060E94E6F8AB01BC0180EE84
:104B900092E00E94F8C42CEA35EC47E25EE36091B3
:104BA00010067091110680911206909113060E94D2
:104BB000E7F3AB01BC018CED92E00E94F8C48AE0FF
:104BC0000E9443BAF5C10E9429C58AEC92E00E9476
:104BD00040C4EEC183E50E949ABE182F882371F06D
:104BE0000E9463BE0E9458F970934E0160934D017C
:104BF00021E0672B09F020E02093FC0580E50E946E
:104C00009ABE882359F020914D0130914E01232BFB
:104C100011F00E94FB508093FC05CAC11111C8C15C
:104C20000E942DC587EB92E00E9440C48091FC0554
:104C3000882319F08FE992E002C08BE992E00E948C
:104C400040C460914D0170914E0186EA92E00E944D
:104C500009C582EA92E00E9440C4AAC10E94934919
:104C6000A7C181E00E9451470E943B75A1C180E02D
:104C70000E9451470E943B759BC16FEF7FEF89E413
:104C80000E94CB52182F6FEF7FEF8AE40E94CB5225
:104C9000082F8AE50E949ABEF82E811105C081E591
:104CA0000E949ABED82E01C0D12C17FD06C007FD68
:104CB00004C0F11009C0D11007C00E9429C58BE7BC
:104CC00092E00E9440C474C1133010F4033038F0F5
:104CD0000E9429C58CE592E00E9440C469C1E12E82
:104CE000110FFF08002E000C110B0E9463BED701AC
:104CF000AA0FBB1FDD2081F0FD01EE0DFF1DE00FAF
:104D0000F11FEE0FFF1FEE0FFF1FEB59FD4F20812C
:104D100031814281538103C020E030E0A901EA0ED5
:104D2000FB1E0E0D1F1D000F111F000F111F0B5931
:104D30001D4F0E94ECF7D8016D937D938D939C934A
:104D4000139736C10E9414E4811132C100E512E0CC
:104D5000E6EAF5E0F9A7E8A79E012F5F3F4F59016A
:104D600095E4892E97E0992E1901F80165917591C6
:104D700085919491A8A5B9A5CD90DD90ED90FD9079
:104D8000B9A7A8A7A70196010E94EBF72B013C0148
:104D9000F101608371838283938320E030E040EAF5
:104DA00051EC0E944CFA87FD0AC020E030E040EA56
:104DB00051E4C301B2010E9481F318162CF4F401EE
:104DC000849118160CF4C2C5D101CD90DD90ED9000
:104DD000FD901D0120E030E040EA51ECC701B60132
:104DE0000E944CFA87FD0AC020E030E040EA51E41E
:104DF000C701B6010E9481F31816A4F40E9429C5C8
:104E000082E392E00E9440C461E084E292E00E946A
:104E1000EE5D0E9422AE68E270E088EC90E00E94B5
:104E2000C15DC6C00C5F1F4FBFEF8B1A9B0AE2E04B
:104E30000C351E0709F099CF8DE8E82E82E0F82E98
:104E400010E0F50181919191A191B1915F01F7017C
:104E500081939193A193B1937F01812F0E94466F1B
:104E60001F5F133071F70E943B7560E084E192E0B0
:104E70000E94EE5D63E972E084E690E00E94C15D0D
:104E80006AEB72E084E690E00E94C15D91C00E94EE
:104E9000B5348EC00E94A1D78BC061E083E50E942B
:104EA000B2520E94AFD784C081E0809364020E9416
:104EB0004B3910926402882309F47AC00E942DC5F0
:104EC00089E092E00E9440C473C08091E31182FFA8
:104ED0006FC080628093E3116BC08AE50E94E3BEDD
:104EE000882331F10E9463BE6B017C0120E030E039
:104EF00040EA51EC0E944CFA87FD13C020E030E0FC
:104F000040EA51E4C701B6010E9481F318164CF043
:104F1000C0928B13D0928C13E0928D13F0928E136B
:104F200047C00E9429C58BED91E00E9440C440C05B
:104F30000E942DC540918B1350918C1360918D135D
:104F400070918E1388EF91E00E94F8C48AE00E946D
:104F500043BA2EC081E0809323011092A50560E042
:104F600083E50E94B252811123C00E94DAB320C0AF
:104F70000E94D3841DC00091090310910A030023ED
:104F8000B9F00E942DC584E50E9443BAB801772785
:104F9000072E000C880B990B0E944ABD80E20E94EC
:104FA00043BA89EC91E00E9440C402C00E94D384BD
:104FB0000E94CAB3FCA9F0930C03D3C40E94934986
:104FC00080E00E940DC10E944D7281E08093F60244
:104FD0000E9476D688E50E949ABE182F89E50E9425
:104FE0009ABE082F8AE50E949ABE101389C118172D
:104FF00011F0012F85C101E011E031E038AB80E113
:10500000E6EAF5E0A8EFB2E001900D928A95E1F7AB
:1050100080917E1382FF3DC082E50E94E3BE88231B
:1050200061F00E9463BE6B017C0120E030E0A901C9
:105030000E9481F3811107C02CC0C12CD12C60EAE1
:10504000E62E60E4F62E111103C0002309F4F8C027
:10505000C0920003D0920103E0920203F092030396
:10506000A70196016091AE057091AF058091B005E2
:105070009091B1050E9481F387FF0BC019821A82BB
:105080001B821C82BE016F5F7F4F80E093E00E9415
:105090004F73112309F4CFC0002309F4C9C0109243
:1050A000AA051092AB051092AC051092AD051092B6
:1050B000A6051092A7051092A8051092A9050E94B6
:1050C000FB73E5E4F7E044914AABE9E3F7E0C59010
:1050D000D590E590F490EDE3F7E085909590A5905C
:1050E000B490A5019401C701B6010E944CFA1816AC
:1050F0002CF4A7019601C501B40104C0A5019401D7
:10510000C701B6010E94E6F82B013C01E1E3F7E09C
:1051100085919591A591B49188A799A7AAA7BBA7B6
:10512000EDE2F7E025913591459154912CA73DA7EB
:105130004EA75FA7BC01CD010E944CFA181634F4AB
:105140002CA43DA43EA539AB1FA505C028A439A4B5
:105150004AA549AB1BA5A3019201C301B2010E945C
:10516000E7F320E030E040E85FE30E94ECF70E94C4
:105170009AFA910149A9512F0E94E7F368A379A3F4
:105180008AA39BA3E6E4F7E0149120E030E040EC32
:105190005FE3C501B4010E94E7F34B015C01612F9D
:1051A000110F770B880B990B0E9488F39B01AC01C0
:1051B000C501B4010E94E7F369837A838B839C83E2
:1051C00020E030E040EC5FE3C701B6010E94E7F366
:1051D0006B017C015AA9652F550F770B880B990B32
:1051E0000E9488F39B01AC01C701B6010E94E7F35E
:1051F0006C8F7D8F8E8F9F8FAE01405E5F4FBE01A3
:105200006F5F7F4FCE014C960E942D730E9485D612
:105210001092AA051092AB051092AC051092AD0544
:105220001092A6051092A7051092A8051092A90544
:1052300080E00E94FD73002319F081E00E94FD735D
:1052400088A9882309F44EC080E00E94C4C38091DD
:105250007E138370833061F060E087E597E00E9401
:10526000EE5D0E942DC588E497E00E9440C43AC0DC
:105270000E94FB738091AE059091AF05A091B0059F
:10528000B091B1058093000390930103A0930203B2
:10529000B093030380E090E0A0E9B2E48093F802C9
:1052A0009093F902A093FA02B093FB0280E090E0A1
:1052B000ACECB2E48093FC029093FD02A093FE025A
:1052C000B093FF0219821A821B821C82AE014F5FCB
:1052D0005F4F6CEF72E088EF92E00E942D7382E0E6
:1052E0000E94FD730E94FB738091F7028093F60287
:1052F0000E94347283E0809348010E943B7558CE2F
:1053000088AB7DCE11110C94F21C0C94EB1C0E9406
:105310004ABA0C94141D0E9453BEAB01BC014093C9
:10532000DF115093E0116093E1117093E21185EA6F
:105330009FE00E94D0D13CCE61E0802F0E94B78ACE
:105340006F2D802F0E94888A6F2D70E0802F0E9421
:105350008B6924E0E2122CCEF092EB0529CE0E945C
:1053600063BE0E9458F9633771050CF07DC17093DC
:10537000C3026093C2020E949BDD0E9463BE20E0D4
:1053800030E040EA50E40E944CFA181614F40E94EF
:1053900011576091C2027091C302072E000C880B56
:1053A000990B0E9488F32091BE023091BF02409178
:1053B000C0025091C1020E944CFA18161CF488EDEC
:1053C00095E002C089EC95E060E00E94EE5D81E02E
:1053D000809322011CA61DA61EA61FA61EAA1FAAF8
:1053E00018AE19AE18A61BAEACE3ACAFBCE1BDAFB6
:1053F000E6E4EEAFC12CD12C00E8E02E8FEBF82EC6
:10540000F1E0FAAF812C912C54016091C2027091AD
:10541000C302072E000C880B990B0E9488F3162FED
:10542000072F782E692E9601A7010E9481F3882309
:1054300021F12091BE023091BF024091C0025091F3
:10544000C1028DA9612F702F811109C0872D962D62
:105450000E9481F3881F8827881F88A714C0872D82
:10546000962D0E9481F387FF0DC080912201882331
:1054700009F49ECD0E94645E9BCD1C2D0D2D7E2CCB
:105480006F2C01C018A60E94376A6B017C01DC01F9
:10549000CB012EA93FA948AD59AD821B930BA40B9C
:1054A000B50BB7FD33C0D701C60188519C4FAF4F34
:1054B000BF4F8EAB9FABA8AFB9AF80E00E947967BA
:1054C00085EC95E00E9440C481149104A104B104CC
:1054D000B9F0D501C401805F984DAF4FBF4FBC01FB
:1054E000CD016C197D098E099F0928EE33E040E05B
:1054F00050E00E9488F7CA01B9010E944ABD03C06A
:105500008FE30E9443BA8AE00E9443BA0E944ABADB
:105510000E94376A60938F13709390138093911356
:10552000909392139091BE0298ABA091BF02A9AB49
:10553000B091C002BAABE091C102EBAB292F3A2F78
:105540004B2F5E2F612F702F872D962D0E94EBF72A
:105550001B012C0120E030E0A9010E944CFA87FFDA
:1055600004C057FA509457F8509481149104A10440
:10557000B104B1F420E030E040E85FE3C201B101E2
:105580000E9481F387FF18C0FAAD46015701FF233F
:1055900099F020E1820E27E2921EA11CB11C0CC0E2
:1055A00020E030E040E450E4C201B1010E944CFA36
:1055B000181614F44601570138A53323C1F18CA500
:1055C0009DA5AEA5BFA5892B8A2B8B2B61F0D7019A
:1055D000C6012CA53DA54EA55FA5821B930BA40B70
:1055E000B50BB7FD24C028A939A94AA95BA96BADA1
:1055F0007CAD8DAD9EAD0E94EBF720E030E040EC3D
:105600005FE30E9481F387FD30CFD701C601805A46
:105610009541AF4FBF4F8CA79DA7AEA7BFA798A935
:105620009BAFA9A9ACAFBAA9BDAFEBA9EEAF809172
:105630002201882309F419CF81149104A104B10433
:1056400031F41AAEC12ED02EE72CF62CDECEF0E1CE
:10565000CF1AF7E2DF0AE108F108C818D908EA080A
:10566000FB08F7FCEECF01CF63E770E080CE0E942D
:10567000934988E50E949ABE882331F05E9A809112
:105680007E138E7F80937E1389E50E949ABE8823C5
:1056900031F05E9A80917E138D7F80937E138AE530
:1056A0000E949ABE882309F483CC159A80917E13B8
:1056B0008B7F80937E137CCC83E50E94E3BE88239E
:1056C00091F00E9463BE6093FB0A7093FC0A809382
:1056D000FD0A9093FE0A6093030B7093040B809372
:1056E000050B9093060B80E50E94E3BE882351F0E2
:1056F0000E9463BE6093FB0A7093FC0A8093FD0ACC
:105700009093FE0A82E50E94E3BE882351F00E9436
:1057100063BE6093FF0A7093000B8093010B90931C
:10572000020B84E50E94E3BE882309F441CC0E9469
:1057300063BE6093030B7093040B8093050B9093EF
:10574000060B36CC4091FB0A5091FC0A6091FD0A91
:105750007091FE0A81E993E00E94F8C44091FF0A2B
:105760005091000B6091010B7091020B8EE893E059
:105770000E94F8C44091030B5091040B6091050BFB
:105780007091060B8BE893E00E94F8C48AE00E94B7
:1057900043BA0ECC82E40E949ABE882351F00E9444
:1057A000A2506093D70A7093D80A8093D90A909335
:1057B000DA0A83E50E949ABE882351F00E9463BEF4
:1057C0006093070B7093080B8093090B90930A0B5F
:1057D00084E50E949ABE882351F00E9463BE6093C4
:1057E0000B0B70930C0B80930D0B90930E0B88E5B5
:1057F0000E949ABE882351F00E9463BE6093C30545
:105800007093C4058093C5059093C60589E50E94F1
:105810009ABE882351F00E9463BE6093C7057093BF
:10582000C8058093C9059093CA058AE50E949ABE6F
:105830008823B1F00E9463BE6093CB057093CC05C2
:105840008093CD059093CE052DEC3CEC4CEC5DE3C4
:105850000E9481F3181624F089E593E00E9440C469
:1058600085E40E949ABE882309F4A2CB0E9463BEFD
:105870006093CF057093D0058093D1059093D205A6
:1058800097CB0E9463BE20E030E040E050EC0E94E5
:1058900081F387FD15C00E9463BE20E030E040E048
:1058A00050E40E944CFA18162CF00E9463BE6B0163
:1058B0007C010BC0C12CD12CE12C50E4F52E05C08D
:1058C000C12CD12CE12C40ECF42E2091E30A309134
:1058D000E40A4091E50A5091E60AC701B6010E9428
:1058E000E7F30E9458F9CB010E946FE480E50E9423
:1058F0009ABE882329F00E94FB50882309F458CBD4
:10590000A701960160918B1370918C1380918D1378
:1059100090918E130E94ECF760938B1370938C130D
:1059200080938D1390938E130E942DC540918B13FD
:1059300050918C1360918D1370918E1388EE92E0CC
:105940000E94F8C48AE00E9443BA32CBF7FAF0947E
:10595000F7F8F094D101CD92DD92ED92FC9213977D
:1059600033CAEE960FB6F894DEBF0FBECDBFDF91FF
:10597000CF911F910F91FF90EF90DF90CF90BF904C
:10598000AF909F908F907F906F905F904F903F90DF
:105990002F9008952CEA35EC47E25EE36091120304
:1059A0007091130380911403909115030E94E6F8FF
:1059B000609310067093110680931206909313065D
:1059C00008952CEA35EC47E25EE36091160370918E
:1059D000170380911803909119030E94E7F36093D5
:1059E0000C0670930D0680930E0690930F06089593
:1059F000CF93DF93EC01CB01BA010E9488F32AE038
:105A000037ED43E25CE30E94E7F3688379838A839E
:105A10009B83DF91CF910895CF93DF93EC01CB016E
:105A2000BA010E9488F32FE632E143E85AE30E946C
:105A3000E7F3688379838A839B83DF91CF9108950D
:105A4000CF93DF9300D000D0CDB7DEB70E9488F3AC
:105A50002AE037ED43E25CE30E94E7F369837A834F
:105A60008B839C83CE0101960E944A570F900F9022
:105A70000F900F90DF91CF91089568EF7CE280E264
:105A80009DE20C9441AE6FE17BEA82E69BEA0C94C6
:105A900041AE6CE07DE286E89DE20C9441AE0F934E
:105AA0001F93CF93DF93CDB7DEB76E970FB6F89401
:105AB000DEBF0FBECDBF809125018F938091240161
:105AC0008F931F921F9284EB97E09F938F938E0189
:105AD0000F5F1F4F1F930F930E9419F381E0809374
