:100000000C94A7160C94D1160C94D1160C94D116FE
:100010000C94D1160C94D1160C94D1160C94D116C4
:100020000C94D1160C948C9F0C94D1160C94D11670
:100030000C94D1160C940A350C94D1160C94D1164C
:100040000C94D1160C94E1DD0C943A6A0C94D11600
:100050000C9403BE0C94F9BD0C94D1160C94D116DB
:100060000C94D1160C94D1160C94D1160C94D11674
:100070000C94D1160C94D1160C94D1160C94D11664
:100080000C94E4B80C94D1160C94D116A969AE69FD
:10009000B369BD69EB69EB69C769CF69D769E16984
:1000A000EC84EF84E284E68406850685F384F78495
:1000B000FD84018551AD10AC47AC8DAD47AC47AC6C
:1000C00047AC47AC47AC47AC47AC47AC47AC47AC98
:1000D00047AC47AC47AC47AC47AC47AC47AC47AC88
:1000E00047AC47AC47AC47AC47AC47AC47AC47AC78
:1000F00087AD47AC47AC47AC47AC47AC47AC47AC27
:1001000047AC60AD47AC47AC47AC47AC47AC47AC3D
:1001100047AC47AC47AC47ACA4AD44AC084AD73B6E
:100120003BCE016E84BCBFFDC12F3D6C74319ABDC6
:1001300056833DDA3D00C77F11BED9E4BB4C3E91EA
:100140006BAAAABE000000803F05A84CCDB2D44ED9
:10015000B93836A9020C50B9918688083CA6AAAADB
:100160002ABE000000803F004E414E494E4954597E
:10017000494E46CDCCCC3D0AD7233C17B7D1387772
:10018000CC2B329595E6241FB14F0A000020410088
:1001900000C84200401C4620BCBE4CCA1B0E5AAED2
:1001A000C59D74434F4D4D554E49434154494F4EA3
:1001B0000044525952554E004552524F5253004935
:1001C0004E464F004543484F00496E76616C696466
:1001D0002065787472756465720A003F5A206F75E5
:1001E00074206F662072616E676520282D32302082
:1001F000746F203230290A0050726F6265205A20D5
:100200004F66667365743A2000454550524F4D2045
:100210004F4B0A004F666673657473206170706C93
:10022000696564004572723A20546F6F206661728E
:100230002100546F6F206661722066726F6D2072AC
:1002400065666572656E636520706F696E740A001D
:100250000000000000000000000000004D65736811
:1002600020706F696E742063616E6E6F74206265BA
:10027000207265736F6C7665640A004D34323120EC
:10028000696E636F727265637420706172616D650F
:100290007465722075736167650A0064697300652F
:1002A0006E0043290A0061626C656420286D696EE6
:1002B0002074656D702000436F6C642065787472E3
:1002C00075646573206172652000496E76616C69A2
:1002D000642065787472756465720A0020643A005F
:1002E00020693A0020703A0050726F6265205A20EF
:1002F0004F66667365743A2000206F7574206F66D0
:100300002072616E67650A00536572766F20003A4D
:10031000200020536572766F200020466C6F773A7C
:1003200020004F4646004F4E00205A0020590058EA
:100330000020204D61783A2000205A0020590058B2
:100340000020204D696E3A2000536F667420656E60
:100350006473746F70733A20005741524E494E4790
:1003600021204C6F77205A204A65726B206D61798D
:10037000206C65616420746F20756E77616E7465A2
:1003800064207061757365732E0A0020540020523A
:1003900000416363656C65726174696F6E3A2050E9
:1003A000004D31343520533C696E6465783E206FD2
:1003B0007574206F662072616E67652028302D315C
:1003C000290A002F2F20004348414D4245525F54D7
:1003D000454D5045524154555245004D4F54494F9B
:1003E0004E5F4D4F44455300544845524D414C5F7C
:1003F00050524F54454354494F4E004155544F526B
:1004000045504F52545F53445F5354415455530029
:1004100050524F4D50545F535550504F5254004519
:100420004D455247454E43595F5041525345520046
:10043000434153455F4C494748545F4252494748FE
:10044000544E45535300544F47474C455F4C494722
:1004500048545300534F4654574152455F504F57ED
:100460004552004255494C445F50455243454E5415
:10047000004C4556454C494E475F44415441005A53
:100480005F50524F4245004155544F4C4556454CE4
:10049000005052494E545F4A4F420050524F47520B
:1004A000455353004155544F5245504F52545F5499
:1004B000454D5000564F4C554D455452494300450B
:1004C0004550524F4D0042494E4152595F46494CAA
:1004D000455F5452414E534645520053455249419F
:1004E0004C5F584F4E5F584F4646004649524D5755
:1004F0004152455F4E414D453A4D61726C696E20E7
:100500006275676669782D322E302E78202847690B
:10051000746875622920534F555243455F434F44D9
:10052000455F55524C3A68747470733A2F2F67695F
:10053000746875622E636F6D2F4D61726C696E46C3
:1005400069726D776172652F4D61726C696E2050B2
:10055000524F544F434F4C5F56455253494F4E3ABA
:10056000312E30204D414348494E455F5459504546
:100570003A456E6465722D332045585452554445B2
:10058000525F434F554E543A3120555549443A63D2
:10059000656465326132662D343161322D34373411
:1005A000382D396231322D63353563363266333654
:1005B0003766660A00456E6465722D33204F4646E5
:1005C0002E006F6B0020573A0042656420636F6F06
:1005D0006C696E672E2E2E0042656420686561741A
:1005E000696E672E2E2E004D3131332053006F6619
:1005F0006600C401BF01B801B101A30144454255E1
:10060000473A0050726F7465637465642050696E78
:100610000A002569730025696D2025697300256925
:10062000682025696D202569730025696420256986
:10063000682025696D202569730025697920256961
:1006400064202569682025696D2025697300507232
:10065000696E742074696D653A20002E0A00446545
:100660006C6574696F6E206661696C65642C2046E8
:10067000696C653A200046696C652064656C657438
:1006800065643A00286E6F2066696C6529004375C1
:100690007272656E742066696C653A20005344205E
:1006A0007072696E74696E67206279746520004E9D
:1006B0006F74205344207072696E74696E670A000B
:1006C000456E642066696C65206C6973740A00422B
:1006D0006567696E2066696C65206C6973740A00D1
:1006E0004E6F206D6F76652E00436C69636B2074CE
:1006F0006F20726573756D652E2E2E004D657368C3
:1007000020706F696E742063616E6E6F7420626515
:10071000207265736F6C7665640A00205A3A200077
:1007200020593A200042656420583A2000000020F9
:1007300042000020420000C04000006B4300006BFC
:100740004300007A43FFFFFF486F6D652058592032
:1007500066697273740A00486F6D65205859206687
:100760006972737400536C6565702E2E2E00507282
:100770006F6265205A204F66667365740046696C27
:100780002E204469612E0046696C2E204469612E3A
:10079000004F6666004F6E004520696E206D6D5EED
:1007A0003300416476616E636564205365747469D7
:1007B0006E6773004D333033205531204525692055
:1007C00053256900504944204175746F74756E65F6
:1007D00000504944204175746F74756E650050492E
:1007E000442D44005049442D44005049442D4900B3
:1007F0005049442D49005049442D50005049442D42
:100800005000200820466163740020082046616380
:1008100074002008204D6178002008204D61780088
:100820002008204D696E002008204D696E004F663B
:1008300066004F6E004175746F74656D70004164A1
:1008400076616E6365642053657474696E677300C6
:1008500024F4D43050C38E20C2A24017828B701172
:10086000127A910D816CD90AA861E108C758660710
:10087000615143061E4B5D05C145A7041A41110491
:10088000093D9803713931034036DB02653391022B
:10089000D4305402802E1D02632CEE01752AC5014E
:1008A000B028A001102781018F2564012B244B0162
:1008B000E0223401AC211F018D200D01801FFC00BE
:1008C000841EED00971DDF00B81CD200E61BC60099
:1008D000201BBC00641AB200B219A8000A19A000BB
:1008E0006A189900D117910040178B00B516840043
:1008F00031167E00B31579003A157300C7146F00E6
:1009000058146A00EE1366008813630025135E0016
:10091000C7125B006C12570015125400C111510030
:1009200070114F0021114B00D61049008D10470067
:100930004610440002104200C00F4000800F3E00ED
:10094000420F3C00060F3B00CB0E3800930E3700E1
:100950005C0E3500270E3400F30D3200C10D31005E
:10096000900D3000600D2E00320D2D00050D2C0075
:10097000D90C2B00AE0C2900850C29005C0C27003B
:10098000350C27000E0C2600E80B2400C40B2400B5
:10099000A00B23007D0B23005A0B2100390B2100F3
:1009A000180B2000F80A1F00D90A1E00BB0A1E00FF
:1009B0009D0A1D00800A1D00630A1C00470A1B00D7
:1009C0002C0A1B00110A1A00F7091A00DD09190088
:1009D000C4091900AB091900920917007B09180016
:1009E000630917004C091600360916002009160085
:1009F0000A091500F5081500E0081400CC081400D9
:100A0000B8081400A4081400900813007D08120010
:100A10006B08130058081200460812003408110031
:100A2000230811001208110001081100F00710003E
:100A3000E0071000D0071000C0071000B0070F003B
:100A4000A107100091070E0083070F0074070F0025
:100A500065070E0057070E0049070E003B070D0003
:100A60002E070E0020070D0013070D0006070D00CE
:100A7000F9060C00ED060D00E0060C00D4060C0093
:100A8000C8060C00BC060C00B0060C00A4060B0047
:100A900099060C008D060B0082060B0077060B00F2
:100AA0006C060B0061060A0057060B004C060A0094
:100AB00042060A0038060A002E060A0024060A002A
:100AC0001A060A001006090007060A00FD050900BB
:100AD000F4050900EB050900E2050900D905090044
:100AE000D0050900C7050900BE050900B5050800C5
:100AF000AD050800A50509009C050800940508003F
:100B00008C050800840508007C05080074050800B1
:100B10006C050700650508005D050700560508001F
:100B20004E05070047050700400508003805070087
:100B3000310507002A050700230507001C050600EC
:100B4000160507000F050700080506000205070047
:100B5000FB040600F5040700EE040600E8040600A6
:100B6000E2040700DB040600D5040600CF040600FB
:100B7000C9040600C3040600BD040600B70406004D
:100B8000B1040500AC040600A6040600A00405009C
:100B90009B04060095040500900406008A040500E5
:100BA00085040500800406007A040500750405002C
:100BB000700405006B04050066040500610405006F
:100BC0005C04050057040500520405004D040500AF
:100BD00048040500430405003E0404003A040500EF
:100BE00035040500300404002C040500270404002B
:100BF000230405001E0404001A0404001604050062
:100C0000110404000D040400090405000404040098
:100C100000040400FC030400F8030400F4030400CF
:100C2000F0030400EC030400E8030400E403040000
:100C3000E0030400DC030400D8030400D403040030
:100C4000D0030400CC030400C8030300C503030061
:100C500024F404D9201BC40C5C0E9804C4095F0260
:100C600065077101F405F900FB04B300480487002F
:100C7000C10369005803550003034500BE023A0052
:100C80008402310053022A002902250004022000B8
:100C9000E4011C00C8011900AF01170098011400FD
:100CA00084011300710110006101100051010E0058
:100CB00043010D0036010B002B010B0020010B003E
:100CC000150109000C01090003010800FB000800E0
:100CD000F3000800EB000700E4000600DE00060059
:100CE000D8000600D2000600CC000500C7000500B1
:100CF000C2000500BD000400B9000400B5000400F6
:100D0000B1000400AD000400A9000400A500030028
:100D1000A20003009F0004009B0003009800030052
:100D20009500020093000300900003008D00020074
:100D30008B0003008800020086000200840003008C
:100D4000810002007F0002007D0002007B000200A3
:100D500079000200770001007600020074000200B2
:100D600072000100710002006F0002006D000100BE
:100D70006C0002006A0001006900020067000100C7
:100D800066000100650001006400020062000100CD
:100D900061000100600001005F0002005D000100D1
:100DA0005C0001005B0001005A00010059000100D5
:100DB00058000100570001005600010055000100D5
:100DC00054000100530000005300010052000100D4
:100DD00051000100500001004F0001004E000000D2
:100DE0004E0001004D0001004C0001004B000000CE
:100DF0004B0001004A0001004900010048000000CA
:100E000048000100470001004600000046000100C4
:100E100045000000450001004400010043000000BF
:100E200043000100420000004200010041000000B8
:100E300041000100400001003F0000003F000100B0
:100E40003E0000003E0001003D0000003D000100AA
:100E50003C0000003C0000003C0001003B000000A2
:100E60003B0001003A0000003A0001003900000098
:100E7000390001003800000038000000380001008F
:100E80003700000037000100360000003600000087
:100E9000360001003500000035000000350001007B
:100EA0003400000034000000340001003300000072
:100EB0003300000033000100320000003200000067
:100EC000320001003100000031000000310001005B
:100ED0003000000030000000300001002F00000052
:100EE0002F0000002F0000002F0001002E00000046
:100EF0002E0000002E0001002D0000002D0000003B
:100F00002D0000002D0001002C0000002C0000002E
:100F10002C0000002C0001002B0000002B00000022
:100F20002B0000002B0001002A0000002A00000016
:100F30002A0000002A00010029000000290000000A
:100F400029000000290000002900010028000000FD
:100F500028000000280000002800000028000100F0
:100F600027000000270000002700000027000000E5
:100F700027000100260000002600000026000000D7
:100F800026000000260001002500000025000000CA
:100F900025000000250000002500000025000100BC
:100FA00024000000240000002400000024000000B1
:100FB00024000100230000002300000023000000A3
:100FC0002300000023000000230000002300010094
:100FD0002200000022000000220000002200000089
:100FE000220000002200010021000000210000007A
:100FF000210000002100000021000000210000006D
:10100000210001002000000020000000200000005E
:101010002000000020000000200000002000000050
:10102000200001001F0000001F0000001F00000042
:101030001F0000001F0000001F0000001F00010033
:101040001E0000001E0000001E0000001E00000028
:10105000043700001E290000511B0000581000003A
:1010600010090000CC0400007802000041010000DB
:1010700000006B4300006B4300007A430000000057
:101080000000000000000000290A00206279746559
:10109000733B20637263200053657474696E6773D9
:1010A0002053746F726564202800454550524F4D9F
:1010B000206461746173697A65206572726F722E43
:1010C0000A00290A002062797465733B2063726309
:1010D00020002073746F7265642073657474696E88
:1010E00067732072657472696576656420280020D4
:1010F0002863616C63756C6174656429210A002042
:10110000213D2000454550524F4D20435243206D14
:1011100069736D61746368202D202873746F726524
:10112000642920002053697A653A2000496E64657D
:10113000783A2000204D61726C696E3D5636372931
:101140000A00454550524F4D2076657273696F6EA7
:10115000206D69736D617463682028454550524F56
:101160004D3D004F46460A0046616465204865696A
:101170006768742000426564204C6576656C696E12
:101180006720004661696C656420746F20656E613C
:10119000626C6520426564204C6576656C696E679B
:1011A0000A00496E76616C6964206D6573682E0A69
:1011B00000202844525952554E29004732392041C7
:1011C00075746F20426564204C6576656C696E6746
:1011D000003F20284C2C522C462C4229206F75743D
:1011E000206F6620626F756E64732E0A003F28566A
:1011F000296572626F7365206C6576656C20697312
:1012000020696D706C61757369626C652028302D82
:1012100034292E0A00426164205A2076616C75657B
:101220000A004E6F2062696C696E65617220677298
:1012300069640A00204500205A00205900204D39D9
:101240003220580020496E76616C6964206578749C
:10125000727564657220004361703A0047322F470F
:10126000332062616420706172616D6574657273B0
:101270000A004361726420696E736572746564006C
:10128000456E6465722D332052656164792E00507D
:1012900072696E74696E672E2E2E005072696E74BC
:1012A00020706175736564005072696E74206162AC
:1012B0006F72746564004531204572723A204D4169
:1012C0005854454D50004572723A204D415854458E
:1012D0004D5020424544004D415854454D502074D6
:1012E0007269676765726564004531204572723ABC
:1012F000204D494E54454D50004572723A204D499B
:101300004E54454D5020424544004D494E54454DA4
:101310005020747269676765726564004D383420C7
:10132000582059205A204500202F002042403A00E2
:1013300020403A007C3C3E5E2B3D3F2F5B5D3B2CCA
:101340002A225C002020506C616E6E6572427566C8
:1013500066657242797465733A200020467265654D
:10136000204D656D6F72793A200062756766697805
:101370002D322E302E780A004D61726C696E00207D
:10138000536F6674776172652052657365740A00E5
:10139000205761746368646F672052657365740ACF
:1013A000002042726F776E206F75742052657365EE
:1013B000740A002045787465726E616C2052657302
:1013C00065740A00506F77657255700A0073746116
:1013D00072740A006175746F25632E67004C6F612B
:1013E00064696E672073657474696E6773206672D2
:1013F0006F6D2053440A006572726F7220777269B4
:1014000074696E6720746F2066696C650A00446FAA
:101410006E6520736176696E672066696C652E0A59
:10142000004D323900456E6473746F70732025630C
:1014300020256320256320256300205A3A00205987
:101440003A0020583A00656E6473746F70732068B8
:1014500069743A2000473238585900205A3A00201F
:10146000593A0020436F756E7420583A0020453A6F
:1014700000205A3A0020593A00583A0020746F6F01
:10148000206C6F6E6720657874727573696F6E205B
:1014900070726576656E7465640A0020636F6C64B3
:1014A00020657874727573696F6E207072657665E9
:1014B0006E7465640A005761726E696E673A2048FF
:1014C0006F6D696E672042756D702044697669732F
:1014D0006F72203C20310A000202040000A040008C
:1014E00000A04000000040220A00556E6B6E6F772E
:1014F0006E20636F6D6D616E643A20220020746F00
:101500006F206C6F6E6720657874727573696F6E8B
:101510002070726576656E7465640A0020636F6C76
:101520006420657874727573696F6E207072657669
:10153000656E7465640A0000002100240027002AFB
:101540000000002200250028002B000000200023BE
:101550000026002900020202020202020204040420
:10156000040404040403030303030303030101014C
:101570000101010101010204081020408001020460
:101580000810204080010204081020408080402084
:101590001008040201000000010200090A00000016
:1015A0000004030807000000000000000000000025
:1015B00000000000004D6F766520302E3032356D12
:1015C0006D004D6F766520302E316D6D004D6F765C
:1015D0006520316D6D004D6F76652031306D6D0089
:1015E0004D6F7665206178697300486F74656E642D
:1015F00020746F6F20636F6C64004578747275643B
:101600006572004D6F7665205A004D6F76652059E2
:10161000004D6F766520580023646566696E65200D
:1016200044454641554C545F004B6420004B6920B3
:10163000004B702000504944204175746F74756EE2
:10164000652066696E697368656421205075742031
:10165000746865206C617374204B702C204B69207A
:10166000616E64204B6420636F6E7374616E74737B
:101670002066726F6D2062656C6F7720696E746F83
:1016800020436F6E66696775726174696F6E2E684C
:101690000A00504944204175746F74756E65206668
:1016A00061696C6564212074696D656F75740A00E9
:1016B000453120544845524D414C2052554E4157DA
:1016C000415900546865726D616C2052756E617786
:1016D00061790045312048656174696E67206661F3
:1016E000696C65640048656174696E67206661694C
:1016F0006C656400504944204175746F74756E6563
:10170000206661696C6564212054656D7065726145
:101710007475726520746F6F20686967680A0020AD
:101720004B643A2000204B693A2000204B703A204D
:10173000000A20436C617373696320504944200A96
:10174000002054753A2000204B753A2000206D612E
:10175000783A2000206D696E3A200020643A20001B
:1017600020626961733A2000504944204175746FCA
:1017700074756E652073746172740A005049442058
:101780004175746F74756E65206661696C6564215E
:101790002054656D706572617475726520746F6F29
:1017A00020686967680A00504944204175746F7465
:1017B000756E65206661696C6564212042616420F4
:1017C0006578747275646572206E756D6265720AF3
:1017D000004572723A207574663820666F6E742008
:1017E0006E6F7420696E697469616C697A65642EC4
:1017F000004572723A207574663820666F6E7420E8
:101800006E6F7420696E697469616C697A65642EA3
:10181000004572723A207574663820666F6E7420C7
:101820006E6F7420696E697469616C697A65642E83
:101830000000060C00FE07022603BC017FFE08FE26
:1018400008FE05080806000040F0C888889878104F
:10185000050808060000C0F88888888888F805050B
:10186000050600012030F830200508080600002099
:1018700070F820202020E00509090600FF2070A84C
:10188000A8B888887020050606060001E08CEA8C5E
:101890008A0A0509090600FFF8A88888888888A8A8
:1018A000F8050A0A0600FE205050505088A8A88863
:1018B0007003030306000340A040FFFFFFFFFFFF8C
:1018C000FFFFFFFFFFFFFFFFFFFFFFFFFFFFFFFF28
:1018D0000000000605FF01070706020080808080E7
:1018E000800080030303060105A0A0A005060606EC
:1018F000000050F85050F8500509090600FF20700C
:10190000A8A07028A87020050707060000C8C81006
:101910002040989805070706000040A0A040A89026
:10192000680103030602058080800309090601FFA0
:101930002040408080804040200309090601FF804C
:10194000404020202040408005070706000020A8D6
:10195000702070A8200505050600012020F8202031
:101960000203030601FFC04080050101060003F8E1
:10197000020202060100C0C00507070600000810A9
:101980001020404080050707060000708898A8C80E
:10199000887003070706010040C040404040E00552
:1019A0000707060000708808102040F805070706A2
:1019B0000000F808103008887005070706000010BE
:1019C000305090F81010050707060000F880F00866
:1019D000088870050707060000304080F08888708E
:1019E000050707060000F80810102020200507074B
:1019F0000600007088887088887005070706000058
:101A000070888878081060020505060100C0C000D3
:101A1000C0C00206060601FFC0C000C0408003052A
:101A2000050601012040804020050303060002F85E
:101A300000F80305050601018040204080050707E6
:101A4000060000708810202000200507070600000F
:101A50007088B8A8B88070050707060000708888ED
:101A6000F8888888050707060000F048487048484D
:101A7000F0050707060000708880808088700507E1
:101A800007060000F04848484848F00507070600E8
:101A900000F88080F08080F8050707060000F880D5
:101AA00080F080808005070706000070888080989D
:101AB0008870050707060000888888F888888803EA
:101AC0000707060100E04040404040E005070706E8
:101AD00000003810101010906005070706000088FD
:101AE00090A0C0A090880507070600008080808035
:101AF0008080F805070706000088D8A888888888AD
:101B00000507070600008888C8A898888805070781
:101B1000060000708888888888700507070600001E
:101B2000F08888F0808080050707060000708888AC
:101B300088A89068050707060000F08888F0A09044
:101B40008805070706000070888070088870050700
:101B500007060000F82020202020200507070600A7
:101B600000888888888888700507070600008888AC
:101B7000888850502005070706000088888888A8B4
:101B8000A85005070706000088885020508888055F
:101B90000707060000888850202020200507070638
:101BA0000000F80810204080F80309090601FFE052
:101BB00080808080808080E00507070600008040EC
:101BC00040201010080309090601FFE02020202012
:101BD000202020E0050303060005205088050101B0
:101BE0000600FEF8030303060105804020050505F5
:101BF00006000070087888780507070600008080D6
:101C0000F0888888F00505050600007080808870DF
:101C10000507070600000808788888887805050504
:101C20000600007088F08070050707060000304845
:101C300040E04040400507070600FE70888888782D
:101C400008700507070600008080F08888888803F0
:101C500007070601004000C0404040E004090906B3
:101C600001FE1000301010101090600507070600EC
:101C70000080808890E09088030707060100C0403C
:101C800040404040E0050505060000D0A8A8A8A8EF
:101C9000050505060000B0C888888805050506000A
:101CA0000070888888700507070600FEF08888881D
:101CB000F080800507070600FE7888888878080885
:101CC000050505060000B0C88080800505050600F2
:101CD0000078807008F00507070600002020F82033
:101CE00020201805050506000088888898680505E5
:101CF0000506000088888850200505050600008834
:101D000088A8A850050505060000885020508805C1
:101D100007070600FE8888885020408005050506D4
:101D20000000F8102040F80309090601FF20404098
:101D30004080404040200109090602FF80808080E9
:101D400080808080800309090601FF804040402098
:101D50004040408005030306000248A890FF5072EF
:101D6000656865617420504C4120456E6400507276
:101D7000656865617420504C412042656400507272
:101D8000656865617420504C410054656D706572E2
:101D900061747572650050726568656174204142B6
:101DA0005320456E6400507265686561742041423D
:101DB0005320426564005072656865617420414239
:101DC000530054656D706572617475726500436F80
:101DD0006F6C646F776E0050726568656174204146
:101DE0004253005072656865617420504C41004652
:101DF000616E2073706565640046616E2073706566
:101E000065640042656400426564004E6F7A7A6CD6
:101E100065004E6F7A7A6C65004D61696E00507294
:101E20006F6265205A204F666673657400466C6F5A
:101E30007700466C6F770046616E2073706565644D
:101E40000046616E207370656564004265640042FF
:101E50006564004E6F7A7A6C65004E6F7A7A6C65B5
:101E6000005370656564005370656564004D616979
:101E70006E0025753A2530327500253032753A25C9
:101E80003032750025756420253032753A253032A0
:101E90007500202020202020200020202020001F4E
:101EA000E0201020102010102010202010201030D2
:101EB000300840048003001FE03FF03FF03FF01F78
:101EC000E01FE03FF03FF03FF00FC0078003003F0E
:101ED000FFF038007030FC3020FC102078102030EB
:101EE000102C00D02E31D02F7BD02F7BD02E31D094
:101EF0002C00D020301020781020FC1030FC30381E
:101F000000703FFFF03FFFF03800703186302387CC
:101F1000102787902F87D02F03D0203010207810E3
:101F20002078102030102F03D02F87D027879023C0
:101F300087103186303800703FFFF01FFFF81FFF19
:101F4000F8041040020820020820041040082080F5
:101F50001041001041000820800410400000001FC4
:101F6000FFF81FFFF853442063617264206F6B0A0F
:101F7000006F70656E526F6F74206661696C656486
:101F80000A00766F6C756D652E696E6974206661E6
:101F9000696C65640A00534420696E697420666147
:101FA000696C0A004D3234004D32332025730057DE
:101FB000726974696E6720746F2066696C653A2077
:101FC000002E0A006F70656E206661696C65642C76
:101FD0002046696C653A20002E0A006F70656E20FD
:101FE0006661696C65642C2046696C653A20004620
:101FF000696C652073656C65637465640A002053C1
:10200000697A653A200046696C65206F70656E6577
:10201000643A2000667265736800646F696E6700D9
:102020002066696C653A20004E6F772000454E446B
:1020300020535542524F5554494E450A00222070B4
:102040006F73002220706172656E743A22005355DE
:1020500042524F5554494E452043414C4C207461E7
:10206000726765743A2200747279696E6720746FC2
:102070002063616C6C207375622D67636F646520EB
:1020800066696C6573207769746820746F6F206D62
:10209000616E79206C6576656C732E204D415820F9
:1020A0006C6576656C2069733A310A00024D61787F
:1020B0002054656D703A20313235004D696E2054E0
:1020C000656D703A203500544265643A4550434F7F
:1020D00053203130304B004D61782054656D703A9B
:1020E00020333030004D696E2054656D703A2035D4
:1020F0000054303A204550434F53203130304B008C
:102100005053553A2047656E657269630050726F8F
:10211000746F636F6C3A20312E3000426175643AFF
:1021200020313135323030004D656C7A69202843DA
:102130007265616C697479290042696C696E6561C8
:1021400072204C6576656C696E67004578747275AF
:10215000646572733A203100687474703A2F2F6D81
:1021600061726C696E66772E6F726700456E64658A
:10217000722D3300323031392D30372D3035006239
:1021800075676669782D322E302E78004D61726C3D
:10219000696E00546865726D6973746F7273004282
:1021A0006F61726420496E666F005072696E74656B
:1021B0007220496E666F004D61696E003F00537476
:1021C0006F70207072696E74004261636B005374AB
:1021D0006F70004D3235005072696E7420706175F9
:1021E000736564005061757365207072696E740068
:1021F0004D323400496E69742E205344206361725D
:1022000064004D3231005072696E742066726F6DD9
:102210002053440052656C6561736520534420630C
:10222000617264004D32320041626F7574205072E9
:10223000696E74657200436F6E666967757261746A
:10224000696F6E0054656D706572617475726500BA
:102250004D6F74696F6E00526573756D6520707295
:10226000696E7400436172642072656C65617365A8
:10227000640054756E650053746F70207072696EDF
:1022800074005061757365207072696E7400496ED8
:10229000666F2073637265656E00220A00656E7159
:1022A00075657565696E672022006F6B00526573F6
:1022B000656E643A200053544F505045442E200020
:1022C0005072696E7465722073746F7070656420EB
:1022D00064756520746F206572726F72732E20466C
:1022E000697820746865206572726F7220616E640F
:1022F00020757365204D39393920746F20726573EC
:10230000746172742E202854656D706572617475E5
:1023100072652069732072657365742E205365742D
:1023200020697420616674657220726573746172CD
:1023300074696E67290A004E6F20436865636B738A
:10234000756D2077697468206C696E65206E756D97
:102350006265722C204C617374204C696E653A2062
:10236000004E6F20436865636B73756D20776974E9
:1023700068206C696E65206E756D6265722C204CEC
:10238000617374204C696E653A2000636865636B05
:1023900073756D206D69736D617463682C204C6179
:1023A0007374204C696E653A20004C696E65204E4E
:1023B000756D626572206973206E6F74204C617355
:1023C00074204C696E65204E756D6265722B312CE0
:1023D000204C617374204C696E653A20004D313198
:1023E00030004D33310053442072656164206572C2
:1023F000726F720A00446F6E65207072696E746944
:102400006E672066696C650A0020573A00452043D4
:102410006F6F6C696E672E2E2E00452048656174C3
:10242000696E672E2E2E004572726F722077726968
:1024300074696E6720746F20454550524F4D210AD4
:10244000000F150E1216170E1303021A1401000EB8
:102450000C190DFF180C040001627573793A207095
:10246000617573656420666F7220696E7075740A99
:1024700000627573793A2070617573656420666FC8
:102480007220757365720A00627573793A207072F2
:102490006F63657373696E670A004B494C4C206328
:1024A000617573656420627920746F6F206D756348
:1024B0006820696E6163746976652074696D652052
:1024C0002D2063757272656E7420636F6D6D616E21
:1024D000643A2000506C65617365207265736574A1
:1024E000005052494E5445522048414C54454400F6
:1024F0004B494C4C45442E20005072696E746572F5
:102500002068616C7465642E206B696C6C282920CE
:1025100063616C6C6564210A0053544F505045440C
:102520002E20005072696E7465722073746F707023
:1025300065642064756520746F206572726F7273B4
:102540002E2046697820746865206572726F72204B
:10255000616E6420757365204D39393920746F20A0
:10256000726573746172742E202854656D70657283
:1025700061747572652069732072657365742E20AD
:102580005365742069742061667465722072657386
:1025900074617274696E67290A006563686F3A0036
:1025A0004572726F723A0042696C696E65617220A1
:1025B0004C6576656C696E6720477269643A0A00FB
:1025C00053544F502063616C6C6564206265636195
:1025D000757365206F6620424C546F756368206583
:1025E00072726F72202D207265737461727420771D
:1025F000697468204D3939390A0053544F502063AB
:10260000616C6C65642062656361757365206F66DB
:1026100020424C546F756368206572726F72202D72
:1026200020726573746172742077697468204D3903
:1026300039390A002E0A006F70656E206661696C78
:1026400065642C2046696C653A20004D6F766520E4
:1026500058004D6F76652059004D6F7665205A0001
:102660004578747275646572004578747275646536
:1026700072004D6F7665205A004D6F7665205900C7
:102680004D6F76652058004D6F74696F6E00446918
:102690007361626C65207374657070657273004D50
:1026A0003834004175746F20686F6D6500473238AB
:1026B000004D6F76652061786973004D61696E0029
:1026C0003F005374617274207072696E742000430D
:1026D000616E63656C005072696E740043616E6E6A
:1026E0006F7420656E746572207375626469723AE6
:1026F0002000022E2E000152656672657368004D3F
:1027000061696E0043616E6E6F74206F70656E203C
:10271000737562646972200048617264636F6465F6
:10272000642044656661756C742053657474696EC9
:102730006773204C6F616465640A00F4010000F463
:1027400001000064000000881300000000FA43004C
:1027500000FA430000A0400000C8410000A0420071
:1027600000A0420000C8430000BA423A0A002020FC
:102770004D383531205A005A2D50726F6265204F06
:1027800066667365740020440020490020204D33A4
:1027900030312050005049442073657474696E676D
:1027A000733A0A0020460020420020480020204DB5
:1027B0003134352053004D6174657269616C206855
:1027C000656174757020706172616D657465727396
:1027D0003A0A00204A002020473239205720490079
:1027E000205A0020204D3432302053004175746F40
:1027F00020426564204C6576656C696E673A0A0014
:10280000205A0020590020204D32303620580048F0
:102810006F6D65206F66667365743A0A0020450027
:10282000205A002059002058002054002053002036
:10283000204D32303520420020453C6D61785F6587
:102840005F6A65726B3E0020583C6D61785F785F0F
:102850006A65726B3E20593C6D61785F795F6A658D
:10286000726B3E205A3C6D61785F7A5F6A65726B6D
:102870003E00416476616E6365643A20423C6D6956
:102880006E5F7365676D656E745F74696D655F75A6
:10289000733E20533C6D696E5F666565647261745A
:1028A000653E20543C6D696E5F74726176656C5F45
:1028B00066656564726174653E00205400205200B4
:1028C00020204D323034205000416363656C6572C6
:1028D0006174696F6E2028756E6974732F73322965
:1028E0003A20503C7072696E745F616363656C3E40
:1028F00020523C726574726163745F616363656CDE
:102900003E20543C74726176656C5F616363656CF4
:102910003E0A00204500205A0020590020204D3258
:1029200030312058004D6178696D756D20416363C9
:10293000656C65726174696F6E2028756E69747359
:102940002F7332293A0A00204500205A00205900EE
:1029500020204D3230332058004D6178696D756DFF
:10296000206665656472617465732028756E69748C
:10297000732F73293A0A005374657073207065725F
:1029800020756E69743A0A0020204D3230302044A0
:10299000300A0020204D323030204400204469733A
:1029A00061626C65640A0046696C616D656E7420D5
:1029B00073657474696E67733A0020204D31343941
:1029C0002043203B20556E69747320696E20436557
:1029D0006C736975730A0020286D6D2900202047EB
:1029E0003231202020203B20556E69747320696E9F
:1029F000206D6D00486F6D696E67206661696C655A
:102A000064006F70656E0054524947474552454413
:102A1000003A20007A5F6D696E00795F6D696E0023
:102A2000785F6D696E005265706F7274696E6720B1
:102A3000656E6473746F70207374617475730A00CB
:102A400046696C616D656E740054656D7065726188
:102A50007475726500436F6E66696775726174693B
:102A60006F6E00436D643A2053746F7700436D645A
:102A70003A204465706C6F7900436D643A20536569
:102A80006C662D5465737400436D643A2053572D62
:102A90004D6F646500436D643A2052657365740040
:102AA000436F6E66696775726174696F6E00526517
:102AB00073746F7265206661696C73616665004C42
:102AC0006F61642073657474696E67730053746F0B
:102AD00072652073657474696E677300424C546F3D
:102AE0007563680050726F6265205A204F66667386
:102AF000657400416476616E636564205365747427
:102B0000696E6773004D61696E00626564002C2018
:102B100073797374656D2073746F707065642120B0
:102B20004865617465725F49443A200042656420DB
:102B300068656174696E67206661696C65640048E8
:102B4000656174696E67206661696C656400424501
:102B50004420544845524D414C2052554E41574116
:102B60005900546865726D616C2052756E617761B1
:102B7000790045312048656174696E672066616936
:102B80006C65640048656174696E67206661696C94
:102B9000656400453120544845524D414C20525502
:102BA0004E4157415900546865726D616C205275F1
:102BB0006E6177617900202D20496E76616C6964C1
:102BC000206578747275646572206E756D626572C9
:102BD00020210A0070012C0190012701B00122017F
:102BE000C0011D01F00118011002130130020E0195
:102BF0006002090190020401C002FF000003FA0014
:102C00004003F5008003F000D003EB002004E60051
:102C10007004E100E004DC004005D700C005D200EC
:102C20004006CD00D006C8008007C3003008BE00B3
:102C3000F008B900C009B400B00AAF00B00BAA0098
:102C4000D00CA500000EA000500F9B00C0109600F5
:102C50005012910000148C00C0158700B01782003C
:102C6000B0197D00D01B7800001E730040206E005C
:102C700090226900F024640040275F0090295A00E8
:102C8000E02B5500102E500020304B001032460033
:102C9000E033410090353C00103737007038320087
:102CA000A0392D00B03A2800A03B2300603C1E0054
:102CB000103D1900903D1400103E0F00703E0A00B8
:102CC000C03E0500003F0000403FFBFF803FF6FF95
:102CD000C03FF1FF453120544845524D414C2052F0
:102CE000554E415741590042454420544845524DA4
:102CF000414C2052554E4157415900546865726D00
:102D0000616C2052756E617761790050726F6269F3
:102D10006E67206661696C65640A0050726F626953
:102D20006E67206661696C656400486F6D6520257B
:102D30007325732573206669727374002066697247
:102D400073740A00486F6D65200017EED8ED1124EA
:102D50001FBECFEFD0E4DEBFCDBF12E0A0E0B1E0F8
:102D6000E4E9F7EF01E00BBF02C007900D92A43633
:102D7000B107D9F723E1A4E6B2E001C01D92AE3954
:102D8000B207E1F716E1C6EAD6E104C02197FE01D9
:102D90000E9429FBC53AD107C9F70E94D3E60C94DB
:102DA000BDFB0C9400002F923F924F925F926F9266
:102DB0007F928F929F92AF92BF92CF92DF92EF92CB
:102DC000FF920F931F93CF93DF93CDB7DEB7EE97AC
:102DD0000FB6F894DEBF0FBECDBF20910C032CAB15
:102DE00091E090930C0380910B038D3409F495C30B
:102DF000843511F40C94E127873411F00C94FC27EE
:102E00002091090330910A032B31310509F48DC05B
:102E10009CF42430310534F422303105CCF537FFF1
:102E20002BC077C32430310509F441C02531310569
:102E300011F40C94FE276DC32A32310509F49BC2AC
:102E40005CF42D31310509F411C10CF4FFC02E31B1
:102E5000310509F40FC15DC32B35310509F4C3C138
:102E60002C35310509F4C3C12A35310509F051C3A8
:102E7000109208030C94FE2780912301882311F4FB
:102E80000C94FE270E94A54A0E945D6F0C94FE27B9
:102E900080912301882311F40C94FE2781E02230D5
:102EA000310509F080E00E94284B0C94FE2780E554
:102EB0000E94DABE882329F00E949B506B017C019E
:102EC00003C0C12CD12C760183E50E94DABE882391
:102ED00061F00E945ABE20E030E04AE754E40E94CC
:102EE000DEF30E9456F96B017C010E94943E8091B2
:102EF0006205811105C060E085E697E00E94E55D0E
:102F00000E942E6AC60ED71EE81EF91E0E942E6A67
:102F1000DC01CB018C199D09AE09BF09B7FD02C0C8
:102F20000C94FE270E9441BAF1CF0E940BE481115C
:102F30000C94FE2780E090E0A0E2B1E489839A83BC
:102F4000AB83BC8380E090E0A1E6B3E48D839E83F5
:102F5000AF83B88780E090E0A0EAB1E489879A87E0
:102F6000AB87BC8760E070E080E50E944D5040E098
:102F700050E068EC72E44CA35DA36EA37FA340E035
:102F800050E060EA70E448A359A36AA37BA38130B0
:102F900019F0823039F029C0BE01605E7F4FCE014A
:102FA000099644C029853A854B855C856091AE05BC
:102FB0007091AF058091B0059091B1050E94E3F743
:102FC0006B017C0120E030E04AE753E40E9478F393
:102FD00087FD06C0C12CD12C7AE7E72E73E4F72ECB
:102FE000CC8EDD8EEE8EFF8E1CC0E090AE05F09094
:102FF000AF050091B0051091B105A984BA84CB84C6
:10300000DC849501A601B701C8010E9478F387FF0F
:1030100002C075018601C701D8018C8F9D8FAE8FCC
:10302000BF8FBE01605E7F4FCE014C960E944673FB
:10303000AE014C5D5F4FBE016B5F7F4FCE010196CD
:103040000E9424730E9432750C94FE278091951380
:103050008770873011F00C94042860E08FE40E94A0
:10306000AB5281110C94FE270C9404280E94D35279
:103070000C94FE2720E030E040E252E46091A60587
:103080007091A7058091A8059091A9050E94E2F78B
:10309000AB01BC0188E50E94308E6C8F7D8F8E8FD6
:1030A0009F8F20E030E040E251E46091AA057091EA
:1030B000AB058091AC059091AD050E94E2F7AB01A4
:1030C000BC0189E50E94308E9B01AC0169837A8343
:1030D0008B839C836C8D7D8D8E8D9F8D0E94B6B56C
:1030E000882311F40C94FE2780E00E9404C10E9402
:1030F000447261E085E40E94AB5221E0482FBE019A
:103100006F5F7F4FCE014C960E9486E46B017C017D
:103110009B01AC010E94D5FA81115FC08C8C9D8C03
:10312000AE8CBF8C20E030E0A901C501B4010E9443
:1031300078F387FF05C027E137EB41E558EB04C082
:1031400027E137EB41E558E3C501B4010E94E3F7FD
:10315000AB01BC0185E297E00E94EFC489809A80B0
:10316000AB80BC8020E030E0A901C501B4010E9421
:1031700078F387FF05C027E137EB41E558EB04C042
:1031800027E137EB41E558E3C501B4010E94E3F7BD
:10319000AB01BC0180E297E00E94EFC420E030E088
:1031A000A901C701B6010E9478F387FF05C027E196
:1031B00037EB41E558EB04C027E137EB41E558E335
:1031C000C701B6010E94E3F7AB01BC018BE197E0B8
:1031D0000E94EFC48AE00E943ABA0E942B720E94B9
:1031E00032750C94FE27909308030C94FE2731E768
:1031F000232E31E0332E4AEEE42E42E0F42EA6EAEE
:10320000B5E0B9A7A8A75FE7C52E53E1D52E00E02A
:1032100010E0F10181911F010E94DABE882309F4B8
:103220004AC00E945ABE2B013C01133049F0D6011E
:103230002D913D914D915C910E94E2F72B013C0153
:10324000E8A5F9A52081318142815381C301B201F2
:103250000E94E2F74B015C012DEB37E346E855EBAA
:103260000E9443FA87FD0AC02DEB37E346E855E399
:10327000C501B4010E9478F31816ECF4133051F430
:103280004092B2055092B3056092B4057092B505B4
:1032900001E011C0A5019401D7016D917D918D913F
:1032A0009C910E94E3F7F70160837183828393838B
:1032B000812F0E943D6F1F5FF4E0EF0EF11C28A5E7
:1032C00039A52C5F3F4F39A728A734E0C30ED11C86
:1032D000143009F09ECF002309F449C02091E70A79
:1032E0003091E80A4091E90A5091EA0A6091B205EA
:1032F0007091B3058091B4059091B5050E94DEF3FD
:103300000E9450FA60936610709367108093681063
:10331000909369109091441080914510981719F07E
:103320000E94363E24C00E94943E80916F00982FE8
:10333000927081FF05C080916F008D7F80936F0038
:1033400040916610509167106091681070916910FB
:103350004093E6025093E7026093E8027093E9021B
:10336000992329F080916F00826080936F000E9402
:1033700032750C94FE2780912301882311F40C945C
:10338000FE2789E40E94DABE082F882321F00E94DC
:10339000C052E82E01C0E12C8AE40E94DABE182F48
:1033A000882321F00E94C052F82E01C0F12C002386
:1033B00019F042E04E1528F0112349F052E05F1554
:1033C00030F48CEF96E00E9437C40C94FE2780E125
:1033D000E6EAF5E0A8EFB2E001900D928A95E1F7F8
:1033E0000023F1F02091D2023091D3024E2D4203FE
:1033F000B001439F700D11248091D6029091D702A5
:10340000680F791F072E000C880B990B0E947FF321
:103410006093F8027093F9028093FA029093FB0292
:103420001123F1F02091D4023091D5025F2D520387
:10343000B001539F700D11248091D8029091D90250
:10344000680F791F072E000C880B990B0E947FF3E1
:103450006093FC027093FD028093FE029093FF0242
:1034600060E080E50E94AB52882381F10023B1F037
:1034700020E030E040E252E46091F8027091F902FD
:103480008091FA029091FB020E94E3F76093F802A8
:103490007093F9028093FA029093FB021123B1F02A
:1034A00020E030E040E251E46091FC027091FD02C6
:1034B0008091FE029091FF020E94E3F76093FC026C
:1034C0007093FD028093FE029093FF0240E050E073
:1034D000BA0186E40E94308E6B017C0120E030E06E
:1034E000A9010E9443FA181684F420E030E040E776
:1034F00052E4C701B6010E94DDF860936D0170933C
:103500006E0180936F01909370010E945D6F0C9427
:10351000FE270E94CA840C94FE2780910903909193
:103520000A038537910509F44CC70CF024C18C348B
:10353000910509F4EEC40CF055C08931910509F4E8
:10354000F1C21CF58431910509F497C27CF48131F4
:10355000910509F487C22CF4029708F40CC20C946C
:10356000DE27429709F43FC60C94DE278631910589
:1035700009F4ADC20CF4A7C28731910509F4B0C2B9
:10358000489709F4C3C20C94DE278E31910509F4E3
:103590004DC3ACF48B31910509F4EBC20CF4DBC2E2
:1035A0008C31910509F438C34D9711F00C94DE2746
:1035B0008091E3118E7F8093E3110C94FE2780327B
:1035C000910509F492C30CF4D6C38A32910509F42B
:1035D0007DC48B34910511F00C94DE270E940857AE
:1035E0000C94FE278A36910509F4BCC5B4F58435E0
:1035F000910509F4F8C5E4F48135910509F4DCC5B9
:103600004CF48D34910511F00C94DE270E942C5758
:103610000C94FE278235910509F4E2C583359105A6
:1036200011F00C94DE2781E08093B3020C94FE2706
:103630008C35910509F422C634F48535910509F4D9
:1036400004C60C94DE278836910509F477C48936C0
:10365000910509F44DC50C94DE278F36910509F4C8
:10366000A8C484F48C36910509F4E8C40CF499C517
:103670008D36910509F486C48E36910509F486C409
:103680000C94DE278137910509F4E4C40CF4DBC403
:103690008237910509F490C68337910511F00C9497
:1036A000DE278BEE94E00E9437C460E08BED94E05F
:1036B0000E94714A60E086EC94E00E94714A61E0E9
:1036C0008FEB94E00E94714A61E084EB94E00E94E9
:1036D000714A61E084EA94E00E94714A60E08BE9FB
:1036E00094E00E94714A61E081E994E00E94714A8D
:1036F00061E087E894E00E94714A61E08FE794E01E
:103700000E94714A61E081E794E00E94714A60E0A2
:1037100083E694E00E94714A60E084E594E00E94B0
:10372000714A60E086E494E00E94714A60E080E3C0
:1037300094E00E94714A60E08FE194E00E94714A37
:1037400060E080E194E00E94714A60E08BEF93E0DA
:103750000E94714A61E088EE93E00E94714A60E045
:103760008BED93E00E94714A60E087EC93E00E9449
:10377000714A0C94FE278232A1E09A0711F40C944E
:1037800070250CF072C0893C910509F408C78CF5CE
:103790008C38910509F480C4BCF48737910509F48D
:1037A0004BC60CF416C68837910509F448C689370C
:1037B000910511F00C94DE271092F6021092F70298
:1037C0000E946DD60C94FE278B39910509F4A4C490
:1037D00034F48139910509F43AC60C94DE278E3B06
:1037E000910509F473C4883C910509F48BC60C94C7
:1037F000DE27833D910509F478C7F4F48C3C9105EC
:1038000009F412C734F48B3C910509F4EEC60C940C
:10381000DE278D3C910509F43BC78E3C910511F0E4
:103820000C94DE2741E7C42E41E0D42E5DE8E52E5E
:1038300052E0F52E10E047C78D3D910511F40C9430
:1038400038243CF48C3D910511F40C942B240C94F9
:10385000DE27823E910511F40C948E24883191402C
:1038600011F40C94D9240C94DE27853AF1E09F07DB
:1038700011F40C946326DCF5803931E0930711F4E0
:103880000C945426ECF48D3251E0950711F40C940D
:1038900090253CF48C32914011F40C947B250C94CF
:1038A000DE278E32E1E09E0711F40C9410268F3251
:1038B000914011F00C94DE270E94478E0C94FE2755
:1038C000823921E0920711F40C945D2614F40C94D3
:1038D00057268A3941E0940709F4B9C3843A9140E4
:1038E00011F00C94DE270E9404510C94FE27873FB0
:1038F000A1E09A0711F40C947327ECF4843FE1E003
:103900009E0711F40C946D273CF48C3A914011F40D
:103910000C94C8260C94DE27853F31E0930711F400
:103920000C947027863F914011F00C94DE270E9482
:1039300087D60C94FE27833553E0950711F40C9439
:1039400093276CF4883FB1E09B0711F40C947A271D
:103950008C30924011F40C948B270C94DE27803A23
:10396000F3E09F0709F4F7C1873E934011F40C94EC
:10397000D0270C94DE27A090D002B090D10280E531
:103980000E94DABE882359F00E949B506B017C0193
:1039900011E0672B682B692B31F410E004C010E0B4
:1039A000C12CD12C760183E50E94DABE882311F464
:1039B0000C94A4290E945ABE20E030E04AE754E467
:1039C0000E94DEF30E9456F96B017C0111110BC0BD
:1039D000672B682B692B39F4A114B10421F0D501B0
:1039E0008C91811102C010E001C011E00E94943E50
:1039F000112329F061E0C5010E94335E05C060E03B
:103A000089EE96E00E94E55D83E080930C0381E0FF
:103A10008093CF02C114D104E104F104B1F00E94FB
:103A20002E6AC60ED71EE81EF91E0E942E6ADC0101
:103A3000CB018C199D09AE09BF09B7FF0DC080915C
:103A4000CF0281110C94A92907C08091CF0288234D
:103A500019F00E9441BAF9CF0E945B5E1092CF022A
:103A60000C94FE2760E080EE96E00E94E55D5E9893
:103A70005E9815985E980C94FE278FEC96E00E9455
:103A800037C41092CE028EEF9FE00E9455638BE107
:103A9000EEEFFFE0DE01119601900D928A95E1F7BD
:103AA00040E050E0BE016F5F7F4F80E090E00E94F9
:103AB000E2D3CE0101960E945A6380EC96E00E9408
:103AC00037C40C94FE270E945BA40C94FE270E942E
:103AD00052A28091E311877F8093E3110C94FE271B
:103AE000E091D002F091D1028081882329F08032C8
:103AF00009F410823196F8CF40E061E08091D00265
:103B00009091D1020E9461A20C94FE270E9471B292
:103B1000882321F00E94B7A30E9408570E945B5E91
:103B20000C94FE278091E31182FF03C08B7F80936A
:103B3000E3118091CD02813089F782E08093CD023C
:103B40000E942E6A6093C9027093CA028093CB02CE
:103B50009093CC02E3CF8091E31183FD02C00C94DB
:103B6000FE2783E50E94DABE81110C94AD290C94E6
:103B7000FE2783E40E9491BE882319F18EE896E027
:103B80000E9437C48091A80F882391F0BE016F5F17
:103B90007F4F85EA9FE00E941C628E010F5F1F4FDE
:103BA000F80181918F01882339F00E943ABAF8CF49
:103BB00084E896E00E9437C48AE00E943ABA0C94E6
:103BC000FE278091E31182FF21C08DE996E00E94DB
:103BD00037C46091DF117091E0118091E1119091F3
:103BE000E2114AE00E94D4BC8FE20E943ABA60918E
:103BF000DB117091DC118091DD119091DE114AE0B2
:103C00000E94D4BC0E94D2BD0C94FE278FEA96E09D
:103C10000E9437C40C94FE2740E060E08091D002FF
:103C20009091D1020E9461A20C94FE278091E31131
:103C300083FD02C00C94FE270E94B3848091E3119F
:103C400083FD02C00C94FE276091D0027091D102D6
:103C5000CE014C960E942BC98C01009711F40C9454
:103C6000FE276C8D7D8D19821C8222E0AC01CE0175
:103C700001960E940466811102C0F12C14C0CE018D
:103C800001960E9499C88823C1F361E0CE01019694
:103C90000E940062009789F325EEDC012C931C82C0
:103CA0000E94A1CFF82ECE0101960E945A63B8015E
:103CB000FF2089F086E796E00E940DC58AE00E9409
:103CC0003ABA1092DF111092E0111092E1111092A5
:103CD000E2110C94FE278EE596E00E940DC58BE55F
:103CE00096E00E9437C40C94FE278091E31182FD78
:103CF0000E94943E8091E31183FD02C00C94FE2744
:103D000060E080E50E94AB52182F482F61E080915F
:103D1000D0029091D1020E9461A283E50E94DABE96
:103D2000882381F00E944ABEAB01BC014093DF11A1
:103D30005093E0116093E1117093E21185EA9FE0E6
:103D40000E94C7D10E94B7A311110C94FE270E94B4
:103D500008570C94FE272091D0023091D102909107
:103D6000E31192609093E31140E060E0C9010E948A
:103D700061A20C94FE270E943D4A7B018C0120E841
:103D800031E541E050E00E947FF7C9016DE671E046
:103D90000E9401FB4B015C01C801B70120E13EE03C
:103DA00040E050E00E947FF7CA01B90128E130E00D
:103DB00040E050E00E947FF7762E672EC62ED72E69
:103DC0002CE3222E312C412C512CC801B701A20129
:103DD00091010E947FF7F62EE72ECA01B901A201D8
:103DE00091010E947FF7CB018E010F5F1F4F81145D
:103DF000910499F0EF92FF927F936F936F927F926D
:103E0000BF92AF929F928F928AE396E09F938F9397
:103E10001F930F930E9410F313C0A114B104B1F0CB
:103E2000EF92FF927F936F936F927F92BF92AF92C8
:103E30008AE296E09F938F931F930F930E9410F353
:103E40000FB6F894DEBF0FBECDBF30C0CD2879F0DD
:103E5000EF92FF927F936F936F927F928EE196E045
:103E60009F938F931F930F930E9410F3E9CF892B99
:103E700069F0EF92FF927F936F9386E196E09F93B4
:103E80008F931F930F930E9410F3DACFEF92FF925C
:103E900082E196E09F938F931F930F930E9410F3FC
:103EA0000F900F900F900F900F900F9060E0C8014F
:103EB0000E94335E0E9424C5B8018EE496E00E9401
:103EC0000DC58AE00E943ABA0C94FE2783E50E9451
:103ED000DABE882311F40C94FE270E94AB50F82E12
:103EE0006FEF7FEF80E50E94C4528C0197FF02C004
:103EF0000C94FE27E82E60E089E40E94AB52811109
:103F00000C94BE29802F0E94F2ED811124C50C94DF
:103F1000BE298091CD02813011F00C94FE2782E001
:103F20008093CD020E942E6A6093C9027093CA02E8
:103F30008093CB029093CC020C94FE278091C60A0A
:103F400083FF02C00C94FE270E94BF5087FF02C06F
:103F50000C94FE2783E50E94DABE882379F00E9444
:103F60005ABE0E944FF98B01CB010E945F67063554
:103F7000110524F40E942C570E945B5E0E949B3D19
:103F80000C94FE270E9479B00C94FE278EE40E94C8
:103F9000DABE882311F40C94FE270E944ABE609377
:103FA000C5027093C6028093C7029093C8020C9416
:103FB000FE2783E50E9491BE882331F060E083E50F
:103FC0000E94E8508093C60A0E9424C58CEF95E0B9
:103FD0000E9437C48091C60A882369F192EFE92EC6
:103FE00095E0F92E00E010E020E08091C60A90E014
:103FF000A0E0B0E0002E04C0B695A79597958795F0
:104000000A94D2F780FF0EC0DD24D394D20E22236F
:1040100019F08CE20E943ABAF701859194910E94BE
:1040200037C42D2D0F5F1F4F92E0E90EF11C0530B4
:104030001105D9F6C1CD8EEE95E0BCCD1092CF0220
:1040400010922201DBC780E090E00E94FEC50E9432
:10405000A1B7D4C783E50E94DABE882371F00E941D
:10406000AB50282F30E02D3331051CF48093210113
:10407000C5C78CE380932101C1C70E9424C540912C
:10408000210150E060E070E087EE95E00E94D1C42D
:104090008AE00E943ABAB2C78091C60A83FDAEC7D1
:1040A00083E50E94DABE882309F4A8C70E945ABE9D
:1040B0000E944FF96337710514F063E770E0709365
:1040C000C3026093C2020E9492DD98C78091C60A23
:1040D00083FD94C783E50E94DABE8DAB81110C94F9
:1040E000D12982E50E94DABE81110C94D12986C7BC
:1040F0000E94BF50182F87FD0AC082EC95E00E94F5
:1041000037C4812F0E9470678AE00E943ABA2CA9B6
:1041100020930C030C94AE2C83E50E94DABE882316
:1041200009F46CC70E94AB50182F90E0CD970CF0AB
:104130001CE31093B9020E942E6A6B017C01212FAF
:1041400030E0A8EEB3E00E94D3F7C60ED71EE81EFB
:10415000F91EC092B502D092B602E092B702F09278
:10416000B8024CC760E080E50E94E850811146C764
:1041700081E40E9491BE882321F06091EB0570E0FC
:1041800002C06FEF70E083E50E944D508F3F9105B4
:1041900019F010F08FEF90E08093EB058093B4025C
:1041A0002DC760E080E50E94E850811127C710927A
:1041B000EB051092B40222C70E9419DE0E942C5710
:1041C0000E94F16B0E94D2B768EE73E080E090E04D
:1041D0000E9478C360E085EB95E00E94E55D0EC724
:1041E0001092B3020BC783E50E94DABE882399F0D0
:1041F0000E945ABE20E030E04AE754E40E94DEF319
:104200000E9456F960931D0170931E0180931F0157
:1042100090932001F3C688E50E9491BE81110C9411
:10422000592B89E50E9491BE81110C94592B8AE586
:104230000E9491BE81110C94592B85E40E9491BE7D
:1042400081110C94592B0C947E2B83E50E9491BE16
:10425000882309F4D3C60E945ABE20E030E04AE722
:1042600054E40E94DEF30E9456F96093AC0270930E
:10427000AD028093AE029093AF02C0C60E94BF50C1
:1042800087FDBCC69091A80294FD04C09091AA023B
:1042900097FF0AC0B1E7CB2EB1E0DB2E17ECE12E81
:1042A0001AE0F12E10E009C09091AB02937091F7E3
:1042B000682F81E00E946050A1C6D6018D916D01EA
:1042C0000E94DABE882309F46DC0133009F063C080
:1042D0000E945ABE4B015C0120E030E040EA51E40C
:1042E0000E9478F387FF4EC0A50194016091E70A10
:1042F0007091E80A8091E90A9091EA0A0E94DDF83B
:104300002B013C019B01AC016091CF057091D00560
:104310008091D1059091D2050E94DEF36093CF0584
:104320007093D0058093D1059093D205A30192019B
:104330006091F70A7091F80A8091F90A9091FA0A4F
:104340000E94DEF36093F70A7093F80A8093F90AEB
:104350009093FA0A6091DF057091E0058091E10584
:104360009091E2050E947DF3A30192010E94DEF389
:104370000E9456F96093DF057093E0058093E10594
:104380009093E2058092E70A9092E80AA092E90AE7
:10439000B092EA0A07C00E945ABEF701648B758B7F
:1043A000868B978B1F5FF4E0EF0EF11C143009F041
:1043B00084CF0E94123E22C60E94943E0E94327513
:1043C0001DC660E08091D0029091D1020E94335EC0
:1043D00015C60091D0021091D10283E0F12C40E08B
:1043E0008150E9F0D8019C91292F2B7F2134C1F70E
:1043F00011962C912133A1F7913421F0953421F4B9
:1044000041E002C0FF24F39498012E5F3F4F8901E1
:104410002F5F3F4FF80190819032C9F3E1CF4111F6
:104420000E9424C5FF2021F083EC93E00E9437C452
:10443000C8010E94D8BDE2C50E941ED6DFC581E03A
:104440008093F6028093F7020E946DD6D7C560E094
:1044500070E083E50E94C4528C01112702301105DF
:104460003CF00E9420C581EA93E00E9437C4C6C593
:1044700088E40E94DABE8823A9F00E94C0528A3ADA
:1044800091053CF08E31F1E09F072CF08DE191E039
:1044900002C08AEA90E0F801EE0FFF1FEC55FD4FD5
:1044A0009183808386E40E94DABE882381F00E9493
:1044B000C05297FD07C08F3F910529F024F08FEF80
:1044C00090E001C080E0F801EE55FD4F808382E46A
:1044D0000E94DABE882309F491C50E94C05285303B
:1044E000910534F0843791052CF083E790E002C009
:1044F00085E090E0000F111FF801E256FD4F918317
:1045000080837CC50E94BF50182F87FD77C584E447
:104510000E9491BE882309F43FC00E945ABE6B01DD
:104520007C0101E020E030E0A9010E9478F38111D4
:1045300001C000E000939D0220E030E0A901C70126
:10454000B6010E9478F3882339F10E945ABE24E014
:104550001202F0011124E756FD4F608371838283BC
:10456000938320E030E0A9016091990270919A0252
:1045700080919B0290919C020E9478F381110CC063
:1045800080E090E0A0EEBFE38093990290939A02BE
:10459000A0939B02B0939C020E94B16A2FC50E9417
:1045A000BF5087FD2BC571E7E72E71E0F72E07ECB2
:1045B0001AE0E7EDCE2EEAE0DE2ED7018D917D01E7
:1045C0000E9491BE882349F00E945ABE0E9456F96B
:1045D000F80160837183828393830C5F1F4FC01641
:1045E000D10659F70E94CB3D09C50E94BF5087FDF7
:1045F00005C561E7E62E61E0F62E07EC1AE0D7016B
:104600008D917D010E9491BE882339F00E945ABE8F
:10461000F80164A375A386A397A30C5F1F4FFAE06C
:10462000073D1F0761F7EAC48091A90287FF02C016
:104630000C94812B8091AA028E7011F00C94812B26
:104640004091FB0A5091FC0A6091FD0A7091FE0AAC
:1046500081E993E00E94EFC44091FF0A5091000B62
:104660006091010B7091020B8EE893E00E94EFC401
:104670004091030B5091040B6091050B7091060B58
:104680008BE893E00E94EFC48AE00E943ABAB6C475
:104690008091A802827111F00C94C72B8091AA021C
:1046A0008C7811F00C94C72B8091AB02837011F0C1
:1046B0000C94C72BA3C41F5FF4E0EF0EF11C133062
:1046C00011F40C94B719D6018D916D010E9491BE21
:1046D000882389F30E945ABEF70160837183828325
:1046E0009383812F0E943D6FE6CF0E9424C589E409
:1046F00093E00E9437C483E50E9491BE882321F095
:104700000E94F45080931C0180911C01882319F0B1
:1047100086E293E002C082E293E00E9437C481E423
:1047200093E00E9437C420917F1330918013409111
:104730008113509182136091040170910501809161
:104740000601909107010E94E3F7AB01BC018FE3E2
:1047500093E00E94EFC42091831330918413409121
:1047600085135091861360910C0170910D01809119
:104770000E0190910F010E94E3F7AB01BC018CE3A5
:1047800093E00E94EFC420918713309188134091E9
:10479000891350918A1360911401709115018091D1
:1047A0001601909117010E94E3F7AB01BC0189E368
:1047B00093E00E94EFC481E393E00E9437C420910C
:1047C0007F13309180134091811350918213609137
:1047D00008017091090180910A0190910B010E94DA
:1047E000E3F7AB01BC018FE293E00E94EFC420919C
:1047F00083133091841340918513509186136091F7
:1048000010017091110180911201909113010E9489
:10481000E3F7AB01BC018CE293E00E94EFC420916E
:104820008713309188134091891350918A136091B6
:1048300018017091190180911A0190911B010E9439
:10484000E3F7AB01BC0189E293E00E94EFC48AE088
:104850000E943ABAD3C383E50E94DABE882309F4E2
:10486000CDC30E94C0529093030180930201C6C33E
:104870000E94BF50F82E87FDC1C383E50E94DABEB7
:104880000F2D0F2C000C110B882369F10E94C052D0
:10489000F801EE0FFF1FE050FF4F91838083000F60
:1048A000111F000F111F9801275B3E4F7901BC01BA
:1048B000990F880B990B0E947FF32AE037ED43E2B2
:1048C0005CE30E94DEF3F801E757FD4F2081318160
:1048D000428153810E94DEF3D7016D937D938D93C6
:1048E0009C9313978BC30E9424C585E40E943ABA17
:1048F00080E38F0D0E943ABA000F111FF801E050BB
:10490000FF4F608171818AE193E00E9400C585E2DA
:104910000E943ABA8AE00E943ABA70C380E50E94C7
:1049200091BE882309F46AC360E070E080E50E94CC
:10493000C452F82E6FEF7FEF83E50E94C4528C01C2
:104940000196039708F05AC3F7FC58C38F2D0E94B5
:10495000F2ED882339F00E9420C583E096E00E94A2
:1049600037C44CC30E94943E60E08F2D0E94AE8AF3
:104970000F3FBFEF1B0731F00130110571F000E070
:1049800010E00DC08F2D0E94568A31E020E0892B67
:1049900009F030E0032F122F02C001E010E08F2D4C
:1049A0000E94568A8017910709F428C30E9441BAD1
:1049B000F6CF80E50E9491BE882309F41FC30E94B0
:1049C000C0528C01892B09F07FC083E50E9491BE03
:1049D000882389F00E94C0528F3FEFEF9E0729F491
:1049E0008EE390E10E94D7B709C3BC018EE390E14A
:1049F0000E94F5B703C30E9424C560E070E082E125
:104A000093E00E9400C58091401028E532E06901E2
:104A1000C81AD10887FDD394CC0CDD1CCC0CDD1C4E
:104A20000D2C000CEE08FF0880913F1028E830E0C4
:104A30004901881A910887FD9394880C991C880C69
:104A4000991C092C000CAA08BB0880913E108F3FCE
:104A5000C1F090E0FC01EE0FFF1F8E0F9F1FFC01C5
:104A6000E75EFF4E2181328173E0220F331F7A957A
:104A7000E1F7E4E036952795EA95E1F72E5F3F4FA1
:104A800002C020E030E02F5F3F4FC901330FAA0B77
:104A9000BB0B9C01AD01281939094A095B09A4EB3C
:104AA000B0E00E94C0F7A7019601281939094A0908
:104AB0005B090E94A1F7B9018FE093E00E9400C555
:104AC0008AE00E943ABA9AC20E9420C5B80188E0E2
:104AD00093E00E9400C589EF92E00E9437C48EC225
:104AE0008AE50E94DABE8111C9C683E50E94DABE5A
:104AF0008111C4C683C264E071E083E50E944D5019
:104B00008C0168EE73E080E50E944D508938F3E136
:104B10009F0710F088E893E1B8010E94B85D6EC26B
:104B200060E085E40E94E850811173C080E50E9436
:104B300091BE882351F00E945ABE6093080670937C
:104B4000090680930A0690930B0689E40E9491BEA1
:104B5000882381F00E945ABE2CEA35EC47E25EE3DE
:104B60000E94DEF360930C0670930D0680930E0690
:104B700090930F0684E40E9491BE882381F00E94E6
:104B80005ABE2CEA35EC47E25EE30E94DDF8609302
:104B900010067093110680931206909313060E94DC
:104BA00024C5409108065091090660910A0670914B
:104BB0000B0684EE92E00E94EFC42CEA35EC47E24B
:104BC0005EE360910C0670910D0680910E06909147
:104BD0000F060E94DDF8AB01BC0180EE92E00E945E
:104BE000EFC42CEA35EC47E25EE360911006709169
:104BF000110680911206909113060E94DEF3AB011C
:104C0000BC018CED92E00E94EFC48AE00E943ABAA7
:104C1000F5C10E9420C58AEC92E00E9437C4EEC123
:104C200083E50E9491BE182F882371F00E945ABE1E
:104C30000E944FF970934E0160934D0121E0672B64
:104C400009F020E02093FC0580E50E9491BE8823B6
:104C500059F020914D0130914E01232B11F00E940B
:104C6000F4508093FC05CAC11111C8C10E9424C52B
:104C700087EB92E00E9437C48091FC05882319F0ED
:104C80008FE992E002C08BE992E00E9437C4609104
:104C90004D0170914E0186EA92E00E9400C582EAC1
:104CA00092E00E9437C4AAC10E94943EA7C181E04D
:104CB0000E94563C0E943275A1C180E00E94563C81
:104CC0000E9432759BC16FEF7FEF89E40E94C4524E
:104CD000182F6FEF7FEF8AE40E94C452082F8AE5F5
:104CE0000E9491BEF82E811105C081E50E9491BEFF
:104CF000D82E01C0D12C17FD06C007FD04C0F1104D
:104D000009C0D11007C00E9420C58BE792E00E9425
:104D100037C474C1133010F4033038F00E9420C53A
:104D20008CE592E00E9437C469C1E12E110FFF08A3
:104D3000002E000C110B0E945ABED701AA0FBB1FF8
:104D4000DD2081F0FD01EE0DFF1DE00FF11FEE0FE4
:104D5000FF1FEE0FFF1FEB59FD4F20813181428174
:104D6000538103C020E030E0A901EA0EFB1E0E0DC6
:104D70001F1D000F111F000F111F0B591D4F0E9407
:104D8000E3F7D8016D937D938D939C93139736C170
:104D90000E940BE4811132C100E512E0E6EAF5E081
:104DA000F9A7E8A79E012F5F3F4F590195E4892E8F
:104DB00097E0992E1901F80165917591859194916B
:104DC000A8A5B9A5CD90DD90ED90FD90B9A7A8A7B5
:104DD000A70196010E94E2F72B013C01F1016083DB
:104DE00071838283938320E030E040EA51EC0E949B
:104DF00043FA87FD0AC020E030E040EA51E4C301F5
:104E0000B2010E9478F318162CF4F401849118165C
:104E10000CF499C5D101CD90DD90ED90FD901D0170
:104E200020E030E040EA51ECC701B6010E9443FAAD
:104E300087FD0AC020E030E040EA51E4C701B60136
:104E40000E9478F31816A4F40E9420C582E392E031
:104E50000E9437C461E084E292E00E94E55D0E9416
:104E600019AE68E270E088EC90E00E94B85DC6C0C0
:104E70000C5F1F4FBFEF8B1A9B0AE2E00C351E0739
:104E800009F099CF8DE8E82E82E0F82E10E0F501C8
:104E900081919191A191B1915F01F70181939193DA
:104EA000A193B1937F01812F0E943D6F1F5F13304B
:104EB00071F70E94327560E084E192E00E94E55D46
:104EC00063E972E084E690E00E94B85D6AEB72E00C
:104ED00084E690E00E94B85D91C00E94793F8EC048
:104EE0000E9498D78BC061E083E50E94AB520E947C
:104EF000A6D784C081E0809364020E940F44109280
:104F00006402882309F47AC00E9424C589E092E0F3
:104F10000E9437C473C08091E31182FF6FC080622A
:104F20008093E3116BC08AE50E94DABE882331F1D9
:104F30000E945ABE6B017C0120E030E040EA51EC57
:104F40000E9443FA87FD13C020E030E040EA51E4BC
:104F5000C701B6010E9478F318164CF0C0928B136B
:104F6000D0928C13E0928D13F0928E1347C00E9462
:104F700020C58BED91E00E9437C440C00E9424C53B
:104F800040918B1350918C1360918D1370918E13FF
:104F900088EF91E00E94EFC48AE00E943ABA2EC0E6
:104FA00081E0809323011092A50560E083E50E94D3
:104FB000AB52811123C00E94D1B320C00E94CA8489
:104FC0001DC00091090310910A030023B9F00E944B
:104FD00024C584E50E943ABAB8017727072E000C51
:104FE000880B990B0E9441BD80E20E943ABA89EC7D
:104FF00091E00E9437C402C00E94CA840E94C1B3DB
:10500000FCA9F0930C03AAC40E94943E80E00E9485
:1050100004C10E94447281E08093F6020E946DD622
:1050200088E50E9491BE182F89E50E9491BE082F45
:105030008AE50E9491BE101385C1181711F0012F47
:1050400081C101E011E031E038AB80E1E6EAF5E052
:10505000A8EFB2E001900D928A95E1F782E50E94F7
:10506000DABE882361F00E945ABE6B017C0120E009
:1050700030E0A9010E9478F3882369F106C0C12CB1
:10508000D12C60EAE62E60E4F62E111103C0002355
:1050900009F4F8C0C0920003D0920103E092020329
:1050A000F0920303A70196016091AE057091AF05E0
:1050B0008091B0059091B1050E9478F387FF0BC0F5
:1050C00019821A821B821C82BE016F5F7F4F80E0B3
:1050D00093E00E944673112309F4CFC0002309F422
:1050E000C9C01092AA051092AB051092AC0510929F
:1050F000AD051092A6051092A7051092A805109272
:10510000A9050E94F273E5E4F7E044914AABE9E3B4
:10511000F7E0C590D590E590F490EDE3F7E0859049
:105120009590A590B490A5019401C701B6010E9485
:1051300043FA18162CF4A7019601C501B40104C066
:10514000A5019401C701B6010E94DDF82B013C01C5
:10515000E1E3F7E085919591A591B49188A799A78E
:10516000AAA7BBA7EDE2F7E02591359145915491AF
:105170002CA73DA74EA75FA7BC01CD010E9443FA13
:10518000181634F42CA43DA43EA539AB1FA505C0C8
:1051900028A439A44AA549AB1BA5A3019201C301C8
:1051A000B2010E94DEF320E030E040E85FE30E94BD
:1051B000E3F70E9491FA910149A9512F0E94DEF371
:1051C00068A379A38AA39BA3E6E4F7E0149120E007
:1051D00030E040EC5FE3C501B4010E94DEF34B0117
:1051E0005C01612F110F770B880B990B0E947FF3E5
:1051F0009B01AC01C501B4010E94DEF369837A838F
:105200008B839C8320E030E040EC5FE3C701B60174
:105210000E94DEF36B017C015AA9652F550F770BB5
:10522000880B990B0E947FF39B01AC01C701B6016B
:105230000E94DEF36C8F7D8F8E8F9F8FAE01405E5C
:105240005F4FBE016F5F7F4FCE014C960E9424736B
:105250000E947CD61092AA051092AB051092AC0564
:105260001092AD051092A6051092A7051092A80500
:105270001092A90580E00E94F473002319F081E0E8
:105280000E94F47388A9882309F44EC080E00E942C
:10529000BBC380917E138370833061F060E087E54B
:1052A00097E00E94E55D0E9424C588E497E00E9493
:1052B00037C43AC00E94F2738091AE059091AF0559
:1052C000A091B005B091B1058093000390930103C4
:1052D000A0930203B093030380E090E0ADE1B3E458
:1052E0008093F8029093F902A093FA02B093FB0224
:1052F00080E090E0AEEFB2E48093FC029093FD0278
:10530000A093FE02B093FF0219821A821B821C82B4
:10531000AE014F5F5F4F6CEF72E088EF92E00E944A
:10532000247382E00E94F4730E94F2738091F7026A
:105330008093F6020E942B7283E0809348010E94C2
:1053400032755CCE88AB81CE11110C94F31C0C9499
:10535000EC1C0E9441BA0C94151D0E944ABEAB0180
:10536000BC014093DF115093E0116093E111709301
:10537000E21185EA9FE00E94C7D140CE61E0802F14
:105380000E94AE8A6F2D802F0E947F8A6F2D70E061
:10539000802F0E94826924E0E21230CEF092EB0569
:1053A0002DCE0E945ABE0E944FF9633771050CF052
:1053B0007DC17093C3026093C2020E9492DD0E947D
:1053C0005ABE20E030E040EA50E40E9443FA18164A
:1053D00014F40E9408576091C2027091C302072E14
:1053E000000C880B990B0E947FF32091BE02309134
:1053F000BF024091C0025091C1020E9443FA1816A8
:105400001CF488ED95E002C089EC95E060E00E9414
:10541000E55D81E0809322011CA61DA61EA61FA6A5
:105420001EAA1FAA18AE19AE18A61BAEACE3ACAFED
:10543000BCE1BDAFE6E4EEAFC12CD12C00E8E02E1C
:105440008FEBF82EF1E0FAAF812C912C5401609192
:10545000C2027091C302072E000C880B990B0E94A8
:105460007FF3162F072F782E692E9601A7010E9431
:1054700078F3882321F12091BE023091BF02409140
:10548000C0025091C1028DA9612F702F811109C0F6
:10549000872D962D0E9478F3881F8827881F88A75C
:1054A00014C0872D962D0E9478F387FF0DC0809140
:1054B0002201882309F4A2CD0E945B5E9FCD1C2DA2
:1054C0000D2D7E2C6F2C01C018A60E942E6A6B0138
:1054D0007C01DC01CB012EA93FA948AD59AD821B4F
:1054E000930BA40BB50BB7FD33C0D701C601885190
:1054F0009C4FAF4FBF4F8EAB9FABA8AFB9AF80E013
:105500000E94706785EC95E00E9437C48114910475
:10551000A104B104B9F0D501C401805F984DAF4F2B
:10552000BF4FBC01CD016C197D098E099F0928EE82
:1055300033E040E050E00E947FF7CA01B9010E94C9
:1055400041BD03C08FE30E943ABA8AE00E943ABA92
:105550000E9441BA0E942E6A60938F137093901339
:1055600080939113909392139091BE0298ABA09167
:10557000BF02A9ABB091C002BAABE091C102EBABE4
:10558000292F3A2F4B2F5E2F612F702F872D962DAD
:105590000E94E2F71B012C0120E030E0A9010E94EB
:1055A00043FA87FF04C057FA509457F85094811477
:1055B0009104A104B104B1F420E030E040E85FE3DD
:1055C000C201B1010E9478F387FF18C0FAAD46010D
:1055D0005701FF2399F020E1820E27E2921EA11CC1
:1055E000B11C0CC020E030E040E450E4C201B10145
:1055F0000E9443FA181614F44601570138A53323C4
:10560000C1F18CA59DA5AEA5BFA5892B8A2B8B2B9F
:1056100061F0D701C6012CA53DA54EA55FA5821B53
:10562000930BA40BB50BB7FD24C028A939A94AA92F
:105630005BA96BAD7CAD8DAD9EAD0E94E2F720E025
:1056400030E040EC5FE30E9478F387FD30CFD70174
:10565000C601805A9541AF4FBF4F8CA79DA7AEA7FB
:10566000BFA798A99BAFA9A9ACAFBAA9BDAFEBA939
:10567000EEAF80912201882309F419CF811491049F
:10568000A104B10431F41AAEC12ED02EE72CF62CB1
:10569000DECEF0E1CF1AF7E2DF0AE108F108C81820
:1056A000D908EA08FB08F7FCEECF01CF63E770E00A
:1056B00080CE0E94943E88E50E9491BE882331F0FE
:1056C0005E9A80917E138E7F80937E1389E50E947F
:1056D00091BE882331F05E9A80917E138D7F8093F6
:1056E0007E138AE50E9491BE882309F487CC159A1F
:1056F00080917E138B7F80937E1380CC0E94F16B10
:105700007DCC83E50E94DABE882391F00E945ABEC8
:105710006093FB0A7093FC0A8093FD0A9093FE0A43
:105720006093030B7093040B8093050B9093060B0F
:1057300080E50E94DABE882351F00E945ABE609331
:10574000FB0A7093FC0A8093FD0A9093FE0A82E59F
:105750000E94DABE882351F00E945ABE6093FF0A6D
:105760007093000B8093010B9093020B84E50E94D1
:10577000DABE882309F442CC0E945ABE6093030B20
:105780007093040B8093050B9093060B37CC82E447
:105790000E9491BE882351F00E949B506093D70ACB
:1057A0007093D80A8093D90A9093DA0A83E50E940D
:1057B00091BE882351F00E945ABE6093070B7093EC
:1057C000080B8093090B90930A0B84E50E9491BE0D
:1057D000882351F00E945ABE60930B0B70930C0B00
:1057E00080930D0B90930E0B88E50E9491BE882349
:1057F00051F00E945ABE6093C3057093C405809314
:10580000C5059093C60589E50E9491BE882351F095
:105810000E945ABE6093C7057093C8058093C9055E
:105820009093CA058AE50E9491BE8823B1F00E9438
:105830005ABE6093CB057093CC058093CD059093B1
:10584000CE052DEC3CEC4CEC5DE30E9478F3181691
:1058500024F089E593E00E9437C485E40E9491BE5C
:10586000882309F4CBCB0E945ABE6093CF05709376
:10587000D0058093D1059093D205C0CB0E945ABE2B
:1058800020E030E040E050EC0E9478F387FD15C046
:105890000E945ABE20E030E040E050E40E9443FA0B
:1058A00018162CF00E945ABE6B017C010BC0C12C53
:1058B000D12CE12C50E4F52E05C0C12CD12CE12CCB
:1058C00040ECF42E2091E30A3091E40A4091E50A7D
:1058D0005091E60AC701B6010E94DEF30E944FF91B
:1058E000CB010E9466E480E50E9491BE882329F0E6
:1058F0000E94F450882309F481CBA701960160919E
:105900008B1370918C1380918D1390918E130E9444
:10591000E3F760938B1370938C1380938D139093A4
:105920008E130E9424C540918B1350918C1360916B
:105930008D1370918E1388EE92E00E94EFC48AE07E
:105940000E943ABA5BCBF7FAF094F7F8F094D101E1
:10595000CD92DD92ED92FC9213975CCAEE960FB653
:10596000F894DEBF0FBECDBFDF91CF911F910F9195
:10597000FF90EF90DF90CF90BF90AF909F908F906F
:105980007F906F905F904F903F902F9008952CEAFA
:1059900035EC47E25EE3609112037091130380914E
:1059A0001403909115030E94DDF860931006709324
:1059B0001106809312069093130608952CEA35EC95
:1059C00047E25EE36091160370911703809118031C
:1059D000909119030E94DEF360930C0670930D06FC
:1059E00080930E0690930F060895CF93DF93EC01FA
:1059F000CB01BA010E947FF32AE037ED43E25CE37A
:105A00000E94DEF3688379838A839B83DF91CF9141
:105A10000895CF93DF93EC01CB01BA010E947FF38D
:105A20002FE632E143E85AE30E94DEF3688379838C
:105A30008A839B83DF91CF910895CF93DF9300D02A
:105A400000D0CDB7DEB70E947FF32AE037ED43E206
:105A50005CE30E94DEF369837A838B839C83CE01AF
:105A600001960E9441570F900F900F900F90DF9179
:105A7000CF91089565EF7CE28DE19DE20C9438AE04
:105A800066E17BEA89E59BEA0C9438AE69E07DE249
:105A900083E89DE20C9438AE0F931F93CF93DF936E
:105AA000CDB7DEB76E970FB6F894DEBF0FBECDBF91
:105AB000809125018F93809124018F931F921F92D3
:105AC00084EB97E09F938F938E010F5F1F4F1F937F
:105AD0000F930E9410F381E080938403C8010E9419
