:100000000C94F8140C9422150C9422150C942215BF
:100010000C9422150C9422150C9422150C94221584
:100020000C9422150C94984B0C9422150C942215C8
:100030000C9422150C94944C0C9422150C942215BB
:100040000C9422150C94E5860C944E4B0C942215BE
:100050000C945F340C9455340C9422150C94221596
:100060000C9422150C9422150C9422150C94221534
:100070000C9422150C9422150C9422150C94221524
:100080000C9422150C9422150C942215BD4AC24AD8
:10009000C74AD14AFF4AFF4ADB4AE34AEB4AF54ADC
:1000A000C375C675B975BD75DD75DD75CA75CE7557
:1000B000D475D87512C7D1C508C64EC708C608C6BC
:1000C00008C608C608C608C608C608C608C608C6C0
:1000D00008C608C608C608C608C608C608C608C6B0
:1000E00008C608C608C608C608C608C608C608C6A0
:1000F00048C708C608C608C608C608C608C608C64F
:1001000008C621C708C608C608C608C608C608C665
:1001100008C608C608C608C665C705C6084AD73B4C
:100120003BCE016E84BCBFFDC12F3D6C74319ABDC6
:1001300056833DDA3D00C77F11BED9E4BB4C3E91EA
:100140006BAAAABE000000803F05A84CCDB2D44ED9
:10015000B93836A9020C50B9918688083CA6AAAADB
:100160002ABE000000803F004E414E494E4954597E
:10017000494E46CDCCCC3D0AD7233C17B7D1387772
:10018000CC2B329595E6241FB14F0A000020410088
:1001900000C84200401C4620BCBE4CCA1B0E5AAED2
:1001A000C59D74434F4D4D554E49434154494F4EA3
:1001B0000044525952554E004552524F5253004935
:1001C0004E464F004543484F00496E76616C696466
:1001D0002065787472756465720A003F5A206F75E5
:1001E00074206F662072616E676520282D32302082
:1001F000746F203230290A0050726F6265205A20D5
:100200004F66667365743A2000454550524F4D2045
:100210004F4B0A004F666673657473206170706C93
:10022000696564004572723A20546F6F206661728E
:100230002100546F6F206661722066726F6D2072AC
:1002400065666572656E636520706F696E740A001D
:10025000000000000000000000000000646973005E
:10026000656E0043290A0061626C656420286D692F
:100270006E2074656D702000436F6C642065787427
:100280007275646573206172652000496E76616CD9
:1002900069642065787472756465720A0020643A36
:1002A0000020693A0020703A0020466C6F773A20AF
:1002B000004F4646004F4E00205A0020590058007B
:1002C00020204D61783A2000205A00205900580023
:1002D00020204D696E3A2000536F667420656E646D
:1002E00073746F70733A20002054002052004163F1
:1002F00063656C65726174696F6E3A2050004D31B0
:10030000343520533C696E6465783E206F757420E7
:100310006F662072616E67652028302D31290A00D2
:100320002F2F20004348414D4245525F54454D50C8
:1003300045524154555245004D4F54494F4E5F4D23
:100340004F44455300544845524D414C5F50524F25
:1003500054454354494F4E004155544F5245504F18
:1003600052545F53445F5354415455530050524FBD
:100370004D50545F535550504F525400454D4552C7
:1003800047454E43595F50415253455200434153F4
:10039000455F4C494748545F4252494748544E458F
:1003A000535300544F47474C455F4C4947485453BB
:1003B00000534F4654574152455F504F57455200E6
:1003C0004255494C445F50455243454E54004C45BC
:1003D00056454C494E475F44415441005A5F505284
:1003E0004F4245004155544F4C4556454C005052E4
:1003F000494E545F4A4F420050524F475245535363
:10040000004155544F5245504F52545F54454D5042
:1004100000564F4C554D45545249430045455052A6
:100420004F4D0042494E4152595F46494C455F5439
:1004300052414E534645520053455249414C5F5834
:100440004F4E5F584F4646004649524D5741524520
:100450005F4E414D453A4D61726C696E2062756721
:100460006669782D322E302E782028476974687599
:10047000622920534F555243455F434F44455F55D2
:10048000524C3A68747470733A2F2F6769746875A8
:10049000622E636F6D2F4D61726C696E4669726D6D
:1004A000776172652F4D61726C696E2050524F54A6
:1004B0004F434F4C5F56455253494F4E3A312E30C1
:1004C000204D414348494E455F545950453A456E89
:1004D0006465722D332045585452554445525F434C
:1004E0004F554E543A3120555549443A6365646539
:1004F000326132662D343161322D343734382D3942
:100500006231322D6335356336326633363766668F
:100510000A00456E6465722D33204F46462E006FEB
:100520006B0020573A0042656420636F6F6C696E00
:10053000672E2E2E004265642068656174696E67BF
:100540002E2E2E004D3131332053006F666600C4CD
:1005500001BF01B801B101A30144454255473A002A
:1005600020573A004520436F6F6C696E672E2E2E20
:1005700000452048656174696E672E2E2E0050720A
:100580006F7465637465642050696E0A0025697331
:100590000025696D20256973002569682025696D2E
:1005A0002025697300256964202569682025696D07
:1005B00020256973002569792025696420256968EB
:1005C0002025696D20256973005072696E7420744E
:1005D000696D653A20002E0A0044656C6574696F88
:1005E0006E206661696C65642C2046696C653A20F2
:1005F0000046696C652064656C657465643A002822
:100600006E6F2066696C65290043757272656E7441
:100610002066696C653A20005344207072696E74DC
:10062000696E67206279746520004E6F74205344B0
:10063000207072696E74696E670A00456E64206688
:10064000696C65206C6973740A00426567696E2085
:1006500066696C65206C6973740A004E6F206D6F5B
:1006600076652E00436C69636B20746F207265732E
:10067000756D652E2E2E0050726F62696E67206652
:1006800061696C65640A0050726F62696E6720660A
:1006900061696C656400205A3A200020593A2000B4
:1006A00042656420583A20000000204200002042A9
:1006B0000000C04000006B4300006B4300007A4321
:1006C000FFFFFF536C6565702E2E2E0020746F6F38
:1006D000206C6F6E6720657874727573696F6E2019
:1006E00070726576656E7465640A0020636F6C6471
:1006F00020657874727573696F6E207072657665A7
:100700006E7465640A004572726F72207772697444
:10071000696E6720746F20454550524F4D210A0085
:100720000F150E1216170E1303021A1401000E0CE9
:10073000190DFF180C040001627573793A2070617D
:100740007573656420666F7220696E7075740A0037
:10075000627573793A2070617573656420666F7293
:1007600020757365720A00627573793A2070726F32
:1007700063657373696E670A004B494C4C20636173
:100780007573656420627920746F6F206D7563687E
:1007900020696E6163746976652074696D65202DCA
:1007A0002063757272656E7420636F6D6D616E6427
:1007B0003A2000506C656173652072657365740042
:1007C0005052494E5445522048414C544544004BE8
:1007D000494C4C45442E20005072696E746572205D
:1007E00068616C7465642E206B696C6C28292063C9
:1007F000616C6C6564210A006563686F3A0045723C
:10080000726F723A00204500205A00205900204D96
:10081000393220580020496E76616C696420657811
:1008200074727564657220007C3C3E5E2B3D3F2FE8
:100830005B5D3B2C2A225C00456E6465722D332083
:1008400052656164792E005072696E74696E672E0C
:100850002E2E005072696E7420706175736564008D
:100860005072696E742061626F727465640000007A
:100870006B4300006B4300007A430000000000005F
:10088000000000000000290A002062797465733BB3
:1008900020637263200053657474696E677320531C
:1008A000746F726564202800022020506C616E6EA7
:1008B000657242756666657242797465733A2000A6
:1008C0002046726565204D656D6F72793A20006231
:1008D00075676669782D322E302E780A004D617268
:1008E0006C696E0020536F66747761726520526583
:1008F0007365740A00205761746368646F672052DF
:10090000657365740A002042726F776E206F75748C
:100910002052657365740A002045787465726E61B3
:100920006C2052657365740A00506F77657255705C
:100930000A0073746172740A006175746F25632E06
:1009400067004C6F6164696E672073657474696ECB
:1009500067732066726F6D2053440A006572726F70
:10096000722077726974696E6720746F2066696C93
:10097000650A00446F6E6520736176696E67206654
:10098000696C652E0A004D323900456E6473746FD0
:1009900070732025632025632025632025630020B4
:1009A0005A3A0020593A0020583A00656E64737430
:1009B0006F7073206869743A2000473238585900C4
:1009C00024F4D43050C38E20C2A24017828B701101
:1009D000127A910D816CD90AA861E108C75866079F
:1009E000615143061E4B5D05C145A7041A41110420
:1009F000093D9803713931034036DB0265339102BA
:100A0000D4305402802E1D02632CEE01752AC501DC
:100A1000B028A001102781018F2564012B244B01F0
:100A2000E0223401AC211F018D200D01801FFC004C
:100A3000841EED00971DDF00B81CD200E61BC60027
:100A4000201BBC00641AB200B219A8000A19A00049
:100A50006A189900D117910040178B00B5168400D1
:100A600031167E00B31579003A157300C7146F0074
:100A700058146A00EE1366008813630025135E00A5
:100A8000C7125B006C12570015125400C1115100BF
:100A900070114F0021114B00D61049008D104700F6
:100AA0004610440002104200C00F4000800F3E007C
:100AB000420F3C00060F3B00CB0E3800930E370070
:100AC0005C0E3500270E3400F30D3200C10D3100ED
:100AD000900D3000600D2E00320D2D00050D2C0004
:100AE000D90C2B00AE0C2900850C29005C0C2700CA
:100AF000350C27000E0C2600E80B2400C40B240044
:100B0000A00B23007D0B23005A0B2100390B210081
:100B1000180B2000F80A1F00D90A1E00BB0A1E008D
:100B20009D0A1D00800A1D00630A1C00470A1B0065
:100B30002C0A1B00110A1A00F7091A00DD09190016
:100B4000C4091900AB091900920917007B091800A4
:100B5000630917004C091600360916002009160013
:100B60000A091500F5081500E0081400CC08140067
:100B7000B8081400A4081400900813007D0812009F
:100B80006B081300580812004608120034081100C0
:100B9000230811001208110001081100F0071000CD
:100BA000E0071000D0071000C0071000B0070F00CA
:100BB000A107100091070E0083070F0074070F00B4
:100BC00065070E0057070E0049070E003B070D0092
:100BD0002E070E0020070D0013070D0006070D005D
:100BE000F9060C00ED060D00E0060C00D4060C0022
:100BF000C8060C00BC060C00B0060C00A4060B00D6
:100C000099060C008D060B0082060B0077060B0080
:100C10006C060B0061060A0057060B004C060A0022
:100C200042060A0038060A002E060A0024060A00B8
:100C30001A060A001006090007060A00FD05090049
:100C4000F4050900EB050900E2050900D9050900D2
:100C5000D0050900C7050900BE050900B505080053
:100C6000AD050800A50509009C05080094050800CD
:100C70008C050800840508007C0508007405080040
:100C80006C050700650508005D05070056050800AE
:100C90004E05070047050700400508003805070016
:100CA000310507002A050700230507001C0506007B
:100CB000160507000F0507000805060002050700D6
:100CC000FB040600F5040700EE040600E804060035
:100CD000E2040700DB040600D5040600CF0406008A
:100CE000C9040600C3040600BD040600B7040600DC
:100CF000B1040500AC040600A6040600A00405002B
:100D00009B04060095040500900406008A04050073
:100D100085040500800406007A04050075040500BA
:100D2000700405006B0405006604050061040500FD
:100D30005C04050057040500520405004D0405003D
:100D400048040500430405003E0404003A0405007D
:100D500035040500300404002C04050027040400B9
:100D6000230405001E0404001A04040016040500F0
:100D7000110404000D040400090405000404040027
:100D800000040400FC030400F8030400F40304005E
:100D9000F0030400EC030400E8030400E40304008F
:100DA000E0030400DC030400D8030400D4030400BF
:100DB000D0030400CC030400C8030300C5030300F0
:100DC00024F404D9201BC40C5C0E9804C4095F02EF
:100DD00065077101F405F900FB04B30048048700BE
:100DE000C10369005803550003034500BE023A00E1
:100DF0008402310053022A00290225000402200047
:100E0000E4011C00C8011900AF011700980114008B
:100E100084011300710110006101100051010E00E6
:100E200043010D0036010B002B010B0020010B00CC
:100E3000150109000C01090003010800FB0008006E
:100E4000F3000800EB000700E4000600DE000600E7
:100E5000D8000600D2000600CC000500C70005003F
:100E6000C2000500BD000400B9000400B500040084
:100E7000B1000400AD000400A9000400A5000300B7
:100E8000A20003009F0004009B00030098000300E1
:100E90009500020093000300900003008D00020003
:100EA0008B0003008800020086000200840003001B
:100EB000810002007F0002007D0002007B00020032
:100EC0007900020077000100760002007400020041
:100ED00072000100710002006F0002006D0001004D
:100EE0006C0002006A000100690002006700010056
:100EF000660001006500010064000200620001005C
:100F000061000100600001005F0002005D0001005F
:100F10005C0001005B0001005A0001005900010063
:100F20005800010057000100560001005500010063
:100F30005400010053000000530001005200010062
:100F400051000100500001004F0001004E00000060
:100F50004E0001004D0001004C0001004B0000005C
:100F60004B0001004A000100490001004800000058
:100F70004800010047000100460000004600010053
:100F8000450000004500010044000100430000004E
:100F90004300010042000000420001004100000047
:100FA00041000100400001003F0000003F0001003F
:100FB0003E0000003E0001003D0000003D00010039
:100FC0003C0000003C0000003C0001003B00000031
:100FD0003B0001003A0000003A0001003900000027
:100FE000390001003800000038000000380001001E
:100FF0003700000037000100360000003600000016
:101000003600010035000000350000003500010009
:101010003400000034000000340001003300000000
:1010200033000000330001003200000032000000F5
:1010300032000100310000003100000031000100E9
:101040003000000030000000300001002F000000E0
:101050002F0000002F0000002F0001002E000000D4
:101060002E0000002E0001002D0000002D000000C9
:101070002D0000002D0001002C0000002C000000BD
:101080002C0000002C0001002B0000002B000000B1
:101090002B0000002B0001002A0000002A000000A5
:1010A0002A0000002A000100290000002900000099
:1010B000290000002900000029000100280000008C
:1010C000280000002800000028000000280001007F
:1010D0002700000027000000270000002700000074
:1010E0002700010026000000260000002600000066
:1010F0002600000026000100250000002500000059
:10110000250000002500000025000000250001004A
:10111000240000002400000024000000240000003F
:101120002400010023000000230000002300000031
:101130002300000023000000230000002300010022
:101140002200000022000000220000002200000017
:101150002200000022000100210000002100000008
:1011600021000000210000002100000021000000FB
:1011700021000100200000002000000020000000ED
:1011800020000000200000002000000020000000DF
:10119000200001001F0000001F0000001F000000D1
:1011A0001F0000001F0000001F0000001F000100C2
:1011B0001E0000001E0000001E0000001E000000B7
:1011C000043700001E290000511B000058100000C9
:1011D00010090000CC04000078020000410100006A
:1011E0004D33303320553120452569205325690082
:1011F000504944204175746F74756E6500504944C0
:10120000204175746F74756E65005049442D44001B
:101210005049442D44005049442D49005049442D23
:1012200049005049442D50005049442D5000200899
:101230002046616374002008204661637400200822
:10124000204D6178002008204D6178002008204D55
:10125000696E002008204D696E004F6666004F6E73
:10126000004175746F74656D7000416476616E63E2
:1012700065642053657474696E67730046696C61B8
:101280006D656E740054656D70657261747572651C
:1012900000436F6E66696775726174696F6E004CAA
:1012A0006F61642073657474696E6773005265734F
:1012B000746F7265206661696C7361666500537452
:1012C0006F72652073657474696E67730050726F16
:1012D0006265205A204F66667365740050726F62B3
:1012E00065205A204F666673657400416476616EAE
:1012F0006365642053657474696E6773004D61693A
:101300006E004361703A0047322F473320626164B8
:1013100020706172616D65746572730A00220A0043
:10132000656E7175657565696E672022006F6B006B
:10133000526573656E643A200053544F50504544D3
:101340002E20005072696E7465722073746F707015
:1013500065642064756520746F206572726F7273A6
:101360002E2046697820746865206572726F72203D
:10137000616E6420757365204D39393920746F2092
:10138000726573746172742E202854656D70657275
:1013900061747572652069732072657365742E209F
:1013A0005365742069742061667465722072657378
:1013B00074617274696E67290A004E6F2043686514
:1013C000636B73756D2077697468206C696E652036
:1013D0006E756D6265722C204C617374204C696E61
:1013E000653A20004E6F20436865636B73756D200E
:1013F00077697468206C696E65206E756D626572C0
:101400002C204C617374204C696E653A200063682F
:1014100065636B73756D206D69736D617463682CA2
:10142000204C617374204C696E653A20004C696EE3
:1014300065204E756D626572206973206E6F742031
:101440004C617374204C696E65204E756D626572D7
:101450002B312C204C617374204C696E653A20004E
:101460004D313130004D3331005344207265616499
:10147000206572726F720A00446F6E652070726927
:101480006E74696E672066696C650A002364656620
:10149000696E652044454641554C545F004B6420BD
:1014A000004B6920004B7020005049442041757466
:1014B0006F74756E652066696E6973686564212056
:1014C00050757420746865206C617374204B702CA7
:1014D000204B6920616E64204B6420636F6E7374CF
:1014E000616E74732066726F6D2062656C6F772019
:1014F000696E746F20436F6E666967757261746997
:101500006F6E2E680A00504944204175746F7475DF
:101510006E65206661696C6564212074696D656F14
:1015200075740A00453120544845524D414C2052B3
:10153000554E4157415900546865726D616C205297
:10154000756E617761790045312048656174696E17
:1015500067206661696C65640048656174696E67DF
:10156000206661696C656400504944204175746F60
:1015700074756E65206661696C6564212054656DC3
:10158000706572617475726520746F6F2068696729
:10159000680A00204B643A2000204B693A20002062
:1015A0004B703A20000A20436C61737369632050CA
:1015B0004944200A002054753A2000204B753A20F7
:1015C00000206D61783A2000206D696E3A2000207D
:1015D000643A200020626961733A20005049442037
:1015E0004175746F74756E652073746172740A004E
:1015F000504944204175746F74756E652066616949
:101600006C6564212054656D7065726174757265D6
:1016100020746F6F20686967680A00504944204150
:1016200075746F74756E65206661696C65642120E0
:10163000426164206578747275646572206E756DA0
:101640006265720A004572723A20757466382066C7
:101650006F6E74206E6F7420696E697469616C6955
:101660007A65642E004572723A2075746638206679
:101670006F6E74206E6F7420696E697469616C6935
:101680007A65642E004572723A2075746638206659
:101690006F6E74206E6F7420696E697469616C6915
:1016A0007A65642E0000060C00FE07022603BC01CA
:1016B0007FFE08FE08FE05080806000040F0C88806
:1016C00088987810050808060000C0F8888888887F
:1016D00088F80505050600012030F83020050808C7
:1016E0000600002070F820202020E00509090600EF
:1016F000FF2070A8A8B8888870200506060600019B
:10170000E08CEA8C8A0A0509090600FFF8A8888897
:10171000888888A8F8050A0A0600FE205050505014
:1017200088A8A8887003030306000340A040FFFFB9
:10173000FFFFFFFFFFFFFFFFFFFFFFFFFFFFFFFFB9
:10174000FFFFFFFF0000000605FF0107070602007C
:1017500080808080800080030303060105A0A0A094
:1017600005060606000050F85050F8500509090615
:1017700000FF2070A8A07028A870200507070600A9
:1017800000C8C8102040989805070706000040A030
:10179000A040A89068010303060205808080030929
:1017A000090601FF20404080808040402003090955
:1017B0000601FF80404020202040408005070706AA
:1017C000000020A8702070A8200505050600012053
:1017D00020F820200203030601FFC040800501011C
:1017E000060003F8020202060100C0C00507070652
:1017F0000000081010204040800507070600007018
:101800008898A8C8887003070706010040C04040B8
:101810004040E0050707060000708808102040F8E7
:10182000050707060000F80810300888700507074C
:1018300006000010305090F8101005070706000051
:10184000F880F0080888700507070600003040801F
:10185000F0888870050707060000F808101020209F
:1018600020050707060000708888708888700507C3
:1018700007060000708888780810600205050601D8
:1018800000C0C000C0C00206060601FFC0C000C004
:101890004080030505060101204080402005030328
:1018A000060002F800F8030505060101804020400B
:1018B000800507070600007088102020002005071B
:1018C000070600007088B8A8B880700507070600F2
:1018D00000708888F8888888050707060000F048A7
:1018E00048704848F005070706000070888080802F
:1018F0008870050707060000F04848484848F0058A
:101900000707060000F88080F08080F805070706CA
:101910000000F88080F080808005070706000070D6
:10192000888080988870050707060000888888F8F6
:10193000888888030707060100E04040404040E0F7
:101940000507070600003810101010906005070703
:101950000600008890A0C0A0908805070706000038
:10196000808080808080F805070706000088D8A85E
:10197000888888880507070600008888C8A898888E
:101980008805070706000070888888888870050722
:1019900007060000F08888F08080800507070600B1
:1019A0000070888888A89068050707060000F088FE
:1019B00088F0A090880507070600007088807008EE
:1019C0008870050707060000F82020202020200549
:1019D000070706000088888888888870050707063A
:1019E0000000888888885050200507070600008876
:1019F000888888A8A8500507070600008888502016
:101A0000508888050707060000888850202020207D
:101A1000050707060000F80810204080F8030909B0
:101A20000601FFE080808080808080E00507070657
:101A30000000804040201010080309090601FFE063
:101A400020202020202020E0050303060005205050
:101A5000880501010600FEF8030303060105804026
:101A60002005050506000070087888780507070638
:101A700000008080F0888888F00505050600007069
:101A80008080887005070706000008087888888825
:101A9000780505050600007088F0807005070706C8
:101AA0000000304840E04040400507070600FE7057
:101AB0008888887808700507070600008080F0880D
:101AC0008888880307070601004000C0404040E0C6
:101AD0000409090601FE1000301010101090600576
:101AE000070706000080808890E0908803070706BB
:101AF0000100C04040404040E0050505060000D020
:101B0000A8A8A8A8050505060000B0C8888888050B
:101B1000050506000070888888700507070600FE26
:101B2000F0888888F080800507070600FE7888889E
:101B300088780808050505060000B0C88080800583
:101B4000050506000078807008F00507070600000C
:101B50002020F82020201805050506000088888828
:101B60009868050505060000888888502005050549
:101B70000600008888A8A8500505050600008850C2
:101B80002050880507070600FE888888502040807E
:101B9000050505060000F8102040F80309090601B4
:101BA000FF2040404080404040200109090602FFDC
:101BB0008080808080808080800309090601FF800A
:101BC000404040204040408005030306000248A8F2
:101BD00090FF43616E6E6F74206F70656E20737539
:101BE00062646972200053442063617264206F6BE9
:101BF0000A006F70656E526F6F74206661696C6564
:101C0000640A00766F6C756D652E696E6974206666
:101C100061696C65640A00534420696E69742066CA
:101C200061696C0A004D3234004D32332025730057
:101C300057726974696E6720746F2066696C653AC3
:101C400020002E0A006F70656E206661696C656405
:101C50002C2046696C653A20002E0A006F70656E74
:101C6000206661696C65642C2046696C653A2000C9
:101C700046696C652073656C65637465640A002051
:101C800053697A653A200046696C65206F70656E0D
:101C900065643A2000667265736800646F696E67F8
:101CA000002066696C653A20004E6F772000454E33
:101CB0004420535542524F5554494E450A00222064
:101CC000706F73002220706172656E743A22005347
:101CD0005542524F5554494E452043414C4C207477
:101CE00061726765743A2200747279696E67207454
:101CF0006F2063616C6C207375622D67636F646520
:101D00002066696C6573207769746820746F6F2032
:101D10006D616E79206C6576656C732E204D41582F
:101D2000206C6576656C2069733A310A00000021E9
:101D300000240027002A0000002200250028002B94
:101D400000000020002300260029000202020202F7
:101D5000020202040404040404040403030303034E
:101D60000303030101010101010101010204081043
:101D70002040800102040810204080010204081065
:101D80002040808040201008040201000000010271
:101D900000090A000000000403080700000000001A
:101DA00000000000000000000000004D6F7665207C
:101DB000302E3032356D6D004D6F766520302E310E
:101DC0006D6D004D6F766520316D6D004D6F7665E0
:101DD0002031306D6D004D6F76652061786973003C
:101DE000486F74656E6420746F6F20636F6C64005D
:101DF0004578747275646572004D6F7665205A007F
:101E00004D6F76652059004D6F7665205800454529
:101E100050524F4D206461746173697A6520657218
:101E2000726F722E0A00290A002062797465733B72
:101E30002063726320002073746F72656420736581
:101E40007474696E6773207265747269657665640F
:101E5000202800202863616C63756C6174656429B7
:101E6000210A0020213D2000454550524F4D20437E
:101E70005243206D69736D61746368202D2028734F
:101E8000746F7265642920002053697A653A2000D6
:101E9000496E6465783A2000204D61726C696E3D30
:101EA000563637290A00454550524F4D2076657207
:101EB00073696F6E206D69736D6174636820284566
:101EC0004550524F4D3D0048617264636F646564D4
:101ED0002044656661756C742053657474696E671F
:101EE00073204C6F616465640A00F4010000F40122
:101EF000000064000000881300000000FA430000A6
:101F0000FA430000A0400000C8410000A0420000C9
:101F1000A0420000C8430000BA423A0A0020204D07
:101F2000383531205A005A2D50726F6265204F6645
:101F3000667365740020440020490020204D333032
:101F4000312050005049442073657474696E677382
:101F50003A0A0020460020420020480020204D314F
:101F600034352053004D6174657269616C20686579
:101F70006174757020706172616D65746572733A19
:101F80000A00205A0020590020204D3230362058B7
:101F900000486F6D65206F66667365743A0A0020AD
:101FA0004500205A0020590020580020540020539A
:101FB0000020204D32303520420020453C6D6178B4
:101FC0005F655F6A65726B3E0020583C6D61785FAB
:101FD000785F6A65726B3E20593C6D61785F795F0E
:101FE0006A65726B3E205A3C6D61785F7A5F6A6504
:101FF000726B3E00416476616E6365643A20423CD8
:102000006D696E5F7365676D656E745F74696D652C
:102010005F75733E20533C6D696E5F6665656472E3
:102020006174653E20543C6D696E5F7472617665C3
:102030006C5F66656564726174653E0020540020C3
:10204000520020204D323034205000416363656CD3
:1020500065726174696F6E2028756E6974732F7371
:1020600032293A20503C7072696E745F6163636517
:102070006C3E20523C726574726163745F6163638D
:10208000656C3E20543C74726176656C5F6163637D
:10209000656C3E0A00204500205A0020590020208F
:1020A0004D3230312058004D6178696D756D204199
:1020B0006363656C65726174696F6E2028756E6903
:1020C00074732F7332293A0A00204500205A0020E9
:1020D000590020204D3230332058004D6178696D11
:1020E000756D206665656472617465732028756E10
:1020F0006974732F73293A0A0053746570732070E2
:10210000657220756E69743A0A0020204D323030B5
:102110002044300A0020204D32303020440020443A
:10212000697361626C65640A0046696C616D656E15
:10213000742073657474696E67733A0020204D31A2
:1021400034392043203B20556E69747320696E201A
:1021500043656C736975730A0020286D6D29002032
:1021600020473231202020203B20556E6974732097
:10217000696E206D6D00486F6D696E6720666169DC
:102180006C656400626564002C2073797374656DFE
:102190002073746F70706564212048656174657286
:1021A0005F49443A20004265642068656174696E45
:1021B00067206661696C65640048656174696E6773
:1021C000206661696C65640042454420544845526C
:1021D0004D414C2052554E4157415900546865724B
:1021E0006D616C2052756E617761790045312048D0
:1021F000656174696E67206661696C656400486535
:102200006174696E67206661696C656400453120A0
:10221000544845524D414C2052554E41574159006A
:10222000546865726D616C2052756E6177617900DA
:10223000202D20496E76616C696420657874727512
:10224000646572206E756D62657220210A007001EE
:102250002C0190012701B0012201C0011D01F001F4
:1022600018011002130130020E01600209019002F0
:102270000401C002FF000003FA004003F5008003E0
:10228000F000D003EB002004E6007004E100E0045D
:10229000DC004005D700C005D2004006CD00D006C6
:1022A000C8008007C3003008BE00F008B900C009AC
:1022B000B400B00AAF00B00BAA00D00CA500000E0D
:1022C000A000500F9B00C010960050129100001407
:1022D0008C00C0158700B0178200B0197D00D01B9C
:1022E0007800001E730040206E0090226900F024E8
:1022F000640040275F0090295A00E02B5500102E03
:10230000500020304B0010324600E0334100903541
:102310003C001037370070383200A0392D00B03A39
:102320002800A03B2300603C1E00103D1900903D9A
:102330001400103E0F00703E0A00C03E0500003F32
:102340000000403FFBFF803FF6FFC03FF1FF4531FB
:1023500020544845524D414C2052554E4157415909
:102360000042454420544845524D414C2052554E60
:102370004157415900546865726D616C2052756E09
:1023800061776179004531204572723A204D41589C
:1023900054454D50004572723A204D415854454DB8
:1023A0005020424544004D415854454D50207472D0
:1023B00069676765726564004531204572723A202D
:1023C0004D494E54454D50004572723A204D494E8C
:1023D00054454D5020424544004D494E54454D50C2
:1023E00020747269676765726564004D38342058DF
:1023F0002059205A204500202F002042403A00203A
:10240000403A0025753A2530327500253032753A4C
:10241000253032750025756420253032753A253017
:1024200032750020202020202020002020202000A5
:102430001FE020102010201010201020201020104D
:1024400030300840048003001FE03FF03FF03FF0D1
:102450001FE01FE03FF03FF03FF00FC00780030098
:102460003FFFF038007030FC3020FC102078102046
:1024700030102C00D02E31D02F7BD02F7BD02E319E
:10248000D02C00D020301020781020FC1030FC30F0
:102490003800703FFFF03FFFF03800703186302386
:1024A00087102787902F87D02F03D02030102078D7
:1024B000102078102030102F03D02F87D02787903E
:1024C0002387103186303800703FFFF01FFFF81F60
:1024D000FFF80410400208200208200410400820E1
:1024E00080104100104100082080041040000000CE
:1024F0001FFFF81FFFF85072656865617420504C2B
:102500004120456E64005072656865617420504CCE
:102510004120426564005072656865617420504CCA
:10252000410054656D70657261747572650050721A
:1025300065686561742041425320456E64005072A5
:1025400065686561742041425320426564005072A1
:102550006568656174204142530054656D70657211
:10256000617475726500436F6F6C646F776E0050B5
:1025700072656865617420414253005072656865F8
:10258000617420504C410046616E20737065656433
:102590000046616E207370656564004265640042A8
:1025A0006564004E6F7A7A6C65004E6F7A7A6C655E
:1025B000004D61696E00466C6F7700466C6F770066
:1025C00046616E2073706565640046616E207370AD
:1025D0006565640042656400426564004E6F7A7A06
:1025E0006C65004E6F7A7A6C6500537065656400A7
:1025F0005370656564004D61696E004D61782054CB
:10260000656D703A20313235004D696E2054656D2C
:10261000703A203500544265643A4550434F532088
:102620003130304B004D61782054656D703A203365
:102630003030004D696E2054656D703A203500547D
:10264000303A204550434F53203130304B005053E7
:10265000553A2047656E657269630050726F746FFA
:10266000636F6C3A20312E3000426175643A20313C
:102670003135323030004D656C7A692028437265FF
:10268000616C697479290045787472756465727338
:102690003A203100687474703A2F2F6D61726C6942
:1026A0006E66772E6F726700456E6465722D33001B
:1026B000323031392D30372D30350062756766691B
:1026C000782D322E302E78004D61726C696E005478
:1026D0006865726D6973746F727300426F617264C2
:1026E00020496E666F005072696E74657220496E83
:1026F000666F004D61696E003F0053746F7020700B
:1027000072696E74004261636B0053746F70004DA8
:102710003235005072696E742070617573656400A3
:102720005061757365207072696E74004D323400AB
:10273000496E69742E2053442063617264004D32E7
:1027400031005072696E742066726F6D20534400C0
:1027500052656C6561736520534420636172640047
:102760004D32320041626F7574205072696E74652B
:102770007200436F6E66696775726174696F6E008F
:1027800054656D7065726174757265004D6F746922
:102790006F6E00526573756D65207072696E74009E
:1027A000436172642072656C656173656400547581
:1027B0006E650053746F70207072696E74005061A2
:1027C000757365207072696E7400496E666F207350
:1027D000637265656E00220A00556E6B6E6F776ED0
:1027E00020636F6D6D616E643A20220020746F6FFC
:1027F000206C6F6E6720657874727573696F6E20D8
:1028000070726576656E7465640A0020636F6C642F
:1028100020657874727573696F6E20707265766565
:102820006E7465640A006F70656E005452494747C4
:1028300045524544003A20007A5F6D696E00795F29
:102840006D696E00785F6D696E005265706F7274AD
:10285000696E6720656E6473746F70207374617441
:1028600075730A00205A3A0020593A0020436F75C8
:102870006E7420583A0020453A00205A3A002059F8
:102880003A00583A005761726E696E673A20486F95
:102890006D696E672042756D702044697669736F4B
:1028A00072203C20310A000202040000A040000017
:1028B000A040000000402E0A006F70656E20666127
:1028C000696C65642C2046696C653A200046696C29
:1028D0002E204469612E0046696C2E204469612EC9
:1028E000004F6666004F6E004520696E206D6D5E7C
:1028F0003300416476616E63656420536574746966
:102900006E6773004D6F76652058004D6F766520B9
:1029100059004D6F7665205A00457874727564656C
:1029200072004578747275646572004D6F7665202B
:102930005A004D6F76652059004D6F76652058001E
:102940004D6F74696F6E0044697361626C652073CA
:1029500074657070657273004D3834004175746F22
:1029600020686F6D6500473238004D6F76652061D5
:10297000786973004D61696E003F00537461727431
:10298000207072696E74200043616E63656C005044
:1029900072696E740043616E6E6F7420656E74654B
:1029A00072207375626469723A2000022E2E000153
:1029B00052656672657368004D61696E00436172AD
:1029C0006420696E73657274656400486F6D65207C
:1029D00025732573257320666972737400206669F8
:1029E0007273740A00486F6D65200000A8D27BD115
:1029F00011241FBECFEFD0E4DEBFCDBF12E0A0E0B8
:102A0000B1E0E2E8F0EC01E00BBF02C007900D92EC
:102A1000AE32B107D9F722E1AEE2B2E001C01D92B9
:102A2000A13CB207E1F714E1C7EFD4E104C021975C
:102A3000FE010E9498DFC63FD107C9F70E94ADCBC7
:102A40000C9434E00C9400002F923F924F925F92CE
:102A50006F927F928F929F92AF92BF92CF92DF92AE
:102A6000EF92FF920F931F93CF93DF93CDB7DEB713
:102A7000C954D1090FB6F894DEBF0FBECDBF209167
:102A8000DC0229962FAF299741E04093DC02809128
:102A9000DB028D3409F44AC3843511F40C94772792
:102AA000873411F00C9492272091D9023091DA02E8
:102AB0002531310511F40C9494277CF42430310530
:102AC0003CF4223031050CF0F0C037FF24C02AC39B
:102AD0002430310509F4F8C025C32E31310509F43D
:102AE000DDC14CF42B31310509F42CC12C313105F9
:102AF00009F4C4C117C32B35310509F44BC22C3579
:102B0000310509F44BC22A35310509F00BC3109287
:102B1000D8020C94942780912701882311F40C94F7
:102B200094270E94B42D80912001882321F088EC05
:102B300092E00E9413B28091A90C83FD7DC0C090E9
:102B4000D402D090D502E090D602F090D702209126
:102B5000C4023091C5024091C6025091C702C7011C
:102B6000B6010E94EFD7882309F466C08091DF0781
:102B700081111FC06091E4077091E5078091E6071D
:102B80009091E7070E949FDD20914E0130914F0107
:102B90006217730774F4C092C402D092C502E09227
:102BA000C602F092C7020E943F2F8BEE96E00E9471
:102BB000192F8090D4029090D502A090D602B090A8
:102BC000D7022091C4023091C5024091C6025091B3
:102BD000C702C501B4010E9432DC6B017C0120E018
:102BE00030E0A9010E9493DE87FF04C0F7FAF09459
:102BF000F7F8F09420914A0130914B0140914C013B
:102C000050914D01C701B6010E9455D820E030E037
:102C100048E453E40E9493DE181674F48092C402D0
:102C20009092C502A092C602B092C7020E943F2FA6
:102C30008CEC96E00E94192F60912501709126017D
:102C4000072E000C880B990B0E94F6D720912101CA
:102C50003091220140912301509124010E9455D8C6
:102C60002AE037ED43E25CE30E9455D868A779A7D4
:102C70008AA79BA7C12CD12C76018E01085D1F4F1E
:102C800024ED32E040ED52E06CEC72E088EC92E032
:102C90000E94DDAD80E1E8ECF2E0A8EBB2E001904B
:102CA0000D928A95E1F70C9494278091270188234F
:102CB00011F40C94942781E02230310509F080E072
:102CC0000E94DA610C94942780E50E94A72D882346
:102CD00029F00E94E72C6B017C0103C0C12CD12C90
:102CE000760183E50E94A72D882361F00E942B2D99
:102CF00020E030E04AE754E40E9455D80E94A6DD67
:102D00006B017C010E94EB5480916207811105C028
:102D100060E083EC96E00E94D4490E94424BC60ECC
:102D2000D71EE81EF91E0E94424BDC01CB018C1914
:102D30009D09AE09BF09B7FD02C00C9494270E94FB
:102D4000FD2FF1CF0E9426CB81110C94942780E0B7
:102D500090E0A0E2B1E489839A83AB83BC8380E0F6
:102D600090E0A1E6B3E48D839E83AF83B88780E0D3
:102D700090E0A0EAB1E489879A87AB87BC8760E0DE
:102D800070E080E50E94382E40E050E068EC72E48C
:102D90004CA35DA36EA37FA340E050E060EA70E423
:102DA00048A359A36AA37BA3813019F0823039F07C
:102DB00029C0BE01605E7F4FCE01099644C02985BF
:102DC0003A854B855C856091C0027091C10280910B
:102DD000C2029091C3020E9433DC6B017C0120E0AF
:102DE00030E04AE753E40E94EFD787FD06C0C12CCC
:102DF000D12C1AE7E12E13E4F12ECC8EDD8EEE8E6F
:102E0000FF8E1CC0E090C002F090C1020091C2028F
:102E10001091C302A984BA84CB84DC849501A601F5
:102E2000B701C8010E94EFD787FF02C07501860174
:102E3000C701D8018C8F9D8FAE8FBF8FBE01605EA2
:102E40007F4FCE014C960E94BCB3E090C002F09040
:102E5000C1020091C2021091C3022D813E814F81B7
:102E6000588569817A818B819C81DE0194966D0100
:102E70000E94FDB20E9468B50C9494278091BA120A
:102E80008770873011F00C949C2760E08FE40E94DB
:102E90005E2E81110C9494270C949C27C090B8024C
:102EA000D090B902E090BA02F090BB0288E50E948F
:102EB000A72D811109C020E030E040E252E4C701B3
:102EC000B6010E9432DC02C00E942B2D2B013C0176
:102ED000C090BC02D090BD02E090BE02F090BF0254
:102EE00089E50E94A72D811109C020E030E040E271
:102EF00051E4C701B6010E9432DC02C00E942B2DB2
:102F00004B015C0120E030E040E251E40E9433DC00
:102F10006CA77DA78EA79FA727E137EB41ED58EB64
:102F20000E9493DE87FF02C00C94942727E030E0D4
:102F30004BE653E46CA57DA58EA59FA50E94EFD717
:102F4000181614F40C94942720E030E040E252E488
:102F5000C301B2010E9433DC68AB79AB8AAB9BAB97
:102F600027E137EB41ED58EB0E9493DE87FF02C06B
:102F70000C94942727E030E04BE653E468A979A944
:102F80008AA99BA90E94EFD7181614F40C949427D1
:102F90000C94F0284093D8020C9494276FE5262EC9
:102FA00061E0362E7CE8E72E72E0F72EA8EBB2E067
:102FB000BDA7ACA7E6EACE2EE2E0DE2E00E010E0F0
:102FC000F10181911F010E94A72D882309F44AC0B5
:102FD0000E942B2D2B013C01133049F0D6012D917D
:102FE0003D914D915C910E9432DC2B013C01ECA59E
:102FF000FDA52081318142815381C301B2010E942C
:1030000032DC4B015C012DEB37E346E855EB0E94C7
:1030100093DE87FD0AC02DEB37E346E855E3C50193
:10302000B4010E94EFD71816ECF4133051F440921B
:10303000C4025092C5026092C6027092C70201E0BB
:1030400011C0A5019401D7016D917D918D919C9145
:103050000E9433DCF7016083718382839383812F25
:103060000E94A5B21F5FF4E0EF0EF11C2CA53DA558
:103070002C5F3F4F3DA72CA734E0C30ED11C14306A
:1030800009F09ECF002309F449C02091CA0C309169
:10309000CB0C4091CC0C5091CD0C6091C40270913E
:1030A000C5028091C6029091C7020E9455D80E9425
:1030B000A0DE6093A50F7093A60F8093A70F909347
:1030C000A80F9091830F8091840F981719F00E9498
:1030D0008D5424C00E94EB5480916F00982F927001
:1030E00081FF05C080916F008D7F80936F004091BC
:1030F000A50F5091A60F6091A70F7091A80F409354
:1031000088025093890260938A0270938B029923FC
:1031100029F080916F00826080936F000E9468B5F3
:103120000C9494270E946DAE0C9494278091D90240
:103130009091DA028237910511F40C947F220CF001
:10314000FCC08B34910509F4EAC40CF08BC08831C3
:10315000910509F4E4C20CF059C08231910511F4D3
:103160000C949521BCF497FF02C00C947427823014
:1031700091050CF43FC2419711F00C94742760E064
:103180008BE596E00E94D4495E985E9815985E980B
:103190000C9494278531910509F4A3C254F5449702
:1031A00011F00C9474278AE496E00E94192F109273
:1031B000780285E69FE00E94FC378BE1E5E6FFE0C0
:1031C000DE01119601900D928A95E1F740E050E002
:1031D000BE016F5F7F4F80E090E00E94BB72CE0126
:1031E00001960E94163B8BE396E00E94192F0C94E7
:1031F00094278631910509F478C2479711F00C9411
:103200007427E0917A02F0917B027CC28D319105A6
:1032100009F40BC3C4F48A31910509F4A5C20CF476
:103220008AC28B31910509F4ADC24C9711F00C9410
:10323000742740E060E080917A0290917B020E94C6
:1032400059740C9494278F31910509F49AC30CF4A6
:10325000F3C28032910509F44EC38A9709F43CC445
:103260000C9474278836910509F476C4D4F5823518
:10327000910511F40C948E2104F58D34910509F417
:1032800067C40CF450C48135910511F00C94742777
:103290000E947D870E941B430E94D3AF0E94D02EC4
:1032A00068EE73E080E090E00E94732E60E082E1BF
:1032B00095E00E94D4490C9494278435910511F42B
:1032C0000C94952114F40C9491218535910511F4F9
:1032D0000C94C8218C35910511F40C94E1210C94C7
:1032E00074278D36910509F45BC4BCF48A369105C8
:1032F00011F40C9466210CF4ADC78B36910511F4D2
:103300000C9484218C36910511F00C947427109242
:10331000790210921F010C9494278F36910509F4BD
:1033200014C60CF4FFC58037910509F452C68137E5
:10333000910509F452C60C9474278D3D910511F442
:103340000C94DE240CF0C9C08B39910509F498C7A0
:103350000CF091C08737910511F40C94BF220CF04A
:1033600077C08537910511F40C94842214F00C94E5
:103370008C228337910511F00C94742788E494E033
:103380000E94192F60E088E394E00E94FF6660E0ED
:1033900083E294E00E94FF6661E08CE194E00E9489
:1033A000FF6661E081E194E00E94FF6661E081E0F8
:1033B00094E00E94FF6660E088EF93E00E94FF6661
:1033C00061E08EEE93E00E94FF6660E084EE93E0A1
:1033D0000E94FF6661E08CED93E00E94FF6660E072
:1033E0008EEC93E00E94FF6660E080EC93E00E9428
:1033F000FF6660E081EB93E00E94FF6660E083EA95
:1034000093E00E94FF6660E08DE893E00E94FF6613
:1034100060E08CE793E00E94FF6660E08DE693E059
:103420000E94FF6660E088E593E00E94FF6661E02D
:1034300085E493E00E94FF6660E088E393E00E94E9
:10344000FF6660E084E293E00E94FF660C9494279C
:103450008937910511F40C94CA2214F40C94C222F9
:103460008C38910509F4DBC58139910511F40C9470
:10347000D1220C9474278C3C910511F40C94BE233A
:10348000C4F4883C910511F40C942C2334F48E3B45
:10349000910509F4DEC50C947427893C910511F45B
:1034A0000C9479238B3C910511F40C949F230C947C
:1034B00074278E3C910511F40C94052414F40C949B
:1034C000F223833D910511F40C9427248C3D910542
:1034D00011F40C94D1240C9474278C3A51E0950784
:1034E00011F40C9466260CF041C08F32B1E09B07BA
:1034F00011F40C945726DCF48C32F1E09F0711F4A0
:103500000C947F253CF4823E910511F40C943425F3
:103510000C9474278D3231E0930711F40C949425A8
:103520008E32914011F40C9413260C947427813937
:1035300051E0950711F40C945A264CF480399140CF
:1035400011F00C9474270E94EB540C949427823948
:10355000E1E09E0711F40C9460268A39914011F045
:103560000C9474270E94972E0C949427883F21E096
:10357000920711F40C9411271CF5853F41E0940744
:1035800011F40C940B274CF4843F914011F00C94EF
:1035900074270E94FC3D0C949427863FB1E09B0762
:1035A00011F40C940E27873F914011F00C9474276E
:1035B00061E083E50E945E2E0E94D37C0C949427E8
:1035C0008335F3E09F0711F40C9429273CF48C30E9
:1035D000924011F40C9421270C947427803A43E014
:1035E000940709F4BEC1873E934011F40C946627FA
:1035F0000C947427A0907A02B0907B0280E50E9420
:10360000A72D882359F00E94E72C6B017C0111E063
:10361000672B682B692B31F410E004C010E0C12C3B
:10362000D12C760183E50E94A72D882311F40C94F8
:10363000B62A0E942B2D20E030E04AE754E40E9495
:1036400055D80E94A6DD6B017C0111110BC0672BC0
:10365000682B692B39F4A114B10421F0D5018C91A8
:10366000811102C010E001C011E00E94EB5411234F
:1036700029F061E0C5010E94B5C705C060E084E69D
:1036800096E00E94D44983E08093DC0281E080933D
:103690007902C114D104E104F104B1F00E94424B5B
:1036A000C60ED71EE81EF91E0E94424BDC01CB015C
:1036B0008C199D09AE09BF09B7FF0DC08091790231
:1036C00081110C94BB2A07C080917902882319F0DC
:1036D0000E94FD2FF9CF0E94224A109279020C9489
:1036E00094270E94A2710C9494270E94EF708091FD
:1036F0002211877F809322110C949427803209F441
:103700001082319680818111F9CF40E061E0809193
:103710007A0290917B020E9459740C9494270E9423
:10372000716E882321F00E94FE700E94F7420E9471
:10373000224A0C9494278091221182FF03C08B7F30
:103740008093221180917702813089F782E0809303
:1037500077020E94424B60937302709374028093CD
:10376000750290937602E3CF8091221183FD02C00F
:103770000C94942783E50E94A72D81110C94BF2AF5
:103780000C94942783E40E945E2D882319F189E02C
:1037900096E00E94192F80910F0F882391F0BE01AF
:1037A0006F5F7F4F8CE09FE00E94A63A8E010F5F13
:1037B0001F4FF80181918F01882339F00E94122F49
:1037C000F8CF8FEF95E00E94192F8AE00E94122F08
:1037D0000C9494278091221182FF21C088E196E009
:1037E0000E94192F60911E1170911F11809120115C
:1037F000909121114AE00E9490328FE20E94122F94
:1038000060911A1170911B1180911C1190911D11E2
:103810004AE00E9490320E942E340C9494278AE24F
:1038200096E00E94192F0C949427809122118E7F8C
:10383000809322110C9494278091221183FD02C061
:103840000C9494270E9456AE8091221183FD02C0F1
:103850000C94942760917A0270917B02CE014C9671
:103860000E9475B98C01009711F40C9494276C8D0B
:103870007D8D19821C8222E0AC01CE0101960E944E
:103880000B3D811102C0F12C14C0CE0101960E94A3
:10389000E3B88823C1F361E0CE0101960E948A3A21
:1038A000009789F325EEDC012C931C820E941F35C2
:1038B000F82ECE0101960E94163BB801FF2089F038
:1038C00081EF95E00E94282F8AE00E94122F10922B
:1038D0001E1110921F1110922011109221110C94A0
:1038E000942789ED95E00E94282F86ED95E00E94AF
:1038F000192F0C9494278091221182FD0E94EB5481
:103900008091221183FD02C00C94942760E080E531
:103910000E945E2E182F482F61E080917A029091CC
:103920007B020E94597483E50E94A72D882381F0B1
:103930000E94F72CAB01BC0140931E1150931F1144
:1039400060932011709321118CE09FE00E946537F5
:103950000E94FE7011110C9494270E94F7420C945F
:10396000942720917A0230917B02909122119260EB
:103970009093221140E060E0C9010E9459740C94B8
:1039800094270E94A8427B018C0120E831E541E0A8
:1039900050E00E94F6DBC9016DE671E00E9451DF44
:1039A0004B015C01C801B70120E13EE040E050E07E
:1039B0000E94F6DBCA01B90128E130E040E050E0A6
:1039C0000E94F6DB762E672EC62ED72E5CE3252EC0
:1039D000312C412C512CC801B701A20191010E9448
:1039E000F6DBF62EE72ECA01B901A20191010E9471
:1039F000F6DBCB018E010F5F1F4F8114910499F00C
:103A0000EF92FF927F936F936F927F92BF92AF92EC
:103A10009F928F9285EB95E09F938F931F930F93C7
:103A20000E9487D713C0A114B104B1F0EF92FF92A6
:103A30007F936F936F927F92BF92AF9285EA95E0EA
:103A40009F938F931F930F930E9487D70FB6F8947D
:103A5000DEBF0FBECDBF30C0CD2879F0EF92FF9210
:103A60007F936F936F927F9289E995E09F938F93F5
:103A70001F930F930E9487D7E9CF892B69F0EF92AC
:103A8000FF927F936F9381E995E09F938F931F93AC
:103A90000F930E9487D7DACFEF92FF928DE895E0DF
:103AA0009F938F931F930F930E9487D70F900F9030
:103AB0000F900F900F900F9060E0C8010E94B5C763
:103AC0000E943F2FB80189EC95E00E94282F8AE0E0
:103AD0000E94122F0C94942783E50E94A72D88231F
:103AE00011F40C9494270E94072DF82E6FEF7FEFAE
:103AF00080E50E944B2E8C0197FF02C00C94942706
:103B0000E82E60E089E40E945E2E81110C94D02A98
:103B1000802F0E9488CB8111C4C70C94D02A0E94A8
:103B2000F7420C94942780917702813011F00C9425
:103B3000942782E0809377020E94424B6093730245
:103B40007093740280937502909376020C9494277C
:103B50000E941B430C9494278091A90C83FF02C000
:103B60000C9494270E94443387FF02C00C9494273E
:103B700083E50E94A72D882379F00E942B2D0E94B7
:103B80009FDD8B01CB010E946C870635110524F463
:103B90000E941B430E94224A0E94EBD00C9494275F
:103BA0008091A90C83FF02C00C9494270E94443397
:103BB0008CAF87FF02C00C94942783E50E94A72D49
:103BC0008CA7811106C082E50E94A72D182F88239B
:103BD000C9F10E942B2D0E949FDDCB010E946C87B2
:103BE0000E942B2D20E030E04AEA52E40E94EFD7F9
:103BF000181614F40C94E32A0E941B430E94224AD4
:103C00006091E8077091E907072E000C880B990B6B
:103C10000E94F6D76B017C018090E4079090E50745
:103C2000A090E607B090E707A50194010E9493DEFB
:103C3000181614F40C94F62A9CA5992311F40C94EC
:103C4000E72A11E00E94EBD0112311F40C94942781
:103C500081E080931F011CAA1DAA1EAA1FAA2496F8
:103C60001CAE1DAE1EAE1FAE2497A1E02596AFAFD1
:103C7000259718AA26961FAE2697BCE32796BFAFB6
:103C80002797ECE12896EFAF2897F6E42A96FFAF46
:103C90002A97C12CD12C30E8E32E4FEBF42E812C47
:103CA000912C54016091E8077091E907072E000CF0
:103CB000880B990B0E94F6D7162F072F782E692EA6
:103CC0009601A7010E94EFD78823F1F02091E40725
:103CD0003091E5074091E6075091E7078CA5612FE9
:103CE000702F811109C0872D962D0E94EFD7881F54
:103CF0008827881F88AB0CC0872D962D0E94EFD790
:103D000087FDA0C218AA04C01C2D0D2D7E2C6F2C7F
:103D10000E94424B6B017C01DC01CB0124962CAD4F
:103D20003DAD4EAD5FAD2497821B930BA40BB50B3D
:103D3000B7FD35C0D701C60188519C4FAF4FBF4F6B
:103D400024968CAF9DAFAEAFBFAF24978CAD0E94D1
:103D5000738680E695E00E94192F81149104A104D6
:103D6000B104B9F0D501C401805F984DAF4FBF4F8A
:103D7000BC01CD016C197D098E099F0928EE33E045
:103D800040E050E00E94F6DBCA01B9010E941B33FB
:103D900003C08FE30E94122F8AE00E94122F0E941C
:103DA000FD2F0E94424B60936F02709370028093CC
:103DB0007102909372029091E40798AFA091E50789
:103DC000A9AFB091E607BAAFE091E707EBAF292FB3
:103DD0003A2F4B2F5E2F612F702F872D962D0E942B
:103DE00032DC1B012C0120E030E0A9010E9493DEAF
:103DF00087FF04C057FA509457F8509481149104E7
:103E0000A104B104C1F420E030E040E85FE3C20166
:103E1000B1010E94EFD787FF1AC02596FFAD259705
:103E200046015701FF2399F020E1820E27E2921EFE
:103E3000A11CB11C0CC020E030E040E450E4C20101
:103E4000B1010E9493DE181614F44601570138A9F7
:103E5000332309F448C08CA99DA9AEA9BFA9892B19
:103E60008A2B8B2B61F0D701C6012CA93DA94EA945
:103E70005FA9821B930BA40BB50BB7FD34C028AD13
:103E800039AD4AAD5BAD26966FAD269727967FADCF
:103E9000279728968FAD28972A969FAD2A970E943C
:103EA00032DC20E030E040EC5FE30E94EFD787FD9A
:103EB000C9C1D701C601805A9541AF4FBF4F8CABE6
:103EC0009DABAEABBFAB98AD26969FAF2697A9AD85
:103ED0002796AFAF2797BAAD2896BFAF2897EBAD1F
:103EE0002A96EFAF2A9780911F01882309F4AAC16F
:103EF00081149104A104B10441F425961FAE2597C5
:103F0000C12ED02EE72CF62CCDCEF0E1CF1AF7E261
:103F1000DF0AE108F108C818D908EA08FB08F7FC2D
:103F2000ECCF90C18EE40E94A72D882311F40C944D
:103F300094270E94F72C60936B0270936C0280931D
:103F40006D0290936E020C94942783E50E945E2D7F
:103F5000882329F083E50E9481CB8093A90C0E94DD
:103F60003F2F89E595E00E94192F8091A90C8823A5
:103F700069F12FE4E22E25E0F22E00E010E020E0CF
:103F80008091A90C90E0A0E0B0E0002E04C0B695AE
:103F9000A795979587950A94D2F780FF0EC0DD24E8
:103FA000D394D20E222319F08CE20E94122FF70133
:103FB000859194910E94192F2D2D0F5F1F4F32E094
:103FC000E30EF11C05301105D9F6FFCB8BE495E02B
:103FD000FACB80E090E00E94432F83E50E94A72D5A
:103FE000882371F00E94072D282F30E02D333105F2
:103FF0001CF480931E0198C78CE380931E0194C724
:104000000E943F2F40911E0150E060E070E084E488
:1040100095E00E94FD328AE00E94122F85C78091B0
:10402000A90C83FD81C783E50E94A72D882309F48D
:104030007BC70E942B2D0E949FDD6337710514F012
:1040400063E770E070936902609368020E943785AD
:104050006BC78091A90C83FD67C783E50E94A72DDC
:104060008BAF811106C082E50E94A72D882309F439
:104070005BC70E942B2D0E949FDD6337710514F0F2
:104080000C94CC2B70936902609368020E94378570
:104090000E942B2D20E030E040EA50E40E9493DEA5
:1040A000181614F40E94F742609168027091690238
:1040B000072E000C880B990B0E94F6D72091640202
:1040C0003091650240916602509167020E9493DE32
:1040D000181614F00C94F92A85E395E060E00E942C
:1040E000D44981E080931F0118AA19AA1AAA1BAA11
:1040F0001CAE1DAE1EAE1FAE1CA625961FAE25978C
:104100004CE326964FAF26975CE127965FAF279743
:1041100086E428968FAF2897C12CD12C80E8E82E12
:104120009FEBF92E91E021969FAF2197812C912C46
:1041300054016091680270916902072E000C880B8F
:10414000990B0E94F6D7162F072F782E692E96010D
:10415000A7010E94EFD7882311F40C94062B20911D
:104160006402309165024091660250916702ABADE6
:10417000612F702F872D962DA1110C94FD2A0E947E
:10418000EFD7881F8827881F8CA70E94424B6B019E
:104190007C01DC01CB012CAD3DAD4EAD5FAD821B92
:1041A000930BA40BB50BB7FD02C00C940C2B0E9413
:1041B000FD2F0E94424B60936F02709370028093B8
:1041C000710290937202909164029CABA09165027F
:1041D000A8AFB0916602B9AFE0916702EAAF292FAC
:1041E0003A2F4B2F5E2F612F702F872D962D0E9417
:1041F00032DC1B012C0120E030E0A9010E9493DE9B
:1042000087FF04C057FA509457F8509481149104D2
:10421000A104B10411F00C94522B20E030E040E8EE
:104220005FE3C201B1010E94EFD787FF02C00C9487
:10423000412B3CA531110C94622B80911F018111FF
:104240000C94B02B80911F01882309F46DC60E9445
:10425000224A6AC60E944433182F87FD0AC08FE1A4
:1042600095E00E94192F812F0E9473868AE00E9498
:10427000122F29962FAD29972093DC020C94CD2C78
:1042800083E50E94A72D882309F44EC60E94072DBE
:10429000182F90E0CD970CF01CE310935F020E9462
:1042A000424B6B017C01212F30E0A8EEB3E00E946D
:1042B00023DCC60ED71EE81EF91EC0925B02D09208
:1042C0005C02E0925D02F0925E022EC680E50E94E2
:1042D00081CB811129C681E40E945E2D882321F0C3
:1042E0006091CE0770E002C06FEF70E083E50E943E
:1042F000382E8F3F910519F010F08FEF90E08093EA
:10430000CE0780935A0210C680E50E9481CB8111AE
:104310000BC61092CE0710925A0206C6109259028E
:1043200003C681E080935902FFC583E50E94A72D53
:10433000882399F00E942B2D20E030E04AE754E4D6
:104340000E9455D80E94A6DD60931A0170931B014C
:1043500080931C0190931D01E7C588E50E945E2DA6
:1043600081110C94D02B89E50E945E2D81110C9453
:10437000D02B8AE50E945E2D81110C94D02B85E410
:104380000E945E2D81110C94D02B0E94D3AFCCC51E
:1043900083E50E945E2D882309F4C6C50E942B2D5B
:1043A00020E030E04AE754E40E9455D80E94A6DDA0
:1043B000609352027093530280935402909355027B
:1043C000B3C50E94443387FDAFC590914E0294FD62
:1043D00004C09091500297FF0AC01FE5C12E11E062
:1043E000D12E0AEAE02E0CE0F02E10E009C09091E8
:1043F0005102937091F7682F81E00E94F33394C5C6
:10440000D6018D916D010E94A72D882309F46DC0FE
:10441000133009F063C00E942B2D4B015C0120E09A
:1044200030E040EA51E40E94EFD787FF4EC0A5017B
:1044300094016091CA0C7091CB0C8091CC0C90913E
:10444000CD0C0E942DDD2B013C019B01AC01609144
:10445000B2077091B3078091B4079091B5070E949D
:1044600055D86093B2077093B3078093B4079093C5
:10447000B507A30192016091DA0C7091DB0C809179
:10448000DC0C9091DD0C0E9455D86093DA0C70938F
:10449000DB0C8093DC0C9093DD0C6091C207709173
:1044A000C3078091C4079091C5070E94F4D7A30168
:1044B00092010E9455D80E94A6DD6093C2077093B6
:1044C000C3078093C4079093C5078092CA0C90924B
:1044D000CB0CA092CC0CB092CD0C07C00E942B2D1F
:1044E000F701648B758B868B978B1F5FF4E0EF0E63
:1044F000F11C143009F084CF0E94D05515C50E94DC
:10450000EB540E9468B510C560E080917A029091EA
:104510007B020E94B5C708C500917A0210917B0208
:1045200083E0F12C40E08150E9F0D8019C91292FE3
:104530002B7F2134C1F711962C912133A1F79134AF
:1045400021F0953421F441E002C0FF24F394980156
:104550002E5F3F4F89012F5F3F4FF80190819032CE
:10456000C9F3E1CF41110E943F2FFF2021F080E2EB
:1045700093E00E94192FC8010E943434D5C40E94D0
:1045800084B6D2C481E08093B6028093B7020E94C1
:104590009FB6CAC41092B6021092B7020E949FB68C
:1045A000C3C460E070E083E50E944B2E8C011127AC
:1045B000023011053CF00E943B2F8EEF92E00E94EA
:1045C000192FB2C488E40E94A72D8823A9F00E9465
:1045D000F72C6A3A71053CF06E31F1E07F072CF060
:1045E0006DE171E002C06AEA70E0F801EE0FFF1FB2
:1045F000E65BFD4F7183608386E40E94A72D8823CC
:1046000081F00E94F72C77FD07C06F3F710529F0FC
:1046100024F06FEF70E001C060E0F801E85BFD4F4F
:10462000608382E40E94A72D882309F47DC40E9440
:10463000F72C6530710534F0643771052CF063E7B1
:1046400070E002C065E070E0000F111FF801EC5B44
:10465000FD4F7183608368C40E944433182F87FD27
:1046600063C484E40E945E2D882309F43FC00E9445
:104670002B2D6B017C0101E020E030E0A9010E94BC
:10468000EFD7811101C000E00093430220E030E049
:10469000A901C701B6010E94EFD7882339F10E9412
:1046A0002B2D24E01202F0011124E15CFD4F608308
:1046B00071838283938320E030E0A90160913F02FF
:1046C0007091400280914102909142020E94EFD786
:1046D00081110CC080E090E0A0EEBFE380933F0228
:1046E00090934002A0934102B09342020E947BAE9D
:1046F0001BC40E94443387FD17C4EFE5EE2EE1E0B2
:10470000FE2E0AEA1CE0FAEBCF2EFCE0DF2ED701EA
:104710008D917D010E945E2D882349F00E942B2DF2
:104720000E94A6DDF80160837183828393830C5F0E
:104730001F4FC016D10659F70E944654F5C30E9478
:10474000443387FDF1C37FE5E72E71E0F72E0AEAD7
:104750001CE0D7018D917D010E945E2D882339F0E8
:104760000E942B2DF80164A375A386A397A30C5F69
:104770001F4FFCE00A3B1F0761F7D6C380914F0231
:1047800087FF02C00C94F52B809150028E7011F0BF
:104790000C94F52B4091DE0C5091DF0C6091E00CF5
:1047A0007091E10C8EEE92E00E94E2334091E20CB7
:1047B0005091E30C6091E40C7091E50C8BEE92E06B
:1047C0000E94E2334091E60C5091E70C6091E80CB6
:1047D0007091E90C88EE92E00E94E2338AE00E9438
:1047E000122FA2C380914E02827111F00C943B2CC7
:1047F000809150028C7811F00C943B2C80915102E6
:10480000837011F00C943B2C8FC35FE5C52E51E0F3
:10481000D52E63E3E62E62E0F62E10E0D6018D91F0
:104820006D010E945E2D882351F00E942B2DF7010F
:104830006083718382839383812F0E94A5B21F5F5F
:10484000F4E0EF0EF11C133049F70C948E180E941F
:104850003F2F88ED92E00E94192F83E50E945E2D84
:10486000882321F00E941B2D80932001809120013C
:10487000882319F085EB92E002C081EB92E00E9460
:10488000192F80ED92E00E94192F4090A6025090BF
:10489000A7026090A8027090A902209102013091B5
:1048A00003014091040150910501C301B2010E942E
:1048B00033DCAB01BC018EEC92E00E94E2338090CD
:1048C000AA029090AB02A090AC02B090AD022091F1
:1048D0000A0130910B0140910C0150910D01C5016D
:1048E000B4010E9433DCAB01BC018BEC92E00E946E
:1048F000E233C090AE02D090AF02E090B002F090F0
:10490000B102209112013091130140911401509194
:104910001501C701B6010E9433DCAB01BC0188EC74
:1049200092E00E94E23380EC92E00E94192F2091E5
:104930000601309107014091080150910901C3011E
:10494000B2010E9433DCAB01BC018EEB92E00E940D
:10495000E23320910E0130910F01409110015091EE
:104960001101C501B4010E9433DCAB01BC018BEB2A
:1049700092E00E94E233209116013091170140919C
:10498000180150911901C701B6010E9433DCAB0137
:10499000BC0188EB92E00E94E2338AE00E94122F71
:1049A000C3C283E50E94A72D882309F4BDC20E94DB
:1049B000F72C7093260160932501B6C20E94443300
:1049C000F82E87FDB1C283E50E94A72D0F2D0F2C75
:1049D000000C110B882369F10E94F72CF801EE0FEF
:1049E000FF1FE050FF4F71836083000F111F000F06
:1049F000111F9801265B3E4F7901072E000C880B92
:104A0000990B0E94F6D72AE037ED43E25CE30E945F
:104A100055D8F801E15DFD4F2081318142815381FC
:104A20000E9455D8D7016D937D938D939C931397D6
:104A30007BC20E943F2F85E40E94122F80E38F0DDE
:104A40000E94122F000F111FF801E050FF4F6081EC
:104A5000718189EA92E00E94373385E20E94122F29
:104A60008AE00E94122F60C280E50E945E2D88239A
:104A700009F45AC260E070E080E50E944B2EF82EE7
:104A80006FEF7FEF83E50E944B2E8C010196039719
:104A900008F04AC2F7FC48C28F2D0E9488CB8823B9
:104AA00039F00E943B2F8EE795E00E94192F3CC2FF
:104AB0000E94EB5460E08F2D0E94857B0F3FBFEF7B
:104AC0001B0731F00130110571F000E010E00DC05E
:104AD0008F2D0E942D7B31E020E0892B09F030E002
:104AE000032F122F02C001E010E08F2D0E942D7BBA
:104AF0008017910709F418C20E94FD2FF6CF64E0D9
:104B000071E083E50E94382E8C0168EE73E080E549
:104B10000E94382E8938E3E19E0710F088E893E17F
:104B2000B8010E94A74900C285E40E9481CB81118F
:104B300073C080E50E945E2D882351F00E942B2DCA
:104B40006093EB077093EC078093ED079093EE076B
:104B500089E40E945E2D882381F00E942B2D2CEA8F
:104B600035EC47E25EE30E9455D86093EF077093FF
:104B7000F0078093F1079093F20784E40E945E2D82
:104B8000882381F00E942B2D2CEA35EC47E25EE36E
:104B90000E942DDD6093F3077093F4078093F5076F
:104BA0009093F6070E943F2F4091EB075091EC073E
:104BB0006091ED077091EE0785EA92E00E94E23382
:104BC0002CEA35EC47E25EE36091EF077091F00765
:104BD0008091F1079091F2070E942DDDAB01BC019D
:104BE00081EA92E00E94E2332CEA35EC47E25EE390
:104BF0006091F3077091F4078091F5079091F607A3
:104C00000E9455D8AB01BC018DE992E00E94E233CD
:104C10008AE00E94122F88C10E943B2F8BE892E00D
:104C20000E94192F81C183E50E945E2D182F8823D1
:104C300071F00E942B2D0E949FDD70934F016093B5
:104C40004E0121E0672B09F020E02093DF0780E58B
:104C50000E945E2D882359F020914E0130914F0122
:104C6000232B11F00E941B2D8093DF075DC11111D2
:104C70005BC10E943F2F88E792E00E94192F80912C
:104C8000DF07882319F080E692E002C08CE592E00D
:104C90000E94192F60914E0170914F0187E692E0BA
:104CA0000E94373383E692E00E94192F3DC10E9493
:104CB000796A3AC181E00E94A2530E9468B534C16A
:104CC00080E00E94A2530E9468B52EC10E9426CBAC
:104CD00081112AC100E512E028EB32E03DA72CA7A4
:104CE000AE014F5F5F4F4A0190ECA92E96E0B92EBE
:104CF0001A01F8016591759185919491ACA5BDA5B6
:104D0000CD90DD90ED90FD90BDA7ACA7A7019601D9
:104D10000E9432DC2B013C01F101608371838283AC
:104D2000938320E030E040EA51EC0E9493DE87FD5F
:104D30000AC020E030E040EA51E4C301B2010E9421
:104D4000EFD718162CF4F501849118160CF4FEC553
:104D5000D101CD90DD90ED90FD901D0120E030E07F
:104D600040EA51ECC701B6010E9493DE87FD0AC0FC
:104D700020E030E040EA51E4C701B6010E94EFD7DD
:104D80001816A4F40E943B2F82E392E00E94192F90
:104D900061E084E292E00E94D4490E94D0BD68E2C2
:104DA00070E088EC90E00E94A749BEC00C5F1F4FE6
:104DB000BFEFAB1ABB0AE2E00C351E0709F099CF32
:104DC00083E3E82E82E0F82E10E0F40181919191C6
:104DD000A191B1914F01F70181939193A193B19367
:104DE0007F01812F0E94A5B21F5F133071F70E94CF
:104DF00068B560E084E192E00E94D44963E972E022
:104E000084E690E00E94A7496AEB72E084E690E0B5
:104E10000E94A74989C00E94298586C00E94CC7B38
:104E200083C040932E020E943B7F10922E02882363
:104E300009F47AC00E943F2F89E092E00E94192F66
:104E400073C08091221182FF6FC080628093221113
:104E50006BC08AE50E94A72D882331F10E942B2D7B
:104E60006B017C0120E030E040EA51EC0E9493DECF
:104E700087FD13C020E030E040EA51E4C701B601ED
:104E80000E94EFD718164CF0C092B202D092B30233
:104E9000E092B402F092B50247C00E943B2F8BED26
:104EA00091E00E94192F40C00E943F2F4091B20212
:104EB0005091B3026091B4027091B50288EF91E015
:104EC0000E94E2338AE00E94122F2EC081E080937C
:104ED00027011092A50760E083E50E945E2E8111F4
:104EE00023C00E948D5E20C00E946DAE1DC0009147
:104EF000D9021091DA020023B9F00E943F2F84E515
:104F00000E94122FB8017727072E000C880B990BEF
:104F10000E941B3380E20E94122F89EC91E00E94D4
:104F2000192F02C00E946DAE0E947D5E2996FFADD2
:104F30002997F093DC0231C50E94EB540E94DEB247
:104F400081E08093B6020E949FB688E50E945E2DA4
:104F5000182F89E50E945E2D082F8AE50E945E2D9C
:104F600010133BC1181711F0312E38C1332433947C
:104F700011E0B1E0BCAB80E1E8EBF2E0A8ECB2E01C
:104F800001900D928A95E1F782E50E94A72D882372
:104F900061F00E942B2D6B017C0120E030E0A90123
:104FA0000E94EFD7882369F106C0C12CD12CB0EA4A
:104FB000EB2EB0E4FB2E111103C0332009F4F9C02D
:104FC000C092D002D092D102E092D202F092D302EB
:104FD000A70196016091C0027091C1028091C20246
:104FE0009091C3020E94EFD787FF0BC019821A82EB
:104FF0001B821C82BE016F5F7F4F80ED92E00E949A
:10500000BCB3112309F4D0C0332009F4CAC01092F4
:10501000BC021092BD021092BE021092BF0210920A
:10502000B8021092B9021092BA021092BB020E940A
:10503000F7B3E0ECF6E0249129AFE4EBF6E0C5909D
:10504000D590E590F490E8EBF6E085909590A590EA
:10505000B490A5019401C701B6010E9493DE181611
:105060002CF4A7019601C501B40104C0A501940167
:10507000C701B6010E942DDD2B013C01ECEAF6E0F0
:1050800085919591A591B4918CA79DA7AEA7BFA737
:10509000E8EAF6E0259135914591549128AB39AB7A
:1050A0004AAB5BABBC01CD010E9493DE181634F411
:1050B00028A839A938AF0AA91BA905C02CA44DA559
:1050C00048AF0EA51FA5A3019201C301B2010E9422
:1050D00055D820E030E040E85FE30E9433DC0E94D6
:1050E000E1DE222D38ADA8010E9455D869837A836C
:1050F0008B839C83E1ECF6E014914090C0025090C9
:10510000C1026090C2027090C30220E030E040EC27
:105110005FE3C501B4010E9455D84B015C01612FCA
:10512000110F770B880B990B0E94F6D79B01AC01EE
:10513000C501B4010E9455D84B015C0120E030E06C
:1051400040EC5FE3C701B6010E9455D86B017C01BA
:1051500059AD652F550F770B880B990B0E94F6D729
:105160009B01AC01C701B6010E9455D8DE01119622
:105170006D0183017201A50194010E94FDB20E949C
:10518000C17B1092BC021092BD021092BE0210921E
:10519000BF021092B8021092B9021092BA02109295
:1051A000BB0280E00E9439B4332019F081E00E94F4
:1051B00039B4BCA9BB2319F082E00E9439B40E9423
:1051C000F7B38091B7028093B6020E94C5B283E024
:1051D000809349010E9468B5A7CE302E8CABCBCE10
:1051E00027E93FEF4FE151E4C301B2010E9493DE92
:1051F00087FD9ACE27E030E043E453E4C301B201D7
:105200000E94EFD718160CF48FCE27E93FEF4FE13D
:1052100051E4C501B4010E9493DE87FD85CE27E0ED
:1052200030E040E653E4C501B4010E94EFD7181600
:105230000CF47ACE0E94DEB261E085E40E945E2E1C
:10524000382EE090C002F090C1020091C20210918D
:10525000C3022091210130912201409123015091FC
:1052600024012CAB3DAB4EAB5FAB85E595E5A5E0EE
:10527000B3E48093210190932201A0932301B09382
:10528000240119821A821B821C82AE014F5F5F4F7C
:105290006A012CA53DA54EA55FA568A979A98AA993
:1052A0009BA90E94FDB281E00E94A253811168C3B4
:1052B0008091A50282FF13C02091B2023091B30207
:1052C0004091B4025091B50260E070E080E090EC53
:1052D0000E9432DC6CA77DA78EA79FA708C080E044
:1052E00090E0A0E2B1EC8CA79DA7AEA7BFA7C090AD
:1052F000B202D090B302E090B402F090B50220E088
:1053000030E0A901C701B6010E94EFD787FF0BC0AB
:10531000A701960160E070E080E791E40E9432DC32
:105320006B017C0106C0C12CD12CA0E7EA2EA1E4C0
:10533000FA2EA70196016091C0027091C10280917E
:10534000C2029091C3020E9493DE18160CF04CC06A
:10535000CCA2DDA2EEA2FFA2C12CD12CF0ECEF2E4C
:10536000F0E4FF2EC8A2D9A2EAA2FBA2BE01605EB1
:105370007F4FCE0184960E94BCB31091A40210927C
:10538000A4020E94DBB38091A0029091A102A0919F
:10539000A202B091A3028093C0029093C102A09395
:1053A000C202B093C3020E94F7B312FF1DC0C982AC
:1053B000DA82EB82FC8220E030E040EA50E4609147
:1053C000C0027091C1028091C2029091C3020E94FA
:1053D00033DC6C8F7D8F8E8F9F8FBE016F5F7F4F11
:1053E000CE014C960E94BCB32CA53DA54EA55FA551
:1053F0002C8F3D8F4E8F5F8F80E090E0A0E4B0E473
:1054000089839A83AB83BC83BE016F5F7F4FCE01DC
:105410004C960E94BCB31091A4021092A4020E9468
:10542000DBB38091A0029091A102A091A202B09161
:10543000A3028093C0029093C102A093C202B093D2
:10544000C3020E94F7B312FF09C06091C0027091BD
:10545000C1028091C2029091C30204C060E070E07A
:1054600080EC9FE72091B2023091B3024091B402E8
:105470005091B5020E9433DC6B017C0131E03312A4
:1054800005C080E00E94A25381117AC28CA99DA917
:10549000AEA9BFA98093210190932201A09323017B
:1054A000B0932401A7019601C701B6010E9425DF30
:1054B000882379F080E00E94A25360E087E896E0BC
:1054C0000E94D4490E943B2F87E796E00E94192F43
:1054D00048C020E030E0A901C301B2010E94EFD72B
:1054E00087FD49C267E177EB81E598E3A30192016B
:1054F0000E9433DCAB01BC0180EA96E00E94E233FB
:1055000020E030E0A901C501B4010E94EFD787FF78
:1055100028C267E177EB81E598EBA50194010E9431
:1055200033DCAB01BC018BE996E00E94E23320E062
:1055300030E0A901C701B6010E94EFD787FF16C26C
:1055400067E177EB81E598EBA70196010E9433DCD8
:10555000AB01BC0186E996E00E94E2338AE00E943A
:10556000122F0E94C5B20E9468B5DECC11110C94B6
:10557000321B0C942B1B0E94FD2F0C94541B0E9479
:10558000F72CAB01BC0140931E1150931F11609387
:105590002011709321118CE09FE00E946537C4CCEC
:1055A00061E0802F0E94857B6F2D802F0E94567BAB
:1055B0006F2D70E0802F0E94964A24E0E212B4CC56
:1055C000F092CE07B1CC0E94F7420C94001EA501C8
:1055D0009401C701B6010E9493DE18163CF084E6E0
:1055E00095E060E00E94D4490C94211E81E795E08B
:1055F000F8CF86E295E00C946E200E94EFD787FFEB
:1056000002C00C9422211CA60C94C5201C2D0D2D2B
:105610007E2C6F2C0C94C520D701C60188519C4F5D
:10562000AF4FBF4F8CAF9DAFAEAFBFAF80E00E941A
:10563000738682E295E00E94192F81149104A104DF
:10564000B104B9F0D501C401805F984DAF4FBF4F91
:10565000BC01CD016C197D098E099F0928EE33E04C
:1056600040E050E00E94F6DBCA01B9010E941B3302
:1056700003C08FE30E94122F8AE00E94122F0C9425
:10568000D7202196FFAD219746015701FF2311F442
:105690000C94192120E1820E27E2921EA11CB11C5C
:1056A0000C94192120E030E040E450E4C201B10143
:1056B0000E9493DE181614F00C941921460157012C
:1056C0000C94192188A999A9AAA9BBA9892B8A2B6D
:1056D0008B2B71F0D701C60128A939A94AA95BA96A
:1056E000821B930BA40BB50BB7FF02C00C941D21BA
:1056F0002CA938AD49AD5AAD25966FAD25972696A4
:105700007FAD269727968FAD279728969FAD289730
:105710000E9432DC20E030E040EC5FE30E94EFD7F3
:1057200087FF02C00C942221D701C601805A9541FF
:10573000AF4FBF4F88AB99ABAAABBBAB9CA925962B
:105740009FAF2597A8AD2696AFAF2697B9AD279600
:10575000BFAF2797EAAD2896EFAF28970C941D218D
:1057600081149104A104B10449F421961FAE21973C
:10577000C12ED02EE72CF62C0C949920F0E1CF1AF4
:10578000F7E2DF0AE108F108C818D908EA08FB08BF
:10579000F7FCEBCF0C94222163E770E00C944220DD
:1057A0000E94EB5488E50E945E2D882331F05E9ABA
:1057B0008091A5028E7F8093A50289E50E945E2DCF
:1057C000882331F05E9A8091A5028D7F8093A50297
:1057D0008AE50E945E2D882309F4A6CB159A809154
:1057E000A5028B7F8093A5029FCB83E50E94A72D06
:1057F000882391F00E942B2D6093DE0C7093DF0CB8
:105800008093E00C9093E10C6093E60C7093E70CAE
:105810008093E80C9093E90C80E50E94A72D8823E3
:1058200051F00E942B2D6093DE0C7093DF0C80935F
:10583000E00C9093E10C82E50E94A72D882351F0A3
:105840000E942B2D6093E20C7093E30C8093E40C88
:105850009093E50C84E50E94A72D882309F464CB7E
:105860000E942B2D6093E60C7093E70C8093E80C5C
:105870009093E90C59CB82E40E945E2D882351F06D
:105880000E94E72C6093BA0C7093BB0C8093BC0C05
:105890009093BD0C83E50E945E2D882351F00E94F9
:1058A0002B2D6093EA0C7093EB0C8093EC0C90938F
:1058B000ED0C84E50E945E2D882351F00E942B2D73
:1058C0006093EE0C7093EF0C8093F00C9093F10CBE
:1058D00088E50E945E2D882351F00E942B2D609355
:1058E000A6077093A7078093A8079093A90789E557
:1058F0000E945E2D882351F00E942B2D6093AA07F1
:105900007093AB078093AC079093AD078AE50E9434
:105910005E2D882351F00E942B2D6093AE0770936B
:10592000AF078093B0079093B10785E40E945E2D86
:10593000882309F4F9CA0E942B2D6093B207709353
:10594000B3078093B4079093B507EECAF7FAF094C3
:10595000F7F8F094D101CD92DD92ED92FC9213977D
:10596000F7C967E177EB81E598E3D7CD67E177EB9E
:1059700081E598E3E9CD67E177EB81E598EBB6CD7A
:105980002CA93DA94EA95FA92093210130932201A2
:1059900040932301509324018DCDC75BDF4F0FB699
:1059A000F894DEBF0FBECDBFDF91CF911F910F9155
:1059B000FF90EF90DF90CF90BF90AF909F908F902F
:1059C0007F906F905F904F903F902F9008958091BF
:1059D000ED029091EE02009731F04AE050E060E075
:1059E00070E00C941ED660E070E0CB0108958091C9
:1059F000ED029091EE02009731F04AE050E060E055
:105A000070E00C94F0D460E070E0CB0108950E9447
:105A1000F72C97FD0CC00E94F72C6F3F7105810594
:105A2000910509F034F40E94F72C862F089580E048
:105A300008958FEF08958091ED029091EE02892BE9
:105A400039F00E94072D91E0811103C090E001C060
:105A500091E0892F08950F931F93CF938091ED02CA
:105A60009091EE020097F1F0FC018F01C1912C2F73
:105A70002F7D89F0C53411F0C536B9F7F8011082D1
:105A800060E070E00E9494D3F801C083562F472F46
:105A9000382F292F0BC060E070E0CF911F910F913C
:105AA0000C9494D350E040E030E020E0652F742F58
:105AB000832F922FCF911F910F91089581548A3196
:105AC00008F042C0E82FF0E040914E0250914F02A2
:105AD000609150027091510204C076956795579578
