:100000000C9472320C94A3320C94A3320C94A3324D
:100010000C94A3320C94A3320C94A3320C94A3320C
:100020000C94A3320C94A3320C94A3320C94A332FC
:100030000C94A3320C94D2DB0C94A3320C94A33214
:100040000C94A3320C944AE40C94A3320C94A33283
:100050000C94A3320C94A3320D94F91E0C9488DBFB
:100060000C94A3320C94069A0C94FC990C94A33231
:100070000C94A3320C94A3320C94A3320C94A332AC
:100080000C94A3320C94A3320C94A3320C94A3329C
:100090000C94A3320C94A3320C94A3320C94A3328C
:1000A0000C94A3320C94A3320C94A3320C94A3327C
:1000B0000C94A3320C94A3320C94A3320C94A3326C
:1000C0000C94A3320C94A3320C94A3320C94A3325C
:1000D0000C94A3320C94A3320C94A3320C94A3324C
:1000E0000C94A332876A8E6A0B6BD66B276D326DC8
:1000F000426D658F508F748F538F568F4D8F778FD2
:10010000628F598F728F5C8F5F8F399A3F9A509AA6
:100110005B9A639A789A679A789A6B9A6F9A789AA8
:10012000759A58B4DDB213B394B413B313B313B3C5
:1001300013B313B313B313B313B313B313B313B38F
:1001400013B313B313B313B313B313B313B313B37F
:1001500013B313B313B313B313B313B313B38EB4F3
:1001600013B313B313B313B313B313B313B313B35F
:1001700067B413B313B313B313B313B313B313B3FA
:1001800013B313B313B3ABB410B39FEFA2EF91EF5C
:1001900095EF9BEFD9EFA6EFAAEFB0EFB4EFB8EF72
:1001A000BEEFC2EFC6EFD9EFCCEFD0EFD4EF5AF5E8
:1001B0005FF564F56EF578F5F1F582F58AF592F55F
:1001C0009CF5A6F5B0F5BFF5C9F5F1F5D3F5DDF56C
:1001D000E7F5084AD73B3BCE016E84BCBFFDC12F7B
:1001E0003D6C74319ABD56833DDA3D00C77F11BE28
:1001F000D9E4BB4C3E916BAAAABE000000803F052B
:10020000A84CCDB2D44EB93836A9020C50B991865B
:1002100088083CA6AAAA2ABE000000803F076342C5
:1002200036B79BD8A71A39685618AEBAAB558C1D8D
:100230003CB7CC5763BD6DEDFD753EF6177231BF0F
:10024000000000803F08000000BE922449123EAB2F
:10025000AAAA2ABECDCCCC4C3E00000080BEABAAE0
:10026000AAAA3E00000000BF000000803F0000007E
:100270000000084178D3BB4387D1133D190E3CC31E
:10028000BD4282AD2B3E68EC8276BED98FE1A93E9D
:100290004C80EFFFBE01C4FF7F3F00000000000064
:1002A0000D94DF560D94765C0D94E73C0D94260179
:1002B0000D942B010D94DA5A0D948F3B0D94F95A3D
:1002C0000D941C010D94933A0D9444260D94350120
:1002D0000D946B000D94C2680D9417010D94EE1AE5
:1002E0000D9453010D9430010D94B23E0D940D0107
:1002F0000D94BD5D0D946A5F0D945C010D94855C59
:100300000D941E710D9488010D9421010D94080126
:100310000D9430030D9403010D9412014E414E498A
:100320004E495459494E46CDCCCC3D0AD7233C17B3
:10033000B7D13877CC2B329595E6241FB14F0A0000
:100340000020410000C84200401C4620BCBE4CCAF0
:100350001B0E5AAEC59D7400407A10F35A00A0726D
:100360004E18090010A5D4E80000E87648170000F0
:10037000E40B54020000CA9A3B000000E1F50500BE
:100380000080969800000040420F000000A0860107
:10039000000000102700000000E8030000000064D7
:1003A00000000000000A0000000000010000000042
:1003B000002C76D888DC674F0823DFC1DFAE59E117
:1003C000B1B796E5E3E453C63AE651997696E8E686
:1003D000C28426EB898C9B62ED407C6FFCEFBC9C59
:1003E0009F40F2BAA56FA5F490055A2AF75C936B6B
:1003F0006CF9676DC11BFCE0E40D47FEF520E6B526
:1004000000D0ED902E0300943577050080841E08FF
:100410000000204E0A000000C80C333333330F981D
:100420006E12831141EF8D2114893BE65516CFFEE4
:10043000E6DB18D1844B381BF77C1D901DA4BBE470
:1004400024203284725E228100C9F124ECA1E53DB2
:1004500027434F4D4D554E49434154494F4E00445B
:10046000525952554E004552524F525300494E4632
:100470004F004543484F0047322F473320626164A5
:1004800020706172616D65746572730A00536C65EA
:1004900065702E2E2E00486F6D65205859206669B4
:1004A0007273740A00486F6D65205859206669722E
:1004B000737400205A3A200020593A2000426564A3
:1004C00020583A20004D65736820706F696E742063
:1004D00063616E6E6F74206265207265736F6C76F7
:1004E00065640A00436C69636B20746F20726573E6
:1004F000756D652E2E2E004E6F206D6F76652E0069
:10050000456E642066696C65206C6973740A0042EC
:100510006567696E2066696C65206C6973740A0092
:10052000286E6F2066696C65290043757272656E6E
:10053000742066696C653A20005344207072696EBD
:1005400074696E67206279746520004E6F74205361
:1005500044207072696E74696E670A002E0A004446
:10056000656C6574696F6E206661696C65642C20CA
:1005700046696C653A200046696C652064656C6567
:100580007465643A002569730025696D20256973D7
:10059000002569682025696D202569730025696437
:1005A000202569682025696D2025697300256979F2
:1005B00020256964202569682025696D20256973D7
:1005C000005072696E742074696D653A2000452090
:1005D000436F6F6C696E672E2E2E00452048656153
:1005E00074696E672E2E2E006F66660072046D04AD
:1005F00066045F04510444454255473A004D313189
:100600003320530042656420636F6F6C696E672E00
:100610002E2E004265642068656174696E672E2E17
:100620002E006F6B0043522D3130205335204F4642
:10063000462E004348414D4245525F54454D50457A
:10064000524154555245004D4F54494F4E5F4D4F06
:1006500044455300544845524D414C5F50524F540D
:10066000454354494F4E004155544F5245504F5207
:10067000545F53445F5354415455530050524F4DAF
:1006800050545F535550504F525400454D455247BA
:10069000454E43595F5041525345520043415345E3
:1006A0005F4C494748545F4252494748544E45536E
:1006B0005300544F47474C455F4C494748545300FB
:1006C000534F4654574152455F504F574552004291
:1006D00055494C445F50455243454E54004C455695
:1006E000454C494E475F44415441005A5F50524F78
:1006F0004245004155544F4C4556454C00505249D7
:100700004E545F4A4F420050524F47524553530098
:100710004155544F5245504F52545F54454D50002F
:10072000564F4C554D455452494300454550524F44
:100730004D0042494E4152595F46494C455F545223
:10074000414E534645520053455249414C5F584F24
:100750004E5F584F4646004649524D574152455FFD
:100760004E414D453A4D61726C696E206275676607
:1007700069782D322E302E7820284769746875628A
:100780002920534F555243455F434F44455F5552CF
:100790004C3A68747470733A2F2F67697468756285
:1007A0002E636F6D2F4D61726C696E4669726D7745
:1007B0006172652F4D61726C696E2050524F544FBB
:1007C000434F4C5F56455253494F4E3A312E3020DD
:1007D0004D414348494E455F545950453A43522D87
:1007E00031302053352045585452554445525F43CB
:1007F0004F554E543A3120555549443A6365646526
:10080000326132662D343161322D343734382D392E
:100810006231322D6335356336326633363766667C
:100820000A002F2F20004D31343520533C696E646F
:1008300065783E206F7574206F662072616E676503
:100840002028302D31290A00205400205200416315
:1008500063656C65726174696F6E3A205000574130
:10086000524E494E4721204C6F77205A204A6572DC
:100870006B206D6179206C65616420746F20756EEA
:1008800077616E746564207061757365732E0A00FC
:10089000205A00205900580020204D61783A20004D
:1008A000205A00205900580020204D696E3A20003F
:1008B000536F667420656E6473746F70733A2000B2
:1008C00020466C6F773A200050726F7465637465D0
:1008D000642050696E0A00496E76616C6964206517
:1008E000787472756465720A0020643A0020693A6F
:1008F0000020703A0064697300656E0043290A00A5
:1009000061626C656420286D696E2074656D70206D
:1009100000436F6C64206578747275646573206140
:10092000726520004F4646004F4E0046696C616D6F
:10093000656E742072756E6F757420004D657368F6
:1009400020706F696E742063616E6E6F74206265D3
:10095000207265736F6C7665640A004D3432312005
:10096000696E636F727265637420706172616D6528
:100970007465722075736167650A004F66667365FA
:100980007473206170706C696564004572723A20FE
:10099000546F6F206661722100546F6F2066617220
:1009A0002066726F6D207265666572656E63652084
:1009B000706F696E740A00454550524F4D204F4B81
:1009C0000A003F5A206F7574206F662072616E674F
:1009D0006520282D323020746F203230290A0050D3
:1009E000726F6265205A204F66667365743A200004
:1009F0000900000A010008000A01000A09000000BD
:100A00000A0008000A4D657368206F6E6C792070CB
:100A100061727469616C6C7920706F70756C61744F
:100A200065642E0A004D65617375726500506C61D6
:100A30006365207368696D2026206D65617375722A
:100A400065004D6F76696E6720746F206E657874EF
:100A5000004D6573682045646974696E672053743E
:100A60006F7070656400446F6E65204564697469D9
:100A70006E67204D6573680A00446F6E652045649B
:100A80006974696E67204D6573680046696E6520FC
:100A900054756E696E67204D6573680028582C592F
:100AA00029206F757473696465207072696E746152
:100AB000626C65207261646975732E0A004F666608
:100AC000736574206F7574206F6620626F756E6435
:100AD000732E20283020746F2031306D6D290A0A62
:100AE00000496E76616C6964206D61702074797064
:100AF000652E0A0A003F28462961646520686569F9
:100B000067687420666F7220426564204C65766564
:100B10006C20436F7272656374696F6E206E6F74C0
:100B200020706C61757369626C652E0A0A003F4320
:100B3000616E277420616374697661746520616EEB
:100B400064206465616374697661746520617420F2
:100B50007468652073616D652074696D652E0A0A7D
:100B600000426F7468205820262059206C6F636102
:100B700074696F6E73206D75737420626520737075
:100B8000656369666965642E0A0A003F496E76618D
:100B90006C696420677269642073697A6520284AE9
:100BA00029207370656369666965642028322D3970
:100BB000292E0A0A003F2850296861736520766152
:100BC0006C756520696E76616C69642028302D36FD
:100BD000292E0A0A003F2856296572626F73652024
:100BE0006C6576656C20697320696D706C617573D6
:100BF00069626C652028302D34292E0A0A003F28AE
:100C00005229657065746974696F6E20636F756EC3
:100C10007420696E76616C69642028312B292E0A54
:100C20000A00446F696E672047323900FF09FA09EC
:100C3000F509F0095D0A00436F756C64206E6F74EE
:100C400020636F6D706C657465204C5346210043C2
:100C50006F727265637465645F5A3D0054696C74A9
:100C6000696E6720706F696E742025692F25690091
:100C70000A0A002F0054696C74696E67206D6573F1
:100C80006820706F696E7420003F4572726F722029
:100C900070726F62696E6720706F696E742E20418A
:100CA000626F7274696E67206F7065726174696FCC
:100CB0006E2E0A00436F727265637465645F5A3DFD
:100CC0000054696C74696E6720706F696E742033AC
:100CD0002F330054696C74696E67206D65736820EA
:100CE00028332F33290A00436F7272656374656479
:100CF0005F5A3D0054696C74696E6720706F696E4D
:100D00007420322F330054696C74696E67206D65EE
:100D100073682028322F33290A00436F727265638B
:100D20007465645F5A3D0054696C74696E67207025
:100D30006F696E7420312F330054696C74696E676B
:100D4000206D6573682028312F33290A0020202068
:100D50007C0A004E414E0020202E20202000207CC6
:100D6000004C43443A0A004353563A0A0020666F47
:100D70007220003A0A0A000A42656420546F706FBC
:100D8000677261706879205265706F7274004732C3
:100D90003800446F6E652E0A003F496E76616C69BB
:100DA000642073746F7261676520736C6F742E0AB0
:100DB0003F557365203020746F20003F45455052E9
:100DC0004F4D2073746F72616765206E6F74206180
:100DD0007661696C61626C652E0A00446F6E652EE7
:100DE0000A003F496E76616C69642073746F7261AA
:100DF000676520736C6F742E0A3F55736520302031
:100E0000746F20003F454550524F4D2073746F72F0
:100E1000616765206E6F7420617661696C61626CD8
:100E2000652E0A004732392050322066696E697398
:100E30006865642E0A005859206F7574736964657B
:100E4000207072696E7461626C652072616469758C
:100E5000732E0A003F4572726F7220696E204275D0
:100E600073696E6573732043617264206D6561738D
:100E70007572656D656E742E0A004D616E75616CDC
:100E80006C792070726F62696E6720756E72656131
:100E9000636861626C65206D657368206C6F636167
:100EA00074696F6E732E0A00292E0A0A0050726F41
:100EB00062696E672061726F756E642028004D65EF
:100EC000736820696E76616C6964617465642E2054
:100ED00050726F62696E67206D6573682E0A004DEF
:100EE000657368207A65726F65642E0A00446566D2
:100EF00061756C742073746F7261676520736C6FB9
:100F00007420302073656C65637465642E0A004C30
:100F10006F6164696E6720746573745F7061747467
:100F200065726E2076616C7565732E0A0A00496ED3
:100F300076616C696420746573745F706174746544
:100F4000726E2076616C75652E20282D3120746FAD
:100F50002032290A0A004C6F636174696F6E732036
:100F6000696E76616C6964617465642E0A0A004575
:100F70006E74697265204D65736820696E76616C68
:100F80006964617465642E0A0A0023206F66207309
:100F9000616D706C65733A20000A4D657368206F4F
:100FA0006E6C79207061727469616C6C7920706FFD
:100FB00070756C617465642E0A0A0050726F626904
:100FC0006E6720706F696E742025692F2569002E69
:100FD0000A0A002F000A50726F62696E67206D6501
:100FE000736820706F696E74200020616E642074D5
:100FF000616B652061206D6561737572656D656EED
:10100000742E0A006D6D20746869636B2E0A00529D
:10101000656D6F76652026206D656173757265203C
:101020006265640052656D6F7665207368696D0056
:10103000506C616365207368696D2026206D656161
:101040007375726500506C616365207368696D200B
:10105000756E646572206E6F7A7A6C650047323601
:101060002048656174696E67204E6F7A7A6C652ED0
:10107000004732362048656174696E6720426564B6
:101080002E0057616974696E6720666F722068650B
:10109000617475702E0A00446F6E65205072696D20
:1010A000696E6700557365722D436F6E74726F6C55
:1010B0006C6564205072696D6500466978656420CE
:1010C0004C656E677468205072696D652E004D65C1
:1010D00073682056616C69646174696F6E20537423
:1010E0006F707065642E004C656176696E6720478D
:1010F0003236003F53706563696669656420582C19
:101100005920636F6F7264696E617465206F7574C6
:10111000206F6620626F756E64732E0A003F28523E
:101120002965706561742076616C7565206E6F74D9
:1011300020706C61757369626C653B206D757374AA
:10114000206265206174206C6561737420312E0A01
:10115000003F537065636966696564206E6F7A7AD3
:101160006C652074656D7065726174757265206E52
:101170006F7420706C61757369626C652E0A003F34
:101180005370656369666965642066696C616D6545
:101190006E742073697A65206E6F7420706C61754F
:1011A0007369626C652E0A003F53706563696669F6
:1011B0006564207072696D65206C656E6774682067
:1011C0006E6F7420706C61757369626C652E0A00B5
:1011D0003F537065636966696564206E6F7A7A6CE7
:1011E000652073697A65206E6F7420706C61757309
:1011F00069626C652E0A003F52657472616374699E
:101200006F6E204D756C7469706C696572206D75B8
:101210007374206265207370656369666965642E06
:101220000A003F537065636966696564205265749E
:1012300072616374696F6E204D756C7469706C694E
:101240006572206E6F7420706C61757369626C6575
:101250002E0A003F537065636966696564206C619E
:1012600079657220686569676874206E6F74207094
:101270006C61757369626C652E0A0043292E0A0041
:101280003F537065636966696564206265642074B4
:10129000656D7065726174757265206E6F74207013
:1012A0006C61757369626C65202834302D0047329B
:1012B00036207374617274696E672E2E2E0A004F89
:1012C00046460A004661646520486569676874207F
:1012D00000426564204C6576656C696E6720004647
:1012E00061696C656420746F20656E61626C652055
:1012F000426564204C6576656C696E670A00496ECC
:1013000076616C6964206D6573682E0A0076616C85
:1013100069640A53746F7261676520736C6F743A05
:101320002000696E004D65736820697320003F5589
:101330007365203020746F20003F496E76616C69C0
:10134000642073746F7261676520736C6F742E0A0A
:10135000003F454550524F4D2073746F7261676571
:10136000206E6F7420617661696C61626C652E0A13
:1013700000204500205A00205900204D39322058C5
:101380000020496E76616C696420657874727564BA
:10139000657220004361703A00220A00656E717523
:1013A000657565696E672022002042002050006F3D
:1013B0006B00526573656E643A200053544F505071
:1013C00045442E20005072696E7465722073746FEC
:1013D000707065642064756520746F206572726F2B
:1013E00072732E2046697820746865206572726F6A
:1013F0007220616E6420757365204D39393920740F
:101400006F20726573746172742E202854656D703C
:101410006572617475726520697320726573657495
:101420002E20536574206974206166746572207281
:10143000657374617274696E67290A004E6F204388
:101440006865636B73756D2077697468206C696E6D
:1014500065206E756D6265722C204C617374204C32
:10146000696E653A20004E6F20436865636B737543
:101470006D2077697468206C696E65206E756D6289
:1014800065722C204C617374204C696E653A2000A3
:10149000636865636B73756D206D69736D617463EB
:1014A000682C204C617374204C696E653A20004CA6
:1014B000696E65204E756D626572206973206E6F6E
:1014C00074204C617374204C696E65204E756D629A
:1014D00065722B312C204C617374204C696E653A17
:1014E00020004D313130004D3331005344207265BE
:1014F0006164206572726F720A00446F6E652070BD
:1015000072696E74696E672066696C650A0023648F
:101510006566696E652044454641554C545F004BF5
:101520006420004B6920004B70200050494420414A
:1015300075746F74756E652066696E69736865642D
:10154000212050757420746865206C617374204B81
:10155000702C204B6920616E64204B6420636F6E99
:101560007374616E74732066726F6D2062656C6F48
:101570007720696E746F20436F6E6669677572615C
:1015800074696F6E2E680A00504944204175746F6B
:1015900074756E65206661696C6564212074696D7F
:1015A000656F75740A00453120544845524D414CD1
:1015B0002052554E4157415900546865726D616C17
:1015C0002052756E617761790045312048656174FC
:1015D000696E67206661696C65640048656174695D
:1015E0006E67206661696C656400504944204175EE
:1015F000746F74756E65206661696C656421205432
:10160000656D706572617475726520746F6F2068A6
:101610006967680A00204B643A2000204B693A2031
:1016200000204B703A20000A20436C617373696399
:1016300020504944200A002054753A2000204B7560
:101640003A2000206D61783A2000206D696E3A20C2
:101650000020643A200020626961733A20005049FA
:1016600044204175746F74756E6520737461727473
:101670000A00504944204175746F74756E65206688
:1016800061696C6564212054656D70657261747563
:10169000726520746F6F20686967680A005049445A
:1016A000204175746F74756E65206661696C656440
:1016B0002120426164206578747275646572206EC1
:1016C000756D6265720A0066696C616D656E742085
:1016D0006C6F6164005761697420666F7200746F8B
:1016E00020726573756D65207072696E740050723A
:1016F00065737320627574746F6E00746F20726509
:1017000073756D652E2E2E005761697420666F7299
:10171000207072696E740066696C616D656E74200C
:10172000707572676500436C69636B20746F206627
:10173000696E697368004D61782054656D703A2058
:10174000313230004D696E2054656D703A2035009D
:10175000544265643A4550434F53203130304B007A
:101760004D61782054656D703A20323635004D69F0
:101770006E2054656D703A20350054303A20455043
:10178000434F53203130304B005053553A2047657A
:101790006E657269630050726F746F636F6C3A208C
:1017A000312E3000426175643A20313135323030AB
:1017B00000437265616C69747933442052414D5025
:1017C0005300556E696669656420426564204C6506
:1017D00076656C696E6700457874727564657273BE
:1017E0003A203100687474703A2F2F6D61726C6901
:1017F0006E66772E6F72670043522D31302053355D
:1018000000323031392D30372D3035006275676642
:1018100069782D322E302E78004D61726C696E0021
:10182000546865726D6973746F727300426F617290
:101830006420496E666F005072696E74657220494B
:101840006E666F004D61696E003F0053746F7020CB
:101850007072696E74004261636B0053746F700044
:101860004D6F76696E672E2E2E004D323520500A50
:101870004D3234005072696E742070617573656406
:10188000005061757365207072696E74004D32345A
:10189000005072696E742066726F6D20534400436D
:1018A00068616E67652053442063617264004D3245
:1018B000310041626F7574205072696E74657200F8
:1018C0004368616E67652066696C616D656E740062
:1018D0004368616E67652066696C616D656E740052
:1018E0004D36303020423000436F6E666967757246
:1018F0006174696F6E0054656D70657261747572A4
:1019000065004D6F74696F6E00526573756D65206B
:101910007072696E74004E6F20534420636172646C
:101920000054756E650053746F70207072696E7428
:10193000005061757365207072696E7400496E663F
:101940006F2073637265656E004D6F766520580079
:101950004D6F76652059004D6F7665205A004578A9
:10196000747275646572004578747275646572008E
:101970004D6F7665205A004D6F76652059004D6F8A
:1019800076652058004D6F74696F6E005072696EF5
:101990007465722073746F7070656420647565205F
:1019A000746F206572726F72732E2046697820748E
:1019B0006865206572726F7220616E642075736550
:1019C000204D39393920746F2072657374617274D7
:1019D0002E202854656D706572617475726520697A
:1019E000732072657365742E2053657420697420AA
:1019F00061667465722072657374617274696E6772
:101A0000290A0053544F505045442E200024F4041A
:101A1000D9201BC40C5C0E9804C4095F02650771D1
:101A200001F405F900FB04B30048048700C1036911
:101A3000005803550003034500BE023A00840231FA
:101A40000053022A002902250004022000E4011CA0
:101A500000C8011900AF0117009801140084011398
:101A600000710110006101100051010E0043010DD1
:101A70000036010B002B010B0020010B00150109A2
:101A8000000C01090003010800FB000800F3000836
:101A900000EB000700E4000600DE000600D80006A8
:101AA00000D2000600CC000500C7000500C20005FA
:101AB00000BD000400B9000400B5000400B100043A
:101AC00000AD000400A9000400A5000300A200036B
:101AD000009F0004009B0003009800030095000293
:101AE0000093000300900003008D0002008B0003B0
:101AF00000880002008600020084000300810002CA
:101B0000007F0002007D0002007B000200790002DD
:101B100000770001007600020074000200720001EC
:101B200000710002006F0002006D0001006C0002F5
:101B3000006A000100690002006700010066000100
:101B40000065000100640002006200010061000104
:101B500000600001005F0002005D0001005C000108
:101B6000005B0001005A000100590001005800010B
:101B7000005700010056000100550001005400010B
:101B80000053000000530001005200010051000109
:101B900000500001004F0001004E0000004E000107
:101BA000004D0001004C0001004B0000004B000103
:101BB000004A0001004900010048000000480001FF
:101BC00000470001004600000046000100450000FB
:101BD00000450001004400010043000000430001F3
:101BE00000420000004200010041000000410001ED
:101BF00000400001003F0000003F0001003E0000E7
:101C0000003E0001003D0000003D0001003C0000DE
:101C1000003C0000003C0001003B0000003B0001D4
:101C2000003A0000003A00010039000000390001CC
:101C300000380000003800000038000100370000C4
:101C400000370001003600000036000000360001B9
:101C500000350000003500000035000100340000B0
:101C600000340000003400010033000000330000A5
:101C70000033000100320000003200000032000199
:101C80000031000000310000003100010030000090
:101C90000030000000300001002F0000002F000085
:101CA000002F0000002F0001002E0000002E000079
:101CB000002E0001002D0000002D0000002D00006E
:101CC000002D0001002C0000002C0000002C000062
:101CD000002C0001002B0000002B0000002B000056
:101CE000002B0001002A0000002A0000002A00004A
:101CF000002A00010029000000290000002900003E
:101D00000029000000290001002800000028000030
:101D10000028000000280000002800010027000023
:101D20000027000000270000002700000027000116
:101D3000002600000026000000260000002600000B
:101D400000260001002500000025000000250000FD
:101D500000250000002500000025000100240000EF
:101D600000240000002400000024000000240001E2
:101D700000230000002300000023000000230000D7
:101D800000230000002300000023000100220000C7
:101D900000220000002200000022000000220000BB
:101DA00000220001002100000021000000210000AD
:101DB000002100000021000000210000002100019E
:101DC0000020000000200000002000000020000093
:101DD0000020000000200000002000000020000182
:101DE000001F0000001F0000001F0000001F000077
:101DF000001F0000001F0000001F0001001E000067
:101E0000001E0000001E0000001E00000024F4D48C
:101E10003050C38E20C2A24017828B7011127A916B
:101E20000D816CD90AA861E108C758660761514362
:101E3000061E4B5D05C145A7041A411104093D98D2
:101E400003713931034036DB0265339102D43054DB
:101E500002802E1D02632CEE01752AC501B028A058
:101E600001102781018F2564012B244B01E02234CE
:101E700001AC211F018D200D01801FFC00841EED8F
:101E800000971DDF00B81CD200E61BC600201BBC5B
:101E900000641AB200B219A8000A19A0006A1899C1
:101EA00000D117910040178B00B516840031167EC3
:101EB00000B31579003A157300C7146F0058146AFF
:101EC00000EE1366008813630025135E00C7125BE3
:101ED000006C12570015125400C111510070114FBF
:101EE0000021114B00D61049008D104700461044C8
:101EF0000002104200C00F4000800F3E00420F3C25
:101F000000060F3B00CB0E3800930E37005C0E35F9
:101F100000270E3400F30D3200C10D3100900D305A
:101F200000600D2E00320D2D00050D2C00D90C2B5C
:101F300000AE0C2900850C29005C0C2700350C270D
:101F4000000E0C2600E80B2400C40B2400A00B2379
:101F5000007D0B23005A0B2100390B2100180B20A8
:101F600000F80A1F00D90A1E00BB0A1E009D0A1DA8
:101F700000800A1D00630A1C00470A1B002C0A1B74
:101F800000110A1A00F7091A00DD091900C409191D
:101F900000AB091900920917007B091800630917A3
:101FA000004C09160036091600200916000A09150A
:101FB00000F5081500E0081400CC081400B8081457
:101FC00000A4081400900813007D0812006B081389
:101FD00000580812004608120034081100230811A6
:101FE000001208110001081100F0071000E00710AE
:101FF00000D0071000C0071000B0070F00A10710A5
:102000000091070E0083070F0074070F0065070E8D
:102010000057070E0049070E003B070D002E070E64
:102020000020070D0013070D0006070D00F9060C30
:1020300000ED060D00E0060C00D4060C00C8060CEE
:1020400000BC060C00B0060C00A4060B0099060CA0
:10205000008D060B0082060B0077060B006C060B4A
:102060000061060A0057060B004C060A0042060AE9
:102070000038060A002E060A0024060A001A060A7C
:10208000001006090007060A00FD050900F405090D
:1020900000EB050900E2050900D9050900D0050992
:1020A00000C7050900BE050900B5050800AD050813
:1020B00000A50509009C050800940508008C05088A
:1020C00000840508007C050800740508006C0507FD
:1020D00000650508005D050700560508004E050768
:1020E00000470507004005080038050700310507CF
:1020F000002A050700230507001C05060016050732
:10210000000F0507000805060002050700FB04068E
:1021100000F5040700EE040600E8040600E20407E8
:1021200000DB040600D5040600CF040600C904063F
:1021300000C3040600BD040600B7040600B1040590
:1021400000AC040600A6040600A00405009B0406DB
:102150000095040500900406008A04050085040526
:1021600000800406007A040500750405007004056B
:10217000006B04050066040500610405005C0405AD
:102180000057040500520405004D040500480405ED
:1021900000430405003E0404003A0405003504052C
:1021A00000300404002C0405002704040023040567
:1021B000001E0404001A040400160405001104049F
:1021C000000D0404000904050004040400000404D4
:1021D00000FC030400F8030400F4030400F003040B
:1021E00000EC030400E8030400E4030400E003043B
:1021F00000DC030400D8030400D4030400D003046B
:1022000000CC030400C8030300C5030300726F740D
:102210006174696F6E206D61747269783A0A002486
:10222000F404D9201BC40C5C0E9804C4095F026539
:10223000077101F405F900FB04B30048048700C1ED
:102240000369005803550003034500BE023A0084A9
:1022500002310053022A002902250004022000E472
:10226000011C00C8011900AF011700980114008477
:10227000011300710110006101100051010E0043B3
:10228000010D0036010B002B010B0020010B001586
:102290000109000C01090003010800FB000800F31C
:1022A000000800EB000700E4000600DE000600D88E
:1022B000000600D2000600CC000500C7000500C2E1
:1022C000000500BD000400B9000400B5000400B121
:1022D000000400AD000400A9000400A5000300A252
:1022E0000003009F0004009B00030098000300957A
:1022F00000020093000300900003008D0002008B99
:1023000000030088000200860002008400030081B0
:102310000002007F0002007D0002007B00020079C5
:1023200000020077000100760002007400020072D3
:10233000000100710002006F0002006D0001006CDE
:102340000002006A000100690002006700010066E7
:1023500000010065000100640002006200010061EC
:10236000000100600001005F0002005D0001005CF0
:102370000001005B0001005A0001005900010058F3
:1023800000010057000100560001005500010054F3
:1023900000010053000000530001005200010051F1
:1023A000000100500001004F0001004E0000004EEF
:1023B0000001004D0001004C0001004B0000004BEB
:1023C0000001004A000100490001004800000048E7
:1023D00000010047000100460000004600010045E2
:1023E00000000045000100440001004300000043DC
:1023F00000010042000000420001004100000041D5
:10240000000100400001003F0000003F0001003ECD
:102410000000003E0001003D0000003D0001003CC6
:102420000000003C0000003C0001003B0000003BBD
:102430000001003A0000003A0001003900000039B4
:1024400000010038000000380000003800010037AB
:1024500000000037000100360000003600000036A2
:102460000001003500000035000000350001003497
:10247000000000340000003400010033000000338D
:102480000000003300010032000000320000003282
:102490000001003100000031000000310001003077
:1024A00000000030000000300001002F0000002F6D
:1024B0000000002F0000002F0001002E0000002E61
:1024C0000000002E0001002D0000002D0000002D56
:1024D0000000002D0001002C0000002C0000002C4A
:1024E0000000002C0001002B0000002B0000002B3E
:1024F0000000002B0001002A0000002A0000002A32
:102500000000002A00010029000000290000002925
:102510000000002900000029000100280000002818
:10252000000000280000002800000028000100270B
:1025300000000027000000270000002700000027FF
:1025400000010026000000260000002600000026F2
:1025500000000026000100250000002500000025E5
:1025600000000025000000250000002500010024D7
:1025700000000024000000240000002400000024CB
:1025800000010023000000230000002300000023BE
:1025900000000023000000230000002300010022AF
:1025A00000000022000000220000002200000022A3
:1025B0000000002200010021000000210000002195
:1025C0000000002100000021000000210000002187
:1025D000000100200000002000000020000000207A
:1025E000000000200000002000000020000000206B
:1025F0000001001F0000001F0000001F0000001F5E
:102600000000001F0000001F0000001F0001001E4E
:102610000000001E0000001E0000001E000000243C
:10262000F4D43050C38E20C2A24017828B70111296
:102630007A910D816CD90AA861E108C758660761D3
:102640005143061E4B5D05C145A7041A41110409FB
:102650003D9803713931034036DB0265339102D472
:10266000305402802E1D02632CEE01752AC501B084
:1026700028A001102781018F2564012B244B01E044
:10268000223401AC211F018D200D01801FFC00842C
:102690001EED00971DDF00B81CD200E61BC600200F
:1026A0001BBC00641AB200B219A8000A19A0006A83
:1026B000189900D117910040178B00B5168400318E
:1026C000167E00B31579003A157300C7146F0058D1
:1026D000146A00EE1366008813630025135E00C7BA
:1026E000125B006C12570015125400C1115100709A
:1026F000114F0021114B00D61049008D10470046A4
:1027000010440002104200C00F4000800F3E004203
:102710000F3C00060F3B00CB0E3800930E37005CD9
:102720000E3500270E3400F30D3200C10D3100903C
:102730000D3000600D2E00320D2D00050D2C00D93E
:102740000C2B00AE0C2900850C29005C0C270035F1
:102750000C27000E0C2600E80B2400C40B2400A05C
:102760000B23007D0B23005A0B2100390B2100188D
:102770000B2000F80A1F00D90A1E00BB0A1E009D8C
:102780000A1D00800A1D00630A1C00470A1B002C5A
:102790000A1B00110A1A00F7091A00DD091900C402
:1027A000091900AB091900920917007B0918006389
:1027B0000917004C09160036091600200916000AF0
:1027C000091500F5081500E0081400CC081400B83D
:1027D000081400A4081400900813007D0812006B70
:1027E000081300580812004608120034081100238C
:1027F0000811001208110001081100F0071000E094
:10280000071000D0071000C0071000B0070F00A18C
:1028100007100091070E0083070F0074070F006573
:10282000070E0057070E0049070E003B070D002E4C
:10283000070E0020070D0013070D0006070D00F915
:10284000060C00ED060D00E0060C00D4060C00C8D6
:10285000060C00BC060C00B0060C00A4060B009988
:10286000060C008D060B0082060B0077060B006C31
:10287000060B0061060A0057060B004C060A0042D0
:10288000060A0038060A002E060A0024060A001A64
:10289000060A001006090007060A00FD050900F4F3
:1028A000050900EB050900E2050900D9050900D07A
:1028B000050900C7050900BE050900B5050800ADFA
:1028C000050800A50509009C050800940508008C72
:1028D000050800840508007C050800740508006CE4
:1028E000050700650508005D050700560508004E50
:1028F00005070047050700400508003805070031B7
:102900000507002A050700230507001C0506001619
:102910000507000F0507000805060002050700FB74
:10292000040600F5040700EE040600E8040600E2D1
:10293000040700DB040600D5040600CF040600C926
:10294000040600C3040600BD040600B7040600B177
:10295000040500AC040600A6040600A00405009BC4
:1029600004060095040500900406008A040500850D
:10297000040500800406007A040500750405007053
:102980000405006B04050066040500610405005C95
:1029900004050057040500520405004D04050048D5
:1029A000040500430405003E0404003A0405003514
:1029B000040500300404002C04050027040400234F
:1029C0000405001E0404001A040400160405001186
:1029D0000404000D040400090405000404040000BC
:1029E000040400FC030400F8030400F4030400F0F2
:1029F000030400EC030400E8030400E4030400E023
:102A0000030400DC030400D8030400D4030400D052
:102A1000030400CC030400C8030300C5030300241F
:102A2000F404D9201BC40C5C0E9804C4095F026531
:102A3000077101F405F900FB04B30048048700C1E5
:102A40000369005803550003034500BE023A0084A1
:102A500002310053022A002902250004022000E46A
:102A6000011C00C8011900AF01170098011400846F
:102A7000011300710110006101100051010E0043AB
:102A8000010D0036010B002B010B0020010B00157E
:102A90000109000C01090003010800FB000800F314
:102AA000000800EB000700E4000600DE000600D886
:102AB000000600D2000600CC000500C7000500C2D9
:102AC000000500BD000400B9000400B5000400B119
:102AD000000400AD000400A9000400A5000300A24A
:102AE0000003009F0004009B000300980003009572
:102AF00000020093000300900003008D0002008B91
:102B000000030088000200860002008400030081A8
:102B10000002007F0002007D0002007B00020079BD
:102B200000020077000100760002007400020072CB
:102B3000000100710002006F0002006D0001006CD6
:102B40000002006A000100690002006700010066DF
:102B500000010065000100640002006200010061E4
:102B6000000100600001005F0002005D0001005CE8
:102B70000001005B0001005A0001005900010058EB
:102B800000010057000100560001005500010054EB
:102B900000010053000000530001005200010051E9
:102BA000000100500001004F0001004E0000004EE7
:102BB0000001004D0001004C0001004B0000004BE3
:102BC0000001004A000100490001004800000048DF
:102BD00000010047000100460000004600010045DA
:102BE00000000045000100440001004300000043D4
:102BF00000010042000000420001004100000041CD
:102C0000000100400001003F0000003F0001003EC5
:102C10000000003E0001003D0000003D0001003CBE
:102C20000000003C0000003C0001003B0000003BB5
:102C30000001003A0000003A0001003900000039AC
:102C400000010038000000380000003800010037A3
:102C5000000000370001003600000036000000369A
:102C6000000100350000003500000035000100348F
:102C70000000003400000034000100330000003385
:102C8000000000330001003200000032000000327A
:102C9000000100310000003100000031000100306F
:102CA00000000030000000300001002F0000002F65
:102CB0000000002F0000002F0001002E0000002E59
:102CC0000000002E0001002D0000002D0000002D4E
:102CD0000000002D0001002C0000002C0000002C42
:102CE0000000002C0001002B0000002B0000002B36
:102CF0000000002B0001002A0000002A0000002A2A
:102D00000000002A0001002900000029000000291D
:102D10000000002900000029000100280000002810
:102D20000000002800000028000000280001002703
:102D300000000027000000270000002700000027F7
:102D400000010026000000260000002600000026EA
:102D500000000026000100250000002500000025DD
:102D600000000025000000250000002500010024CF
:102D700000000024000000240000002400000024C3
:102D800000010023000000230000002300000023B6
:102D900000000023000000230000002300010022A7
:102DA000000000220000002200000022000000229B
:102DB000000000220001002100000021000000218D
:102DC000000000210000002100000021000000217F
:102DD0000001002000000020000000200000002072
:102DE0000000002000000020000000200000002063
:102DF0000001001F0000001F0000001F0000001F56
:102E00000000001F0000001F0000001F0001001E46
:102E10000000001E0000001E0000001E0000002434
:102E2000F4D43050C38E20C2A24017828B7011128E
:102E30007A910D816CD90AA861E108C758660761CB
:102E40005143061E4B5D05C145A7041A41110409F3
:102E50003D9803713931034036DB0265339102D46A
:102E6000305402802E1D02632CEE01752AC501B07C
:102E700028A001102781018F2564012B244B01E03C
:102E8000223401AC211F018D200D01801FFC008424
:102E90001EED00971DDF00B81CD200E61BC6002007
:102EA0001BBC00641AB200B219A8000A19A0006A7B
:102EB000189900D117910040178B00B51684003186
:102EC000167E00B31579003A157300C7146F0058C9
:102ED000146A00EE1366008813630025135E00C7B2
:102EE000125B006C12570015125400C11151007092
:102EF000114F0021114B00D61049008D104700469C
:102F000010440002104200C00F4000800F3E0042FB
:102F10000F3C00060F3B00CB0E3800930E37005CD1
:102F20000E3500270E3400F30D3200C10D31009034
:102F30000D3000600D2E00320D2D00050D2C00D936
:102F40000C2B00AE0C2900850C29005C0C270035E9
:102F50000C27000E0C2600E80B2400C40B2400A054
:102F60000B23007D0B23005A0B2100390B21001885
:102F70000B2000F80A1F00D90A1E00BB0A1E009D84
:102F80000A1D00800A1D00630A1C00470A1B002C52
:102F90000A1B00110A1A00F7091A00DD091900C4FA
:102FA000091900AB091900920917007B0918006381
:102FB0000917004C09160036091600200916000AE8
:102FC000091500F5081500E0081400CC081400B835
:102FD000081400A4081400900813007D0812006B68
:102FE0000813005808120046081200340811002384
:102FF0000811001208110001081100F0071000E08C
:10300000071000D0071000C0071000B0070F00A184
:1030100007100091070E0083070F0074070F00656B
:10302000070E0057070E0049070E003B070D002E44
:10303000070E0020070D0013070D0006070D00F90D
:10304000060C00ED060D00E0060C00D4060C00C8CE
:10305000060C00BC060C00B0060C00A4060B009980
:10306000060C008D060B0082060B0077060B006C29
:10307000060B0061060A0057060B004C060A0042C8
:10308000060A0038060A002E060A0024060A001A5C
:10309000060A001006090007060A00FD050900F4EB
:1030A000050900EB050900E2050900D9050900D072
:1030B000050900C7050900BE050900B5050800ADF2
:1030C000050800A50509009C050800940508008C6A
:1030D000050800840508007C050800740508006CDC
:1030E000050700650508005D050700560508004E48
:1030F00005070047050700400508003805070031AF
:103100000507002A050700230507001C0506001611
:103110000507000F0507000805060002050700FB6C
:10312000040600F5040700EE040600E8040600E2C9
:10313000040700DB040600D5040600CF040600C91E
:10314000040600C3040600BD040600B7040600B16F
:10315000040500AC040600A6040600A00405009BBC
:1031600004060095040500900406008A0405008505
:10317000040500800406007A04050075040500704B
:103180000405006B04050066040500610405005C8D
:1031900004050057040500520405004D04050048CD
:1031A000040500430405003E0404003A040500350C
:1031B000040500300404002C040500270404002347
:1031C0000405001E0404001A04040016040500117E
:1031D0000404000D040400090405000404040000B4
:1031E000040400FC030400F8030400F4030400F0EA
:1031F000030400EC030400E8030400E4030400E01B
:10320000030400DC030400D8030400D4030400D04A
:10321000030400CC030400C8030300C503030070CB
:10322000012C0190012701B0012201C0011D01F014
:103230000118011002130130020E01600209019011
:10324000020401C002FF000003FA004003F5008001
:1032500003F000D003EB002004E6007004E100E07E
:1032600004DC004005D700C005D2004006CD00D0E8
:1032700006C8008007C3003008BE00F008B900C0CF
:1032800009B400B00AAF00B00BAA00D00CA5000032
:103290000EA000500F9B00C010960050129100002D
:1032A000148C00C0158700B0178200B0197D00D0C3
:1032B0001B7800001E730040206E0090226900F011
:1032C00024640040275F0090295A00E02B5500102D
:1032D0002E500020304B0010324600E03341009069
:1032E000353C001037370070383200A0392D00B05F
:1032F0003A2800A03B2300603C1E00103D190090BE
:103300003D1400103E0F00703E0A00C03E05000054
:103310003F0000403FFBFF803FF6FFC03FF1FF1042
:1033200000C90210012C014001220170011801B0F6
:10333000010E01F00104015002FA00B002F0003069
:1033400003E600D003DC009004D2007005C800A0A2
:1033500006BE000008B400B009AA00D00BA00060AF
:103360000E960060118C000015820020197800C0B4
:103370001D6E00A0226400B0275A00902C5000005F
:10338000314600E0343C0010383200903A280060AA
:103390003C1E00A03D1400803E0A00203F00004D6E
:1033A0006F74696F6E00473238004175746F206822
:1033B0006F6D6500473239004732380A47323900AD
:1033C0004C6576656C2062656400426564204C65DE
:1033D00076656C696E67004F6E004F6666004265E9
:1033E00064204C6576656C696E6700466164652093
:1033F0004865696768740046616465204865696767
:1034000068740046616465204865696768740050A7
:10341000726F6265205A204F666673657400507241
:103420006F6265205A204F66667365740050726F34
:103430006265205A204F6666736574004C65766538
:103440006C20636F726E657273004C6F61642073E1
:10345000657474696E67730053746F726520736569
:103460007474696E6773004175746F20686F6D6561
:1034700000473238005370656564004E6F7A7A6C8D
:1034800065004265640046616E2073706565642066
:10349000310046616E207370656564203200466CB1
:1034A0006F77005A2D4F66667365743A2000486F37
:1034B00074656E642054656D7000426564205465C7
:1034C0006D700048656967687420416D6F756E7432
:1034D000005369646520506F696E74730046696CAF
:1034E0006C2D696E20416D6F756E74004D656D6F4A
:1034F000727920536C6F7400466164652048656979
:10350000676874004572726F722077726974696EB1
:103510006720746F20454550524F4D210A003637C1
:1035200026033C3D380E2E303E121A1C1808440A61
:10353000FF430809070001627573793A20706175CD
:1035400073656420666F7220696E7075740A00621C
:103550007573793A2070617573656420666F7220A7
:10356000757365720A00627573793A2070726F63C1
:10357000657373696E670A004D363030004B494CF5
:103580004C20636175736564206279204B494C4C13
:1035900020627574746F6E2F70696E0A004B494C0F
:1035A0004C2063617573656420627920746F6F20AD
:1035B0006D75636820696E616374697665207469EE
:1035C0006D65202D2063757272656E7420636F6D5A
:1035D0006D616E643A2000506C65617365207265A0
:1035E000736574005052494E5445522048414C5422
:1035F0004544004B494C4C45442E20005072696EA6
:103600007465722068616C7465642E206B696C6CE3
:1036100028292063616C6C6564210A006563686F0A
:103620003A004572726F723A00204A0020204D34F1
:1036300032312049002020473239204939390A00E7
:103640006163746976650A00696E000020537973BE
:1036500074656D2076312E303120004732380044B9
:10366000697361626C652073746570706572730054
:103670004D3834004C6576656C20636F726E6572F0
:103680007300556E696669656420426564204C6507
:1036900076656C696E67004175746F20686F6D6543
:1036A00000473238004D6F76652061786973004DB0
:1036B00061696E003F005374617274207072696EAC
:1036C00074200043616E63656C005072696E740013
:1036D00043616E6E6F7420656E74657220737562DF
:1036E0006469723A2000022E2E004D61696E00500E
:1036F00072656865617420504C4120456E640050CD
:1037000072656865617420504C41204265640050C8
:1037100072656865617420504C410054656D706538
:1037200072617475726500507265686561742041DC
:10373000425320456E640050726568656174204193
:10374000425320426564005072656865617420418F
:1037500042530054656D7065726174757265004303
:103760006F6F6C646F776E0050726568656174206E
:10377000414253005072656865617420504C4100AD
:1037800046616E20737065656420320046616E206C
:10379000737065656420320046616E2073706565E4
:1037A0006420310046616E207370656564203100CD
:1037B00042656400426564004E6F7A7A6C65004E23
:1037C0006F7A7A6C65004D61696E003F004E6578D6
:1037D0007420636F726E657200446F6E65004E6593
:1037E00078740053746F72652073657474696E67C2
:1037F000730042656400426564004E6F7A7A6C65BE
:10380000004E6F7A7A6C650046616E207370656554
:10381000640046616E20737065656400436F6E6678
:10382000696775726174696F6E004C6F61642073B3
:10383000657474696E677300526573746F72652086
:103840006661696C736166650053746F726520739D
:10385000657474696E677300507265686561742081
:1038600041425320636F6E660050726568656174F3
:1038700020504C4120636F6E66004F6666004F6EAD
:103880000052756E6F75742053656E736F720050C1
:10389000726F6265205A204F6666736574005072BD
:1038A0006F6265205A204F666673657400416476C6
:1038B000616E6365642053657474696E6773004D4F
:1038C00061696E004D37303220542564004D36302A
:1038D0003020423020542564004D373032203B25C3
:1038E00064004D37303120542564004368616E67B1
:1038F000652066696C616D656E74005072656865FF
:10390000617420437573746F6D00507265686561F2
:103910007420414253005072656865617420504CB8
:1039200041005072656865617420437573746F6DF2
:10393000004261636B00436F6E74696E7565004F82
:103940006666004F6E0052756E6F75742053656E1B
:10395000736F72005075726765206D6F72650052EB
:103960004553554D45204F5054494F4E533A005002
:1039700052494E542050415553454400554E4C4FEA
:1039800041442046494C414D454E54004C4F414422
:103990002046494C414D454E540020204E6F7A7AC6
:1039A0006C653A200020005061726B696E672E2EA4
:1039B0002E00746F2073746172740066696C616D9F
:1039C000656E74206368616E676500576169742075
:1039D000666F720066696C616D656E7420756E6CE1
:1039E0006F6164005761697420666F7200506C6586
:1039F00061736520776169742E2E2E004E6F7A7A7E
:103A00006C652068656174696E6700746F20686515
:103A10006174206E6F7A7A6C6500507265737320E2
:103A2000627574746F6E00746F20636F6E74696E6C
:103A3000756500616E6420707265737320627574C1
:103A4000746F6E00496E736572742066696C616D87
:103A5000656E740043616E6E6F74206F70656E20CA
:103A6000737562646972200053442063617264203C
:103A70006F6B0A006F70656E526F6F7420666169BC
:103A80006C65640A00766F6C756D652E696E69747D
:103A9000206661696C65640A00534420696E69742C
:103AA000206661696C0A004D3234004D32332025A6
:103AB000730057726974696E6720746F2066696C51
:103AC000653A20002E0A006F70656E206661696C91
:103AD00065642C2046696C653A20002E0A006F70E0
:103AE000656E206661696C65642C2046696C653A78
:103AF000200046696C652073656C65637465640AB3
:103B0000002053697A653A200046696C65206F7021
:103B1000656E65643A2000667265736800646F695B
:103B20006E67002066696C653A20004E6F77200052
:103B3000454E4420535542524F5554494E450A0074
:103B40002220706F73002220706172656E743A22B9
:103B500000535542524F5554494E452043414C4C19
:103B6000207461726765743A2200747279696E67B5
:103B700020746F2063616C6C207375622D67636FB6
:103B800064652066696C6573207769746820746F5A
:103B90006F206D616E79206C6576656C732E204D9B
:103BA0004158206C6576656C2069733A310A00458E
:103BB00072723A207574663820666F6E74206E6F6C
:103BC0007420696E697469616C697A65642E004558
:103BD00072723A207574663820666F6E74206E6F4C
:103BE0007420696E697469616C697A65642E004538
:103BF00072723A207574663820666F6E74206E6F2C
:103C00007420696E697469616C697A65642E00005C
:103C1000060C00FE07022603BC017FFE08FE08FE1C
:103C200005080806000040F0C88888987810050844
:103C300008060000C0F88888888888F80505050609
:103C400000012030F830200508080600002070F838
:103C500020202020E00509090600FF2070A8A8B850
:103C600088887020050606060001E08CEA8C8A0A26
:103C70000509090600FFF8A88888888888A8F8053B
:103C80000A0A0600FE205050505088A8A8887003E9
:103C9000030306000340A040FFFFFFFFFFFFFFFFFD
:103CA000FFFFFFFFFFFFFFFFFFFFFFFFFFFF000022
:103CB000000605FF01070706020080808080800063
:103CC00080030303060105A0A0A005060606000068
:103CD00050F85050F8500509090600FF2070A8A0C0
:103CE0007028A87020050707060000C8C8102040EB
:103CF000989805070706000040A0A040A89068011A
:103D000003030602058080800309090601FF2040A5
:103D1000408080804040200309090601FF80404028
:103D200020202040408005070706000020A87020C2
:103D300070A8200505050600012020F820200203B8
:103D4000030601FFC04080050101060003F80202DE
:103D500002060100C0C00507070600000810102079
:103D6000404080050707060000708898A8C8887042
:103D700003070706010040C040404040E005070738
:103D8000060000708808102040F8050707060000AC
:103D9000F80810300888700507070600001030503A
:103DA00090F81010050707060000F880F008088852
:103DB00070050707060000304080F088887005070E
:103DC00007060000F808101020202005070706004D
:103DD0000070888870888870050707060000708862
:103DE0008878081060020505060100C0C000C0C048
:103DF0000206060601FFC0C000C04080030505069C
:103E000001012040804020050303060002F800F86D
:103E100003050506010180402040800507070600D4
:103E20000070881020200020050707060000708819
:103E3000B8A8B88070050707060000708888F88861
:103E40008888050707060000F04848704848F005D4
:103E500007070600007088808080887005070706C5
:103E60000000F04848484848F0050707060000F8F9
:103E70008080F08080F8050707060000F88080F059
:103E80008080800507070600007088808098887011
:103E9000050707060000888888F8888888030707D0
:103EA000060100E04040404040E0050707060000F2
:103EB000381010101090600507070600008890A0C9
:103EC000C0A0908805070706000080808080808061
:103ED000F805070706000088D8A88888888805079D
:103EE000070600008888C8A8988888050707060084
:103EF0000070888888888870050707060000F088A9
:103F000088F080808005070706000070888888A8F0
:103F10009068050707060000F08888F0A0908805E3
:103F2000070706000070888070088870050707067C
:103F30000000F82020202020200507070600008828
:103F40008888888888700507070600008888888820
:103F500050502005070706000088888888A8A850C8
:103F60000507070600008888502050888805070745
:103F70000600008888502020202005070706000042
:103F8000F80810204080F80309090601FFE080804E
:103F90008080808080E00507070600008040402088
:103FA0001010080309090601FFE02020202020202E
:103FB00020E00503030600052050880501010600E6
:103FC000FEF80303030601058040200505050600F1
:103FD0000070087888780507070600008080F08860
:103FE0008888F00505050600007080808870050748
:103FF0000706000008087888888878050505060007
:10400000007088F08070050707060000304840E027
:104010004040400507070600FE70888888780870D1
:104020000507070600008080F08888888803070756
:104030000601004000C0404040E00409090601FEBE
:104040001000301010101090600507070600008067
:10405000808890E09088030707060100C040404038
:104060004040E0050505060000D0A8A8A8A8050561
:1040700005060000B0C888888805050506000070A0
:10408000888888700507070600FEF0888888F08019
:10409000800507070600FE788888887808080505E7
:1040A00005060000B0C88080800505050600007880
:1040B000807008F00507070600002020F820202067
:1040C0001805050506000088888898680505050616
:1040D000000088888850200505050600008888A80B
:1040E000A8500505050600008850205088050707E0
:1040F0000600FE88888850204080050505060000DF
:10410000F8102040F80309090601FF2040404080D4
:10411000404040200109090602FF808080808080A5
:104120008080800309090601FF8040404020404014
:10413000408005030306000248A890FF496E666FA1
:104140002073637265656E0047726964204D657304
:1041500068204C6576656C696E6700332D506F6919
:104160006E74204C6576656C696E67004732392045
:104170004A300055424C20546F6F6C7300473239FF
:10418000205033205220432E256900496E666F204F
:1041900073637265656E004D616E75616C20466972
:1041A0006C6C2D696E004732392050322042205409
:1041B0003000536D6172742046696C6C2D696E001D
:1041C0004732392050332054300046696C6C2D69D9
:1041D0006E20416D6F756E740046696C6C2D696E52
:1041E00020416D6F756E74004275696C64204D6579
:1041F0007368004D65736820696E76616C696461EF
:104200007465642E0A00496E666F2073637265657B
:104210006E00496E76616C696461746520436C6FF1
:104220007365737400473239204900496E76616CBA
:10423000696461746520416C6C00436F6E74696ED3
:10424000756520426564204D6573680047323920EA
:10425000503120430046696C6C2D696E204D6573AA
:1042600068004275696C6420436F6C64204D65730F
:1042700068004732380A47323920503100427569A8
:104280006C6420437573746F6D204D6573680042D4
:1042900075696C64204D657368202841425329007C
:1042A0004732380A4D313930205338300A4D3130D9
:1042B0003920533235300A4732392050310A4D31D6
:1042C00030342053300A4D313430205330004275A1
:1042D000696C64204D6573682028504C4129004763
:1042E00032380A4D313930205336300A4D313039A9
:1042F00020533230350A4732392050310A4D31309F
:10430000342053300A4D3134302053300055424C64
:1043100020546F6F6C73004D313137204D657368D9
:104320002025692073617665640047323920532562
:1043300069004D313137204D657368202569206C47
:104340006F6164656400473239204C256900536110
:10435000766520426564204D657368004C6F61642A
:1043600020426564204D657368004D656D6F7279FC
:1043700020536C6F74004D656D6F727920536C6FB4
:1043800074004E6F2073746F7261676500556E69BB
:104390006669656420426564204C6576656C696E6B
:1043A000670047323920503420582573205925732F
:1043B0002052256900202D2D2D2D2D000000803F3D
:1043C0008EE35C428EE3DA42AAAA23438EE359438A
:1043D000390E8843AA2AA3431C47BE438E63D943A0
:1043E0000080F44339CE0744725C1544AAEA2244A3
:1043F000E37830441C073E4455954B440000803F11
:10440000555561425555DF420000274355555E43DF
:1044100055D58A430080A643AA2AC24355D5DD4319
:104420000080F94355950A44AA6A1844004026447E
:1044300055153444AAEA414400C04F44220A0055AD
:104440006E6B6E6F776E20636F6D6D616E643A2078
:10445000220020746F6F206C6F6E67206578747215
:104460007573696F6E2070726576656E7465640A27
:104470000020636F6C6420657874727573696F6E69
:104480002070726576656E7465640A003F4D6573D1
:104490006820746F6F2062696720666F72204545DF
:1044A00050524F4D2E0A003F556E61626C6520746C
:1044B0006F2073617665206D657368206461746137
:1044C0002E0A003F556E61626C6520746F206C6F20
:1044D0006164206D65736820646174612E0A002C2C
:1044E0000100002C0100006400000088130000009F
:1044F000009643000096430000A0400000C8410021
:1045000000A0420000A0420000C8430000BA42558B
:104510006E696669656420426564204C6576656CE9
:10452000696E67003A0A0020204D363033200020A3
:10453000204D34313220530046696C616D656E74D4
:104540002072756E6F75742073656E736F723A0AA0
:10455000002055004C0046696C616D656E74206CDE
:104560006F61642F756E6C6F6164206C656E67742B
:1045700068733A0A0020204D383531205A005A2DF0
:1045800050726F6265204F66667365740020440048
:1045900020490020204D3330312050005049442024
:1045A00073657474696E67733A0A0020460020428E
:1045B0000020480020204D3134352053004D6174D7
:1045C000657269616C2068656174757020706172D4
:1045D000616D65746572733A0A00206D6573686574
:1045E000732E0A0A00454550524F4D2063616E20DC
:1045F000686F6C6420000A416374697665204D65BC
:10460000736820536C6F743A2000205A0020204DAC
:104610003432302053003A0A0020204D3431322009
:10462000530046696C616D656E742052756E6F75CE
:10463000742053656E736F723A0A00205A00205935
:104640000020204D323036205800486F6D65206FB5
:1046500066667365743A0A00204500205A002059A6
:104660000020580020540020530020204D323035C7
:1046700020420020453C6D61785F655F6A65726B22
:104680003E0020583C6D61785F785F6A65726B3ED2
:1046900020593C6D61785F795F6A65726B3E205A84
:1046A0003C6D61785F7A5F6A65726B3E004164764B
:1046B000616E6365643A20423C6D696E5F73656745
:1046C0006D656E745F74696D655F75733E20533CF4
:1046D0006D696E5F66656564726174653E20543C09
:1046E0006D696E5F74726176656C5F666565647234
:1046F0006174653E0020540020520020204D32306D
:1047000034205000416363656C65726174696F6E3B
:104710002028756E6974732F7332293A20503C70CB
:1047200072696E745F616363656C3E20523C7265B2
:1047300074726163745F616363656C3E20543C74A2
:10474000726176656C5F616363656C3E0A0020454B
:1047500000205A0020590020204D323031205800CE
:104760004D6178696D756D20416363656C6572613B
:1047700074696F6E2028756E6974732F7332293ACD
:104780000A00204500205A0020590020204D3230D8
:10479000332058004D6178696D756D2066656564DC
:1047A00072617465732028756E6974732F73293A6A
:1047B0000A0053746570732070657220756E697499
:1047C0003A0A0020204D3230302044300A002020A8
:1047D0004D3230302044002044697361626C65645E
:1047E0000A0046696C616D656E7420736574746946
:1047F0006E67733A0020204D3134392043203B202E
:10480000556E69747320696E2043656C73697573A6
:104810000A0020286D6D29002020473231202020F9
:10482000203B20556E69747320696E206D6D000207
:1048300000000000000000600000000000FC00001C
:104840000FF00000000007E00000000001861FC01C
:1048500018700000000000603C0C000001830C6038
:1048600010300000000000603C0C000001830C30A0
:104870003030000000000060000C000000030C1845
:104880003000000000000060003F0F3C00030C0CF3
:104890006001DF0FE0FE00601C1C061800060C0C17
:1048A0006000F318318300600C0C0318001E0C0C20
:1048B0006000E030398300600C0C033000030C0C06
:1048C0006000C030380F00600C0C033000018C0C0D
:1048D0006000C03FF8FB00600C0C033000018C0C42
:1048E0006030C030018300600C0C01F001818C0C41
:1048F0006030C030018300600C0C00E001818C1836
:104900003030C018318300600C0C40E001838C30E3
:104910001860C00C6187C0E01C0CC06000C30C6054
:104920000FC3F007C0FFC7FC7F0781C0007E1FC018
:104930000000000000000000000007000000000070
:104940000000000000000000000007000000000060
:1049500001FFFFFFFFFFFFFFFFFFFFFFFFFF0FFF55
:10496000FFFFFFFFFFFFFFFFFFFFFFFF1E00000035
:104970000000000000000007FFFF380000000000FA
:10498000000000000003FFFF7000000000000000B6
:1049900000000001FFFF60000000000000000000B8
:1049A0000000FFFF600000000000000000000000A9
:1049B0007FFFC000000000000000007800003FFF03
:1049C000C00FC0FC00000000007818001FFFC03FAF
:1049D000E1FF0000000000783C000FFFC07FF3FF04
:1049E0008000000000783C0007FFC0FFFFFFC00010
:1049F000000000783C0003FFC1F87F87E000000062
:104A00000078000001FFC1F03F03E00000000078E3
:104A1000000000FFC1E01E01E01F0003E0783C033E
:104A2000F07FC1E01E01E07FC00FF8783C07FC3F3B
:104A3000C1E01E01E1FFE01FFC783C0FFE1FC1E05A
:104A40001E01E3FFF03FFE783C1FFE0FC1E01E0198
:104A5000E3F3F83F3E783C3F3F07C1E01E01E7E04B
:104A6000FC7C1F783C3E1F07C1E01E01E7C07C7C38
:104A70000F783C3C0F03C1E01E01E7807C780F7883
:104A80003C3C0F03C1E01E01E7803C7800783C3CD1
:104A90000F03C1E01E01E7803C7800783C3C0F0327
:104AA000C1E01E01E7803C7800783C3C0F03C1E088
:104AB0001E01E7C03C7800783C3C0F03C1E01E01BA
:104AC000E3E03C78007C3C3C0F03C1E01E01E3FFC7
:104AD0003FF8007FBC3C0F03C1E01E01E1FF3FF83F
:104AE000003FBFFC0F03C1E01E01E0FF3FF8001FC5
:104AF000BFFC0F03C1E01E01E07F3FF8000FBFFCC9
:104B00000F0360000000000000000000000000072C
:104B100060000000000000000000000000067000BF
:104B200000000000000000000000000E380000003F
:104B30000000000000000000001C1E00000000003B
:104B400000000000000000780FFFFFFFFFFFFFFFE5
:104B5000FFFFFFFFFFF001FFFFFFFFFFFFFFFFFF72
:104B6000FFFFFF802020506C616E6E65724275669B
:104B700066657242797465733A20002046726565F5
:104B8000204D656D6F72793A2000436F6D70696CCE
:104B900065643A204A616E20323720323032300A62
:104BA00000207C20417574686F723A202845766732
:104BB000656E792D5350422C2043522D31302053B5
:104BC00035290A00323031392D30372D303500206B
:104BD0004C61737420557064617465643A2000629E
:104BE00075676669782D322E302E780A004D617215
:104BF0006C696E0020536F66747761726520526530
:104C00007365740A00205761746368646F6720528B
:104C1000657365740A002042726F776E206F757439
:104C20002052657365740A002045787465726E6160
:104C30006C2052657365740A00506F776572557009
:104C40000A0073746172740A006175746F25632EB3
:104C500067004C6F6164696E672073657474696E78
:104C600067732066726F6D2053440A006572726F1D
:104C7000722077726974696E6720746F2066696C40
:104C8000650A00446F6E6520736176696E67206601
:104C9000696C652E0A004D323900456E6473746F7D
:104CA0007073202563202563202563202563002061
:104CB0005A3A0020593A0020583A00656E647374DD
:104CC0006F7073206869743A2000473237002008FB
:104CD0002046616374002008204661637400200848
:104CE000204D6178002008204D6178002008204D7B
:104CF000696E002008204D696E004F6666004F6E99
:104D0000004175746F74656D7000416476616E6307
:104D100065642053657474696E67730056547261DC
:104D200076206D696E005654726176206D696E0052
:104D3000566D696E00566D696E00566D617820453E
:104D400000566D6178204500566D6178205A0056F6
:104D50006D6178205A00566D6178205900566D615A
:104D600078205900566D6178205800566D61782082
:104D70005800416476616E6365642053657474699C
:104D80006E677300416D6178204500416D61782048
:104D90004500416D6178205A00416D6178205A00CC
:104DA000416D6178205900416D6178205900416D55
:104DB0006178205800416D6178205800412D74724F
:104DC0006176656C00412D74726176656C00412DD1
:104DD0007265747261637400412D726574726163EF
:104DE0007400416363656C00416363656C004164FA
:104DF00076616E6365642053657474696E677300D1
:104E000050726F62696E67206661696C65640A0042
:104E100050726F62696E67206661696C6564002418
:104E2000F4D43050C38E20C2A24017828B7011126E
:104E30007A910D816CD90AA861E108C758660761AB
:104E40005143061E4B5D05C145A7041A41110409D3
:104E50003D9803713931034036DB0265339102D44A
:104E6000305402802E1D02632CEE01752AC501B05C
:104E700028A001102781018F2564012B244B01E01C
:104E8000223401AC211F018D200D01801FFC008404
:104E90001EED00971DDF00B81CD200E61BC60020E7
:104EA0001BBC00641AB200B219A8000A19A0006A5B
:104EB000189900D117910040178B00B51684003166
:104EC000167E00B31579003A157300C7146F0058A9
:104ED000146A00EE1366008813630025135E00C792
:104EE000125B006C12570015125400C11151007072
:104EF000114F0021114B00D61049008D104700467C
:104F000010440002104200C00F4000800F3E0042DB
:104F10000F3C00060F3B00CB0E3800930E37005CB1
:104F20000E3500270E3400F30D3200C10D31009014
:104F30000D3000600D2E00320D2D00050D2C00D916
:104F40000C2B00AE0C2900850C29005C0C270035C9
:104F50000C27000E0C2600E80B2400C40B2400A034
:104F60000B23007D0B23005A0B2100390B21001865
:104F70000B2000F80A1F00D90A1E00BB0A1E009D64
:104F80000A1D00800A1D00630A1C00470A1B002C32
:104F90000A1B00110A1A00F7091A00DD091900C4DA
:104FA000091900AB091900920917007B0918006361
:104FB0000917004C09160036091600200916000AC8
:104FC000091500F5081500E0081400CC081400B815
:104FD000081400A4081400900813007D0812006B48
:104FE0000813005808120046081200340811002364
:104FF0000811001208110001081100F0071000E06C
:10500000071000D0071000C0071000B0070F00A164
:1050100007100091070E0083070F0074070F00654B
:10502000070E0057070E0049070E003B070D002E24
:10503000070E0020070D0013070D0006070D00F9ED
:10504000060C00ED060D00E0060C00D4060C00C8AE
:10505000060C00BC060C00B0060C00A4060B009960
:10506000060C008D060B0082060B0077060B006C09
:10507000060B0061060A0057060B004C060A0042A8
:10508000060A0038060A002E060A0024060A001A3C
:10509000060A001006090007060A00FD050900F4CB
:1050A000050900EB050900E2050900D9050900D052
:1050B000050900C7050900BE050900B5050800ADD2
:1050C000050800A50509009C050800940508008C4A
:1050D000050800840508007C050800740508006CBC
:1050E000050700650508005D050700560508004E28
:1050F000050700470507004005080038050700318F
:105100000507002A050700230507001C05060016F1
:105110000507000F0507000805060002050700FB4C
:10512000040600F5040700EE040600E8040600E2A9
:10513000040700DB040600D5040600CF040600C9FE
:10514000040600C3040600BD040600B7040600B14F
:10515000040500AC040600A6040600A00405009B9C
:1051600004060095040500900406008A04050085E5
:10517000040500800406007A04050075040500702B
:105180000405006B04050066040500610405005C6D
:1051900004050057040500520405004D04050048AD
:1051A000040500430405003E0404003A04050035EC
:1051B000040500300404002C040500270404002327
:1051C0000405001E0404001A04040016040500115E
:1051D0000404000D04040009040500040404000094
:1051E000040400FC030400F8030400F4030400F0CA
:1051F000030400EC030400E8030400E4030400E0FB
:10520000030400DC030400D8030400D4030400D02A
:10521000030400CC030400C8030300C503030024F7
:10522000F404D9201BC40C5C0E9804C4095F026509
:10523000077101F405F900FB04B30048048700C1BD
:105240000369005803550003034500BE023A008479
:1052500002310053022A002902250004022000E442
:10526000011C00C8011900AF011700980114008447
:10527000011300710110006101100051010E004383
:10528000010D0036010B002B010B0020010B001556
:105290000109000C01090003010800FB000800F3EC
:1052A000000800EB000700E4000600DE000600D85E
:1052B000000600D2000600CC000500C7000500C2B1
:1052C000000500BD000400B9000400B5000400B1F1
:1052D000000400AD000400A9000400A5000300A222
:1052E0000003009F0004009B00030098000300954A
:1052F00000020093000300900003008D0002008B69
:105300000003008800020086000200840003008180
:105310000002007F0002007D0002007B0002007995
:1053200000020077000100760002007400020072A3
:10533000000100710002006F0002006D0001006CAE
:105340000002006A000100690002006700010066B7
:1053500000010065000100640002006200010061BC
:10536000000100600001005F0002005D0001005CC0
:105370000001005B0001005A0001005900010058C3
:1053800000010057000100560001005500010054C3
:1053900000010053000000530001005200010051C1
:1053A000000100500001004F0001004E0000004EBF
:1053B0000001004D0001004C0001004B0000004BBB
:1053C0000001004A000100490001004800000048B7
:1053D00000010047000100460000004600010045B2
:1053E00000000045000100440001004300000043AC
:1053F00000010042000000420001004100000041A5
:10540000000100400001003F0000003F0001003E9D
:105410000000003E0001003D0000003D0001003C96
:105420000000003C0000003C0001003B0000003B8D
:105430000001003A0000003A000100390000003984
:10544000000100380000003800000038000100377B
:105450000000003700010036000000360000003672
:105460000001003500000035000000350001003467
:10547000000000340000003400010033000000335D
:105480000000003300010032000000320000003252
:105490000001003100000031000000310001003047
:1054A00000000030000000300001002F0000002F3D
:1054B0000000002F0000002F0001002E0000002E31
:1054C0000000002E0001002D0000002D0000002D26
:1054D0000000002D0001002C0000002C0000002C1A
:1054E0000000002C0001002B0000002B0000002B0E
:1054F0000000002B0001002A0000002A0000002A02
:105500000000002A000100290000002900000029F5
:1055100000000029000000290001002800000028E8
:1055200000000028000000280000002800010027DB
:1055300000000027000000270000002700000027CF
:1055400000010026000000260000002600000026C2
:1055500000000026000100250000002500000025B5
:1055600000000025000000250000002500010024A7
:10557000000000240000002400000024000000249B
:10558000000100230000002300000023000000238E
:10559000000000230000002300000023000100227F
:1055A0000000002200000022000000220000002273
:1055B0000000002200010021000000210000002165
:1055C0000000002100000021000000210000002157
:1055D000000100200000002000000020000000204A
:1055E000000000200000002000000020000000203B
:1055F0000001001F0000001F0000001F0000001F2E
:105600000000001F0000001F0000001F0001001E1E
:105610000000001E0000001E0000001E000000042C
:105620003700001E290000511B0000581000001018
:10563000090000CC040000780200004101000000D5
:10564000002100240027002A002D00300033000133
:10565000010000040107010A0100002200250028C2
:10566000002B002E0031003400020100000501086B
:10567000010B01000020002300260029002C002F30
:1056800000320000010000030106010901050505C3
:1056900005070508080808020202020A0A080804A9
:1056A00004040401010101010101010303030303D7
:1056B000030303040707070C0C0C0C0C0C0C0C0266
:1056C00002020206060606060606060B0B0B0B0B6D
:1056D0000B0B0B0102102020080810204010204066
:1056E00080020102010804020101020408102040A6
:1056F00080804020100804020180040201804020C4
:1057000010080402010804020101020408102040EC
:1057100080010204081020408000000A0B02090CDE
:105720000D0E080703040100000000000000000047
:105730000000000000000000000000000000000069
:105740000000000000121110000000000000000026
:105750000000000000000000000000000000004DFC
:105760006F766520302E3032356D6D004D6F766569
:1057700020302E316D6D004D6F766520316D6D00DE
:105780004D6F76652031306D6D004D6F766520610F
:1057900078697300486F74656E6420746F6F20635E
:1057A0006F6C64004578747275646572004D6F7635
:1057B00065205A004D6F76652059004D6F76652043
:1057C0005800466C6F7700466C6F770046616E201C
:1057D000737065656420320046616E207370656584
:1057E0006420320046616E2073706565642031006C
:1057F00046616E2073706565642031004265640007
:10580000426564004E6F7A7A6C65004E6F7A7A6CEE
:1058100065005370656564005370656564004D6193
:10582000696E004D65736820456469746F72004746
:105830003239205031004D31303920532569004D27
:105840003139302053256900473238004275696C80
:105850006420437573746F6D204D657368004265F5
:10586000642054656D70004265642054656D70005D
:10587000486F74656E642054656D7000486F746580
:105880006E642054656D70004275696C64204D65CE
:105890007368002E25690047323920503620432096
:1058A0002D00496E666F2073637265656E004865F2
:1058B0006967687420416D6F756E7400486569672B
:1058C000687420416D6F756E740045646974204D75
:1058D00065736800496E666F2073637265656E005C
:1058E00041646A757374204D657368204865696703
:1058F00068740046696E652054756E6520436C6F50
:10590000736573740047323920503420540046695F
:105910006E652054756E6520416C6C0047323920ED
:105920005034205239393920540055424C20546F9C
:105930006F6C7300473238004732362043204225CF
:105940006920482569205000496E666F2073637294
:1059500065656E0056616C6964617465204375739A
:10596000746F6D204D6573680056616C6964617475
:1059700065204D657368202841425329004732381D
:105980000A47323620432042383020483235302012
:10599000500056616C6964617465204D65736820C0
:1059A00028504C4129004732380A473236204320DC
:1059B000423630204832303520500055424C205479
:1059C0006F6F6C7300473239204A2569004C657649
:1059D000656C204D657368005369646520506F697C
:1059E0006E7473005369646520506F696E74730040
:1059F00055424C20546F6F6C7300486F6D696E6731
:105A00002058595A004C6F6164206D6D004C6F61D5
:105A100064206D6D00556E6C6F6164206D6D005576
:105A20006E6C6F6164206D6D0046696C2E20446958
:105A3000612E0046696C2E204469612E004F666617
:105A4000004F6E004520696E206D6D5E330041642D
:105A500076616E6365642053657474696E67730064
:105A6000496E76616C6964206578747275646572DC
:105A70000A007C3C3E5E2B3D3F2F5B5D3B2C2A2287
:105A80005C00486F6D696E67206661696C656400D3
:105A90006F70656E00545249474745524544003A7D
:105AA000200066696C616D656E74007A5F6D696E69
:105AB00000795F6D696E00785F6D696E0052657088
:105AC0006F7274696E6720656E6473746F70207393
:105AD00074617475730A00205A3A0020593A002004
