:100000000C947F160C94A9160C94A9160C94A9169E
:100010000C94A9160C94A9160C94A9160C94A91664
:100020000C94A9160C94497D0C94A9160C94A9164D
:100030000C94A9160C9407440C94A9160C94A916B8
:100040000C94A9160C9439B30C94FF7C0C94A9164B
:100050000C948BD40C9481D40C94A9160C94A916EE
:100060000C94A9160C94A9160C94A9160C94A91614
:100070000C94A9160C94A9160C94A9160C94A91604
:100080000C94A9160C94A9160C94A916A66DA96D2A
:100090009C6DA06DC06DC06DAD6DB16DB76DBB6D6C
:1000A000507355735A736473927392736E7376734D
:1000B0007E7388736BBC2ABB61BBA7BC61BB61BB91
:1000C00061BB61BB61BB61BB61BB61BB61BB61BB50
:1000D00061BB61BB61BB61BB61BB61BB61BB61BB40
:1000E00061BB61BB61BB61BB61BB61BB61BB61BB30
:1000F000A1BC61BB61BB61BB61BB61BB61BB61BBDF
:1001000061BB7ABC61BB61BB61BB61BB61BB61BBF5
:1001100061BB61BB61BB61BBBEBC5EBB084AD73B78
:100120003BCE016E84BCBFFDC12F3D6C74319ABDC6
:1001300056833DDA3D00C77F11BED9E4BB4C3E91EA
:100140006BAAAABE000000803F05A84CCDB2D44ED9
:10015000B93836A9020C50B9918688083CA6AAAADB
:100160002ABE000000803F004E414E494E4954597E
:10017000494E46CDCCCC3D0AD7233C17B7D1387772
:10018000CC2B329595E6241FB14F0A000020410088
:1001900000C84200401C4620BCBE4CCA1B0E5AAED2
:1001A000C59D74434F4D4D554E49434154494F4EA3
:1001B0000044525952554E004552524F5253004935
:1001C0004E464F004543484F00536C6565702E2ED8
:1001D0002E0050726F62696E67206661696C65649B
:1001E0000A0050726F62696E67206661696C6564AF
:1001F00000205A3A200020593A20004265642058D5
:100200003A20004D65736820706F696E74206361D9
:100210006E6E6F74206265207265736F6C766564B4
:100220000A00436C69636B20746F20726573756D8F
:10023000652E2E2E004E6F206D6F76652E00456E5A
:10024000642066696C65206C6973740A0042656796
:10025000696E2066696C65206C6973740A00286E8B
:100260006F2066696C65290043757272656E742033
:1002700066696C653A20005344207072696E746937
:100280006E67206279746520004E6F74205344209D
:100290007072696E74696E670A002E0A0044656C9C
:1002A0006574696F6E206661696C65642C204669AF
:1002B0006C653A200046696C652064656C65746500
:1002C000643A002569730025696D2025697300254E
:1002D00069682025696D20256973002569642025DA
:1002E00069682025696D20256973002569792025B5
:1002F0006964202569682025696D2025697300508F
:1003000072696E742074696D653A20006F666600CC
:10031000C401BF01B801B101A30144454255473AA8
:10032000004D31313320530020573A00426564209C
:10033000636F6F6C696E672E2E2E004265642068B5
:10034000656174696E672E2E2E006F6B00456E64BA
:1003500065722D35204F46462E004348414D42459B
:10036000525F54454D5045524154555245004D4FF2
:1003700054494F4E5F4D4F44455300544845524DEC
:10038000414C5F50524F54454354494F4E004155E4
:10039000544F5245504F52545F53445F535441544D
:1003A00055530050524F4D50545F535550504F527B
:1003B0005400454D455247454E43595F50415253B5
:1003C000455200434153455F4C494748545F4252B0
:1003D000494748544E45535300544F47474C455F97
:1003E0004C494748545300534F4654574152455F78
:1003F000504F574552004255494C445F5045524377
:10040000454E54004C4556454C494E475F44415477
:1004100041005A5F50524F4245004155544F4C45A0
:1004200056454C005052494E545F4A4F420050527C
:100430004F4752455353004155544F5245504F5228
:10044000545F54454D5000564F4C554D45545249FC
:100450004300454550524F4D0042494E4152595F6D
:1004600046494C455F5452414E5346455200534510
:100470005249414C5F584F4E5F584F4646004649DF
:10048000524D574152455F4E414D453A4D61726C58
:10049000696E206275676669782D322E302E78205D
:1004A000284769746875622920534F555243455F48
:1004B000434F44455F55524C3A68747470733A2FF9
:1004C0002F6769746875622E636F6D2F4D61726C52
:1004D000696E4669726D776172652F4D61726C69E4
:1004E0006E2050524F544F434F4C5F564552534924
:1004F0004F4E3A312E30204D414348494E455F54CE
:100500005950453A456E6465722D35204558545210
:10051000554445525F434F554E543A312055554945
:10052000443A63656465326132662D343161322D3F
:10053000343734382D396231322D633535633632F4
:100540006633363766660A002F2F20004D3134356A
:1005500020533C696E6465783E206F7574206F6629
:100560002072616E67652028302D31290A002054E1
:1005700000205200416363656C65726174696F6E3F
:100580003A2050005741524E494E4721204C6F7738
:10059000205A204A65726B206D6179206C65616418
:1005A00020746F20756E77616E746564207061755C
:1005B0007365732E0A004F4646004F4E00205A00C6
:1005C000205900580020204D61783A2000205A0020
:1005D000205900580020204D696E3A2000536F6664
:1005E0007420656E6473746F70733A200020466CDB
:1005F0006F773A200050726F7465637465642050A1
:10060000696E0A00496E76616C696420657874725F
:10061000756465720A0020643A0020693A0020700F
:100620003A0064697300656E0043290A0061626CD8
:10063000656420286D696E2074656D702000436FBD
:100640006C642065787472756465732061726520CE
:10065000004D65736820706F696E742063616E6E03
:100660006F74206265207265736F6C7665640A0032
:100670004D34323120696E636F727265637420701D
:100680006172616D657465722075736167650A00DA
:100690004F666673657473206170706C6965640081
:1006A0004572723A20546F6F206661722100546F58
:1006B0006F206661722066726F6D2072656665726A
:1006C000656E636520706F696E740A00454550520F
:1006D0004F4D204F4B0A003F5A206F7574206F66B4
:1006E0002072616E676520282D323020746F2032B1
:1006F00030290A0050726F6265205A204F66667377
:1007000065743A2000496E76616C6964206578747E
:1007100072756465720A0000006143000061430065
:1007200000964300000000000000000000000029C7
:100730000A002062797465733B2063726320005362
:10074000657474696E67732053746F7265642028D2
:1007500000454550524F4D206461746173697A655C
:10076000206572726F722E0A00290A002062797465
:1007700065733B2063726320002073746F7265643D
:100780002073657474696E6773207265747269652D
:10079000766564202800202863616C63756C617441
:1007A000656429210A0020213D2000454550524F13
:1007B0004D20435243206D69736D61746368202D31
:1007C000202873746F7265642920002053697A654C
:1007D0003A2000496E6465783A2000204D61726CC1
:1007E000696E3D563637290A00454550524F4D2017
:1007F00076657273696F6E206D69736D617463687D
:100800002028454550524F4D3D0043617264206998
:100810006E73657274656400456E6465722D352073
:1008200052656164792E005072696E74696E672E2C
:100830002E2E005072696E742070617573656400AD
:100840005072696E742061626F727465640024F482
:10085000D43050C38E20C2A24017828B7011127AFE
:10086000910D816CD90AA861E108C75866076151EA
:1008700043061E4B5D05C145A7041A411104093DFD
:100880009803713931034036DB0265339102D4306D
:100890005402802E1D02632CEE01752AC501B0287A
:1008A000A001102781018F2564012B244B01E02238
:1008B0003401AC211F018D200D01801FFC00841E1E
:1008C000ED00971DDF00B81CD200E61BC600201B00
:1008D000BC00641AB200B219A8000A19A0006A1874
:1008E0009900D117910040178B00B516840031167E
:1008F0007E00B31579003A157300C7146F005814C1
:100900006A00EE1366008813630025135E00C712A9
:100910005B006C12570015125400C1115100701188
:100920004F0021114B00D61049008D104700461092
:10093000440002104200C00F4000800F3E00420FF2
:100940003C00060F3B00CB0E3800930E37005C0EC8
:100950003500270E3400F30D3200C10D3100900D2B
:100960003000600D2E00320D2D00050D2C00D90C2D
:100970002B00AE0C2900850C29005C0C2700350CDF
:1009800027000E0C2600E80B2400C40B2400A00B4B
:1009900023007D0B23005A0B2100390B2100180B7B
:1009A0002000F80A1F00D90A1E00BB0A1E009D0A7B
:1009B0001D00800A1D00630A1C00470A1B002C0A48
:1009C0001B00110A1A00F7091A00DD091900C409F1
:1009D0001900AB091900920917007B091800630977
:1009E00017004C09160036091600200916000A09DE
:1009F0001500F5081500E0081400CC081400B8082C
:100A00001400A4081400900813007D0812006B085D
:100A10001300580812004608120034081100230879
:100A200011001208110001081100F0071000E00782
:100A30001000D0071000C0071000B0070F00A1077A
:100A4000100091070E0083070F0074070F00650761
:100A50000E0057070E0049070E003B070D002E073A
:100A60000E0020070D0013070D0006070D00F90604
:100A70000C00ED060D00E0060C00D4060C00C806C4
:100A80000C00BC060C00B0060C00A4060B00990676
:100A90000C008D060B0082060B0077060B006C061F
:100AA0000B0061060A0057060B004C060A004206BE
:100AB0000A0038060A002E060A0024060A001A0652
:100AC0000A001006090007060A00FD050900F405E2
:100AD0000900EB050900E2050900D9050900D00568
:100AE0000900C7050900BE050900B5050800AD05E8
:100AF0000800A50509009C050800940508008C0560
:100B00000800840508007C050800740508006C05D1
:100B10000700650508005D050700560508004E053D
:100B200007004705070040050800380507003105A4
:100B300007002A050700230507001C050600160507
:100B400007000F0507000805060002050700FB0463
:100B50000600F5040700EE040600E8040600E204BF
:100B60000700DB040600D5040600CF040600C90414
:100B70000600C3040600BD040600B7040600B10465
:100B80000500AC040600A6040600A00405009B04B2
:100B9000060095040500900406008A0405008504FB
:100BA0000500800406007A04050075040500700441
:100BB00005006B04050066040500610405005C0483
:100BC000050057040500520405004D0405004804C3
:100BD0000500430405003E0404003A040500350402
:100BE0000500300404002C0405002704040023043D
:100BF00005001E0404001A04040016040500110474
:100C000004000D04040009040500040404000004A9
:100C10000400FC030400F8030400F4030400F003E0
:100C20000400EC030400E8030400E4030400E00310
:100C30000400DC030400D8030400D4030400D00340
:100C40000400CC030400C8030300C503030024F41C
:100C500004D9201BC40C5C0E9804C4095F0265070C
:100C60007101F405F900FB04B30048048700C103D7
:100C700069005803550003034500BE023A00840290
:100C8000310053022A002902250004022000E40159
:100C90001C00C8011900AF0117009801140084015D
:100CA0001300710110006101100051010E00430199
:100CB0000D0036010B002B010B0020010B0015016C
:100CC00009000C01090003010800FB000800F30003
:100CD0000800EB000700E4000600DE000600D80074
:100CE0000600D2000600CC000500C7000500C200C7
:100CF0000500BD000400B9000400B5000400B10007
:100D00000400AD000400A9000400A5000300A20037
:100D100003009F0004009B0003009800030095005F
:100D2000020093000300900003008D0002008B007E
:100D30000300880002008600020084000300810096
:100D400002007F0002007D0002007B0002007900AB
:100D500002007700010076000200740002007200B9
:100D60000100710002006F0002006D0001006C00C4
:100D700002006A00010069000200670001006600CD
:100D800001006500010064000200620001006100D2
:100D90000100600001005F0002005D0001005C00D6
:100DA00001005B0001005A000100590001005800D9
:100DB00001005700010056000100550001005400D9
:100DC00001005300000053000100520001005100D7
:100DD0000100500001004F0001004E0000004E00D5
:100DE00001004D0001004C0001004B0000004B00D1
:100DF00001004A00010049000100480000004800CD
:100E000001004700010046000000460001004500C7
:100E100000004500010044000100430000004300C1
:100E200001004200000042000100410000004100BA
:100E30000100400001003F0000003F0001003E00B3
:100E400000003E0001003D0000003D0001003C00AC
:100E500000003C0000003C0001003B0000003B00A3
:100E600001003A0000003A0001003900000039009A
:100E70000100380000003800000038000100370091
:100E80000000370001003600000036000000360088
:100E9000010035000000350000003500010034007D
:100EA0000000340000003400010033000000330073
:100EB0000000330001003200000032000000320068
:100EC000010031000000310000003100010030005D
:100ED000000030000000300001002F0000002F0053
:100EE00000002F0000002F0001002E0000002E0047
:100EF00000002E0001002D0000002D0000002D003C
:100F000000002D0001002C0000002C0000002C002F
:100F100000002C0001002B0000002B0000002B0023
:100F200000002B0001002A0000002A0000002A0017
:100F300000002A000100290000002900000029000B
:100F400000002900000029000100280000002800FE
:100F500000002800000028000000280001002700F1
:100F600000002700000027000000270000002700E5
:100F700001002600000026000000260000002600D8
:100F800000002600010025000000250000002500CB
:100F900000002500000025000000250001002400BD
:100FA00000002400000024000000240000002400B1
:100FB00001002300000023000000230000002300A4
:100FC0000000230000002300000023000100220095
:100FD0000000220000002200000022000000220089
:100FE000000022000100210000002100000021007B
:100FF000000021000000210000002100000021006D
:10100000010020000000200000002000000020005F
:101010000000200000002000000020000000200050
:1010200001001F0000001F0000001F0000001F0043
:1010300000001F0000001F0000001F0001001E0034
:1010400000001E0000001E0000001E00000004370B
:1010500000001E290000511B00005810000010095C
:101060000000CC040000780200004101000065632C
:10107000686F3A004572726F723A000A4D6561738B
:101080007572656420706F696E74733A0A004F461A
:10109000460A0046616465204865696768742000F7
:1010A000426564204C6576656C696E672000466118
:1010B000696C656420746F20656E61626C652042A6
:1010C0006564204C6576656C696E670A004D6573D2
:1010D0006820426564204C6576656C2064617461AB
:1010E0003A0A00496E76616C6964206D6573682EFA
:1010F0000A00206E6F7420656E74657265642E0A36
:101100000047323800206F6620004D424C204732A5
:101110003920706F696E742000290A004A206F75AB
:1011200074206F662072616E67652028302D00295B
:101130000A0049206F7574206F662072616E6765C2
:101140002028302D004D6573682070726F62696EC3
:101150006720646F6E652E0A005374617274206D8F
:101160006573682070726F62696E67207769746852
:101170002022473239205331222066697273742E3F
:101180000A004732380A4732392053320068617307
:10119000206E6F20646174612E0A004D65736820B3
:1011A000426564204C6576656C696E67200053204B
:1011B0006F7574206F662072616E67652028302D10
:1011C00035292E0A00204500205A00205900204DC4
:1011D000393220580020496E76616C696420657848
:1011E0007472756465722000486F6D6520257325E3
:1011F0007325732066697273740020666972737454
:101200000A00486F6D652000220A00556E6B6E6FF4
:10121000776E20636F6D6D616E643A2022002074DA
:101220006F6F206C6F6E6720657874727573696F6D
:101230006E2070726576656E7465640A0020636F57
:101240006C6420657874727573696F6E2070726556
:1012500076656E7465640A0043616E6E6F74206F0C
:1012600070656E2073756264697220005344206358
:10127000617264206F6B0A006F70656E526F6F74DD
:10128000206661696C65640A00766F6C756D652E09
:10129000696E6974206661696C65640A0053442054
:1012A000696E6974206661696C0A004D3234004DC4
:1012B00032332025730057726974696E6720746F2A
:1012C0002066696C653A20002E0A006F70656E20FA
:1012D0006661696C65642C2046696C653A20002E55
:1012E0000A006F70656E206661696C65642C20462B
:1012F000696C653A200046696C652073656C6563AE
:101300007465640A002053697A653A200046696C66
:1013100065206F70656E65643A200066726573685B
:1013200000646F696E67002066696C653A20004E44
:101330006F772000454E4420535542524F55544933
:101340004E450A002220706F730022207061726582
:101350006E743A2200535542524F5554494E45201F
:1013600043414C4C207461726765743A2200747278
:1013700079696E6720746F2063616C6C207375628D
:101380002D67636F64652066696C65732077697487
:101390006820746F6F206D616E79206C6576656C66
:1013A000732E204D4158206C6576656C2069733A28
:1013B000310A0000002100240027002A000000223A
:1013C00000250028002B0000002000230026002913
:1013D00000020202020202020204040404040404E1
:1013E00004030303030303030301010101010101DA
:1013F000010102040810204080010204081020406E
:10140000800102040810204080804020100804025F
:1014100001000000010200090A00000000040308A6
:1014200007000000000000000000000000000000B5
:10143000004D6F766520302E3032356D6D004D6F6A
:10144000766520302E316D6D004D6F766520316DE3
:101450006D004D6F76652031306D6D004D6F766596
:10146000206178697300486F74656E6420746F6FD3
:1014700020636F6C64004578747275646572004D0A
:101480006F7665205A004D6F76652059004D6F7656
:10149000652058007C3C3E5E2B3D3F2F5B5D3B2C26
:1014A0002A225C00022020506C616E6E65724275CB
:1014B0006666657242797465733A200020467265EB
:1014C00065204D656D6F72793A20006275676669B7
:1014D000782D322E302E780A004D61726C696E00C4
:1014E00020536F6674776172652052657365740A64
:1014F00000205761746368646F6720526573657478
:101500000A002042726F776E206F757420526573E7
:1015100065740A002045787465726E616C205265AE
:101520007365740A00506F77657255700A007374A2
:101530006172740A006175746F25632E67004C6FC9
:101540006164696E672073657474696E6773206681
:10155000726F6D2053440A006572726F7220777249
:101560006974696E6720746F2066696C650A00444F
:101570006F6E6520736176696E672066696C652E93
:101580000A004D323900456E6473746F7073202504
:101590006320256320256320256300205A3A00201C
:1015A000593A0020583A00656E6473746F70732066
:1015B0006869743A2000473238585900205A3A0076
:1015C00020593A0020436F756E7420583A00204528
:1015D0003A00205A3A0020593A00583A0020746FD5
:1015E0006F206C6F6E6720657874727573696F6EAB
:1015F0002070726576656E7465640A0020636F6C96
:101600006420657874727573696F6E207072657688
:10161000656E7465640A00000000000000000000B0
:1016200000000000002042000020420000C040579F
:1016300061726E696E673A20486F6D696E6720420D
:10164000756D702044697669736F72203C20310A91
:10165000000202040000A0400000A0400000004082
:10166000000061430000614300009643FFFFFF4616
:10167000696C2E204469612E0046696C2E204469F5
:10168000612E004F6666004F6E004520696E206D2A
:101690006D5E3300416476616E63656420536574EA
:1016A00074696E6773004D33303320553120452502
:1016B000692053256900504944204175746F747541
:1016C0006E6500504944204175746F74756E6500F5
:1016D0005049442D44005049442D44005049442D64
:1016E00049005049442D49005049442D500050496B
:1016F000442D5000200820466163740020082046D5
:10170000616374002008204D6178002008204D613D
:1017100078002008204D696E002008204D696E0079
:101720004F6666004F6E004175746F74656D700092
:10173000416476616E6365642053657474696E6795
:1017400073005072656865617420504C4120456E8D
:1017500064005072656865617420504C4120426598
:1017600064005072656865617420504C4100546596
:101770006D7065726174757265005072656865613F
:10178000742041425320456E640050726568656163
:10179000742041425320426564005072656865615F
:1017A00074204142530054656D70657261747572A6
:1017B0006500436F6F6C646F776E0050726568658B
:1017C0006174204142530050726568656174205015
:1017D0004C410046616E2073706565640046616E21
:1017E0002073706565640042656400426564004E64
:1017F0006F7A7A6C65004E6F7A7A6C65004D61691C
:101800006E00466C6F7700466C6F770046616E2005
:1018100073706565640046616E2073706565640071
:1018200042656400426564004E6F7A7A6C65004ED2
:101830006F7A7A6C6500426564205A0042656420C4
:101840005A005370656564005370656564004D61AE
:10185000696E0023646566696E652044454641559E
:101860004C545F004B6420004B6920004B702000FB
:10187000504944204175746F74756E652066696EB9
:101880006973686564212050757420746865206CE4
:10189000617374204B702C204B6920616E64204B67
:1018A0006420636F6E7374616E74732066726F6D03
:1018B0002062656C6F7720696E746F20436F6E666F
:1018C000696775726174696F6E2E680A00504944C9
:1018D000204175746F74756E65206661696C65640E
:1018E000212074696D656F75740A00453120544874
:1018F00045524D414C2052554E4157415900546874
:1019000065726D616C2052756E6177617900453149
:101910002048656174696E67206661696C65640062
:1019200048656174696E67206661696C6564005022
:101930004944204175746F74756E65206661696CE9
:101940006564212054656D706572617475726520DF
:10195000746F6F20686967680A00204B643A200042
:10196000204B693A2000204B703A20000A20436C3B
:10197000617373696320504944200A002054753A0A
:101980002000204B753A2000206D61783A2000201D
:101990006D696E3A200020643A200020626961730C
:1019A0003A2000504944204175746F74756E65206B
:1019B00073746172740A00504944204175746F74E5
:1019C000756E65206661696C6564212054656D7073
:1019D0006572617475726520746F6F2068696768DD
:1019E0000A00504944204175746F74756E65206615
:1019F00061696C6564212042616420657874727548
:101A0000646572206E756D6265720A004572723A85
:101A1000207574663820666F6E74206E6F7420694E
:101A20006E697469616C697A65642E004572723AF8
:101A3000207574663820666F6E74206E6F7420692E
:101A40006E697469616C697A65642E004572723AD8
:101A5000207574663820666F6E74206E6F7420690E
:101A60006E697469616C697A65642E0000060C0009
:101A7000FE07022603BC017FFE08FE08FE050808DB
:101A800006000040F0C8888898781005080806000D
:101A900000C0F88888888888F805050506000120B8
:101AA00030F830200508080600002070F8202020BB
:101AB00020E00509090600FF2070A8A8B8888870F2
:101AC00020050606060001E08CEA8C8A0A05090951
:101AD0000600FFF8A88888888888A8F8050A0A06FA
:101AE00000FE205050505088A8A8887003030306B9
:101AF000000340A040FFFFFFFFFFFFFFFFFFFFFFCE
:101B0000FFFFFFFFFFFFFFFFFFFFFF0000000605D5
:101B1000FF010707060200808080808000800303A9
:101B200003060105A0A0A005060606000050F85017
:101B300050F8500509090600FF2070A8A07028A8D9
:101B40007020050707060000C8C8102040989805B7
:101B5000070706000040A0A040A890680103030604
:101B600002058080800309090601FF204040808033
:101B7000804040200309090601FF804040202020CA
:101B800040408005070706000020A8702070A820AC
:101B90000505050600012020F820200203030601A8
:101BA000FFC04080050101060003F80202020601A1
:101BB00000C0C00507070600000810102040408044
:101BC000050707060000708898A8C88870030707F3
:101BD00006010040C040404040E005070706000005
:101BE000708808102040F8050707060000F8081064
:101BF0003008887005070706000010305090F81074
:101C000010050707060000F880F00808887005072F
:101C100007060000304080F088887005070706003E
:101C200000F8081010202020050707060000708823
:101C30008870888870050707060000708888780813
:101C40001060020505060100C0C000C0C002060603
:101C50000601FFC0C000C040800305050601012049
:101C600040804020050303060002F800F803050544
:101C700006010180402040800507070600007088AB
:101C800010202000200507070600007088B8A8B8BB
:101C90008070050707060000708888F88888880526
:101CA0000707060000F04848704848F00507070697
:101CB000000070888080808870050707060000F0AB
:101CC0004848484848F0050707060000F88080F0BB
:101CD0008080F8050707060000F88080F08080808B
:101CE0000507070600007088808098887005070740
:101CF000060000888888F88888880307070601009E
:101D0000E04040404040E005070706000038101062
:101D1000101090600507070600008890A0C0A090F2
:101D200088050707060000808080808080F805070E
:101D30000706000088D8A888888888050707060055
:101D4000008888C8A898888805070706000070885A
:101D50008888888870050707060000F08888F0806A
:101D6000808005070706000070888888A8906805AD
:101D70000707060000F08888F0A09088050707068E
:101D8000000070888070088870050707060000F85A
:101D9000202020202020050707060000888888884A
:101DA00088887005070706000088888888505020BA
:101DB00005070706000088888888A8A85005070737
:101DC0000600008888502050888805070706000014
:101DD00088885020202020050707060000F80810FA
:101DE000204080F80309090601FFE08080808080A0
:101DF0008080E005070706000080404020101008A2
:101E00000309090601FFE020202020202020E00512
:101E100003030600052050880501010600FEF803B3
:101E20000303060105804020050505060000700833
:101E30007888780507070600008080F0888888F099
:101E400005050506000070808088700507070600FC
:101E500000080878888888780505050600007088DD
:101E6000F08070050707060000304840E040404021
:101E70000507070600FE7088888878087005070740
:101E80000600008080F08888888803070706010024
:101E90004000C0404040E00409090601FE10003047
:101EA00010101010906005070706000080808890D1
:101EB000E09088030707060100C04040404040E032
:101EC000050505060000D0A8A8A8A8050505060078
:101ED00000B0C888888805050506000070888888D5
:101EE000700507070600FEF0888888F080800507E7
:101EF000070600FE7888888878080805050506002A
:101F000000B0C88080800505050600007880700854
:101F1000F00507070600002020F8202020180505FE
:101F20000506000088888898680505050600008871
:101F3000888850200505050600008888A8A8500557
:101F4000050506000088502050880507070600FE9A
:101F500088888850204080050505060000F810207C
:101F600040F80309090601FF2040404080404040FE
:101F7000200109090602FF808080808080808080A7
:101F80000309090601FF8040404020404040800591
:101F9000030306000248A890FF46696C616D656EF8
:101FA000740054656D706572617475726500436F7D
:101FB0006E66696775726174696F6E004C657665EF
:101FC0006C696E6720446F6E6521004D6F766520E9
:101FD0005A00473239205332004E65787420506FD2
:101FE000696E74002569202F20257500473239203D
:101FF00053310047323920533200436C69636B2000
:10200000746F20426567696E00486F6D696E672066
:1020100058595A004732380053746F7265207365FF
:102020007474696E6773004C6F61642073657474B7
:10203000696E67730050726F6265205A204F666642
:102040007365740050726F6265205A204F66667324
:10205000657400426564205A00426564205A004657
:10206000616465204865696768740046616465203D
:10207000486569676874004F6666004F6E00426588
:1020800064204C6576656C696E67004C6576656C9E
:1020900020626564004D6F74696F6E004C6F6164FF
:1020A0002073657474696E677300526573746F7220
:1020B00065206661696C736166650053746F726553
:1020C0002073657474696E67730050726F62652067
:1020D0005A204F66667365740050726F6265205AAD
:1020E000204F666673657400416476616E63656453
:1020F0002053657474696E6773004D61696E0025C5
:10210000753A2530327500253032753A25303275F2
:102110000025756420253032753A2530327500204F
:102120002020202020200020202020001FE0201040
:1021300020102010102010202010201030300840D7
:10214000048003001FE03FF03FF03FF01FE01FE07E
:102150003FF03FF03FF00FC0078003003FFFF03833
:10216000007030FC3020FC102078102030102C0043
:10217000D02E31D02F7BD02F7BD02E31D02C00D041
:1021800020301020781020FC1030FC303800703FD8
:10219000FFF03FFFF038007031863023871027872B
:1021A000902F87D02F03D020301020781020781067
:1021B0002030102F03D02F87D0278790238710310E
:1021C00086303800703FFFF01FFFF81FFFF8041043
:1021D000400208200208200410400820801041001E
:1021E0001041000820800410400000001FFFF81F6D
:1021F000FFF84D61782054656D703A20313235001A
:102200004D696E2054656D703A2035005442656406
:102210003A4550434F53203130304B004D617820C8
:1022200054656D703A20333030004D696E2054652E
:102230006D703A20350054303A204550434F5320BA
:102240003130304B005053553A2047656E65726906
:10225000630050726F746F636F6C3A20312E3000E0
:10226000426175643A20313135323030004D656C51
:102270007A692028437265616C69747929004D651B
:102280007368204C6576656C696E6700457874727A
:1022900075646572733A203100687474703A2F2F38
:1022A0006D61726C696E66772E6F726700456E6441
:1022B00065722D3500323031392D30372D303500F3
:1022C0006275676669782D322E302E78004D617206
:1022D0006C696E00546865726D6973746F72730017
:1022E000426F61726420496E666F005072696E744D
:1022F000657220496E666F004D61696E003F005344
:10230000746F70207072696E74004261636B005369
:10231000746F70004D3235005072696E74207061B8
:1023200075736564005061757365207072696E74B1
:10233000004D323400496E69742E2053442063618D
:102340007264004D3231005072696E742066726F93
:102350006D2053440052656C6561736520534420C1
:1023600063617264004D32320041626F75742050B7
:1023700072696E74657200436F6E6669677572612B
:1023800074696F6E0054656D706572617475726505
:10239000004D6F74696F6E00526573756D652070C6
:1023A00072696E7400436172642072656C6561735A
:1023B00065640054756E650053746F7020707269A7
:1023C0006E74005061757365207072696E74004997
:1023D0006E666F2073637265656E00626564002CC3
:1023E0002073797374656D2073746F7070656421E8
:1023F000204865617465725F49443A200042656413
:102400002068656174696E67206661696C65640047
:1024100048656174696E67206661696C6564004235
:10242000454420544845524D414C2052554E415749
:10243000415900546865726D616C2052756E617708
:1024400061790045312048656174696E6720666175
:10245000696C65640048656174696E6720666169CE
:102460006C656400453120544845524D414C205222
:10247000554E4157415900546865726D616C205248
:10248000756E6177617900202D20496E76616C69E7
:1024900064206578747275646572206E756D62650E
:1024A0007220210A0070012C0190012701B0012245
:1024B00001C0011D01F00118011002130130020ECC
:1024C000016002090190020401C002FF000003FA4A
:1024D000004003F5008003F000D003EB002004E689
:1024E000007004E100E004DC004005D700C005D224
:1024F000004006CD00D006C8008007C3003008BEEB
:1025000000F008B900C009B400B00AAF00B00BAACF
:1025100000D00CA500000EA000500F9B00C010962C
:10252000005012910000148C00C0158700B0178273
:1025300000B0197D00D01B7800001E730040206E93
:102540000090226900F024640040275F0090295A1F
:1025500000E02B5500102E500020304B001032466A
:1025600000E033410090353C0010373700703832BE
:1025700000A0392D00B03A2800A03B2300603C1E8B
:1025800000103D1900903D1400103E0F00703E0AEF
:1025900000C03E0500003F0000403FFBFF803FF6CB
:1025A000FFC03FF1FF453120544845524D414C207A
:1025B00052554E41574159004245442054484552D6
:1025C0004D414C2052554E41574159005468657257
:1025D0006D616C2052756E617761790045312045DF
:1025E00072723A204D415854454D50004572723A2E
:1025F000204D415854454D5020424544004D4158CE
:1026000054454D5020747269676765726564004572
:1026100031204572723A204D494E54454D50004587
:1026200072723A204D494E54454D50204245440067
:102630004D494E54454D5020747269676765726507
:1026400064004D383420582059205A204500202F4E
:10265000002042403A0020403A00220A00656E7194
:1026600075657565696E672022006F6B0052657332
:10267000656E643A200053544F505045442E20005C
:102680005072696E7465722073746F707065642027
:1026900064756520746F206572726F72732E2046A8
:1026A000697820746865206572726F7220616E644B
:1026B00020757365204D39393920746F2072657328
:1026C000746172742E202854656D70657261747522
:1026D00072652069732072657365742E205365746A
:1026E000206974206166746572207265737461720A
:1026F00074696E67290A004E6F20436865636B73C7
:10270000756D2077697468206C696E65206E756DD3
:102710006265722C204C617374204C696E653A209E
:10272000004E6F20436865636B73756D2077697425
:1027300068206C696E65206E756D6265722C204C28
:10274000617374204C696E653A2000636865636B41
:1027500073756D206D69736D617463682C204C61B5
:102760007374204C696E653A20004C696E65204E8A
:10277000756D626572206973206E6F74204C617391
:1027800074204C696E65204E756D6265722B312C1C
:10279000204C617374204C696E653A20004D3131D4
:1027A00030004D33310053442072656164206572FE
:1027B000726F720A00446F6E65207072696E746980
:1027C0006E672066696C650A0020573A0045204311
:1027D0006F6F6C696E672E2E2E0045204865617400
:1027E000696E672E2E2E002E0A006F70656E2066B1
:1027F00061696C65642C2046696C653A20004D6FF8
:1028000076652058004D6F76652059004D6F7665CE
:10281000205A004578747275646572004578747248
:1028200075646572004D6F7665205A004D6F766550
:102830002059004D6F76652058004D6F74696F6E9A
:102840000044697361626C652073746570706572B1
:1028500073004D383400426564204C6576656C69C0
:102860006E67004175746F20686F6D650047323880
:10287000004D6F76652061786973004D61696E0067
:102880003F005374617274207072696E742000434B
:10289000616E63656C005072696E740043616E6EA8
:1028A0006F7420656E746572207375626469723A24
:1028B0002000022E2E000152656672657368004D7D
:1028C00061696E004572726F722077726974696E09
:1028D0006720746F20454550524F4D210A000F1557
:1028E0000E1216170E1303021A1401000E0C190D06
:1028F000FF180C040001627573793A2070617573DA
:10290000656420666F7220696E7075740A00627566
:1029100073793A2070617573656420666F722075F3
:102920007365720A00627573793A2070726F63651D
:102930007373696E670A004B494C4C206361757371
:10294000656420627920746F6F206D7563682069FB
:102950006E6163746976652074696D65202D2063EE
:10296000757272656E7420636F6D6D616E643A206E
:1029700000506C6561736520726573657400505218
:10298000494E5445522048414C544544004B494C13
:102990004C45442E20005072696E74657220686147
:1029A0006C7465642E206B696C6C28292063616CE3
:1029B0006C6564210A0048617264636F6465642019
:1029C00044656661756C742053657474696E6773D1
:1029D000204C6F616465640A00F4010000F401009A
:1029E0000064000000881300000000FA430000FAB1
:1029F000430000A0400000C8410000A0420000A029
:102A0000420000C8430000BA423A0A0020204D3874
:102A10003531205A005A2D50726F6265204F66661C
:102A20007365740020440020490020204D3330316C
:102A30002050005049442073657474696E67733A7E
:102A40000A0020460020420020480020204D31345A
:102A5000352053004D6174657269616C2068656151
:102A600074757020706172616D65746572733A0A75
:102A700000205900202047323920533320580020AD
:102A80005A0020204D3432302053004D65736820A9
:102A9000426564204C6576656C696E673A0A002071
:102AA0005A0020590020204D323036205800486FFF
:102AB0006D65206F66667365743A0A0020450020D4
:102AC0005A00205900205800205400205300202094
:102AD0004D32303520420020453C6D61785F655FA6
:102AE0006A65726B3E0020583C6D61785F785F6A62
:102AF00065726B3E20593C6D61785F795F6A6572E3
:102B00006B3E205A3C6D61785F7A5F6A65726B3EFE
:102B100000416476616E6365643A20423C6D696E83
:102B20005F7365676D656E745F74696D655F7573FE
:102B30003E20533C6D696E5F6665656472617465C5
:102B40003E20543C6D696E5F74726176656C5F66A1
:102B5000656564726174653E002054002052002057
:102B6000204D323034205000416363656C657261E2
:102B700074696F6E2028756E6974732F7332293AE9
:102B800020503C7072696E745F616363656C3E20B7
:102B9000523C726574726163745F616363656C3E1D
:102BA00020543C74726176656C5F616363656C3E52
:102BB0000A00204500205A0020590020204D3230C4
:102BC000312058004D6178696D756D2041636365F2
:102BD0006C65726174696F6E2028756E6974732FED
:102BE0007332293A0A00204500205A00205900205B
:102BF000204D3230332058004D6178696D756D205D
:102C00006665656472617465732028756E69747396
:102C10002F73293A0A00537465707320706572200F
:102C2000756E69743A0A0020204D323030204430ED
:102C30000A0020204D323030204400204469736166
:102C4000626C65640A0046696C616D656E74207320
:102C5000657474696E67733A0020204D31343920F1
:102C600043203B20556E69747320696E2043656C68
:102C7000736975730A0020286D6D29002020473282
:102C800031202020203B20556E69747320696E200E
:102C90006D6D00486F6D696E67206661696C656473
:102CA000006F70656E0054524947474552454400D5
:102CB0003A20007A5F6D696E00795F6D696E007809
:102CC0005F6D696E005265706F7274696E67206522
:102CD0006E6473746F70207374617475730A00434B
:102CE00061703A0047322F4733206261642070617F
:102CF00072616D65746572730A0038E5D8DE11245F
:102D00001FBECFEFD0E4DEBFCDBF12E0A0E0B1E048
:102D1000E8EAF6EE01E00BBF02C007900D92AA347C
:102D2000B107D9F723E1AAE4B2E001C01D92A134B2
:102D3000B207E1F716E1CEE7D6E104C02197FE0124
:102D40000E94ABF2CD37D107C9F70E94F9DF0C948E
:102D500047F30C9400002F923F924F925F926F9234
:102D60007F928F929F92AF92BF92CF92DF92EF921B
:102D7000FF920F931F93CF93DF93CDB7DEB7C2546B
:102D8000D1090FB6F894DEBF0FBECDBF23968FAF2B
:102D90002397209158022FAB41E040935802809135
:102DA0009E0C8D3409F449C3843511F40C94292701
:102DB000873411F00C94442720919C0C30919D0C89
:102DC0002B31310509F48DC09CF42430310534F4E5
:102DD00022303105CCF537FF2BC02BC32430310511
:102DE00009F441C02531310511F40C94462721C363
:102DF0002A32310509F469C25CF42D31310509F438
:102E00001CC10CF40AC12E31310509F41AC111C3D9
:102E10002B35310509F491C12C35310509F491C1E7
:102E20002A35310509F005C3109257020C94462744
:102E300080915301882311F40C9446270E94014F7E
:102E40000E9404840C94462780915301882311F436
:102E50000C94462781E02230310509F080E00E9481
:102E60007ED90C94462780E50E94F44E882329F0F1
:102E70000E94304E6B017C0103C0C12CD12C760125
:102E800083E50E94F44E882361F00E94784E20E092
:102E900030E04AE754E40E945AEB0E94ABF06B0129
:102EA0007C010E941E4D8091FC02811105C060E0F2
:102EB00089EC91E00E94CE3F0E94F37CC60ED71EA3
:102EC000E81EF91E0E94F37CDC01CB018C199D09E0
:102ED000AE09BF09B7FD02C00C9446270E94C9D0B5
:102EE000F1CF0E94C06481110C94462780E090E0ED
:102EF000A0E2B1E489839A83AB83BC8380E090E055
:102F0000A7E5B3E48D839E83AF83B88780E090E02C
:102F1000A0EAB1E489879A87AB87BC8760E070E05C
:102F200080E50E94854F40E050E068EC72E44CA3DD
:102F30005DA36EA37FA340E050E060EA70E448A385
:102F400059A36AA37BA3813019F0823039F029C0DC
:102F5000BE01605E7F4FCE01099644C029853A8547
:102F60004B855C85609148037091490380914A03C9
:102F700090914B030E9438EF6B017C0120E030E020
:102F800046E953E40E94F4EA87FD06C0C12CD12C27
:102F9000B6E9EB2EB3E4FB2ECC8EDD8EEE8EFF8EEB
:102FA0001CC0E0904803F090490300914A0310913F
:102FB0004B03A984BA84CB84DC849501A601B701B4
:102FC000C8010E94F4EA87FF02C075018601C701AB
:102FD000D8018C8F9D8FAE8FBF8FBE01605E7F4FFB
:102FE000CE014C960E94E487E0904803F09049039C
:102FF00000914A0310914B032D813E814F815885EA
:1030000069817A818B819C81DE0194966D010E9499
:1030100025870E94C1890C9446278091F70287700A
:10302000873011F00C946A2760E08FE40E94A74F6C
:1030300081110C9446270C946A270E94F2510C943B
:103040004627C0904003D0904103E0904203F090A7
:10305000430388E50E94F44E811109C020E030E06E
:1030600040E252E4C701B6010E9438EF02C00E945C
:10307000784E68A779A78AA79BA7C0904403D090F1
:103080004503E0904603F090470389E50E94F44E23
:10309000811109C020E030E040E251E4C701B601EF
:1030A0000E9438EF02C00E94784E2B013C0120E0C4
:1030B00030E040E251E40E9437EF4B015C0127E130
:1030C00037EB41ED58EB0E9498F187FF02C00C945A
:1030D000462727E030E041E653E4C501B4010E94F1
:1030E000F4EA181614F40C94462720E030E040E28D
:1030F00052E468A579A58AA59BA50E9437EF6CA725
:103100007DA78EA79FA727E137EB41ED58EB0E94E3
:1031100098F187FF02C00C94462727E030E041E693
:1031200053E46CA57DA58EA59FA50E94F4EA181610
:1031300014F40C9446270C94C528409357020C9421
:10314000462745E6242E41E0342E5AE4E52E5BE086
:10315000F52EA0E4B3E0B9A7A8A76EE3C62E6BE0F6
:10316000D62E00E010E0F10181911F010E94F44E83
:10317000882309F44AC00E94784E2B013C01133089
:1031800049F0D6012D913D914D915C910E9437EF10
:103190002B013C01E8A5F9A52081318142815381B1
:1031A000C301B2010E9437EF4B015C012DEB37E305
:1031B00046E855EB0E9498F187FD0AC02DEB37E3F6
:1031C00046E855E3C501B4010E94F4EA1816ECF490
:1031D000133051F440924C0350924D0360924E03D1
:1031E00070924F0301E011C0A5019401D7016D91C8
:1031F0007D918D919C910E9438EFF70160837183DE
:1032000082839383812F0E94E4831F5FF4E0EF0E9B
:10321000F11C28A539A52C5F3F4F39A728A734E01A
:10322000C30ED11C143009F09ECF002309F449C00D
:103230002091750830917608409177085091780870
:1032400060914C0370914D0380914E0390914F0318
:103250000E945AEB0E94A5F160933A1070933B10C4
:1032600080933C1090933D1090911810809119100C
:10327000981719F00E94C04C24C00E941E4D8091E6
:103280006F00982F927081FF05C080916F008D7F35
:1032900080936F0040913A1050913B1060913C1028
:1032A00070913D1040930A0C50930B0C60930C0CE2
:1032B00070930D0C992329F080916F0082608093A8
:1032C0006F000E94C1890C94462780915301882386
:1032D00011F40C94462789E40E94F44EF82E8823BA
:1032E00021F00E94744E182F01C010E08AE40E9461
:1032F000F44E082F882319F00E94744E01C080E01C
:10330000FF2011F0133020F4002341F0833030F01F
:1033100083E092E00E9403510C94462790E1E0E4A0
:10332000F3E0A6E5BBE001900D929A95E1F7FF204E
:1033300091F044E01402F0011124E655FF4E408163
:103340005181628173814093560B5093570B609368
:10335000580B7093590B002391F054E08502F00153
:103360001124E256FF4E80819181A281B381809326
:103370005A0B90935B0BA0935C0BB0935D0B60E0DA
:1033800080E50E94A74F882381F1FF20B1F020E063
:1033900030E040E252E46091560B7091570B8091FF
:1033A000580B9091590B0E9437EF6093560B709316
:1033B000570B8093580B9093590B0023B1F020E0EA
:1033C00030E040E251E460915A0B70915B0B8091C8
:1033D0005C0B90915D0B0E9437EF60935A0B7093DA
:1033E0005B0B80935C0B90935D0B86E40E94F44E24
:1033F0008823D9F00E94784E6B017C0120E030E0F8
:10340000A9010E9498F1181684F420E030E040E70A
:1034100052E4C701B6010E9432F060932D0170930F
:103420002E0180932F01909330010E9404840C940C
:1034300046270E94B2640C94462780919C0C909180
:103440009D0C8337910509F4DFC60CF0EAC08B347C
:10345000910509F487C40CF08AC08831910509F4FC
:1034600081C20CF058C08231910509F4E4C5BCF466
:1034700097FF02C00C942627823091050CF4D9C125
:10348000419711F00C94262760E085E392E00E94BA
:10349000CE3F5E985E9815985E980C9446278531CD
:1034A000910509F441C254F5449711F00C94262774
:1034B0008DE492E00E940351109210098AEF9FE080
:1034C0000E942B768BE1EAEFFFE0DE01119601907E
:1034D0000D928A95E1F740E050E0BE016F5F7F4FAB
:1034E00080E090E00E948B69CE0101960E94D67721
:1034F0008EE392E00E9403510C9446278631910599
:1035000009F416C2479711F00C942627E0919A0C03
:10351000F0919B0C1AC28D31910509F4A9C2C4F433
:103520008A31910509F443C20CF428C28B3191050C
:1035300009F44BC24C9711F00C94262740E060E050
:1035400080919A0C90919B0C0E94296B0C944627B9
:103550008F31910509F438C30CF491C28032910582
:1035600009F4ECC28A9709F4DAC30C942627893649
:10357000910509F4EBC444F58335910509F458C568
:103580009CF48D34910509F406C40CF4EFC3813525
:10359000910509F439C58235910511F00C9426275F
:1035A000109252020C9446278535910509F475C591
:1035B0000CF441C58C35910509F488C58836910510
:1035C00009F4EDC30C9426278E36910509F40BC43B
:1035D0009CF48B36910509F40DC50CF4EDC48C36C2
:1035E000910509F457C48D36910511F00C942627E6
:1035F0000E94A4BF0C9446278037910509F450C45B
:103600000CF404C48137910509F452C48237910542
:1036100011F00C9426270E941E4D0E94C1890C9423
:1036200046278C32A1E09A0711F40C9464240CF024
:1036300077C0883C910509F4E8C60CF03FC0893793
:10364000910509F480C62CF58637910509F445C625
:1036500074F48537910511F00C94262760E0809171
:103660009A0C90919B0C0E941C400C944627873723
:10367000910509F465C68837910511F00C94262749
:1036800081E080939E0980939D090E9470D50C94DF
:1036900046278139910509F45DC634F48C389105CB
:1036A00009F428C40C9426278B39910509F45EC4CB
:1036B0008E3B910509F438C40C9426278E3C910565
:1036C00009F47CC7ACF48B3C910509F40EC734F4C3
:1036D000893C910509F4E6C60C9426278C3C91059B
:1036E00009F425C78D3C910509F455C70C9426278C
:1036F0008C3D910511F40C94B62334F4833D91056F
:1037000009F47EC70C9426278D3D910511F40C9485
:10371000C323823E910511F40C9419240C9426279E
:103720008C3AE1E09E0711F40C941826F4F58139E7
:1037300021E0920711F40C943F25C4F48E3241E04D
:10374000940711F40C94F82414F40C9479248F3217
:10375000A1E09A0711F40C943C258039914011F0B6
:103760000C9426270E941E4D0C9446278A39E1E0CE
:103770009E0709F499C364F48239914011F00C94C6
:10378000262780E00E94154B0E94C1890C94462791
:10379000843A31E0930711F40C944525853A914021
:1037A00011F40C9448250C942627883F51E0950786
:1037B00011F40C94C3261CF5853FB1E09B0711F46E
:1037C0000C94BD264CF4843F914011F00C942627B4
:1037D0000E943B2D0C944627863F21E0920711F46E
:1037E0000C94C026873F914011F00C94262761E08D
:1037F00083E50E94A74F0E94ACD60C9446278335E0
:1038000043E0940711F40C94DB263CF48C30924096
:1038100011F40C94D3260C942627803AB3E09B072E
:1038200009F4C2C1873E934011F40C9418270C94FC
:103830002627A0909A0CB0909B0C80E50E94F44E35
:10384000882359F00E94304E6B017C0111E0672BF8
:10385000682B692B31F410E004C010E0C12CD12C8E
:10386000760183E50E94F44E882311F40C946D2AAE
:103870000E94784E20E030E04AE754E40E945AEB80
:103880000E94ABF06B017C0111110BC0672B682B00
:10389000692B39F4A114B10421F0D5018C91811167
:1038A00002C010E001C011E00E941E4D112329F05A
:1038B00061E0C5010E941C4005C060E082E292E028
:1038C0000E94CE3F1091580283E08093580281E01D
:1038D00080937D02C114D104E104F104B1F00E948F
:1038E000F37CC60ED71EE81EF91E0E94F37CDC0195
:1038F000CB018C199D09AE09BF09B7FF0DC080919E
:103900007D0281110C94722A07C080917D02882368
:1039100019F00E94C9D0F9CF0E94444010927D0254
:10392000109358020C9446270E9472680C94462704
:103930000E94BF678091CF11877F8093CF110C9435
:103940004627803209F41082319680818111F9CFA7
:1039500040E061E080919A0C90919B0C0E94296B51
:103960000C9446270E949CC1882321F00E94CE67B8
:103970000E9459380E9444400C9446278091CF11F0
:1039800082FF03C08B7F8093CF11809165028130CD
:1039900089F782E0809365020E94F37C6093610264
:1039A000709362028093630290936402E3CF8091EC
:1039B000CF1183FD02C00C94462783E50E94F44E8C
:1039C00081110C94762A0C94462783E40E94AB4E16
:1039D000882319F188E692E00E9403518091A40F98
:1039E000882391F0BE016F5F7F4F81EA9FE00E94C4
:1039F000DC778E010F5F1F4FF80181918F018823C3
:103A000039F00E94C2D0F8CF8EE592E00E940351B7
:103A10008AE00E94C2D00C9446278091CF1182FF89
:103A200021C087E792E00E9403516091CB11709111
:103A3000CC118091CD119091CE114AE00E945CD3BF
:103A40008FE20E94C2D06091C7117091C81180911D
:103A5000C9119091CA114AE00E945CD30E945AD4C5
:103A60000C94462789E892E00E9403510C94462763
:103A70008091CF118E7F8093CF110C944627809137
:103A8000CF1183FD02C00C9446270E949B64809155
:103A9000CF1183FD02C00C94462760919A0C70915F
:103AA0009B0CCE014C960E9410C98C01009711F41A
:103AB0000C9446276C8D7D8D19821C8222E0AC010E
:103AC000CE0101960E94837B811102C0F12C14C0AB
:103AD000CE0101960E947EC88823C1F361E0CE0129
:103AE00001960E947E77009789F325EEDC012C93E6
:103AF0001C820E949B76F82ECE0101960E94D677FA
:103B0000B801FF2089F085EB92E00E9421548AE001
:103B10000E94C2D01092CB111092CC111092CD11F4
:103B20001092CE110C9446278DE992E00E94215408
:103B30008AE992E00E9403510C9446278091CF11AC
:103B400082FD0E941E4D8091CF1183FD02C00C9416
:103B5000462760E080E50E94A74F182F482F61E0BC
:103B600080919A0C90919B0C0E94296B83E50E9496
:103B7000F44E882381F00E94404EAB01BC0140937B
:103B8000CB115093CC116093CD117093CE1181EA7B
:103B90009FE00E943C740E94CE6711110C9446274E
:103BA0000E9459380C94462720919A0C30919B0C16
:103BB0009091CF1192609093CF1140E060E0C901E5
:103BC0000E94296B0C9446270E940A387B018C01C5
:103BD00020E831E541E050E00E94FBEEC9016DE6CE
:103BE00071E00E9464F24B015C01C801B70120E161
:103BF0003EE040E050E00E94FBEECA01B90128E13E
:103C000030E040E050E00E94FBEE762E672EC62E9C
:103C1000D72E3CE3232E312C412C512CC801B70167
:103C2000A20191010E94FBEEF62EE72ECA01B90116
:103C3000A20191010E94FBEECB018E010F5F1F4F8D
:103C40008114910499F0EF92FF927F936F936F929A
:103C50007F92BF92AF929F928F928BEE92E09F9352
:103C60008F931F930F930E948CEA13C0A114B10489
:103C7000B1F0EF92FF927F936F936F927F92BF921A
:103C8000AF928BED92E09F938F931F930F930E94BF
:103C90008CEA0FB6F894DEBF0FBECDBF30C0CD2882
:103CA00079F0EF92FF927F936F936F927F928FECF8
:103CB00092E09F938F931F930F930E948CEAE9CF1A
:103CC000892B69F0EF92FF927F936F9387EC92E0DC
:103CD0009F938F931F930F930E948CEADACFEF92FA
:103CE000FF9283EC92E09F938F931F930F930E9418
:103CF0008CEA0F900F900F900F900F900F9060E054
:103D0000C8010E941C400E943854B8018FEF92E015
:103D10000E9421548AE00E94C2D00C94462783E579
:103D20000E94F44E882311F40C9446270E94504EB2
:103D3000F82E6FEF7FEF80E50E94984F8C0197FF80
:103D400002C00C944627E82E60E089E40E94A74F49
:103D500081110C94872A802F0E9469E6811186C503
:103D60000C94872A0E9459380C944627809165024A
:103D7000813011F00C94462782E0809365020E9406
:103D8000F37C60936102709362028093630290936C
:103D900064020C9446270E947D380C94462780913B
:103DA000540883FF02C00C9446270E943C5487FFAE
:103DB00002C00C94462783E50E94F44E882379F0D4
:103DC0000E94784E0E94A4F08B01CB010E94C0B3E8
:103DD0000635110524F40E947D380E9444400E945B
:103DE000254C0C9446278EE40E94F44E882311F44F
:103DF0000C9446270E94404E6093210D7093220D33
:103E00008093230D9093240D0C94462783E50E9404
:103E1000AB4E882329F083E50E941B6580935408EC
:103E20000E9438548AE193E00E9403518091540823
:103E3000882369F120E1E22E23E0F22E00E010E079
:103E400020E08091540890E0A0E0B0E0002E04C093
:103E5000B695A795979587950A94D2F780FF0EC0DF
:103E6000DD24D394D20E222319F08CE20E94C2D01A
:103E7000F701859194910E9403512D2D0F5F1F4FE3
:103E800092E0E90EF11C05301105D9F6C1CD8CE0A8
:103E900093E0BCCD10927D0210922B010C9446272A
:103EA00080E090E00E9495CF0E94FBCF0C944627C3
:103EB00083E50E94F44E882371F00E94504E282F13
:103EC00030E02D3331051CF480930001DFC78CE313
:103ED00080930001DBC70E9438544091000150E0FC
:103EE00060E070E081E293E00E94B6518AE00E94B7
:103EF000C2D0CCC78091540883FDC8C783E50E9417
:103F0000F44E882309F4C2C70E94784E0E94A4F0A0
:103F10006337710514F063E770E070931D096093D7
:103F20001C090E942EB2B2C78091540883FDAEC70F
:103F300083E50E94F44E88AF81110C949A2A82E5A1
:103F40000E94F44E81110C949A2AA0C70E943C54FE
:103F5000182F87FDA2C78AE493E00E940351812FA6
:103F60000E94C7B28AE00E94C2D097C783E50E9430
:103F7000F44E882309F48AC70E94504E182F90E00F
:103F8000CD970CF01CE310934E020E94F37C6B0162
:103F90007C01212F30E0A8EEB3E00E9428EFC60E8E
:103FA000D71EE81EF91EC0924A02D0924B02E09240
:103FB0004C02F0924D026AC780E50E941B65811198
:103FC00065C781E40E94AB4E882321F0609179039C
:103FD00070E002C06FEF70E083E50E94854F8F3F75
:103FE000910519F010F08FEF90E0809379038093A2
:103FF00013094CC780E50E941B65811147C71092C9
:1040000079031092130942C70E94D1B30E947D38F0
:104010000E94337F0E942CD068EE73E080E090E035
:104020000E94DF5060E08DE493E00E94CE3F2EC7F7
:10403000409352022BC783E50E94F44E882399F0E7
:104040000E94784E20E030E04AE754E40E945AEBA8
:104050000E94ABF060930101709302018093030111
:104060009093040113C788E50E94AB4E81110C9414
:104070002F2C89E50E94AB4E81110C942F2C8AE5E0
:104080000E94AB4E81110C942F2C85E40E94AB4E04
:1040900081110C942F2C0C94542C83E50E94AB4E70
:1040A000882309F4F3C60E94784E20E030E04AE706
:1040B00054E40E945AEB0E94ABF060935302709359
:1040C00054028093550290935602E0C60E943C54DD
:1040D00087FDDCC69091960C94FD04C09091980CDD
:1040E00097FF0AC015E6C12E11E0D12E05E5E02E9E
:1040F00008E0F02E10E009C09091990C937091F7B0
:10410000682F81E00E946554C1C6D6018D916D0172
:104110000E94F44E882309F46DC0133009F063C087
:104120000E94784E4B015C0120E030E040EA51E40F
:104130000E94F4EA87FF4EC0A501940160917508C2
:104140007091760880917708909178080E9432F0FB
:104150002B013C019B01AC0160915D0370915E03FA
:1041600080915F03909160030E945AEB60935D031E
:1041700070935E0380935F0390936003A3019201A9
:1041800060918508709186088091870890918808D1
:104190000E945AEB60938508709386088093870885
:1041A0009093880860916D0370916E0380916F0306
:1041B000909170030E94F9EAA30192010E945AEBC8
:1041C0000E94ABF060936D0370936E0380936F0356
:1041D000909370038092750890927608A092770869
:1041E000B092780807C00E94784EF701648B758BF7
:1041F000868B978B1F5FF4E0EF0EF11C143009F0F3
:1042000084CF0E949C4C42C68EE794E00E940351EA
:1042100060E08EE694E00E94A3DE60E089E594E031
:104220000E94A3DE61E082E594E00E94A3DE61E0EB
:1042300087E494E00E94A3DE61E087E394E00E94BB
:10424000A3DE60E08EE294E00E94A3DE61E084E2FF
:1042500094E00E94A3DE60E08AE194E00E94A3DE85
:1042600061E082E194E00E94A3DE61E084E094E0FA
:104270000E94A3DE60E086EF93E00E94A3DE60E090
:1042800087EE93E00E94A3DE60E089ED93E00E9458
:10429000A3DE60E083EC93E00E94A3DE60E082EBAB
:1042A00093E00E94A3DE60E083EA93E00E94A3DE35
:1042B00060E08EE893E00E94A3DE61E08BE793E08C
:1042C0000E94A3DE60E08EE693E00E94A3DE60E041
:1042D0008AE593E00E94A3DED9C500919A0C109163
:1042E0009B0C83E0F12C40E08150E9F0D8019C91D7
:1042F000292F2B7F2134C1F711962C912133A1F75F
:10430000913421F0953421F441E002C0FF24F3946C
:1043100098012E5F3F4F89012F5F3F4FF801908139
:104320009032C9F3E1CF41110E943854FF2021F0AF
:1043300088E495E00E940351C8010E9460D4A6C59C
:104340000E9455D5A3C510929E0910929D090E9406
:1043500070D59CC560E070E083E50E94984F8C01A9
:104360001127023011053CF00E9434548CE495E092
:104370000E9403518BC588E40E94F44E8823A9F063
:104380000E94744E8A3A91053CF08E31F1E09F070D
:104390002CF08DE191E002C08AEA90E0F801EE0F86
:1043A000FF1FEA5CFC4E9183808386E40E94F44EFA
:1043B000882381F00E94744E97FD07C08F3F9105BE
:1043C00029F024F08FEF90E001C080E0F801E05D7B
:1043D000FC4E808382E40E94F44E882309F456C583
:1043E0000E94744E8530910534F0843791052CF08D
:1043F00083E790E002C085E090E0F801EE0FFF1F38
:10440000EE5CFC4E9183808341C50E943C54182F82
:1044100087FD3CC584E40E94AB4E882309F43FC06D
:104420000E94784E6B017C0101E020E030E0A901A0
:104430000E94F4EA811101C000E000939A0B20E091
:1044400030E0A901C701B6010E94F4EA882339F1DE
:104450000E94784E24E01202F0011124E156F44F3C
:10446000608371838283938320E030E0A9016091AF
:104470009F0B7091A00B8091A10B9091A20B0E94B9
:10448000F4EA81110CC080E090E0A0EEBFE38093DD
:104490009F0B9093A00BA093A10BB093A20B0E9433
:1044A0000E7EF4C40E943C5487FDF0C4E5E6EE2E77
:1044B000E1E0FE2E05E518E0D7018D917D010E9417
:1044C000AB4E882349F00E94784E0E94ABF0F80171
:1044D00060837183828393830C5F1F4FF8E00536FE
:1044E0001F0751F70E94554CD1C40E943C5487FDD0
:1044F000CDC465E6E62E61E0F62E05E518E075E62A
:10450000C72E78E0D72ED7018D917D010E94AB4E4A
:10451000882339F00E94784EF80164A375A386A31E
:1045200097A30C5F1F4FC016D10669F7AFC48091E7
:10453000970C87FF02C00C94572C8091980C8E70BA
:1045400011F00C94572C4091890850918A08609181
:104550008B0870918C0884E795E00E94D4514091BB
:104560008D0850918E0860918F087091900881E7B6
:1045700095E00E94D4514091910850919208609129
:104580009308709194088EE695E00E94D4518AE0D9
:104590000E94C2D07BC48091960C827111F00C9461
:1045A0009D2C8091980C8C7811F00C949D2C80910E
:1045B000990C837011F00C949D2C68C445E6C42EB0
:1045C00041E0D42E52EAE52E59E0F52E10E0D60156
:1045D0008D916D010E94AB4E882351F00E94784E60
:1045E000F7016083718382839383812F0E94E48328
:1045F0001F5FF4E0EF0EF11C133049F70C946119C2
:104600000E9438548DED95E00E94035183E50E948D
:10461000AB4E882321F00E94644E80932C01809140
:104620002C01882319F08AEB95E002C086EB95E017
:104630000E94035185ED95E00E94035120913E0BAD
:1046400030913F0B4091400B5091410B60913301F1
:104650007091340180913501909136010E9438EFBC
:10466000AB01BC0183ED95E00E94D4512091420B37
:104670003091430B4091440B5091450B60913B01AD
:1046800070913C0180913D0190913E010E9438EF74
:10469000AB01BC0180ED95E00E94D4512091460B06
:1046A0003091470B4091480B5091490B6091430169
:1046B0007091440180914501909146010E9438EF2C
:1046C000AB01BC018DEC95E00E94D45185EC95E0E6
:1046D0000E94035120913E0B30913F0B4091400BC3
:1046E0005091410B609137017091380180913901EF
:1046F00090913A010E9438EFAB01BC0183EC95E048
:104700000E94D4512091420B3091430B4091440BB5
:104710005091450B60913F017091400180914101A2
:10472000909142010E9438EFAB01BC0180EC95E012
:104730000E94D4512091460B3091470B4091480B79
:104740005091490B60914701709148018091490156
:1047500090914A010E9438EFAB01BC018DEB95E0CE
:104760000E94D4518AE00E94C2D090C383E50E9487
:10477000F44E882309F48AC30E94744E9093320148
:104780008093310183C30E943C54F82E87FD7EC381
:1047900083E50E94F44E0F2D0F2C000C110B882383
:1047A00069F10E94744EF801EE0FFF1FE15BFE4FAE
:1047B00091838083000F111F000F111F9801275E46
:1047C0003E4F7901BC01990F880B990B0E94FBEABF
:1047D0002AE037ED43E25CE30E945AEBF801E5562C
:1047E000F44F20813181428153810E945AEBD701DD
:1047F0006D937D938D939C93139748C30E94385477
:1048000085E40E94C2D080E38F0D0E94C2D0F801DF
:10481000EE0FFF1FE15BFE4F608171818DEE95E031
:104820000E94E55185E20E94C2D08AE00E94C2D077
:104830002DC380E50E94AB4E882309F427C360E0B6
:1048400070E080E50E94984FF82E6FEF7FEF83E5D0
:104850000E94984F8C010196039708F017C3F7FC4C
:1048600015C38F2D0E9469E6882339F00E943454C5
:1048700085EF95E00E94035109C30E941E4D60E040
:104880008F2D0E94ED720F3FBFEF1B0731F00130FB
:10489000110571F000E010E00DC08F2D0E9495729F
:1048A00031E020E0892B09F030E0032F122F02C005
:1048B00001E010E08F2D0E9495728017910709F496
:1048C000E5C20E94C9D0F6CF64E071E083E50E94A2
:1048D000854F8C0168EE73E080E50E94854F893832
:1048E000E3E19E0710F088E893E1B8010E94A13F40
:1048F000CDC285E40E941B65811173C080E50E94D2
:10490000AB4E882351F00E94784E609396037093CB
:104910009703809398039093990389E40E94AB4E88
:10492000882381F00E94784E2CEA35EC47E25EE362
:104930000E945AEB60939A0370939B0380939C03AD
:1049400090939D0384E40E94AB4E882381F00E94E3
:10495000784E2CEA35EC47E25EE30E9432F0609339
:104960009E0370939F038093A0039093A1030E94E2
:104970003854409196035091970360919803709139
:1049800099038EE196E00E94D4512CEA35EC47E27F
:104990005EE360919A0370919B0380919C039091D8
:1049A0009D030E9432F0AB01BC018AE196E00E94B7
:1049B000D4512CEA35EC47E25EE360919E0370919E
:1049C0009F038091A0039091A1030E945AEBAB0139
:1049D000BC0186E196E00E94D4518AE00E94C2D0D8
:1049E00055C20E94345484E096E00E9403514EC2A6
:1049F00083E50E94AB4E182F882371F00E94784EF9
:104A00000E94A4F070931E0160931D0121E0672BAA
:104A100009F020E020938A0380E50E94AB4E8823B2
:104A200059F020911D0130911E01232B11F00E949D
:104A3000644E80938A032AC2111128C20E943854FE
:104A40008EE396E00E94035180918A03882319F037
:104A500086E296E002C082E296E00E9403516091F5
:104A60001D0170911E018DE296E00E94E55189E2E0
:104A700096E00E9403510AC20E94EC9A07C281E0AC
:104A80000E94154B0E94C18901C20E94A054FEC120
:104A900088E50E94AB4ED82E89E40E94AB4EC82E0A
:104AA000882321F00E94744EA82E28C0DD2011F129
:104AB0000E94784E20913E0B30913F0B4091400B6D
:104AC0005091410B0E9437EF20E030E040E252E489
:104AD0000E9437EF20E030E04EE252E40E9438EFCF
:104AE00024E632E54CE35CE30E945AEB0E94A4F01A
:104AF000633018F0AA24AA9401C0A62E89E50E946A
:104B0000AB4EF82E8AE40E94AB4E182F882321F07A
:104B10000E94744EB82E28C0FF2011F10E94784EDA
:104B20002091420B3091430B4091440B5091450B27
:104B30000E9437EF20E030E040E251E40E9437EF7E
:104B400020E030E04CE452E40E9438EF21EA30EA01
:104B500040E25CE30E945AEB0E94A4F0633018F03C
:104B6000BB24BA9401C0B62E8AE50E94AB4EE82E53
:104B7000811105C081E50E94AB4E082F01C000E005
:104B8000C11001C010E0212F30E0D11001C0F12C84
:104B90002F0D311D2130310521F4E11009C0011123
:104BA00007C00E94345480E796E00E9403516EC112
:104BB000A7FC02C0B7FE07C00E94345481E596E00E
:104BC0000E94035163C10E94784EEA2CAA0CFF0890
:104BD000AB2DBB0CBB0B002391F0F701EE0FFF1FB9
:104BE000EE0DFF1DEA0FFB1FEE0FFF1FEE0FFF1F65
:104BF000EA58F44F208131814281538103C020E083
:104C000030E0A9018701000F111F0E0D1F1D0A0FB3
:104C10001B1F000F111F000F111F0A58144F0E9475
:104C200038EFD8016D937D938D939C9313972EC18C
:104C30000E94C06481112AC107E116E1E0E4F3E0BB
:104C4000F9A7E8A79E012F5F3F4F29019CE6692E37
:104C500096E1792E1901F8016591759185919491EC
:104C6000A8A5B9A58D909D90AD90BD90B9A7A8A716
:104C7000A50194010E9437EF6B017C01F101608373
:104C800071838283938320E030E040EA51EC0E94FC
:104C900098F187FD0AC020E030E040EA51E4C70106
:104CA000B6010E94F4EA18162CF4F3018491181648
:104CB0000CF4BAC6D101CD90DD90ED90FD901D01B0
:104CC00020E030E040EA51ECC701B6010E9498F1C3
:104CD00087FD0AC020E030E040EA51E4C701B60198
:104CE0000E94F4EA1816A4F40E9434548EEA96E066
:104CF0000E94035161E080EA96E00E94CE3F0E944C
:104D000033BD68E270E088EC90E00E94A13FBEC035
:104D10000C5F1F4FBFEF6B1A7B0AE6E103321E07E1
:104D200009F099CF82EAE82E89E0F82E10E0F2012E
:104D300081919191A191B1912F01F701819391936B
:104D4000A193B1937F01812F0E94E4831F5F1330F1
:104D500071F70E94C18960E080E996E00E94CE3F31
:104D600063E972E084E690E00E94A13F6AEB72E0A2
:104D700084E690E00E94A13F89C00E949ED686C032
:104D80000E948AD583C040932B130E94EB3110926E
:104D90002B13882309F47AC00E9438548CEC96E0D7
:104DA0000E94035173C08091CF1182FF6FC0806257
:104DB0008093CF116BC08AE50E94F44E882331F1B5
:104DC0000E94784E6B017C0120E030E040EA51EC1B
:104DD0000E9498F187FD13C020E030E040EA51E4E2
:104DE000C701B6010E94F4EA18164CF0C092A60260
:104DF000D092A702E092A802F092A90247C00E94B6
:104E0000345487ED96E00E94035140C00E9438540C
:104E10004091A6025091A7026091A8027091A90248
:104E200084EF96E00E94D4518AE00E94C2D02EC046
:104E300081E08093530110923F0360E083E50E947C
:104E4000A74F811123C00E94FCC220C00E94B264FF
:104E50001DC000919C0C10919D0C0023B9F00E9484
:104E6000385484E50E94C2D0B8017727072E000C81
:104E7000880B990B0E94C9D380E20E94C2D085E0C2
:104E800097E00E94035102C00E94B2642396FFADD6
:104E90002397F11102C00E94ECC22FA9209358025F
:104EA000CE5BDF4F0FB6F894DEBF0FBECDBFDF91F4
:104EB000CF911F910F91FF90EF90DF90CF90BF9017
:104EC000AF909F908F907F906F905F904F903F90AA
:104ED0002F9008950E941E4D80E00E94CC4F0E94AA
:104EE000EB8681E080939E090E9470D588E50E9440
:104EF000AB4E182F89E50E94AB4E082F8AE50E9421
:104F0000AB4E10133FC1181711F0312E3CC13324A2
:104F1000339411E0B1E0B8AB80E1E0E4F3E0A6E562
:104F2000BBE001900D928A95E1F78091A00982FF84
:104F30003DC082E50E94F44E882361F00E94784EC5
:104F40006B017C0120E030E0A9010E94F4EA8111AC
:104F500007C02CC0C12CD12CA0EAEA2EA0E4FA2E66
:104F6000111103C0332009F4F9C0C0925E0BD09236
:104F70005F0BE092600BF092610BA70196016091CC
:104F800048037091490380914A0390914B030E941A
:104F9000F4EA87FF0BC019821A821B821C82BE01B1
:104FA0006F5F7F4F8EE59BE00E94E487112309F439
:104FB000D0C0332009F4CAC01092440310924503B4
:104FC000109246031092470310924003109241033F
:104FD00010924203109243030E949088ECE6F6E19F
:104FE00024912DABE0E6F6E1C590D590E590F490E4
:104FF000E4E6F6E185909590A590B490A501940122
:10500000C701B6010E9498F118162CF4A701960169
:10501000C501B40104C0A5019401C701B6010E94F5
:1050200032F02B013C01E7E2F6E185919591A591E3
:10503000B49188A799A7AAA7BBA7E3E2F6E12591B7
:105040003591459154912CA73DA74EA75FA7BC0170
:10505000CD010E9498F1181634F42CA43DA53CAB68
:105060000EA51FA505C028A449A54CAB0AA51BA5E4
:10507000A3019201C301B2010E945AEB20E030E08B
:1050800040E85FE30E9438EF0E94E6F1222D3CA940
:10509000A8010E945AEB69837A838B839C83EDE697
:1050A000F6E11491409048035090490360904A0300
:1050B00070904B0320E030E040EC5FE3C501B401A9
:1050C0000E945AEB4B015C01612F110F770B880B8B
:1050D000990B0E94FBEA9B01AC01C501B4010E943F
:1050E0005AEB4B015C0120E030E040EC5FE3C7018C
:1050F000B6010E945AEB6B017C015DA9652F550F2B
:10510000770B880B990B0E94FBEA9B01AC01C7014E
:10511000B6010E945AEBDE0111966D018301720106
:10512000A50194010E9425870E947FD51092440317
:1051300010924503109246031092470310924003C9
:1051400010924103109242031092430380E00E94A8
:105150009288332019F081E00E949288B8A9BB237D
:1051600019F082E00E9492880E94908880919D09A7
:1051700080939E090E94D28683E0809318010E944A
:10518000C18984CE302E88ABC7CE26EE3FEF4FE1EB
:1051900052E468A579A58AA59BA50E9498F187FD90
:1051A00075CE27E030E04CE453E468A579A58AA5E4
:1051B0009BA50E94F4EA18160CF468CE2CEC3FEF85
:1051C0004FE951E4C301B2010E9498F187FD5ECE20
:1051D00027E030E04CE453E4C301B2010E94F4EA5A
:1051E00018160CF453CE80E00E94CC4F0E94EB8640
:1051F00061E085E40E94A74F382EE0904803F090CC
:10520000490300914A0310914B0320912D013091E5
:105210002E0140912F015091300128AB39AB4AABA0
:105220005BAB85E595E5A5E0B3E480932D01909314
:105230002E01A0932F01B093300119821A821B8294
:105240001C82AE014F5F5F4F6A01A50194016CA5FE
:105250007DA58EA59FA50E94258781E00E94154B04
:105260008111FCC38091A00982FF11C02091A60288
:105270003091A7024091A8025091A90260E070E02D
:1052800080E090EC0E9437EF4B015C0106C0812C5E
:10529000912CF0E2AF2EF1ECBF2EC090A602D09080
:1052A000A702E090A802F090A90220E030E0A90156
:1052B000C701B6010E94F4EA87FF0BC0A70196015F
:1052C00060E070E080E791E40E9437EF6B017C01C1
:1052D00006C0C12CD12CE0E7EE2EE1E4FE2EA701A2
:1052E0009601609148037091490380914A0390911F
:1052F0004B030E9498F11816ECF5CCA2DDA2EEA2A9
:10530000FFA2C12CD12C70ECE72E70E4F72EC8A2BE
:10531000D9A2EAA2FBA2BE01605E7F4FCE018496B5
:105320000E94E4871091320B1092320B82E00E94AF
:1053300003880E94908812FF1DC0C982DA82EB8226
:10534000FC8220E030E040EA50E460914803709134
:10535000490380914A0390914B030E9438EF6C8F70
:105360007D8F8E8F9F8FBE016F5F7F4FCE014C96DA
:105370000E94E4878C8E9D8EAE8EBF8E80E090E082
:10538000A0E4B0E489839A83AB83BC83BE016F5FE2
:105390007F4FCE014C960E94E4871091320B109201
:1053A000320B82E00E9403880E94908812FF09C09D
:1053B000609148037091490380914A0390914B0397
:1053C00004C060E070E080EC9FE72091A60230917D
:1053D000A7024091A8025091A9020E9438EF6B01E8
:1053E0007C0151E0351205C080E00E94154B81110F
:1053F00035C388A999A9AAA9BBA980932D01909327
:105400002E01A0932F01B0933001A7019601C7018F
:10541000B6010E942AF2882379F080E00E94154BA1
:1054200060E082EE91E00E94CE3F0E94345482ED13
:1054300091E00E9403514CC020E030E0A90168A532
:1054400079A58AA59BA50E94F4EA87FD02C367E1BE
:1054500077EB81E598E328A539A54AA55BA50E94CD
:1054600038EFAB01BC018BEF91E00E94D45120E0FA
:1054700030E0A901C301B2010E94F4EA87FFDFC254
:1054800067E177EB81E598EBA30192010E9438EF89
:10549000AB01BC0186EF91E00E94D45120E030E0E6
:1054A000A901C701B6010E94F4EA87FFCDC267E1F6
:1054B00077EB81E598EBA70196010E9438EFAB01ED
:1054C000BC0181EF91E00E94D4518AE00E94C2D0D9
:1054D0000E94D2860E94C189D9CC11110C94511C12
:1054E0000C944A1C0E94C9D00C94751C0E94404E1A
:1054F000AB01BC014093CB115093CC116093CD1103
:105500007093CE1181EA9FE00E943C74BFCC61E0B1
:10551000802F0E94ED726F2D802F0E94BE726F2D22
:1055200070E0802F0E94297334E0E312AFCCF09238
:105530007903ACCC0E94784E0E94A4F063377105C9
:105540000CF08AC170931D0960931C090E942EB251
:105550000E94784E20E030E040EA50E40E9498F14A
:10556000181614F40E94593860911C0970911D0995
:10557000072E000C880B990B0E94FBEA209118095A
:105580003091190940911A0950911B090E9498F114
:1055900018161CF48BE393E002C08CE293E060E009
:1055A0000E94CE3F81E080932B011CA61DA61EA663
:1055B0001FA619AE1AAE1BAE1CAE18A61EAEACE3EB
:1055C000AFAFBCE12196BFAF2197E6E42296EFAFE3
:1055D0002297C12CD12C80E8E82E9FEBF92EF1E028
:1055E000FDAF812C912C540160911C0970911D0913
:1055F000072E000C880B990B0E94FBEA162F072F31
:10560000782E692E9601A7010E94F4EA882321F1E1
:10561000209118093091190940911A0950911B09DC
:1056200088AD612F702F811109C0872D962D0E94A2
:10563000F4EA881F8827881F88A714C0872D962D15
:105640000E94F4EA87FF0DC080912B01882309F4A2
:105650001DCC0E9444401ACC1C2D0D2D7E2C6F2C8D
:1056600001C018A60E94F37C6B017C01DC01CB0118
:1056700029AD3AAD4BAD5CAD821B930BA40BB50BC2
:10568000B7FD33C0D701C60188519C4FAF4FBF4F04
:1056900089AF9AAFABAFBCAF80E00E94C7B288E2DF
:1056A00093E00E94035181149104A104B104B9F064
:1056B000D501C401805F984DAF4FBF4FBC01CD01F4
:1056C0006C197D098E099F0928EE33E040E050E017
:1056D0000E94FBEECA01B9010E94C9D303C08FE347
:1056E0000E94C2D08AE00E94C2D00E94C9D00E940B
:1056F000F37C6093250D7093260D8093270D909376
:10570000280D9091180998ABA0911909ACABB091F4
:105710001A09BDABE0911B09EEAB292F3A2F4B2F95
:105720005E2F612F702F872D962D0E9437EF1B0162
:105730002C0120E030E0A9010E9498F187FF04C00D
:1057400057FA509457F8509481149104A104B1046D
:10575000B1F420E030E040E85FE3C201B1010E9413
:10576000F4EA87FF18C0FDAD46015701FF2399F009
:1057700020E1820E27E2921EA11CB11C0CC020E089
:1057800030E040E450E4C201B1010E9498F11816E3
:1057900014F44601570138A5332309F440C08CA501
:1057A0009DA5AEA5BFA5892B8A2B8B2B61F0D701B8
:1057B000C6012CA53DA54EA55FA5821B930BA40B8E
:1057C000B50BB7FD2CC028A93CA94DA95EA96EADAB
:1057D0007FAD21968FAD219722969FAD22970E9493
:1057E00037EF20E030E040EC5FE30E94F4EA87FD11
:1057F0002BCFD701C601805A9541AF4FBF4F8CA721
:105800009DA7AEA7BFA798A99EAFACA9AFAFBDA9F2
:105810002196BFAF2197EEA92296EFAF22978091F4
:105820002B01882309F410CF81149104A104B10441
:1058300031F41DAEC12ED02EE72CF62CD5CEF0E1E2
:10584000CF1AF7E2DF0AE108F108C818D908EA0818
:10585000FB08F7FCEECFF8CE63E770E073CE0E9452
:105860001E4D88E50E94AB4E882331F05E9A8091F0
:10587000A0098E7F8093A00989E50E94AB4E882302
:1058800031F05E9A8091A0098D7F8093A0098AE50E
:105890000E94AB4E882309F4F9CA159A8091A00999
:1058A0008B7F8093A009F2CA0E94337FEFCA83E501
:1058B0000E94F44E882391F00E94784E60938908EC
:1058C00070938A0880938B0890938C08609391085A
:1058D00070939208809393089093940880E50E94B7
:1058E000F44E882351F00E94784E6093890870939B
:1058F0008A0880938B0890938C0882E50E94F44E6E
:10590000882351F00E94784E60938D0870938E0822
:1059100080938F089093900884E50E94F44E88232A
:1059200009F4B4CA0E94784E60939108709392086B
:105930008093930890939408A9CA82E40E94AB4E86
:10594000882351F00E94304E60936508709366087A
:10595000809367089093680883E50E94AB4E882384
:1059600051F00E94784E609395087093960880934A
:1059700097089093980884E50E94AB4E882351F0D5
:105980000E94784E6093990870939A0880939B08C0
:1059900090939C0888E50E94AB4E882351F00E94AA
:1059A000784E609351037093520380935303909306
:1059B000540389E50E94AB4E882351F00E94784E33
:1059C0006093550370935603809357039093580345
:1059D0008AE50E94AB4E8823B1F00E94784E609316
:1059E000590370935A0380935B0390935C032DECEF
:1059F0003CEC4CEC5DE30E94F4EA181624F084E8D9
:105A000095E00E94035185E40E94AB4E882309F47F
:105A10003DCA0E94784E60935D0370935E0380934D
:105A20005F039093600332CAB7FAB094B7F8B094AA
:105A3000D1018D929D92AD92BC9213973BC967E1C3
:105A400077EB81E598E320CD67E177EB81E598E39B
:105A500032CD67E177EB81E598EBFDCC28A939A938
:105A60004AA95BA920932D0130932E0140932F0169
:105A700050933001D2CCCF92DF92EF92FF920F93EE
:105A80001F93CF93DF93CDB7DEB7CA58D1090FB6B6
:105A9000F894DEBF0FBECDBFC358DF4F1882198206
:105AA0001A821B82CD57D0408091190290911A0220
:105AB000A0911B02B0911C02CF57DF4F88839983BE
:105AC000AA83BB83C158D040CB57DF4F19821882BD
:105AD000C558D04084E690E0C957DF4F998388834A
