:100000000C94F8140C9422150C9422150C942215BF
:100010000C9422150C9422150C9422150C94221584
:100020000C9422150C94DC4E0C9422150C94221581
:100030000C9422150C94D84F0C9422150C94221574
:100040000C9422150C9442800C94924E0C94221520
:100050000C94A3370C9499370C9422150C94221508
:100060000C9422150C9422150C9422150C94221534
:100070000C9422150C9422150C9422150C94221524
:100080000C9422150C9422150C942215014E064E48
:100090000B4E154E434E434E1F4E274E2F4E394E9C
:1000A000E267E567D867DC67FC67FC67E967ED67CF
:1000B000F367F76729C7E8C51FC665C71FC61FC610
:1000C0001FC61FC61FC61FC61FC61FC61FC61FC608
:1000D0001FC61FC61FC61FC61FC61FC61FC61FC6F8
:1000E0001FC61FC61FC61FC61FC61FC61FC61FC6E8
:1000F0005FC71FC61FC61FC61FC61FC61FC61FC697
:100100001FC638C71FC61FC61FC61FC61FC61FC6AD
:100110001FC61FC61FC61FC67CC71CC6084AD73BC2
:100120003BCE016E84BCBFFDC12F3D6C74319ABDC6
:1001300056833DDA3D00C77F11BED9E4BB4C3E91EA
:100140006BAAAABE000000803F05A84CCDB2D44ED9
:10015000B93836A9020C50B9918688083CA6AAAADB
:100160002ABE000000803F004E414E494E4954597E
:10017000494E46CDCCCC3D0AD7233C17B7D1387772
:10018000CC2B329595E6241FB14F0A000020410088
:1001900000C84200401C4620BCBE4CCA1B0E5AAED2
:1001A000C59D74434F4D4D554E49434154494F4EA3
:1001B0000044525952554E004552524F5253004935
:1001C0004E464F004543484F00496E76616C696466
:1001D0002065787472756465720A003F5A206F75E5
:1001E00074206F662072616E676520282D32302082
:1001F000746F203230290A0050726F6265205A20D5
:100200004F66667365743A2000454550524F4D2045
:100210004F4B0A004F666673657473206170706C93
:10022000696564004572723A20546F6F206661728E
:100230002100546F6F206661722066726F6D2072AC
:1002400065666572656E636520706F696E740A001D
:10025000000000000000000000000000646973005E
:10026000656E0043290A0061626C656420286D692F
:100270006E2074656D702000436F6C642065787427
:100280007275646573206172652000496E76616CD9
:1002900069642065787472756465720A0020643A36
:1002A0000020693A0020703A0020466C6F773A20AF
:1002B000004F4646004F4E00205A0020590058007B
:1002C00020204D61783A2000205A00205900580023
:1002D00020204D696E3A2000536F667420656E646D
:1002E00073746F70733A20002054002052004163F1
:1002F00063656C65726174696F6E3A2050004D31B0
:10030000343520533C696E6465783E206F757420E7
:100310006F662072616E67652028302D31290A00D2
:100320002F2F20004348414D4245525F54454D50C8
:1003300045524154555245004D4F54494F4E5F4D23
:100340004F44455300544845524D414C5F50524F25
:1003500054454354494F4E004155544F5245504F18
:1003600052545F53445F5354415455530050524FBD
:100370004D50545F535550504F525400454D4552C7
:1003800047454E43595F50415253455200434153F4
:10039000455F4C494748545F4252494748544E458F
:1003A000535300544F47474C455F4C4947485453BB
:1003B00000534F4654574152455F504F57455200E6
:1003C0004255494C445F50455243454E54004C45BC
:1003D00056454C494E475F44415441005A5F505284
:1003E0004F4245004155544F4C4556454C005052E4
:1003F000494E545F4A4F420050524F475245535363
:10040000004155544F5245504F52545F54454D5042
:1004100000564F4C554D45545249430045455052A6
:100420004F4D0042494E4152595F46494C455F5439
:1004300052414E534645520053455249414C5F5834
:100440004F4E5F584F4646004649524D5741524520
:100450005F4E414D453A4D61726C696E2062756721
:100460006669782D322E302E782028476974687599
:10047000622920534F555243455F434F44455F55D2
:10048000524C3A68747470733A2F2F6769746875A8
:10049000622E636F6D2F4D61726C696E4669726D6D
:1004A000776172652F4D61726C696E2050524F54A6
:1004B0004F434F4C5F56455253494F4E3A312E30C1
:1004C000204D414348494E455F545950453A456E89
:1004D0006465722D352045585452554445525F434A
:1004E0004F554E543A3120555549443A6365646539
:1004F000326132662D343161322D343734382D3942
:100500006231322D6335356336326633363766668F
:100510000A00456E6465722D35204F46462E006FE9
:100520006B0020573A0042656420636F6F6C696E00
:10053000672E2E2E004265642068656174696E67BF
:100540002E2E2E004D3131332053006F666600C4CD
:1005500001BF01B801B101A30144454255473A002A
:1005600050726F7465637465642050696E0A00256B
:1005700069730025696D2025697300256968202548
:10058000696D202569730025696420256968202527
:10059000696D202569730025697920256964202506
:1005A00069682025696D20256973005072696E7431
:1005B0002074696D653A20002E0A0044656C6574EC
:1005C000696F6E206661696C65642C2046696C6594
:1005D0003A200046696C652064656C657465643A10
:1005E00000286E6F2066696C65290043757272651C
:1005F0006E742066696C653A2000534420707269FD
:100600006E74696E67206279746520004E6F742085
:100610005344207072696E74696E670A00456E6497
:100620002066696C65206C6973740A0042656769AD
:100630006E2066696C65206C6973740A004E6F20C9
:100640006D6F76652E00436C69636B20746F20724A
:100650006573756D652E2E2E0050726F62696E6720
:10066000206661696C65640A0050726F62696E672A
:10067000206661696C656400205A3A200020593A6E
:10068000200042656420583A20000000204200000B
:1006900020420000C04000006143000061430000B0
:1006A0009643FFFFFF536C6565702E2E2E0020745D
:1006B0006F6F206C6F6E6720657874727573696FE9
:1006C0006E2070726576656E7465640A0020636FD3
:1006D0006C6420657874727573696F6E20707265D2
:1006E00076656E7465640A004572726F7220777267
:1006F0006974696E6720746F20454550524F4D21D3
:100700000A000F150E1216170E1303021A14010019
:100710000E0C190DFF180C040001627573793A2054
:1007200070617573656420666F7220696E70757490
:100730000A00627573793A2070617573656420668A
:100740006F7220757365720A00627573793A207052
:10075000726F63657373696E670A004B494C4C2076
:1007600063617573656420627920746F6F206D75A5
:10077000636820696E6163746976652074696D656C
:10078000202D2063757272656E7420636F6D6D61CC
:100790006E643A2000506C65617365207265736504
:1007A00074005052494E5445522048414C544544DF
:1007B000004B494C4C45442E20005072696E7465C4
:1007C000722068616C7465642E206B696C6C2829DA
:1007D0002063616C6C6564210A006563686F3A0090
:1007E0004572726F723A00204500205A002059006D
:1007F000204D393220580020496E76616C696420A2
:10080000657874727564657220004361703A0047C0
:10081000322F47332062616420706172616D6574AC
:100820006572730A007C3C3E5E2B3D3F2F5B5D3B57
:100830002C2A225C00456E6465722D35205265615C
:1008400064792E005072696E74696E672E2E2E00C8
:100850005072696E742070617573656400507269BE
:100860006E742061626F7274656400000061430001
:1008700000614300009643000000000000000000FB
:10088000000000290A002062797465733B206372BE
:1008900063200053657474696E67732053746F72BC
:1008A0006564202800022020506C616E6E657242E3
:1008B000756666657242797465733A2000204672E7
:1008C0006565204D656D6F72793A200062756766C7
:1008D00069782D322E302E780A004D61726C696E67
:1008E0000020536F6674776172652052657365747A
:1008F0000A00205761746368646F672052657365EE
:10090000740A002042726F776E206F7574205265F2
:100910007365740A002045787465726E616C2052AC
:10092000657365740A00506F77657255700A0073BD
:10093000746172740A006175746F25632E67004CD0
:100940006F6164696E672073657474696E67732084
:1009500066726F6D2053440A006572726F72207761
:10096000726974696E6720746F2066696C650A002D
:10097000446F6E6520736176696E672066696C6589
:100980002E0A004D323900456E6473746F70732007
:10099000256320256320256320256300205A3A0023
:1009A00020593A0020583A00656E6473746F707372
:1009B000206869743A200047323858590024F4D42A
:1009C0003050C38E20C2A24017828B7011127A91D0
:1009D0000D816CD90AA861E108C7586607615143C7
:1009E000061E4B5D05C145A7041A411104093D9837
:1009F00003713931034036DB0265339102D4305440
:100A000002802E1D02632CEE01752AC501B028A0BC
:100A100001102781018F2564012B244B01E0223432
:100A200001AC211F018D200D01801FFC00841EEDF3
:100A300000971DDF00B81CD200E61BC600201BBCBF
:100A400000641AB200B219A8000A19A0006A189925
:100A500000D117910040178B00B516840031167E27
:100A600000B31579003A157300C7146F0058146A63
:100A700000EE1366008813630025135E00C7125B47
:100A8000006C12570015125400C111510070114F23
:100A90000021114B00D61049008D1047004610442C
:100AA0000002104200C00F4000800F3E00420F3C89
:100AB00000060F3B00CB0E3800930E37005C0E355E
:100AC00000270E3400F30D3200C10D3100900D30BF
:100AD00000600D2E00320D2D00050D2C00D90C2BC1
:100AE00000AE0C2900850C29005C0C2700350C2772
:100AF000000E0C2600E80B2400C40B2400A00B23DE
:100B0000007D0B23005A0B2100390B2100180B200C
:100B100000F80A1F00D90A1E00BB0A1E009D0A1D0C
:100B200000800A1D00630A1C00470A1B002C0A1BD8
:100B300000110A1A00F7091A00DD091900C4091981
:100B400000AB091900920917007B09180063091707
:100B5000004C09160036091600200916000A09156E
:100B600000F5081500E0081400CC081400B80814BB
:100B700000A4081400900813007D0812006B0813ED
:100B8000005808120046081200340811002308110A
:100B9000001208110001081100F0071000E0071012
:100BA00000D0071000C0071000B0070F00A1071009
:100BB0000091070E0083070F0074070F0065070EF2
:100BC0000057070E0049070E003B070D002E070EC9
:100BD0000020070D0013070D0006070D00F9060C95
:100BE00000ED060D00E0060C00D4060C00C8060C53
:100BF00000BC060C00B0060C00A4060B0099060C05
:100C0000008D060B0082060B0077060B006C060BAE
:100C10000061060A0057060B004C060A0042060A4D
:100C20000038060A002E060A0024060A001A060AE0
:100C3000001006090007060A00FD050900F4050971
:100C400000EB050900E2050900D9050900D00509F6
:100C500000C7050900BE050900B5050800AD050877
:100C600000A50509009C050800940508008C0508EE
:100C700000840508007C050800740508006C050761
:100C800000650508005D050700560508004E0507CC
:100C90000047050700400508003805070031050733
:100CA000002A050700230507001C05060016050796
:100CB000000F0507000805060002050700FB0406F3
:100CC00000F5040700EE040600E8040600E204074D
:100CD00000DB040600D5040600CF040600C90406A4
:100CE00000C3040600BD040600B7040600B10405F5
:100CF00000AC040600A6040600A00405009B040640
:100D00000095040500900406008A0405008504058A
:100D100000800406007A04050075040500700405CF
:100D2000006B04050066040500610405005C040511
:100D30000057040500520405004D04050048040551
:100D400000430405003E0404003A04050035040590
:100D500000300404002C04050027040400230405CB
:100D6000001E0404001A0404001604050011040403
:100D7000000D040400090405000404040000040438
:100D800000FC030400F8030400F4030400F003046F
:100D900000EC030400E8030400E4030400E003049F
:100DA00000DC030400D8030400D4030400D00304CF
:100DB00000CC030400C8030300C503030024F404AB
:100DC000D9201BC40C5C0E9804C4095F026507712E
:100DD00001F405F900FB04B30048048700C103696E
:100DE000005803550003034500BE023A0084023157
:100DF0000053022A002902250004022000E4011CFD
:100E000000C8011900AF01170098011400840113F4
:100E100000710110006101100051010E0043010D2D
:100E20000036010B002B010B0020010B00150109FE
:100E3000000C01090003010800FB000800F3000892
:100E400000EB000700E4000600DE000600D8000604
:100E500000D2000600CC000500C7000500C2000556
:100E600000BD000400B9000400B5000400B1000496
:100E700000AD000400A9000400A5000300A20003C7
:100E8000009F0004009B00030098000300950002EF
:100E90000093000300900003008D0002008B00030C
:100EA0000088000200860002008400030081000226
:100EB000007F0002007D0002007B0002007900023A
:100EC0000077000100760002007400020072000149
:100ED00000710002006F0002006D0001006C000252
:100EE000006A00010069000200670001006600015D
:100EF0000065000100640002006200010061000161
:100F000000600001005F0002005D0001005C000164
:100F1000005B0001005A0001005900010058000167
:100F20000057000100560001005500010054000167
:100F30000053000000530001005200010051000165
:100F400000500001004F0001004E0000004E000163
:100F5000004D0001004C0001004B0000004B00015F
:100F6000004A00010049000100480000004800015B
:100F70000047000100460000004600010045000057
:100F8000004500010044000100430000004300014F
:100F90000042000000420001004100000041000149
:100FA00000400001003F0000003F0001003E000043
:100FB000003E0001003D0000003D0001003C00003B
:100FC000003C0000003C0001003B0000003B000131
:100FD000003A0000003A0001003900000039000129
:100FE0000038000000380000003800010037000021
:100FF0000037000100360000003600000036000116
:10100000003500000035000000350001003400000C
:101010000034000000340001003300000033000001
:1010200000330001003200000032000000320001F5
:1010300000310000003100000031000100300000EC
:101040000030000000300001002F0000002F0000E1
:10105000002F0000002F0001002E0000002E0000D5
:10106000002E0001002D0000002D0000002D0000CA
:10107000002D0001002C0000002C0000002C0000BE
:10108000002C0001002B0000002B0000002B0000B2
:10109000002B0001002A0000002A0000002A0000A6
:1010A000002A00010029000000290000002900009A
:1010B000002900000029000100280000002800008D
:1010C0000028000000280000002800010027000080
:1010D0000027000000270000002700000027000173
:1010E0000026000000260000002600000026000068
:1010F000002600010025000000250000002500005A
:10110000002500000025000000250001002400004B
:10111000002400000024000000240000002400013E
:101120000023000000230000002300000023000033
:101130000023000000230000002300010022000023
:101140000022000000220000002200000022000017
:101150000022000100210000002100000021000009
:1011600000210000002100000021000000210001FA
:1011700000200000002000000020000000200000EF
:1011800000200000002000000020000000200001DE
:10119000001F0000001F0000001F0000001F0000D3
:1011A000001F0000001F0000001F0001001E0000C3
:1011B000001E0000001E0000001E0000000437009A
:1011C000001E290000511B000058100000100900EB
:1011D00000CC04000078020000410100004D3330D3
:1011E0003320553120452569205325690050494455
:1011F000204175746F74756E6500504944204175C7
:10120000746F74756E65005049442D440050494414
:101210002D44005049442D49005049442D49005067
:1012200049442D50005049442D500020082046616B
:1012300063740020082046616374002008204D611B
:1012400078002008204D6178002008204D696E004C
:101250002008204D696E004F6666004F6E00417594
:10126000746F74656D7000416476616E63656420AF
:1012700053657474696E67730046696C616D656E61
:10128000740054656D706572617475726500436FAA
:101290006E66696775726174696F6E004C6F616428
:1012A0002073657474696E677300526573746F722E
:1012B00065206661696C736166650053746F726561
:1012C0002073657474696E67730050726F62652075
:1012D0005A204F66667365740050726F6265205ABB
:1012E000204F666673657400416476616E63656461
:1012F0002053657474696E6773004D61696E0043B5
:10130000616E6E6F74206F70656E207375626469B4
:1013100072200053442063617264206F6B0A006F77
:1013200070656E526F6F74206661696C65640A0047
:10133000766F6C756D652E696E6974206661696C77
:1013400065640A00534420696E6974206661696CA3
:101350000A004D3234004D32332025730057726934
:1013600074696E6720746F2066696C653A20002E80
:101370000A006F70656E206661696C65642C20469A
:10138000696C653A20002E0A006F70656E206661F8
:10139000696C65642C2046696C653A200046696C6E
:1013A000652073656C65637465640A002053697A0F
:1013B000653A200046696C65206F70656E65643A19
:1013C0002000667265736800646F696E670020664E
:1013D000696C653A20004E6F772000454E442053DB
:1013E0005542524F5554494E450A002220706F73A2
:1013F000002220706172656E743A22005355425289
:101400004F5554494E452043414C4C2074617267FE
:1014100065743A2200747279696E6720746F206374
:10142000616C6C207375622D67636F6465206669FB
:101430006C6573207769746820746F6F206D616EBE
:1014400079206C6576656C732E204D4158206C6553
:1014500076656C2069733A310A000000210024008F
:1014600027002A0000002200250028002B00000091
:1014700020002300260029000202020202020202CA
:101480000404040404040404030303030303030324
:101490000101010101010101010204081020408045
:1014A000010204081020408001020408102040803E
:1014B0008040201008040201000000010200090A17
:1014C0000000000004030807000000000000000006
:1014D00000000000000000004D6F766520302E30C7
:1014E00032356D6D004D6F766520302E316D6D009B
:1014F0004D6F766520316D6D004D6F766520313012
:101500006D6D004D6F7665206178697300486F746A
:10151000656E6420746F6F20636F6C64004578742F
:101520007275646572004D6F7665205A004D6F7656
:10153000652059004D6F7665205800454550524F43
:101540004D206461746173697A65206572726F728F
:101550002E0A00290A002062797465733B206372A9
:101560006320002073746F726564207365747469FE
:101570006E677320726574726965766564202800F1
:10158000202863616C63756C6174656429210A00AD
:1015900020213D2000454550524F4D2043524320CD
:1015A0006D69736D61746368202D202873746F7288
:1015B00065642920002053697A653A2000496E64E9
:1015C00065783A2000204D61726C696E3D56363761
:1015D000290A00454550524F4D2076657273696F58
:1015E0006E206D69736D61746368202845455052A3
:1015F0004F4D3D0048617264636F646564204465CB
:101600006661756C742053657474696E6773204CE1
:101610006F616465640A00F4010000F40100006475
:10162000000000881300000000FA430000FA4300A5
:1016300000A0400000C8410000A0420000A04200FD
:1016400000C8430000BA423A0A0020204D38353124
:10165000205A005A2D50726F6265204F666673657E
:10166000740020440020490020204D3330312050A8
:10167000005049442073657474696E67733A0A00B8
:1016800020460020420020480020204D31343520E3
:1016900053004D6174657269616C20686561747591
:1016A0007020706172616D65746572733A0A002012
:1016B0005A0020590020204D323036205800486F03
:1016C0006D65206F66667365743A0A0020450020D8
:1016D0005A00205900205800205400205300202098
:1016E0004D32303520420020453C6D61785F655FAA
:1016F0006A65726B3E0020583C6D61785F785F6A66
:1017000065726B3E20593C6D61785F795F6A6572E6
:101710006B3E205A3C6D61785F7A5F6A65726B3E02
:1017200000416476616E6365643A20423C6D696E87
:101730005F7365676D656E745F74696D655F757302
:101740003E20533C6D696E5F6665656472617465C9
:101750003E20543C6D696E5F74726176656C5F66A5
:10176000656564726174653E00205400205200205B
:10177000204D323034205000416363656C657261E6
:1017800074696F6E2028756E6974732F7332293AED
:1017900020503C7072696E745F616363656C3E20BB
:1017A000523C726574726163745F616363656C3E21
:1017B00020543C74726176656C5F616363656C3E56
:1017C0000A00204500205A0020590020204D3230C8
:1017D000312058004D6178696D756D2041636365F6
:1017E0006C65726174696F6E2028756E6974732FF1
:1017F0007332293A0A00204500205A00205900205F
:10180000204D3230332058004D6178696D756D2060
:101810006665656472617465732028756E6974739A
:101820002F73293A0A005374657073207065722013
:10183000756E69743A0A0020204D323030204430F1
:101840000A0020204D32303020440020446973616A
:10185000626C65640A0046696C616D656E74207324
:10186000657474696E67733A0020204D31343920F5
:1018700043203B20556E69747320696E2043656C6C
:10188000736975730A0020286D6D29002020473286
:1018900031202020203B20556E69747320696E2012
:1018A0006D6D00486F6D696E67206661696C656477
:1018B0000023646566696E652044454641554C5475
:1018C0005F004B6420004B6920004B7020005049A2
:1018D00044204175746F74756E652066696E697316
:1018E000686564212050757420746865206C61738C
:1018F00074204B702C204B6920616E64204B642057
:10190000636F6E7374616E74732066726F6D2062A4
:10191000656C6F7720696E746F20436F6E666967C0
:1019200075726174696F6E2E680A005049442041D7
:1019300075746F74756E65206661696C65642120CD
:1019400074696D656F75740A0045312054484552BD
:101950004D414C2052554E415741590054686572D3
:101960006D616C2052756E61776179004531204858
:10197000656174696E67206661696C6564004865BD
:101980006174696E67206661696C656400504944E2
:10199000204175746F74756E65206661696C65644D
:1019A000212054656D706572617475726520746F65
:1019B0006F20686967680A00204B643A2000204B5A
:1019C000693A2000204B703A20000A20436C617372
:1019D00073696320504944200A002054753A20005E
:1019E000204B753A2000206D61783A2000206D6907
:1019F0006E3A200020643A200020626961733A2028
:101A000000504944204175746F74756E652073747D
:101A10006172740A00504944204175746F74756E88
:101A200065206661696C6564212054656D7065721E
:101A3000617475726520746F6F20686967680A0049
:101A4000504944204175746F74756E6520666169F4
:101A50006C656421204261642065787472756465E8
:101A600072206E756D6265720A004572723A207559
:101A700074663820666F6E74206E6F7420696E69AC
:101A80007469616C697A65642E004572723A2075DA
:101A900074663820666F6E74206E6F7420696E698C
:101AA0007469616C697A65642E004572723A2075BA
:101AB00074663820666F6E74206E6F7420696E696C
:101AC0007469616C697A65642E0000060C00FE077B
:101AD000022603BC017FFE08FE08FE05080806007A
:101AE0000040F0C88888987810050808060000C0F3
:101AF000F88888888888F80505050600012030F8F0
:101B000030200508080600002070F820202020E082
:101B10000509090600FF2070A8A8B888887020056C
:101B20000606060001E08CEA8C8A0A05090906000F
:101B3000FFF8A88888888888A8F8050A0A0600FEA1
:101B4000205050505088A8A8887003030306000353
:101B500040A040FFFFFFFFFFFFFFFFFFFFFFFFFF72
:101B6000FFFFFFFFFFFFFFFFFF0000000605FF0173
:101B70000707060200808080808000800303030640
:101B80000105A0A0A005060606000050F85050F878
:101B9000500509090600FF2070A8A07028A8702031
:101BA000050707060000C8C81020409898050707D9
:101BB00006000040A0A040A89068010303060205AB
:101BC0008080800309090601FF204040808080401A
:101BD00040200309090601FF8040402020204040AA
:101BE0008005070706000020A8702070A8200505C2
:101BF000050600012020F820200203030601FFC093
:101C00004080050101060003F8020202060100C03F
:101C1000C005070706000008101020404080050797
:101C200007060000708898A8C88870030707060197
:101C30000040C040404040E00507070600007088B3
:101C400008102040F8050707060000F808103008C3
:101C5000887005070706000010305090F810100536
:101C60000707060000F880F00808887005070706D7
:101C70000000304080F0888870050707060000F8F3
:101C800008101020202005070706000070888870C3
:101C9000888870050707060000708888780810603B
:101CA000020505060100C0C000C0C002060606010C
:101CB000FFC0C000C0408003050506010120408030
:101CC0004020050303060002F800F803050506019D
:101CD0000180402040800507070600007088102022
:101CE0002000200507070600007088B8A8B880709B
:101CF000050707060000708888F8888888050707A8
:101D0000060000F04848704848F005070706000044
:101D100070888080808870050707060000F04848BA
:101D2000484848F0050707060000F88080F08080EA
:101D3000F8050707060000F88080F080808005071E
:101D400007060000708880809888700507070600E5
:101D500000888888F8888888030707060100E04023
:101D600040404040E0050707060000381010101002
:101D700090600507070600008890A0C0A090880525
:101D80000707060000808080808080F8050707062E
:101D9000000088D8A888888888050707060000887A
:101DA00088C8A89888880507070600007088888872
:101DB000888870050707060000F08888F08080801A
:101DC00005070706000070888888A890680507073F
:101DD000060000F08888F0A090880507070600003C
:101DE00070888070088870050707060000F82020BA
:101DF000202020200507070600008888888888881A
:101E0000700507070600008888888850502005075D
:101E10000706000088888888A8A8500507070600DC
:101E200000888850205088880507070600008888A9
:101E30005020202020050707060000F80810204049
:101E400080F80309090601FFE0808080808080809F
:101E5000E005070706000080404020101008030935
:101E6000090601FFE020202020202020E0050303B8
:101E70000600052050880501010600FEF803030353
:101E800006010580402005050506000070087888D9
:101E9000780507070600008080F0888888F005052F
:101EA000050600007080808870050707060000089E
:101EB0000878888888780505050600007088F08015
:101EC00070050707060000304840E0404040050725
:101ED000070600FE708888887808700507070600E6
:101EE000008080F08888888803070706010040008A
:101EF000C0404040E00409090601FE100030101007
:101F00001010906005070706000080808890E09020
:101F100088030707060100C04040404040E0050537
:101F200005060000D0A8A8A8A8050505060000B071
:101F3000C8888888050505060000708888887005AF
:101F400007070600FEF0888888F0808005070706EE
:101F500000FE78888888780808050505060000B026
:101F6000C880808005050506000078807008F005AF
:101F700007070600002020F8202020180505050688
:101F8000000088888898680505050600008888880C
:101F900050200505050600008888A8A850050505FD
:101FA00006000088502050880507070600FE888834
:101FB0008850204080050505060000F8102040F8F4
:101FC0000309090601FF20404040804040402001B5
:101FD00009090602FF80808080808080808003095C
:101FE000090601FF80404040204040408005030337
:101FF00006000248A890FF626564002C2073797384
:1020000074656D2073746F7070656421204865611C
:102010007465725F49443A200042656420686561D6
:1020200074696E67206661696C65640048656174F7
:10203000696E67206661696C65640042454420549E
:102040004845524D414C2052554E4157415900543C
:102050006865726D616C2052756E617761790045BB
:10206000312048656174696E67206661696C6564DA
:102070000048656174696E67206661696C6564001B
:10208000453120544845524D414C2052554E415700
:10209000415900546865726D616C2052756E6177AC
:1020A000617900202D20496E76616C696420657825
:1020B000747275646572206E756D62657220210A96
:1020C0000070012C0190012701B0012201C0011D07
:1020D00001F00118011002130130020E0160020923
:1020E0000190020401C002FF000003FA004003F562
:1020F000008003F000D003EB002004E6007004E150
:1021000000E004DC004005D700C005D2004006CD49
:1021100000D006C8008007C3003008BE00F008B930
:1021200000C009B400B00AAF00B00BAA00D00CA5E3
:1021300000000EA000500F9B00C01096005012919E
:102140000000148C00C0158700B0178200B0197D04
:1021500000D01B7800001E730040206E00902269A2
:1021600000F024640040275F0090295A00E02B55BE
:1021700000102E500020304B0010324600E033415A
:102180000090353C001037370070383200A0392DF0
:1021900000B03A2800A03B2300603C1E00103D190F
:1021A00000903D1400103E0F00703E0A00C03E0536
:1021B00000003F0000403FFBFF803FF6FFC03FF1C3
:1021C000FF453120544845524D414C2052554E4117
:1021D0005741590042454420544845524D414C20F6
:1021E00052554E4157415900546865726D616C20DB
:1021F00052756E61776179004531204572723A20DF
:102200004D415854454D50004572723A204D415849
:1022100054454D5020424544004D415854454D5081
:102220002074726967676572656400453120457284
:10223000723A204D494E54454D50004572723A2035
:102240004D494E54454D5020424544004D494E5451
:10225000454D5020747269676765726564004D383A
:102260003420582059205A204500202F0020424079
:102270003A0020403A0025753A2530327500253065
:1022800032753A2530327500257564202530327557
:102290003A253032750020202020202020002020E8
:1022A0002020001FE02010201020101020102020DF
:1022B00010201030300840048003001FE03FF03F42
:1022C000F03FF01FE01FE03FF03FF03FF00FC0078E
:1022D0008003003FFFF038007030FC3020FC1020FD
:1022E00078102030102C00D02E31D02F7BD02F7BB7
:1022F000D02E31D02C00D020301020781020FC10AF
:1023000030FC303800703FFFF03FFFF03800703194
:1023100086302387102787902F87D02F03D0203037
:10232000102078102078102030102F03D02F87D065
:102330002787902387103186303800703FFFF01FC9
:10234000FFF81FFFF80410400208200208200410C4
:1023500040082080104100104100082080041040F7
:102360000000001FFFF81FFFF85072656865617478
:1023700020504C4120456E64005072656865617460
:1023800020504C412042656400507265686561745C
:1023900020504C410054656D7065726174757265B2
:1023A00000507265686561742041425320456E6437
:1023B0000050726568656174204142532042656433
:1023C0000050726568656174204142530054656D28
:1023D000706572617475726500436F6F6C646F77BE
:1023E0006E005072656865617420414253005072FE
:1023F000656865617420504C410046616E207370C1
:102400006565640046616E207370656564004265B1
:102410006400426564004E6F7A7A6C65004E6F7A94
:102420007A6C65004D61696E00466C6F7700466C92
:102430006F770046616E2073706565640046616E5B
:102440002073706565640042656400426564004EF7
:102450006F7A7A6C65004E6F7A7A6C65005370659E
:102460006564005370656564004D61696E004D617F
:10247000782054656D703A20313235004D696E20F8
:1024800054656D703A203500544265643A455043B6
:102490004F53203130304B004D61782054656D70C2
:1024A0003A20333030004D696E2054656D703A200B
:1024B000350054303A204550434F53203130304B93
:1024C000005053553A2047656E657269630050723B
:1024D0006F746F636F6C3A20312E30004261756407
:1024E0003A20313135323030004D656C7A69202820
:1024F000437265616C6974792900457874727564FA
:102500006572733A203100687474703A2F2F6D61D0
:10251000726C696E66772E6F726700456E646572C5
:102520002D3500323031392D30372D303500627580
:10253000676669782D322E302E78004D61726C6995
:102540006E00546865726D6973746F727300426FC8
:1025500061726420496E666F005072696E746572B4
:1025600020496E666F004D61696E003F0053746FC5
:1025700070207072696E74004261636B0053746FF7
:1025800070004D3235005072696E74207061757341
:102590006564005061757365207072696E74004DDA
:1025A000323400496E69742E205344206361726492
:1025B000004D3231005072696E742066726F6D206A
:1025C00053440052656C6561736520534420636118
:1025D0007264004D32320041626F7574205072692E
:1025E0006E74657200436F6E6669677572617469B7
:1025F0006F6E0054656D7065726174757265004D23
:102600006F74696F6E00526573756D6520707269C5
:102610006E7400436172642072656C6561736564F9
:102620000054756E650053746F70207072696E741B
:10263000005061757365207072696E7400496E6632
:102640006F2073637265656E00220A00556E6B6EB3
:102650006F776E20636F6D6D616E643A202200208B
:10266000746F6F206C6F6E67206578747275736914
:102670006F6E2070726576656E7465640A00206303
:102680006F6C6420657874727573696F6E207072F8
:102690006576656E7465640A006F70656E005452ED
:1026A00049474745524544003A20007A5F6D696EBC
:1026B00000795F6D696E00785F6D696E00526570BC
:1026C0006F7274696E6720656E6473746F702073C7
:1026D00074617475730A00205A3A0020593A002038
:1026E000436F756E7420583A0020453A00205A3ADC
:1026F0000020593A00583A005761726E696E673A85
:1027000020486F6D696E672042756D702044697650
:1027100069736F72203C20310A000202040000A09D
:10272000400000A04000000040220A00656E717564
:10273000657565696E672022006F6B005265736571
:102740006E643A200053544F505045442E200050A0
:1027500072696E7465722073746F70706564206442
:10276000756520746F206572726F72732E204669D2
:102770007820746865206572726F7220616E6420C3
:10278000757365204D39393920746F207265737403
:102790006172742E202854656D7065726174757253
:1027A000652069732072657365742E2053657420EB
:1027B00069742061667465722072657374617274E5
:1027C000696E67290A004E6F20436865636B7375F5
:1027D0006D2077697468206C696E65206E756D6216
:1027E00065722C204C617374204C696E653A200030
:1027F0004E6F20436865636B73756D2077697468ED
:10280000206C696E65206E756D6265722C204C615E
:102810007374204C696E653A2000636865636B735E
:10282000756D206D69736D617463682C204C6173E4
:1028300074204C696E653A20004C696E65204E75B7
:102840006D626572206973206E6F74204C617374C1
:10285000204C696E65204E756D6265722B312C209F
:102860004C617374204C696E653A20004D313130F3
:10287000004D3331005344207265616420657272EB
:102880006F720A00446F6E65207072696E74696EB3
:10289000672066696C650A0020573A004520436F3F
:1028A0006F6C696E672E2E2E004520486561746935
:1028B0006E672E2E2E002E0A006F70656E206661E8
:1028C000696C65642C2046696C653A200046696C29
:1028D0002E204469612E0046696C2E204469612EC9
:1028E000004F6666004F6E004520696E206D6D5E7C
:1028F0003300416476616E63656420536574746966
:102900006E6773004D6F76652058004D6F766520B9
:1029100059004D6F7665205A00457874727564656C
:1029200072004578747275646572004D6F7665202B
:102930005A004D6F76652059004D6F76652058001E
:102940004D6F74696F6E0044697361626C652073CA
:1029500074657070657273004D3834004175746F22
:1029600020686F6D6500473238004D6F76652061D5
:10297000786973004D61696E003F00537461727431
:10298000207072696E74200043616E63656C005044
:1029900072696E740043616E6E6F7420656E74654B
:1029A00072207375626469723A2000022E2E000153
:1029B00052656672657368004D61696E00436172AD
:1029C0006420696E73657274656400486F6D65207C
:1029D00025732573257320666972737400206669F8
:1029E0007273740A00486F6D652000008FD202D1A7
:1029F00011241FBECFEFD0E4DEBFCDBF12E0A0E0B8
:102A0000B1E0E0E5F0EC01E00BBF02C007900D92F1
:102A1000AE32B107D9F722E1AEE2B2E001C01D92B9
:102A2000A13CB207E1F714E1C7EFD4E104C021975C
:102A3000FE010E947FDFC63FD107C9F70E94C4CBC9
:102A40000C941BE00C9400002F923F924F925F92E7
:102A50006F927F928F929F92AF92BF92CF92DF92AE
:102A6000EF92FF920F931F93CF93DF93CDB7DEB713
:102A7000C554D1090FB6F894DEBF0FBECDBF20916B
:102A8000DC022BAF41E04093DC028091DB028D340D
:102A900009F44AC3843511F40C947824873411F076
:102AA0000C9493242091D9023091DA02253131051A
:102AB00011F40C9495247CF4243031053CF422303C
:102AC00031050CF0F0C037FF24C02AC32430310593
:102AD00009F4F8C025C32E31310509F4DDC14CF4E9
:102AE0002B31310509F42CC12C31310509F4C4C155
:102AF00017C32B35310509F44BC22C35310509F4C8
:102B00004BC22A35310509F00BC31092D8020C9440
:102B1000952480912701882311F40C9495240E9418
:102B20009F2B80912001882321F088EC92E00E9465
:102B300070AB8091A40B83FD7DC0C090D402D09077
:102B4000D502E090D602F090D7022091C4023091D5
:102B5000C5024091C6025091C702C701B6010E944A
:102B6000D6D7882309F466C08091DA0681111FC088
:102B70006091DF067091E0068091E1069091E20697
:102B80000E9486DD20914E0130914F01621773073C
:102B900074F4C092C402D092C502E092C602F092D0
:102BA000C7020E942A2D8DEC96E00E94042D809091
:102BB000D4029090D502A090D602B090D702209176
:102BC000C4023091C5024091C6025091C702C501AE
:102BD000B4010E9419DC6B017C0120E030E0A90106
:102BE0000E947ADE87FF04C0F7FAF094F7F8F094B9
:102BF00020914A0130914B0140914C0150914D017F
:102C0000C701B6010E943CD820E030E048E453E41C
:102C10000E947ADE181674F48092C4029092C50263
:102C2000A092C602B092C7020E942A2D8EEA96E0B8
:102C30000E94042D6091250170912601072E000C41
:102C4000880B990B0E94DDD7209121013091220140
:102C500040912301509124010E943CD82AE037ED95
:102C600043E25CE30E943CD868A779A78AA79BA7A8
:102C7000C12CD12C76018E01085D1F4F24ED32E06E
:102C800040ED52E06CEC72E088EC92E00E943AA7D2
:102C900080E1E8ECF2E0A8EBB2E001900D928A95B9
:102CA000E1F70C94952480912701882311F40C946A
:102CB000952481E02230310509F080E00E947B30CC
:102CC0000C94952480E50E94922B882329F00E9481
:102CD000D22A6B017C0103C0C12CD12C760183E583
:102CE0000E94922B882361F00E94162B20E030E096
:102CF0004AE754E40E943CD80E948DDD6B017C01C0
:102D00000E94635880915D06811105C060E085EAEC
:102D100096E00E94184D0E94864EC60ED71EE81EF1
:102D2000F91E0E94864EDC01CB018C199D09AE096B
:102D3000BF09B7FD02C00C9495240E94E82DF1CF85
:102D40000E943DCB81110C94952480E090E0A0E29C
:102D5000B1E489839A83AB83BC8380E090E0A7E5EC
:102D6000B3E48D839E83AF83B88780E090E0A0EAD0
:102D7000B1E489879A87AB87BC8760E070E080E523
:102D80000E94232C40E050E068EC72E44CA35DA369
:102D90006EA37FA340E050E060EA70E448A359A32B
:102DA0006AA37BA3813019F0823039F029C0BE01BB
:102DB000605E7F4FCE01099644C029853A854B85D8
:102DC0005C856091C0027091C1028091C2029091B5
:102DD000C3020E941ADC6B017C0120E030E046E96E
:102DE00053E40E94D6D787FD06C0C12CD12CA6E99A
:102DF000EA2EA3E4FA2ECC8EDD8EEE8EFF8E1CC062
:102E0000E090C002F090C1020091C2021091C30292
:102E1000A984BA84CB84DC849501A601B701C801DA
:102E20000E94D6D787FF02C075018601C701D8016D
:102E30008C8F9D8FAE8FBF8FBE01605E7F4FCE01A6
:102E40004C960E9419ADE090C002F090C102009132
:102E5000C2021091C3022D813E814F815885698144
:102E60007A818B819C81DE0194966D010E945AAC1F
:102E70000E94C5AE0C9495248091BA128770873059
:102E800011F00C949B2460E08FE40E94492C811186
:102E90000C9495240C949B24C090B802D090B90255
:102EA000E090BA02F090BB0288E50E94922B81115B
:102EB00009C020E030E040E252E4C701B6010E94C0
:102EC0001ADC02C00E94162B2B013C01C090BC02F0
:102ED000D090BD02E090BE02F090BF0289E50E9452
:102EE000922B811109C020E030E040E251E4C7019B
:102EF000B6010E941ADC02C00E94162B4B015C0135
:102F000020E030E040E251E40E9419DC6CA77DA78C
:102F10008EA79FA727E137EB41ED58EB0E947ADEA1
:102F200087FF02C00C94952427E030E041E653E48B
:102F30006CA57DA58EA59FA50E94D6D7181614F462
:102F40000C94952420E030E040E252E4C301B20149
:102F50000E9419DC68AB79AB8AAB9BAB27E137EBFE
:102F600041ED58EB0E947ADE87FF02C00C94952455
:102F700027E030E041E653E468A979A98AA99BA932
:102F80000E94D6D7181614F40C9495240C94F325AB
:102F90004093D8020C9495244FE5242E41E0342E22
:102FA0005CE8E52E52E0F52EA8EBB2E0BDA7ACA799
:102FB00065EAC62E62E0D62E00E010E0F1018191B4
:102FC0001F010E94922B882309F44AC00E94162BED
:102FD0002B013C01133049F0D6012D913D914D91CB
:102FE0005C910E9419DC2B013C01ECA5FDA5208120
:102FF000318142815381C301B2010E9419DC4B012E
:103000005C012DEB37E346E855EB0E947ADE87FD45
:103010000AC02DEB37E346E855E3C501B4010E9431
:10302000D6D71816ECF4133051F44092C4025092E3
:10303000C5026092C6027092C70201E011C0A501EC
:103040009401D7016D917D918D919C910E941ADC24
:10305000F7016083718382839383812F0E9402AC86
:103060001F5FF4E0EF0EF11C2CA53DA52C5F3F4F38
:103070003DA72CA734E0C30ED11C143009F09ECF1D
:10308000002309F449C02091C50B3091C60B409133
:10309000C70B5091C80B6091C4027091C50280911A
:1030A000C6029091C7020E943CD80E9487DE6093BE
:1030B000A50F7093A60F8093A70F9093A80F9091E0
:1030C000830F8091840F981719F00E94055824C02F
:1030D0000E94635880916F00982F927081FF05C005
:1030E00080916F008D7F80936F004091A50F50916C
:1030F000A60F6091A70F7091A80F4093880250937C
:10310000890260938A0270938B02992329F080913F
:103110006F00826080936F000E94C5AE0C9495246E
:103120000E94CAA70C9495248091D9029091DA024A
:103130008237910509F40AC70CF0F4C08B3491056D
:1031400009F4CFC40CF08AC08831910509F4CDC2CE
:103150000CF058C08231910509F40EC6BCF497FFFB
:1031600002C00C947524823091050CF429C2419759
:1031700011F00C94752460E08DE396E00E94184DE8
:103180005E985E9815985E980C949524853191050B
:1031900009F48DC254F5449711F00C9475248CE217
:1031A00096E00E94042D1092780285E69FE00E942E
:1031B000403B8BE1E5E6FFE0DE01119601900D92C8
:1031C0008A95E1F740E050E0BE016F5F7F4F80E0FD
:1031D00090E00E94DA64CE0101960E945A3E8DE191
:1031E00096E00E94042D0C9495248631910509F4F3
:1031F00062C2479711F00C947524E0917A02F09125
:103200007B0266C28D31910509F4F5C2C4F48A319E
:10321000910509F48FC20CF474C28B31910509F445
:1032200097C24C9711F00C94752440E060E08091B7
:103230007A0290917B020E9478660C9495248F31DB
:10324000910509F484C30CF4DDC28032910509F4C0
:1032500038C38A9709F425C40C94752488369105DF
:1032600009F458C4ACF58235910509F47EC504F51E
:103270008D34910509F44BC40CF436C481359105A5
:1032800011F00C9475240E94DA800E945F460E941F
:1032900030A90E94BB2C68EE73E080E090E00E94B1
:1032A0005E2C60E082E195E00E94184D0C9495241C
:1032B0008435910509F460C50CF45AC5853591052E
:1032C00009F48DC58C35910509F4A2C50C947524BB
:1032D0008D36910509F43DC4ACF48A36910509F4A4
:1032E0001CC50CF4E0C48B36910509F434C58C364A
:1032F000910511F00C9475241092790210921F011F
:103300000C9495248F36910509F437C40CF424C429
:103310008037910509F475C48137910509F475C4A6
:103320000C9475248D3D910511F40C94DF210CF063
:10333000BBC08B39910509F4CAC40CF08BC0873728
:10334000910509F443C60CF075C08537910509F461
:1033500002C60CF008C68337910511F00C94752451
:1033600088E494E00E94042D60E088E394E00E94E9
:10337000443760E083E294E00E94443761E08CE1EE
:1033800094E00E94443761E081E194E00E94443778
:1033900061E081E094E00E94443760E088EF93E0D0
:1033A0000E94443761E08EEE93E00E94443760E073
:1033B00084EE93E00E94443761E08CED93E00E943C
:1033C000443760E08EEC93E00E94443760E080EC8C
:1033D00093E00E94443760E081EB93E00E94443721
:1033E00060E083EA93E00E94443760E08DE893E078
:1033F0000E94443760E08CE793E00E94443760E02D
:103400008DE693E00E94443760E088E593E00E94F7
:10341000443761E085E493E00E94443760E088E34C
:1034200093E00E94443760E084E293E00E944437D6
:103430000C9495248937910509F4D3C50CF4C9C5BA
:103440008C38910509F403C48139910509F4D0C57C
:103450000C9475248C3C910509F4B7C6ACF4883CF7
:10346000910509F420C634F48E3B910509F409C492
:103470000C947524893C910509F462C68B3C910536
:1034800009F481C60C9475248E3C910509F4BEC6DE
:103490000CF4A9C6833D910509F4DAC68C3D91056B
:1034A00009F480C70C9475248C3A51E0950711F407
:1034B0000C9467230CF040C08F32B1E09B0711F4ED
:1034C0000C945823D4F48C32F1E09F0711F40C943F
:1034D000802234F4823E910509F4C7C70C94752408
:1034E0008D3231E0930711F40C9495228E32914085
:1034F00011F40C9414230C947524813951E0950730
:1035000011F40C945B234CF48039914011F00C942D
:1035100075240E9463580C9495248239E1E09E073B
:1035200011F40C9461238A39914011F00C947524A4
:103530000E94822C0C949524883F21E0920711F47C
:103540000C9412241CF5853F41E0940711F40C946F
:103550000C244CF4843F914011F00C9475240E948B
:1035600040410C949524863FB1E09B0711F40C94E4
:103570000F24873F914011F00C94752461E083E59E
:103580000E94492C0E94F26E0C9495248335F3E03E
:103590009F0711F40C942A243CF48C30924011F4CF
:1035A0000C9422240C947524803A43E0940709F487
:1035B000BEC1873E934011F40C9467240C9475248B
:1035C000A0907A02B0907B0280E50E94922B882323
:1035D00059F00E94D22A6B017C0111E0672B682B05
:1035E000692B31F410E004C010E0C12CD12C76011D
:1035F00083E50E94922B882311F40C94B9270E9432
:10360000162B20E030E04AE754E40E943CD80E94A8
:103610008DDD6B017C0111110BC0672B682B692BB1
:1036200039F4A114B10421F0D5018C91811102C0AB
:1036300010E001C011E00E946358112329F061E0FD
:10364000C5010E94CCC705C060E086E496E00E94F8
:10365000184D83E08093DC0281E080937902C114ED
:10366000D104E104F104B1F00E94864EC60ED71ECB
:10367000E81EF91E0E94864EDC01CB018C199D09C3
:10368000AE09BF09B7FF0DC08091790281110C947A
:10369000BE2707C080917902882319F00E94E82D87
:1036A000F9CF0E94664D109279020C9495240E94E5
:1036B000C1630C9495240E940E6380912211877F30
:1036C000809322110C949524803209F41082319653
:1036D00080818111F9CF40E061E080917A02909180
:1036E0007B020E9478660C9495240E9418B288236D
:1036F00021F00E941D630E943B460E94664D0C947F
:1037000095248091221182FF03C08B7F8093221128
:1037100080917702813089F782E0809377020E945E
:10372000864E609373027093740280937502909337
:103730007602E3CF8091221183FD02C00C94952480
:1037400083E50E94922B81110C94C2270C9495243E
:1037500083E40E94492B882319F18BEE95E00E94A7
:10376000042D80910F0F882391F0BE016F5F7F4F72
:103770008CE09FE00E94EA3D8E010F5F1F4FF80131
:1037800081918F01882339F00E94FD2CF8CF81EEC2
:1037900095E00E94042D8AE00E94FD2C0C94952453
:1037A0008091221182FF21C08AEF95E00E94042DB2
:1037B00060911E1170911F11809120119091211123
:1037C0004AE00E94A0358FE20E94FD2C60911A1100
:1037D00070911B1180911C1190911D114AE00E9463
:1037E000A0350E943E370C9495248CE096E00E9410
:1037F000042D0C949524809122118E7F80932211A8
:103800000C9495248091221183FD02C00C94952480
:103810000E94B3A78091221183FD02C00C949524CD
:1038200060917A0270917B02CE014C960E948CB915
:103830008C01009711F40C9495246C8D7D8D198268
:103840001C8222E0AC01CE0101960E944F40811102
:1038500002C0F12C14C0CE0101960E94FAB8882350
:10386000C1F361E0CE0101960E94CE3D009789F33D
:1038700025EEDC012C931C820E946338F82ECE01C9
:1038800001960E945A3EB801FF2089F083ED95E031
:103890000E94132D8AE00E94FD2C10921E1110929E
:1038A0001F1110922011109221110C9495248BEB72
:1038B00095E00E94132D88EB95E00E94042D0C9456
:1038C00095248091221182FD0E94635880912211DB
:1038D00083FD02C00C94952460E080E50E94492C91
:1038E000182F482F61E080917A0290917B020E940C
:1038F000786683E50E94922B882381F00E94E22A59
:10390000AB01BC0140931E1150931F116093201115
:10391000709321118CE09FE00E94A93A0E941D63E0
:1039200011110C9495240E943B460C9495242091EF
:103930007A0230917B029091221192609093221131
:1039400040E060E0C9010E9478660C9495240E94D2
:10395000EC457B018C0120E831E541E050E00E941C
:10396000DDDBC9016DE671E00E9438DF4B015C01CF
:10397000C801B70120E13EE040E050E00E94DDDBFD
:10398000CA01B90128E130E040E050E00E94DDDBEF
:10399000762E672EC62ED72E3CE3232E312C412CBB
:1039A000512CC801B701A20191010E94DDDBF62E66
:1039B000E72ECA01B901A20191010E94DDDBCB0112
:1039C0008E010F5F1F4F8114910499F0EF92FF92C7
:1039D0007F936F936F927F92BF92AF929F928F92DD
:1039E00087E995E09F938F931F930F930E946ED763
:1039F00013C0A114B104B1F0EF92FF927F936F93C3
:103A00006F927F92BF92AF9287E895E09F938F93DA
:103A10001F930F930E946ED70FB6F894DEBF0FBEB0
:103A2000CDBF30C0CD2879F0EF92FF927F936F9396
:103A30006F927F928BE795E09F938F931F930F93E5
:103A40000E946ED7E9CF892B69F0EF92FF927F93A6
:103A50006F9383E795E09F938F931F930F930E943B
:103A60006ED7DACFEF92FF928FE695E09F938F9318
:103A70001F930F930E946ED70F900F900F900F908F
:103A80000F900F9060E0C8010E94CCC70E942A2DC1
:103A9000B8018BEA95E00E94132D8AE00E94FD2C6C
:103AA00044C783E50E94922B882309F43EC70E94F5
:103AB000F22AF82E6FEF7FEF80E50E94362C8C0102
:103AC00097FD33C7E82E60E089E40E94492C8111FC
:103AD0000C94D327802F0E949FCB8111E3C40C94B8
:103AE000D3270E943B4621C780917702813009F09D
:103AF0001CC782E0809377020E94864E6093730217
:103B00007093740280937502909376020EC70E94A0
:103B10005F460BC78091A40B83FD07C70E945436F4
:103B200087FD03C783E50E94922B882379F00E94CA
:103B3000162B0E9486DD8B01CB010E94C9800635C1
:103B4000110524F40E945F460E94664D0E948E5724
:103B5000ECC60E9420B0E9C68EE40E94922B882316
:103B600009F4E3C60E94E22A60936F027093700228
:103B70008093710290937202D8C683E50E94492B0C
:103B8000882329F083E50E9498CB8093A40B0E94A0
:103B90002A2D89E595E00E94042D8091A40B8823AD
:103BA00069F12FE4E22E25E0F22E00E010E020E0A3
:103BB0008091A40B90E0A0E0B0E0002E04C0B69588
:103BC000A795979587950A94D2F780FF0EC0DD24BC
:103BD000D394D20E222319F08CE20E94FD2CF7011F
:103BE000859194910E94042D2D2D0F5F1F4F92E01F
:103BF000E90EF11C05301105D9F6CDCD8BE495E029
:103C0000C8CD80E090E00E942E2D83E50E94922B8B
:103C1000882371F00E94F22A282F30E02D333105DD
:103C20001CF480931E0181C68CE380931E017DC627
:103C30000E942A2D40911E0150E060E070E084E473
:103C400095E00E940D368AE00E94FD2C6EC68091A0
:103C5000A40B83FD6AC683E50E94922B882309F496
:103C600064C60E94162B0E9486DD6337710514F02E
:103C700063E770E070936D0260936C020E94947E23
:103C800054C68091A40B83FD50C683E50E94922BFD
:103C90008CAF81110C94E62782E50E94922B811152
:103CA0000C94E62742C60E945436182F87FD0AC09E
:103CB0008FE195E00E94042D812F0E94D07F8AE041
:103CC0000E94FD2C2BAD2093DC020C94B82A83E5D6
:103CD0000E94922B882309F428C60E94F22A182FEA
:103CE00090E0CD970CF01CE310935F020E94864E8B
:103CF0006B017C01212F30E0A8EEB3E00E940ADCCA
:103D0000C60ED71EE81EF91EC0925B02D0925C025E
:103D1000E0925D02F0925E0208C680E50E9498CBB8
:103D2000811103C681E40E94492B882321F0609110
:103D3000C90670E002C06FEF70E083E50E94232C9B
:103D40008F3F910519F010F08FEF90E08093C90636
:103D500080935A02EAC580E50E9498CB8111E5C59F
:103D60001092C90610925A02E0C510925902DDC5A0
:103D700081E080935902D9C583E50E94922B882364
:103D800099F00E94162B20E030E04AE754E40E94AC
:103D90003CD80E948DDD60931A0170931B018093C3
:103DA0001C0190931D01C1C588E50E94492B81111A
:103DB0000C94932989E50E94492B81110C94932935
:103DC0008AE50E94492B81110C94932985E40E9475
:103DD000492B81110C9493290E9430A9A6C583E533
:103DE0000E94492B882309F4A0C50E94162B20E0CD
:103DF00030E04AE754E40E943CD80E948DDD609395
:103E000052027093530280935402909355028DC5D1
:103E10000E94543687FD89C590914E0294FD04C0DE
:103E20009091500297FF0AC01FE5C12E11E0D12EDC
:103E300005EAE02E0BE0F02E10E009C0909151024F
:103E4000937091F7682F81E00E9403376EC5D60109
:103E50008D916D010E94922B882309F46DC013305F
:103E600009F063C00E94162B4B015C0120E030E09A
:103E700040EA51E40E94D6D787FF4EC0A5019401C5
:103E80006091C50B7091C60B8091C70B9091C80BC8
:103E90000E9414DD2B013C019B01AC016091AD0639
:103EA0007091AE068091AF069091B0060E943CD80A
:103EB0006093AD067093AE068093AF069093B00604
:103EC000A30192016091D50B7091D60B8091D70B15
:103ED0009091D80B0E943CD86093D50B7093D60B71
:103EE0008093D70B9093D80B6091BD067091BE065E
:103EF0008091BF069091C0060E94DBD7A30192017A
:103F00000E943CD80E948DDD6093BD067093BE0672
:103F10008093BF069093C0068092C50B9092C60B0B
:103F2000A092C70BB092C80B07C00E94162BF701D6
:103F3000648B758B868B978B1F5FF4E0EF0EF11C03
:103F4000143009F084CF0E944859EFC40E9463588E
:103F50000E94C5AEEAC460E080917A0290917B0233
:103F60000E94CCC7E2C400917A0210917B0283E0E8
:103F7000F12C40E08150E9F0D8019C91292F2B7F52
:103F80002134C1F711962C912133A1F7913421F0FE
:103F9000953421F441E002C0FF24F39498012E5F90
:103FA0003F4F89012F5F3F4FF80190819032C9F355
:103FB000E1CF41110E942A2DFF2021F080E293E001
:103FC0000E94042DC8010E945E37AFC40E94E1AF79
:103FD000ACC481E08093B5028093B6020E94FCAF2E
:103FE000A4C41092B5021092B6020E94FCAF9DC408
:103FF00060E070E083E50E94362C8C0111270230CE
:1040000011053CF00E94262D8EEF92E00E94042DB7
:104010008CC488E40E94922B8823A9F00E94E22A93
:104020006A3A71053CF06E31F1E07F072CF06DE1EA
:1040300071E002C06AEA70E0F801EE0FFF1FE65B74
:10404000FD4F7183608386E40E94922B882381F068
:104050000E94E22A77FD07C06F3F710529F024F026
:104060006FEF70E001C060E0F801E85BFD4F608336
:1040700082E40E94922B882309F457C40E94E22A0A
:104080006530710534F0643771052CF063E770E03A
:1040900002C065E070E0000F111FF801EC5BFD4FFE
:1040A0007183608342C40E945436182F87FD3DC43B
:1040B00084E40E94492B882309F43FC00E94162BF8
:1040C0006B017C0101E020E030E0A9010E94D6D71D
:1040D000811101C000E00093430220E030E0A9011B
:1040E000C701B6010E94D6D7882339F10E94162B4A
:1040F00024E01202F0011124E15CFD4F6083718322
:104100008283938320E030E0A90160913F027091A7
:10411000400280914102909142020E94D6D78111C3
:104120000CC080E090E0A0EEBFE380933F0290934C
:104130004002A0934102B09342020E94D8A7F5C367
:104140000E94543687FDF1C3FFE5EF2EF1E0FF2E0C
:1041500005EA1BE0D7018D917D010E94492B882340
:1041600049F00E94162B0E948DDDF8016083718357
:10417000828393830C5F1F4FFBE0053B1F0751F7C2
:104180000E94BE57D2C30E94543687FDCEC37FE53E
:10419000E72E71E0F72E05EA1BE0E5EBCE2EEBE013
:1041A000DE2ED7018D917D010E94492B882339F0A5
:1041B0000E94162BF80164A375A386A397A30C5F36
:1041C0001F4FC016D10669F7B0C380914F0287FF19
:1041D00002C00C94B829809150028E7011F00C949A
:1041E000B8290C94FE2980914E02827111F00C9432
:1041F000262A809150028C7811F00C94262A809106
:104200005102837011F00C94262A8FC35FE5C52EEE
:1042100051E0D52E63E3E62E62E0F62E10E0D601E3
:104220008D916D010E94492B882351F00E94162B1D
:10423000F7016083718382839383812F0E9402AC94
:104240001F5FF4E0EF0EF11C133049F70C948C184B
:104250000E942A2D88ED92E00E94042D83E50E94A1
:10426000492B882321F00E94062B80932001809106
:104270002001882319F085EB92E002C081EB92E0E7
:104280000E94042D80ED92E00E94042D4090A50232
:104290005090A6026090A7027090A802209102019F
:1042A000309103014091040150910501C301B20115
:1042B0000E941ADCAB01BC018EEC92E00E94F23647
:1042C0008090A9029090AA02A090AB02B090AC029C
:1042D00020910A0130910B0140910C0150910D0188
:1042E000C501B4010E941ADCAB01BC018BEC92E069
:1042F0000E94F236C090AD02D090AE02E090AF02C4
:10430000F090B002209112013091130140911401FC
:1043100050911501C701B6010E941ADCAB01BC0126
:1043200088EC92E00E94F23680EC92E00E94042D2C
:104330002091060130910701409108015091090137
:10434000C301B2010E941ADCAB01BC018EEB92E00A
:104350000E94F23620910E0130910F014091100120
:1043600050911101C501B4010E941ADCAB01BC01DE
:104370008BEB92E00E94F2362091160130911701EA
:104380004091180150911901C701B6010E941ADC31
:10439000AB01BC0188EB92E00E94F2368AE00E94F9
:1043A000FD2CC3C283E50E94922B882309F4BDC271
:1043B0000E94E22A7093260160932501B6C20E94F2
:1043C0005436F82E87FDB1C283E50E94922B0F2D43
:1043D0000F2C000C110B882369F10E94E22AF801CE
:1043E000EE0FFF1FE050FF4F71836083000F111F1E
:1043F000000F111F9801265B3E4F7901072E000C1C
:10440000880B990B0E94DDD72AE037ED43E25CE38D
:104410000E943CD8F801E15DFD4F2081318142814D
:1044200053810E943CD8D7016D937D938D939C93CB
:1044300013977BC20E942A2D85E40E94FD2C80E305
:104440008F0D0E94FD2C000F111FF801E050FF4F4F
:104450006081718189EA92E00E94473685E20E947C
:10446000FD2C8AE00E94FD2C60C280E50E94492B51
:10447000882309F45AC260E070E080E50E94362C7F
:10448000F82E6FEF7FEF83E50E94362C8C010196AA
:10449000039708F04AC2F7FC48C28F2D0E949FCBB9
:1044A000882339F00E94262D80E695E00E94042D95
:1044B0003CC20E94635860E08F2D0E94A46D0F3FA4
:1044C000BFEF1B0731F00130110571F000E010E083
:1044D0000DC08F2D0E944C6D31E020E0892B09F03A
:1044E00030E0032F122F02C001E010E08F2D0E9458
:1044F0004C6D8017910709F418C20E94E82DF6CF81
:1045000064E071E083E50E94232C8C0168EE73E087
:1045100080E50E94232C8938E3E19E0710F088E8AB
:1045200093E1B8010E94EB4C00C285E40E9498CB55
:10453000811173C080E50E94492B882351F00E94AD
:10454000162B6093E6067093E7068093E806909337
:10455000E90689E40E94492B882381F00E94162BEA
:104560002CEA35EC47E25EE30E943CD86093EA0611
:104570007093EB068093EC069093ED0684E40E9422
:10458000492B882381F00E94162B2CEA35EC47E258
:104590005EE30E9414DD6093EE067093EF06809355
:1045A000F0069093F1060E942A2D4091E606509164
:1045B000E7066091E8067091E90685EA92E00E94BC
:1045C000F2362CEA35EC47E25EE36091EA06709140
:1045D000EB068091EC069091ED060E9414DDAB0194
:1045E000BC0181EA92E00E94F2362CEA35EC47E207
:1045F0005EE36091EE067091EF068091F006909177
:10460000F1060E943CD8AB01BC018DE992E00E940A
:10461000F2368AE00E94FD2C88C10E94262D8BE88C
:1046200092E00E94042D81C183E50E94492B182F3E
:10463000882371F00E94162B0E9486DD70934F0133
:1046400060934E0121E0672B09F020E02093DA0609
:1046500080E50E94492B882359F020914E0130912A
:104660004F01232B11F00E94062B8093DA065DC1C7
:1046700011115BC10E942A2D88E792E00E94042D4F
:104680008091DA06882319F080E692E002C08CE57A
:1046900092E00E94042D60914E0170914F0187E6D7
:1046A00092E00E94473683E692E00E94042D3DC1CD
:1046B0000E949C7A3AC181E00E94E6560E94C5AEF3
:1046C00034C180E00E94E6560E94C5AE2EC10E9411
:1046D0003DCB81112AC100E512E028EB32E03DA775
:1046E0002CA7AE014F5F5F4F4A0192EAA92E96E0D8
:1046F000B92E1A01F8016591759185919491ACA537
:10470000BDA5CD90DD90ED90FD90BDA7ACA7A70114
:1047100096010E9419DC2B013C01F1016083718339
:104720008283938320E030E040EA51EC0E947ADEFD
:1047300087FD0AC020E030E040EA51E4C301B20145
:104740000E94D6D718162CF4F501849118160CF493
:10475000E8C6D101CD90DD90ED90FD901D0120E0E7
:1047600030E040EA51ECC701B6010E947ADE87FDD5
:104770000AC020E030E040EA51E4C701B6010E94DF
:10478000D6D71816A4F40E94262D82E392E00E9448
:10479000042D61E084E292E00E94184D0E94E7BD82
:1047A00068E270E088EC90E00E94EB4CBEC00C5FC9
:1047B0001F4FBFEFAB1ABB0AE2E00C351E0709F032
:1047C00099CF83E3E82E82E0F82E10E0F401819186
:1047D0009191A191B1914F01F70181939193A1938F
:1047E000B1937F01812F0E9402AC1F5F133071F7DC
:1047F0000E94C5AE60E084E192E00E94184D63E93A
:1048000072E084E690E00E94EB4C6AEB72E084E692
:1048100090E00E94EB4C89C00E94487786C00E94BD
:10482000EB6D83C040932E020E945A7110922E02AB
:10483000882309F47AC00E942A2D89E092E00E9420
:10484000042D73C08091221182FF6FC0806280931B
:1048500022116BC08AE50E94922B882331F10E94BD
:10486000162B6B017C0120E030E040EA51EC0E9405
:104870007ADE87FD13C020E030E040EA51E4C70152
:10488000B6010E94D6D718164CF0C092B102D09251
:10489000B202E092B302F092B40247C00E94262D09
:1048A0008BED91E00E94042D40C00E942A2D409182
:1048B000B1025091B2026091B3027091B40288EFDC
:1048C00091E00E94F2368AE00E94FD2C2EC081E029
:1048D000809327011092A00660E083E50E94492C96
:1048E000811123C00E9478B320C00E94CAA71DC0B6
:1048F0000091D9021091DA020023B9F00E942A2D0A
:1049000084E50E94FD2CB8017727072E000C880B48
:10491000990B0E942B3680E20E94FD2C89EC91E0DD
:104920000E94042D02C00E94CAA70E9468B3FBAD7A
:10493000F093DC021DC60E9463580E943BAC81E0EC
:104940008093B5020E94FCAF88E50E94492B182F86
:1049500089E50E94492B082F8AE50E94492B1013F4
:104960003FC1181711F0312E3CC13324339411E0AC
:10497000B1E0BCAB80E1E8EBF2E0A8ECB2E0019082
:104980000D928A95E1F78091B70282FF3DC082E5E2
:104990000E94922B882361F00E94162B6B017C01F0
:1049A00020E030E0A9010E94D6D7811107C02CC0B9
:1049B000C12CD12CF0EAEF2EF0E4FF2E111103C030
:1049C000332009F4F9C0C092D002D092D102E09213
:1049D000D202F092D302A70196016091C0027091B9
:1049E000C1028091C2029091C3020E94D6D787FF74
:1049F0000BC019821A821B821C82BE016F5F7F4F1F
:104A000080ED92E00E9419AD112309F4D0C033204B
:104A100009F4CAC01092BC021092BD021092BE02EC
:104A20001092BF021092B8021092B9021092BA020C
:104A30001092BB020E9454ADE2EAF6E0249129AF45
:104A4000E6E9F6E0C590D590E590F490EAE9F6E065
:104A500085909590A590B490A5019401C701B601E9
:104A60000E947ADE18162CF4A7019601C501B40144
:104A700004C0A5019401C701B6010E9414DD2B01F9
:104A80003C01EEE8F6E085919591A591B4918CA753
:104A90009DA7AEA7BFA7EAE8F6E02591359145911D
:104AA000549128AB39AB4AAB5BABBC01CD010E9442
:104AB0007ADE181634F428A839A938AF0AA91BA938
:104AC00005C02CA44DA548AF0EA51FA5A3019201BA
:104AD000C301B2010E943CD820E030E040E85FE32F
:104AE0000E941ADC0E94C8DE222D38ADA8010E9467
:104AF0003CD869837A838B839C83E3EAF6E0149144
:104B00004090C0025090C1026090C2027090C302F7
:104B100020E030E040EC5FE3C501B4010E943CD8E6
:104B20004B015C01612F110F770B880B990B0E94D1
:104B3000DDD79B01AC01C501B4010E943CD84B01FB
:104B40005C0120E030E040EC5FE3C701B6010E9469
:104B50003CD86B017C0159AD652F550F770B880B45
:104B6000990B0E94DDD79B01AC01C701B6010E94E1
:104B70003CD8DE0111966D0183017201A5019401FB
:104B80000E945AAC0E94E06D1092BC021092BD02CD
:104B90001092BE021092BF021092B8021092B90297
:104BA0001092BA021092BB0280E00E9496AD3320B0
:104BB00019F081E00E9496ADBCA9BB2319F082E0F8
:104BC0000E9496AD0E9454AD8091B6028093B502CA
:104BD0000E9422AC83E0809349010E94C5AEA5CE1D
:104BE000302E8CABC7CE26EE3FEF4FE152E4C3012F
:104BF000B2010E947ADE87FD98CE27E030E04CE4D7
:104C000053E4C301B2010E94D6D718160CF48DCE1E
:104C10002CEC3FEF4FE951E4C501B4010E947ADE6C
:104C200087FD83CE27E030E04CE453E4C501B401B6
:104C30000E94D6D718160CF478CE0E943BAC61E0E7
:104C400085E40E94492C382EE090C002F090C10209
:104C50000091C2021091C3022091210130912201E2
:104C600040912301509124012CAB3DAB4EAB5FAB87
:104C700085E595E5A5E0B3E48093210190932201B9
:104C8000A0932301B093240119821A821B821C82F3
:104C9000AE014F5F5F4F6A012CA53DA54EA55FA5F4
:104CA00068A979A98AA99BA90E945AAC81E00E94AF
:104CB000E656811150C48091B70282FF13C0209143
:104CC000B1023091B2024091B3025091B40260E05F
:104CD00070E080E090EC0E9419DC6CA77DA78EA7A5
:104CE0009FA708C080E090E0A0E2B1EC8CA79DA750
:104CF000AEA7BFA7C090B102D090B202E090B302BD
:104D0000F090B40220E030E0A901C701B6010E9492
:104D1000D6D787FF0BC0A701960160E070E080E75F
:104D200091E40E9419DC6B017C0106C0C12CD12CDE
:104D3000E0E7EE2EE1E4FE2EA70196016091C002AD
:104D40007091C1028091C2029091C3020E947ADEEA
:104D500018160CF04CC0CCA2DDA2EEA2FFA2C12C12
:104D6000D12C70ECE72E70E4F72EC8A2D9A2EAA2EB
:104D7000FBA2BE01605E7F4FCE0184960E9419ADFA
:104D80001091A4021092A4020E9438AD8091A0025A
:104D90009091A102A091A202B091A3028093C002BF
:104DA0009093C102A093C202B093C3020E9454AD7B
:104DB00012FF1DC0C982DA82EB82FC8220E030E063
:104DC00040EA50E46091C0027091C1028091C20239
:104DD0009091C3020E941ADC6C8F7D8F8E8F9F8F03
:104DE000BE016F5F7F4FCE014C960E9419AD2CA57E
:104DF0003DA54EA55FA52C8F3D8F4E8F5F8F80E028
:104E000090E0A0E4B0E489839A83AB83BC83BE01C5
:104E10006F5F7F4FCE014C960E9419AD1091A40296
:104E20001092A4020E9438AD8091A0029091A1023C
:104E3000A091A202B091A3028093C0029093C102FC
:104E4000A093C202B093C3020E9454AD12FF09C0E6
:104E50006091C0027091C1028091C2029091C30220
:104E600004C060E070E080EC9FE72091B1023091D7
:104E7000B2024091B3025091B4020E941ADC6B015D
:104E80007C0131E0331205C080E00E94E6568111BA
:104E900062C38CA99DA9AEA9BFA98093210190935B
:104EA0002201A0932301B0932401A7019601C70119
:104EB000B6010E940CDF882379F080E00E94E6565C
:104EC00060E089E696E00E94184D0E94262D89E553
:104ED00096E00E94042D48C020E030E0A901C30103
:104EE000B2010E94D6D787FD31C367E177EB81E538
:104EF00098E3A30192010E941ADCAB01BC0182E895
:104F000096E00E94F23620E030E0A901C501B4012C
:104F10000E94D6D787FF10C367E177EB81E598EB56
:104F2000A50194010E941ADCAB01BC018DE796E05B
:104F30000E94F23620E030E0A901C701B6010E94CC
:104F4000D6D787FFFEC267E177EB81E598EBA70133
:104F500096010E941ADCAB01BC0188E796E00E9432
:104F6000F2368AE00E94FD2C0E9422AC0E94C5AE5F
:104F7000DCCC11110C94181B0C94111B0E94E82D11
:104F80000C943A1B0E94E22AAB01BC0140931E1113
:104F900050931F1160932011709321118CE09FE0BA
:104FA0000E94A93AC2CC61E0802F0E94A46D6F2DAF
:104FB000802F0E94756D6F2D70E0802F0E94DA4D5A
:104FC00024E0E212B2CCF092C906AFCC0E94162BBC
:104FD0000E9486DD633771050CF0A2C170936D02EB
:104FE00060936C020E94947E0E94162B20E030E0B9
:104FF00040EA50E40E947ADE181614F40E943B4600
:1050000060916C0270916D02072E000C880B990B59
:105010000E94DDD7209168023091690240916A02B6
:1050200050916B020E947ADE18161CF485E395E01D
:1050300002C086E295E060E00E94184D81E0809316
:105040001F0118AA19AA1AAA1BAA21961CAE1DAEE6
:105050001EAE1FAE21971CA623961FAE2397ACE36E
:105060002496AFAF2497BCE12596BFAF2597E6E421
:105070002696EFAF2697C12CD12C80E8E82E9FEB27
:10508000F92EF1E02296FFAF2297812C912C54014A
:1050900060916C0270916D02072E000C880B990BC9
:1050A0000E94DDD7162F072F782E692E9601A701B3
:1050B0000E94D6D7882321F120916802309169029D
:1050C00040916A0250916B028CAD612F702F81115B
:1050D00009C0872D962D0E94D6D7881F8827881F44
:1050E0008CA714C0872D962D0E94D6D787FF0DC0A0
:1050F00080911F01882309F418CC0E94664D15CCBD
:105100001C2D0D2D7E2C6F2C01C01CA60E94864EDE
:105110006B017C01DC01CB0121962CAD3DAD4EAD88
:105120005FAD2197821B930BA40BB50BB7FD35C068
:10513000D701C60188519C4FAF4FBF4F21968CAF0E
:105140009DAFAEAFBFAF219780E00E94D07F82E2DB
:1051500095E00E94042D81149104A104B104B9F0DA
:10516000D501C401805F984DAF4FBF4FBC01CD0149
:105170006C197D098E099F0928EE33E040E050E06C
:105180000E94DDDBCA01B9010E942B3603C08FE308
:105190000E94FD2C8AE00E94FD2C0E94E82D0E94B6
:1051A000864E6093600270936102809362029093D6
:1051B0006302909168029CABA0916902A8AFB09184
:1051C0006A02B9AFE0916B02EAAF292F3A2F4B2F59
:1051D0005E2F612F702F872D962D0E9419DC1B01E9
:1051E0002C0120E030E0A9010E947ADE87FF04C094
:1051F00057FA509457F8509481149104A104B104C3
:10520000C1F420E030E040E85FE3C201B1010E9458
:10521000D6D787FF1AC02296FFAD229746015701C5
:10522000FF2399F020E1820E27E2921EA11CB11CFF
:105230000CC020E030E040E450E4C201B1010E9423
:105240007ADE181614F4460157013CA5332309F4FD
:1052500048C088A999A9AAA9BBA9892B8A2B8B2BFD
:1052600061F0D701C60128A939A94AA95BA9821B07
:10527000930BA40BB50BB7FD34C02CA938AD49ADC9
:105280005AAD23966FAD239724967FAD249725962C
:105290008FAD259726969FAD26970E9419DC20E0BA
:1052A00030E040EC5FE30E94D6D787FD21CFD701E5
:1052B000C601805A9541AF4FBF4F88AB99ABAAAB9F
:1052C000BBAB9CA923969FAF2397A8AD2496AFAF05
:1052D0002497B9AD2596BFAF2597EAAD2696EFAFD7
:1052E000269780911F01882309F402CF811491042D
:1052F000A104B10441F422961FAE2297C12ED02EF4
:10530000E72CF62CC5CEF0E1CF1AF7E2DF0AE10870
:10531000F108C818D908EA08FB08F7FCECCFE8CE7A
:1053200063E770E05BCE0E94635888E50E94492BDA
:10533000882331F05E9A8091B7028E7F8093B70206
:1053400089E50E94492B882331F05E9A8091B7024B
:105350008D7F8093B7028AE50E94492B882309F448
:10536000E4CA159A8091B7028B7F8093B702DDCA99
:1053700083E50E94922B882391F00E94162B609364
:10538000D90B7093DA0B8093DB0B9093DC0B60935B
:10539000E10B7093E20B8093E30B9093E40B80E5B9
:1053A0000E94922B882351F00E94162B6093D90BF8
:1053B0007093DA0B8093DB0B9093DC0B82E50E94F9
:1053C000922B882351F00E94162B6093DD0B709373
:1053D000DE0B8093DF0B9093E00B84E50E94922B11
:1053E000882309F4A2CA0E94162B6093E10B7093E4
:1053F000E20B8093E30B9093E40B97CA4091D90B97
:105400005091DA0B6091DB0B7091DC0B8EEE92E029
:105410000E94F2364091DD0B5091DE0B6091DF0B64
:105420007091E00B8BEE92E00E94F2364091E10B1E
:105430005091E20B6091E30B7091E40B88EE92E0E7
:105440000E94F2368AE00E94FD2C6FCA82E40E941C
:10545000492B882351F00E94D22A6093B50B709398
:10546000B60B8093B70B9093B80B83E50E94492B42
:10547000882351F00E94162B6093E50B7093E60B86
:105480008093E70B9093E80B84E50E94492B8823D7
:1054900051F00E94162B6093E90B7093EA0B8093F6
:1054A000EB0B9093EC0B88E50E94492B882351F07D
:1054B0000E94162B6093A1067093A2068093A30608
:1054C0009093A40689E50E94492B882351F00E94FD
:1054D000162B6093A5067093A6068093A70690935B
:1054E000A8068AE50E94492B882351F00E94162BBA
:1054F0006093A9067093AA068093AB069093AC06BE
:1055000085E40E94492B882309F40FCA0E94162BB8
:105510006093AD067093AE068093AF069093B0068D
:1055200004CAF7FAF094F7F8F094D101CD92DD9225
:10553000ED92FC9213970DC967E177EB81E598E353
:10554000EFCC67E177EB81E598E301CD67E177EB9D
:1055500081E598EBCECC2CA93DA94EA95FA920935B
:105560002101309322014093230150932401A5CCC3
:10557000CB5BDF4F0FB6F894DEBF0FBECDBFDF9120
:10558000CF911F910F91FF90EF90DF90CF90BF9040
:10559000AF909F908F907F906F905F904F903F90D3
:1055A0002F9008958091ED029091EE02009731F0D6
:1055B0004AE050E060E070E00C9405D660E070E0F6
:1055C000CB0108958091ED029091EE02009731F0A9
:1055D0004AE050E060E070E00C94D7D460E070E006
:1055E000CB0108950E94E22A97FD0CC00E94E22A96
:1055F0006F3F71058105910509F034F40E94E22A9C
:10560000862F089580E008958FEF08958091ED0230
:105610009091EE02892B39F00E94F22A91E08111DB
:1056200003C090E001C091E0892F08950F931F936C
:10563000CF938091ED029091EE020097F1F0FC0182
:105640008F01C1912C2F2F7D89F0C53411F0C53603
:10565000B9F7F801108260E070E00E947BD3F80196
:10566000C083562F472F382F292F0BC060E070E0E2
:10567000CF911F910F910C947BD350E040E030E02C
:1056800020E0652F742F832F922FCF911F910F91C0
:10569000089581548A3108F042C0E82FF0E040912B
:1056A0004E0250914F02609150027091510204C01D
:1056B00076956795579547958A95D2F7842F81708F
:1056C00040FF2FC0E850F44F9081992309F1E091F9
:1056D0005A06F0915B06E90FF11D908120ED290F2C
:1056E0002A3098F09E3211F491810CC09D3211F055
:1056F0009B3271F4918120ED290F2A3030F09E32D7
:1057000039F4928190539A3018F42E2F9F2F02C0B3
:1057100020E090E02093ED029093EE02089580E067
:10572000089508950E94492B882341F081E020913B
:10573000ED023091EE02232B09F480E008959F9250
:10574000AF92BF92CF92DF92EF92FF920F931F938F
:10575000CF93DF938FE5A82E81E0B82E08EC12E0FE
:10576000C8EBD2E095EAC92E92E0D92E26E5E22ECA
:1057700022E0F22E912CF50181915F010E94922B83
:10578000882309F10E94162BF7012081211104C002
:105790002091D802222339F0288139814A815B8106
:1057A0000E941ADC0AC0F3E09F1639F0F60120814E
:1057B0003181428153810E9419DCF8016083718339
:1057C0008283938309C088819981AA81BB81F80172
:1057D00080839183A283B38393940C5F1F4F24969D
:1057E000F4E0CF0ED11C2FEFE21AF20A84E09812F7
:1057F000C2CF86E40E94922B8823C9F00E94162B08
:1058000020E030E0A9010E947ADE181684F40E949C
:10581000162B20E030E040E752E40E9414DD609354
:105820002101709322018093230190932401DF9141
:10583000CF911F910F91FF90EF90DF90CF90BF908D
:10584000AF909F900895CF93DF93D62FC72F0E94DC
:10585000922B882329F00E94E22A262F972F02C03C
:105860002D2F9C2F822FDF91CF910895CF93DF931F
:10587000D62FC72F0E94922B882329F00E94E22A5C
:10588000262F972F02C02D2F9C2F822FDF91CF9193
:105890000895CF93DF93C82FD62F0E94922B882391
:1058A00021F0DF91CF910C94062B8C2F0E94492B75
:1058B000811101C08D2FDF91CF910895CF92DF929A
:1058C000EF92FF926B017C0183E3C816D104E104DF
:1058D000F10470F082E3C81AD108E108F10862E32C
:1058E00070E080E090E00E944C4E0E94B184ECCFCA
:1058F000C701B6010E944C4EFF90EF90DF90CF9011
:105900000C94B184CF9380916F00C82FC27081FF37
:1059100005C080916F008D7F80936F008091840F10
:105920008093830F8093820F8093810F84E680930E
:10593000800F0E9455AB88EE93E09093A30B809369
:10594000A20BCC2329F080916F00826080936F00BE
:1059500081E08093F2050E9463580E9438AD8CE08C
:10596000E8E9F2E0A8EBB2E001900D928A95E1F748
:10597000CF910C9454AD1092C90610925A0208951A
:105980008F929F92AF92BF92CF92DF92EF92FF924F
:105990000F93CF93DF931F92CDB7DEB75C016B01FE
:1059A0007A014901F501808191810E94B7DB8983E9
:1059B000002311F0F6018083BE016F5F7F4FC401A9
:1059C0000E94C5B6F5018081918101969183808303
:1059D000FFEFCF1ADF0A81E0E81AF10819F780E03B
:1059E0000F90DF91CF910F91FF90EF90DF90CF90CC
:1059F000BF90AF909F908F9008959091C00095FFB9
:105A0000FCCF8093C6000895CF93DF93FC0184916F
:105A1000EF012196882321F00E94FD2CFE01F7CF93
:105A2000DF91CF9108950F931F93CF93DF938B0155
:105A30000E94042DE8018991882319F00E94FD2C11
:105A4000FACFDF91CF911F910F91089580EE97E0EB
:105A50000C94042D8AED97E00C94042DEC010E9427
:105A6000DA800E94262D8AEB97E00E94042D209771
:105A700011F4C1EBD7E00E941D8E61E0CE010E94BF
:105A8000184D0E94E7BDC091CC0FC695C695809178
:105A90000410811105C081E0809304100E946FB84A
:105AA0008091CD0F9091CE0F0E9448B8DC2FDD0F72
:105AB0001D2F1C0F83E00E94B47810920210C09337
:105AC00003108DE596E00E941A7A10920210D0938E
:105AD000031082EA97E00E94BF791092021010939F
